{"abi":[{"type":"constructor","inputs":[],"stateMutability":"nonpayable"},{"type":"function","name":"MAINTAINER_PERMISSION_ID","inputs":[],"outputs":[{"name":"","type":"bytes32","internalType":"bytes32"}],"stateMutability":"view"},{"type":"function","name":"ROOT_PERMISSION_ID","inputs":[],"outputs":[{"name":"","type":"bytes32","internalType":"bytes32"}],"stateMutability":"view"},{"type":"function","name":"UPGRADE_REPO_PERMISSION_ID","inputs":[],"outputs":[{"name":"","type":"bytes32","internalType":"bytes32"}],"stateMutability":"view"},{"type":"function","name":"applyMultiTargetPermissions","inputs":[{"name":"_items","type":"tuple[]","internalType":"struct PermissionLib.MultiTargetPermission[]","components":[{"name":"operation","type":"uint8","internalType":"enum PermissionLib.Operation"},{"name":"where","type":"address","internalType":"address"},{"name":"who","type":"address","internalType":"address"},{"name":"condition","type":"address","internalType":"address"},{"name":"permissionId","type":"bytes32","internalType":"bytes32"}]}],"outputs":[],"stateMutability":"nonpayable"},{"type":"function","name":"applySingleTargetPermissions","inputs":[{"name":"_where","type":"address","internalType":"address"},{"name":"items","type":"tuple[]","internalType":"struct PermissionLib.SingleTargetPermission[]","components":[{"name":"operation","type":"uint8","internalType":"enum PermissionLib.Operation"},{"name":"who","type":"address","internalType":"address"},{"name":"permissionId","type":"bytes32","internalType":"bytes32"}]}],"outputs":[],"stateMutability":"nonpayable"},{"type":"function","name":"buildCount","inputs":[{"name":"_release","type":"uint8","internalType":"uint8"}],"outputs":[{"name":"","type":"uint256","internalType":"uint256"}],"stateMutability":"view"},{"type":"function","name":"createVersion","inputs":[{"name":"_release","type":"uint8","internalType":"uint8"},{"name":"_pluginSetup","type":"address","internalType":"address"},{"name":"_buildMetadata","type":"bytes","internalType":"bytes"},{"name":"_releaseMetadata","type":"bytes","internalType":"bytes"}],"outputs":[],"stateMutability":"nonpayable"},{"type":"function","name":"getLatestVersion","inputs":[{"name":"_pluginSetup","type":"address","internalType":"address"}],"outputs":[{"name":"","type":"tuple","internalType":"struct PluginRepo.Version","components":[{"name":"tag","type":"tuple","internalType":"struct PluginRepo.Tag","components":[{"name":"release","type":"uint8","internalType":"uint8"},{"name":"build","type":"uint16","internalType":"uint16"}]},{"name":"pluginSetup","type":"address","internalType":"address"},{"name":"buildMetadata","type":"bytes","internalType":"bytes"}]}],"stateMutability":"view"},{"type":"function","name":"getLatestVersion","inputs":[{"name":"_release","type":"uint8","internalType":"uint8"}],"outputs":[{"name":"","type":"tuple","internalType":"struct PluginRepo.Version","components":[{"name":"tag","type":"tuple","internalType":"struct PluginRepo.Tag","components":[{"name":"release","type":"uint8","internalType":"uint8"},{"name":"build","type":"uint16","internalType":"uint16"}]},{"name":"pluginSetup","type":"address","internalType":"address"},{"name":"buildMetadata","type":"bytes","internalType":"bytes"}]}],"stateMutability":"view"},{"type":"function","name":"getVersion","inputs":[{"name":"_tagHash","type":"bytes32","internalType":"bytes32"}],"outputs":[{"name":"","type":"tuple","internalType":"struct PluginRepo.Version","components":[{"name":"tag","type":"tuple","internalType":"struct PluginRepo.Tag","components":[{"name":"release","type":"uint8","internalType":"uint8"},{"name":"build","type":"uint16","internalType":"uint16"}]},{"name":"pluginSetup","type":"address","internalType":"address"},{"name":"buildMetadata","type":"bytes","internalType":"bytes"}]}],"stateMutability":"view"},{"type":"function","name":"getVersion","inputs":[{"name":"_tag","type":"tuple","internalType":"struct PluginRepo.Tag","components":[{"name":"release","type":"uint8","internalType":"uint8"},{"name":"build","type":"uint16","internalType":"uint16"}]}],"outputs":[{"name":"","type":"tuple","internalType":"struct PluginRepo.Version","components":[{"name":"tag","type":"tuple","internalType":"struct PluginRepo.Tag","components":[{"name":"release","type":"uint8","internalType":"uint8"},{"name":"build","type":"uint16","internalType":"uint16"}]},{"name":"pluginSetup","type":"address","internalType":"address"},{"name":"buildMetadata","type":"bytes","internalType":"bytes"}]}],"stateMutability":"view"},{"type":"function","name":"grant","inputs":[{"name":"_where","type":"address","internalType":"address"},{"name":"_who","type":"address","internalType":"address"},{"name":"_permissionId","type":"bytes32","internalType":"bytes32"}],"outputs":[],"stateMutability":"nonpayable"},{"type":"function","name":"grantWithCondition","inputs":[{"name":"_where","type":"address","internalType":"address"},{"name":"_who","type":"address","internalType":"address"},{"name":"_permissionId","type":"bytes32","internalType":"bytes32"},{"name":"_condition","type":"address","internalType":"contract IPermissionCondition"}],"outputs":[],"stateMutability":"nonpayable"},{"type":"function","name":"initialize","inputs":[{"name":"initialOwner","type":"address","internalType":"address"}],"outputs":[],"stateMutability":"nonpayable"},{"type":"function","name":"isGranted","inputs":[{"name":"_where","type":"address","internalType":"address"},{"name":"_who","type":"address","internalType":"address"},{"name":"_permissionId","type":"bytes32","internalType":"bytes32"},{"name":"_data","type":"bytes","internalType":"bytes"}],"outputs":[{"name":"","type":"bool","internalType":"bool"}],"stateMutability":"view"},{"type":"function","name":"latestRelease","inputs":[],"outputs":[{"name":"","type":"uint8","internalType":"uint8"}],"stateMutability":"view"},{"type":"function","name":"proxiableUUID","inputs":[],"outputs":[{"name":"","type":"bytes32","internalType":"bytes32"}],"stateMutability":"view"},{"type":"function","name":"revoke","inputs":[{"name":"_where","type":"address","internalType":"address"},{"name":"_who","type":"address","internalType":"address"},{"name":"_permissionId","type":"bytes32","internalType":"bytes32"}],"outputs":[],"stateMutability":"nonpayable"},{"type":"function","name":"supportsInterface","inputs":[{"name":"_interfaceId","type":"bytes4","internalType":"bytes4"}],"outputs":[{"name":"","type":"bool","internalType":"bool"}],"stateMutability":"view"},{"type":"function","name":"updateReleaseMetadata","inputs":[{"name":"_release","type":"uint8","internalType":"uint8"},{"name":"_releaseMetadata","type":"bytes","internalType":"bytes"}],"outputs":[],"stateMutability":"nonpayable"},{"type":"function","name":"upgradeTo","inputs":[{"name":"newImplementation","type":"address","internalType":"address"}],"outputs":[],"stateMutability":"nonpayable"},{"type":"function","name":"upgradeToAndCall","inputs":[{"name":"newImplementation","type":"address","internalType":"address"},{"name":"data","type":"bytes","internalType":"bytes"}],"outputs":[],"stateMutability":"payable"},{"type":"event","name":"AdminChanged","inputs":[{"name":"previousAdmin","type":"address","indexed":false,"internalType":"address"},{"name":"newAdmin","type":"address","indexed":false,"internalType":"address"}],"anonymous":false},{"type":"event","name":"BeaconUpgraded","inputs":[{"name":"beacon","type":"address","indexed":true,"internalType":"address"}],"anonymous":false},{"type":"event","name":"Granted","inputs":[{"name":"permissionId","type":"bytes32","indexed":true,"internalType":"bytes32"},{"name":"here","type":"address","indexed":true,"internalType":"address"},{"name":"where","type":"address","indexed":false,"internalType":"address"},{"name":"who","type":"address","indexed":true,"internalType":"address"},{"name":"condition","type":"address","indexed":false,"internalType":"contract IPermissionCondition"}],"anonymous":false},{"type":"event","name":"Initialized","inputs":[{"name":"version","type":"uint8","indexed":false,"internalType":"uint8"}],"anonymous":false},{"type":"event","name":"ReleaseMetadataUpdated","inputs":[{"name":"release","type":"uint8","indexed":false,"internalType":"uint8"},{"name":"releaseMetadata","type":"bytes","indexed":false,"internalType":"bytes"}],"anonymous":false},{"type":"event","name":"Revoked","inputs":[{"name":"permissionId","type":"bytes32","indexed":true,"internalType":"bytes32"},{"name":"here","type":"address","indexed":true,"internalType":"address"},{"name":"where","type":"address","indexed":false,"internalType":"address"},{"name":"who","type":"address","indexed":true,"internalType":"address"}],"anonymous":false},{"type":"event","name":"Upgraded","inputs":[{"name":"implementation","type":"address","indexed":true,"internalType":"address"}],"anonymous":false},{"type":"event","name":"VersionCreated","inputs":[{"name":"release","type":"uint8","indexed":false,"internalType":"uint8"},{"name":"build","type":"uint16","indexed":false,"internalType":"uint16"},{"name":"pluginSetup","type":"address","indexed":true,"internalType":"address"},{"name":"buildMetadata","type":"bytes","indexed":false,"internalType":"bytes"}],"anonymous":false},{"type":"error","name":"AnyAddressDisallowedForWhoAndWhere","inputs":[]},{"type":"error","name":"ConditionNotPresentForAnyAddress","inputs":[]},{"type":"error","name":"EmptyReleaseMetadata","inputs":[]},{"type":"error","name":"InvalidPluginSetupInterface","inputs":[]},{"type":"error","name":"InvalidReleaseIncrement","inputs":[{"name":"latestRelease","type":"uint8","internalType":"uint8"},{"name":"newRelease","type":"uint8","internalType":"uint8"}]},{"type":"error","name":"PermissionAlreadyGrantedForDifferentCondition","inputs":[{"name":"where","type":"address","internalType":"address"},{"name":"who","type":"address","internalType":"address"},{"name":"permissionId","type":"bytes32","internalType":"bytes32"},{"name":"currentCondition","type":"address","internalType":"address"},{"name":"newCondition","type":"address","internalType":"address"}]},{"type":"error","name":"PermissionsForAnyAddressDisallowed","inputs":[]},{"type":"error","name":"PluginSetupAlreadyInPreviousRelease","inputs":[{"name":"release","type":"uint8","internalType":"uint8"},{"name":"build","type":"uint16","internalType":"uint16"},{"name":"pluginSetup","type":"address","internalType":"address"}]},{"type":"error","name":"ReleaseDoesNotExist","inputs":[]},{"type":"error","name":"ReleaseZeroNotAllowed","inputs":[]},{"type":"error","name":"Unauthorized","inputs":[{"name":"where","type":"address","internalType":"address"},{"name":"who","type":"address","internalType":"address"},{"name":"permissionId","type":"bytes32","internalType":"bytes32"}]},{"type":"error","name":"VersionHashDoesNotExist","inputs":[{"name":"versionHash","type":"bytes32","internalType":"bytes32"}]}],"bytecode":{"object":"0x60a0604052306080523480156200001557600080fd5b506200002062000026565b620000e7565b600054610100900460ff1615620000935760405162461bcd60e51b815260206004820152602760248201527f496e697469616c697a61626c653a20636f6e747261637420697320696e697469604482015266616c697a696e6760c81b606482015260840160405180910390fd5b60005460ff90811614620000e5576000805460ff191660ff9081179091556040519081527f7f26b83ff96e1f2b6a682f133852f6798a09c465da95921460cefb38474024989060200160405180910390a15b565b60805161259f6200011f6000396000818161067a015281816106c301528181610762015281816107a2015261085f015261259f6000f3fe6080604052600436106101355760003560e01c80639af3e909116100ab578063d68bad2c1161006f578063d68bad2c14610378578063d96054c414610398578063df1d6c44146103b8578063e0589bd3146103ec578063e978afe51461040c578063fc0544271461042c57600080fd5b80639af3e909146102c2578063afe5eb78146102e2578063c4d66de814610304578063c9dbc2a414610324578063cc98b8f51461034457600080fd5b80633659cfe6116100fd5780633659cfe6146102015780634f1ef2861461022157806350abe9101461023457806352d1902d146102615780637be0ca5e146102765780639aaf9f08146102a257600080fd5b806301ffc9a71461013a57806309e56b141461016f57806322844d041461019f5780632675fdd0146101c157806328375f67146101e1575b600080fd5b34801561014657600080fd5b5061015a610155366004611a9f565b61044c565b60405190151581526020015b60405180910390f35b34801561017b57600080fd5b5061019160008051602061254a83398151915281565b604051908152602001610166565b3480156101ab57600080fd5b506101bf6101ba366004611ade565b61049e565b005b3480156101cd57600080fd5b5061015a6101dc366004611c09565b61055c565b3480156101ed57600080fd5b506101bf6101fc366004611cd4565b6105a7565b34801561020d57600080fd5b506101bf61021c366004611d27565b610670565b6101bf61022f366004611d44565b610758565b34801561024057600080fd5b5061025461024f366004611d27565b610828565b6040516101669190611de4565b34801561026d57600080fd5b50610191610852565b34801561028257600080fd5b5060cc546102909060ff1681565b60405160ff9091168152602001610166565b3480156102ae57600080fd5b506102546102bd366004611e2f565b610905565b3480156102ce57600080fd5b506102546102dd366004611e48565b610a23565b3480156102ee57600080fd5b5061019160008051602061250383398151915281565b34801561031057600080fd5b506101bf61031f366004611d27565b610a45565b34801561033057600080fd5b506101bf61033f366004611e60565b610b9b565b34801561035057600080fd5b506101917f5aa4f06bdc18535eff05128093a2315c2c960a2722e20021cbff28da04760f5b81565b34801561038457600080fd5b506101bf610393366004611eb3565b610bbf565b3480156103a457600080fd5b506101bf6103b3366004611eb3565b610be8565b3480156103c457600080fd5b506101916103d3366004611ef4565b60ff16600090815260c9602052604090205461ffff1690565b3480156103f857600080fd5b50610254610407366004611ef4565b610c0b565b34801561041857600080fd5b506101bf610427366004611f0f565b610c55565b34801561043857600080fd5b506101bf610447366004611f84565b610d4a565b60006001600160e01b03198216630350c86d60e61b148061047d57506001600160e01b03198216632b96ad4d60e01b145b8061049857506301ffc9a760e01b6001600160e01b03198316145b92915050565b60008051602061254a8339815191526104b6816110a8565b60005b828110156105555760008484838181106104d5576104d5612017565b9050606002018036038101906104eb919061203c565b9050600081516002811115610502576105026120a5565b0361051f5761051a8682602001518360400151611117565b61054c565b600181516002811115610534576105346120a5565b0361054c5761054c8682602001518360400151611129565b506001016104b9565b5050505050565b600061056a858585856111bd565b806105835750610583856001600160a01b0385856111bd565b8061059c575061059c6001600160a01b038585856111bd565b90505b949350505050565b6000805160206125038339815191526105bf816110a8565b8360ff166000036105e357604051633b7a97fd60e11b815260040160405180910390fd5b60cc5460ff908116908516111561060d576040516311c6e3ab60e01b815260040160405180910390fd5b600082900361062f576040516388bc3fe760e01b815260040160405180910390fd5b7f8ff94c32efcef376eb02508cba5536e0634c1d6ad4b51ffa0f7306c78edaf5f7848484604051610662939291906120e4565b60405180910390a150505050565b6001600160a01b037f00000000000000000000000000000000000000000000000000000000000000001630036106c15760405162461bcd60e51b81526004016106b890612101565b60405180910390fd5b7f00000000000000000000000000000000000000000000000000000000000000006001600160a01b031661070a6000805160206124e3833981519152546001600160a01b031690565b6001600160a01b0316146107305760405162461bcd60e51b81526004016106b89061214d565b610739816112a5565b60408051600080825260208201909252610755918391906112cf565b50565b6001600160a01b037f00000000000000000000000000000000000000000000000000000000000000001630036107a05760405162461bcd60e51b81526004016106b890612101565b7f00000000000000000000000000000000000000000000000000000000000000006001600160a01b03166107e96000805160206124e3833981519152546001600160a01b031690565b6001600160a01b03161461080f5760405162461bcd60e51b81526004016106b89061214d565b610818826112a5565b610824828260016112cf565b5050565b610830611a6d565b6001600160a01b038216600090815260cb602052604090205461049890610905565b6000306001600160a01b037f000000000000000000000000000000000000000000000000000000000000000016146108f25760405162461bcd60e51b815260206004820152603860248201527f555550535570677261646561626c653a206d757374206e6f742062652063616c60448201527f6c6564207468726f7567682064656c656761746563616c6c000000000000000060648201526084016106b8565b506000805160206124e383398151915290565b61090d611a6d565b600082815260ca602052604081208054909160ff909116900361094657604051638d0aeeb160e01b8152600481018490526024016106b8565b6040805160a081018252825460ff81166060830190815261010090910461ffff166080830152815260018301546001600160a01b0316602082015260028301805491928492908401919061099990612199565b80601f01602080910402602001604051908101604052809291908181526020018280546109c590612199565b8015610a125780601f106109e757610100808354040283529160200191610a12565b820191906000526020600020905b8154815290600101906020018083116109f557829003601f168201915b505050505081525050915050919050565b610a2b611a6d565b6104986102bd610a40368590038501856121cd565b61143a565b600054610100900460ff1615808015610a655750600054600160ff909116105b80610a7f5750303b158015610a7f575060005460ff166001145b610ae25760405162461bcd60e51b815260206004820152602e60248201527f496e697469616c697a61626c653a20636f6e747261637420697320616c72656160448201526d191e481a5b9a5d1a585b1a5e995960921b60648201526084016106b8565b6000805460ff191660011790558015610b05576000805461ff0019166101001790555b610b0e82611499565b610b273083600080516020612503833981519152611117565b610b5230837f5aa4f06bdc18535eff05128093a2315c2c960a2722e20021cbff28da04760f5b611117565b8015610824576000805461ff0019169055604051600181527f7f26b83ff96e1f2b6a682f133852f6798a09c465da95921460cefb38474024989060200160405180910390a15050565b60008051602061254a833981519152610bb3816110a8565b6105558585858561150d565b60008051602061254a833981519152610bd7816110a8565b610be2848484611117565b50505050565b60008051602061254a833981519152610c00816110a8565b610be2848484611129565b610c13611a6d565b60ff8216600081815260c9602090815260409182902054825180840190935292825261ffff909216918101829052610c4e906102bd9061143a565b9392505050565b60008051602061254a833981519152610c6d816110a8565b60005b82811015610be2576000848483818110610c8c57610c8c612017565b905060a00201803603810190610ca29190612231565b9050600081516002811115610cb957610cb96120a5565b03610cda57610cd5816020015182604001518360800151611117565b610d41565b600181516002811115610cef57610cef6120a5565b03610d0b57610cd5816020015182604001518360800151611129565b600281516002811115610d2057610d206120a5565b03610d4157610d41816020015182604001518360800151846060015161150d565b50600101610c70565b600080516020612503833981519152610d62816110a8565b610d7c6001600160a01b03871663099718b560e41b6116e0565b610d9957604051639d145ceb60e01b815260040160405180910390fd5b8660ff16600003610dbd57604051633b7a97fd60e11b815260040160405180910390fd5b60cc54600190610dd09060ff16896122d6565b60ff161115610e035760cc546040516353db7b7b60e01b815260ff918216600482015290881660248201526044016106b8565b60cc5460ff9081169088161115610e455760cc805460ff191660ff89161790556000829003610e45576040516388bc3fe760e01b815260040160405180910390fd5b6001600160a01b038616600090815260cb6020908152604080832054835260ca9091529020805460ff1615801590610e845750805460ff898116911614155b15610eca57805460405160016218326360e21b0319815260ff8216600482015261010090910461ffff1660248201526001600160a01b03881660448201526064016106b8565b60ff8816600090815260c96020526040812080548290610eed9061ffff166122ef565b91906101000a81548161ffff021916908361ffff16021790559050600060405180604001604052808b60ff1681526020018361ffff1681525090506000610f338261143a565b905060405180606001604052808381526020018b6001600160a01b031681526020018a8a8080601f016020809104026020016040519081016040528093929190818152602001838380828437600092018290525093909452505083815260ca60209081526040918290208451805182549184015161ffff166101000262ffffff1990921660ff90911617178155908401516001820180546001600160a01b039092166001600160a01b0319909216919091179055908301519091506002820190610ffd908261235e565b5050506001600160a01b038a16600081815260cb602052604090819020839055517feb4bce5025c5200f6a074dd28fe7754955dfdca0eb2dcbaa16ccc292655e666990611051908e9087908e908e9061241e565b60405180910390a2851561109b577f8ff94c32efcef376eb02508cba5536e0634c1d6ad4b51ffa0f7306c78edaf5f78b8888604051611092939291906120e4565b60405180910390a15b5050505050505050505050565b6110eb3033836000368080601f01602080910402602001604051908101604052809392919081815260200183838082843760009201919091525061055c92505050565b61075557604051631e09743f60e01b8152306004820152336024820152604481018290526064016106b8565b611124838383600261150d565b505050565b60006111368484846116fc565b6000818152609760205260409020549091506001600160a01b031615610be25760008181526097602090815260409182902080546001600160a01b031916905590516001600160a01b038681168252851691339185917f3ca48185ec3f6e47e24db18b13f1c65b1ce05da1659f9c1c4fe717dda5f67524910160405180910390a450505050565b600080609760006111cf8888886116fc565b81526020810191909152604001600020546001600160a01b03169050806111fa57600091505061059f565b6001196001600160a01b0382160161121657600191505061059f565b6040516302675fdd60e41b81526001600160a01b03821690632675fdd090611248908990899089908990600401612445565b602060405180830381865afa925050508015611281575060408051601f3d908101601f1916820190925261127e91810190612478565b60015b156112995780156112975760019250505061059f565b505b50600095945050505050565b7f5aa4f06bdc18535eff05128093a2315c2c960a2722e20021cbff28da04760f5b610824816110a8565b7f4910fdfa16fed3260ed0e7147f7cc6da11a60208b5b9406d12a635614ffd91435460ff16156113025761112483611761565b826001600160a01b03166352d1902d6040518163ffffffff1660e01b8152600401602060405180830381865afa92505050801561135c575060408051601f3d908101601f191682019092526113599181019061249a565b60015b6113bf5760405162461bcd60e51b815260206004820152602e60248201527f45524331393637557067726164653a206e657720696d706c656d656e7461746960448201526d6f6e206973206e6f74205555505360901b60648201526084016106b8565b6000805160206124e3833981519152811461142e5760405162461bcd60e51b815260206004820152602960248201527f45524331393637557067726164653a20756e737570706f727465642070726f786044820152681a58589b195555525160ba1b60648201526084016106b8565b506111248383836117fd565b60008160000151826020015160405160200161147c92919060f89290921b6001600160f81b031916825260f01b6001600160f01b031916600182015260030190565b604051602081830303815290604052805190602001209050919050565b600054610100900460ff166115045760405162461bcd60e51b815260206004820152602b60248201527f496e697469616c697a61626c653a20636f6e7472616374206973206e6f74206960448201526a6e697469616c697a696e6760a81b60648201526084016106b8565b61075581611822565b6001600160a01b0384811614801561152d57506001600160a01b03838116145b1561154b576040516385f1ba9960e01b815260040160405180910390fd5b6001600160a01b03848116148061156a57506001600160a01b03838116145b156115d557600060008051602061254a83398151915283148061158a5750805b156115a8576040516324159e5b60e01b815260040160405180910390fd5b6001196001600160a01b038316016115d3576040516324aadf4360e21b815260040160405180910390fd5b505b60006115e28585856116fc565b6000818152609760205260409020549091506001600160a01b0316828161167b5760008381526097602090815260409182902080546001600160a01b0319166001600160a01b038581169190911790915582518a8216815287821692810192909252881691339188917f0f579ad49235a8c1fd9041427e7067b1eb10926bbed380bf6fabc73e0e807644910160405180910390a46116d7565b806001600160a01b0316826001600160a01b0316146116d7576040516305cc3c4f60e11b81526001600160a01b03808916600483015280881660248301526044820187905280841660648301528216608482015260a4016106b8565b50505050505050565b60006116eb8361183b565b8015610c4e5750610c4e838361186e565b604051692822a926a4a9a9a4a7a760b11b60208201526bffffffffffffffffffffffff19606084811b8216602a84015285901b16603e820152605281018290526000906072016040516020818303038152906040528051906020012090509392505050565b6001600160a01b0381163b6117ce5760405162461bcd60e51b815260206004820152602d60248201527f455243313936373a206e657720696d706c656d656e746174696f6e206973206e60448201526c1bdd08184818dbdb9d1c9858dd609a1b60648201526084016106b8565b6000805160206124e383398151915280546001600160a01b0319166001600160a01b0392909216919091179055565b611806836118f7565b6000825111806118135750805b1561112457610be28383611937565b610755308260008051602061254a833981519152611117565b600061184e826301ffc9a760e01b61186e565b80156104985750611867826001600160e01b031961186e565b1592915050565b604080516001600160e01b03198316602480830191909152825180830390910181526044909101909152602080820180516001600160e01b03166301ffc9a760e01b178152825160009392849283928392918391908a617530fa92503d915060005190508280156118e0575060208210155b80156118ec5750600081115b979650505050505050565b61190081611761565b6040516001600160a01b038216907fbc7cd75a20ee27fd9adebab32041f755214dbc6bffa90cc0225b39da2e5c2d3b90600090a250565b6060610c4e8383604051806060016040528060278152602001612523602791396060600080856001600160a01b03168560405161197491906124b3565b600060405180830381855af49150503d80600081146119af576040519150601f19603f3d011682016040523d82523d6000602084013e6119b4565b606091505b50915091506119c5868383876119cf565b9695505050505050565b60608315611a3e578251600003611a37576001600160a01b0385163b611a375760405162461bcd60e51b815260206004820152601d60248201527f416464726573733a2063616c6c20746f206e6f6e2d636f6e747261637400000060448201526064016106b8565b508161059f565b61059f8383815115611a535781518083602001fd5b8060405162461bcd60e51b81526004016106b891906124cf565b6040805160a0810190915260006060820181815260808301919091528190815260006020820152606060409091015290565b600060208284031215611ab157600080fd5b81356001600160e01b031981168114610c4e57600080fd5b6001600160a01b038116811461075557600080fd5b600080600060408486031215611af357600080fd5b8335611afe81611ac9565b9250602084013567ffffffffffffffff80821115611b1b57600080fd5b818601915086601f830112611b2f57600080fd5b813581811115611b3e57600080fd5b876020606083028501011115611b5357600080fd5b6020830194508093505050509250925092565b634e487b7160e01b600052604160045260246000fd5b600082601f830112611b8d57600080fd5b813567ffffffffffffffff80821115611ba857611ba8611b66565b604051601f8301601f19908116603f01168101908282118183101715611bd057611bd0611b66565b81604052838152866020858801011115611be957600080fd5b836020870160208301376000602085830101528094505050505092915050565b60008060008060808587031215611c1f57600080fd5b8435611c2a81611ac9565b93506020850135611c3a81611ac9565b925060408501359150606085013567ffffffffffffffff811115611c5d57600080fd5b611c6987828801611b7c565b91505092959194509250565b803560ff81168114611c8657600080fd5b919050565b60008083601f840112611c9d57600080fd5b50813567ffffffffffffffff811115611cb557600080fd5b602083019150836020828501011115611ccd57600080fd5b9250929050565b600080600060408486031215611ce957600080fd5b611cf284611c75565b9250602084013567ffffffffffffffff811115611d0e57600080fd5b611d1a86828701611c8b565b9497909650939450505050565b600060208284031215611d3957600080fd5b8135610c4e81611ac9565b60008060408385031215611d5757600080fd5b8235611d6281611ac9565b9150602083013567ffffffffffffffff811115611d7e57600080fd5b611d8a85828601611b7c565b9150509250929050565b60005b83811015611daf578181015183820152602001611d97565b50506000910152565b60008151808452611dd0816020860160208601611d94565b601f01601f19169290920160200192915050565b60208082528251805160ff168383015281015161ffff16604080840191909152908301516001600160a01b0316606083015282015160808083015260009061059f60a0840182611db8565b600060208284031215611e4157600080fd5b5035919050565b600060408284031215611e5a57600080fd5b50919050565b60008060008060808587031215611e7657600080fd5b8435611e8181611ac9565b93506020850135611e9181611ac9565b9250604085013591506060850135611ea881611ac9565b939692955090935050565b600080600060608486031215611ec857600080fd5b8335611ed381611ac9565b92506020840135611ee381611ac9565b929592945050506040919091013590565b600060208284031215611f0657600080fd5b610c4e82611c75565b60008060208385031215611f2257600080fd5b823567ffffffffffffffff80821115611f3a57600080fd5b818501915085601f830112611f4e57600080fd5b813581811115611f5d57600080fd5b86602060a083028501011115611f7257600080fd5b60209290920196919550909350505050565b60008060008060008060808789031215611f9d57600080fd5b611fa687611c75565b95506020870135611fb681611ac9565b9450604087013567ffffffffffffffff80821115611fd357600080fd5b611fdf8a838b01611c8b565b90965094506060890135915080821115611ff857600080fd5b5061200589828a01611c8b565b979a9699509497509295939492505050565b634e487b7160e01b600052603260045260246000fd5b803560038110611c8657600080fd5b60006060828403121561204e57600080fd5b6040516060810181811067ffffffffffffffff8211171561207157612071611b66565b60405261207d8361202d565b8152602083013561208d81611ac9565b60208201526040928301359281019290925250919050565b634e487b7160e01b600052602160045260246000fd5b81835281816020850137506000828201602090810191909152601f909101601f19169091010190565b60ff8416815260406020820152600061059c6040830184866120bb565b6020808252602c908201527f46756e6374696f6e206d7573742062652063616c6c6564207468726f7567682060408201526b19195b1959d85d1958d85b1b60a21b606082015260800190565b6020808252602c908201527f46756e6374696f6e206d7573742062652063616c6c6564207468726f7567682060408201526b6163746976652070726f787960a01b606082015260800190565b600181811c908216806121ad57607f821691505b602082108103611e5a57634e487b7160e01b600052602260045260246000fd5b6000604082840312156121df57600080fd5b6040516040810181811067ffffffffffffffff8211171561220257612202611b66565b60405261220e83611c75565b8152602083013561ffff8116811461222557600080fd5b60208201529392505050565b600060a0828403121561224357600080fd5b60405160a0810181811067ffffffffffffffff8211171561226657612266611b66565b6040526122728361202d565b8152602083013561228281611ac9565b6020820152604083013561229581611ac9565b604082015260608301356122a881611ac9565b60608201526080928301359281019290925250919050565b634e487b7160e01b600052601160045260246000fd5b60ff8281168282160390811115610498576104986122c0565b600061ffff808316818103612306576123066122c0565b6001019392505050565b601f82111561112457600081815260208120601f850160051c810160208610156123375750805b601f850160051c820191505b8181101561235657828155600101612343565b505050505050565b815167ffffffffffffffff81111561237857612378611b66565b61238c816123868454612199565b84612310565b602080601f8311600181146123c157600084156123a95750858301515b600019600386901b1c1916600185901b178555612356565b600085815260208120601f198616915b828110156123f0578886015182559484019460019091019084016123d1565b508582101561240e5787850151600019600388901b60f8161c191681555b5050505050600190811b01905550565b60ff8516815261ffff841660208201526060604082015260006119c56060830184866120bb565b6001600160a01b03858116825284166020820152604081018390526080606082018190526000906119c590830184611db8565b60006020828403121561248a57600080fd5b81518015158114610c4e57600080fd5b6000602082840312156124ac57600080fd5b5051919050565b600082516124c5818460208701611d94565b9190910192915050565b602081526000610c4e6020830184611db856fe360894a13ba1a3210667c828492db98dca3e2076cc3735a920a3ca505d382bbca0885006fe6672eeafd1deca6c67bcdc6dd79cfe2b157a98539ddf73cd8c04ea416464726573733a206c6f772d6c6576656c2064656c65676174652063616c6c206661696c6564815fe80e4b37c8582a3b773d1d7071f983eacfd56b5965db654f3087c25ada33a26469706673582212207ac447a0b74bac4ed0a899ea45312eee0c35d59bf111dbe2a394f8bb581fe06664736f6c63430008110033","linkReferences":{}},"methodIdentifiers":{"MAINTAINER_PERMISSION_ID()":"afe5eb78","ROOT_PERMISSION_ID()":"09e56b14","UPGRADE_REPO_PERMISSION_ID()":"cc98b8f5","applyMultiTargetPermissions((uint8,address,address,address,bytes32)[])":"e978afe5","applySingleTargetPermissions(address,(uint8,address,bytes32)[])":"22844d04","buildCount(uint8)":"df1d6c44","createVersion(uint8,address,bytes,bytes)":"fc054427","getLatestVersion(address)":"50abe910","getLatestVersion(uint8)":"e0589bd3","getVersion((uint8,uint16))":"9af3e909","getVersion(bytes32)":"9aaf9f08","grant(address,address,bytes32)":"d68bad2c","grantWithCondition(address,address,bytes32,address)":"c9dbc2a4","initialize(address)":"c4d66de8","isGranted(address,address,bytes32,bytes)":"2675fdd0","latestRelease()":"7be0ca5e","proxiableUUID()":"52d1902d","revoke(address,address,bytes32)":"d96054c4","supportsInterface(bytes4)":"01ffc9a7","updateReleaseMetadata(uint8,bytes)":"28375f67","upgradeTo(address)":"3659cfe6","upgradeToAndCall(address,bytes)":"4f1ef286"},"id":34}