{"abi":[{"type":"constructor","inputs":[{"name":"_registry","type":"address","internalType":"contract DAORegistry"},{"name":"_pluginSetupProcessor","type":"address","internalType":"contract PluginSetupProcessor"}],"stateMutability":"nonpayable"},{"type":"function","name":"createDao","inputs":[{"name":"_daoSettings","type":"tuple","internalType":"struct DAOFactory.DAOSettings","components":[{"name":"trustedForwarder","type":"address","internalType":"address"},{"name":"daoURI","type":"string","internalType":"string"},{"name":"subdomain","type":"string","internalType":"string"},{"name":"metadata","type":"bytes","internalType":"bytes"}]},{"name":"_pluginSettings","type":"tuple[]","internalType":"struct DAOFactory.PluginSettings[]","components":[{"name":"pluginSetupRef","type":"tuple","internalType":"struct PluginSetupRef","components":[{"name":"versionTag","type":"tuple","internalType":"struct PluginRepo.Tag","components":[{"name":"release","type":"uint8","internalType":"uint8"},{"name":"build","type":"uint16","internalType":"uint16"}]},{"name":"pluginSetupRepo","type":"address","internalType":"contract PluginRepo"}]},{"name":"data","type":"bytes","internalType":"bytes"}]}],"outputs":[{"name":"createdDao","type":"address","internalType":"contract DAO"},{"name":"installedPlugins","type":"tuple[]","internalType":"struct DAOFactory.InstalledPlugin[]","components":[{"name":"plugin","type":"address","internalType":"address"},{"name":"preparedSetupData","type":"tuple","internalType":"struct IPluginSetup.PreparedSetupData","components":[{"name":"helpers","type":"address[]","internalType":"address[]"},{"name":"permissions","type":"tuple[]","internalType":"struct PermissionLib.MultiTargetPermission[]","components":[{"name":"operation","type":"uint8","internalType":"enum PermissionLib.Operation"},{"name":"where","type":"address","internalType":"address"},{"name":"who","type":"address","internalType":"address"},{"name":"condition","type":"address","internalType":"address"},{"name":"permissionId","type":"bytes32","internalType":"bytes32"}]}]}]}],"stateMutability":"nonpayable"},{"type":"function","name":"daoBase","inputs":[],"outputs":[{"name":"","type":"address","internalType":"address"}],"stateMutability":"view"},{"type":"function","name":"daoRegistry","inputs":[],"outputs":[{"name":"","type":"address","internalType":"contract DAORegistry"}],"stateMutability":"view"},{"type":"function","name":"pluginSetupProcessor","inputs":[],"outputs":[{"name":"","type":"address","internalType":"contract PluginSetupProcessor"}],"stateMutability":"view"},{"type":"function","name":"protocolVersion","inputs":[],"outputs":[{"name":"","type":"uint8[3]","internalType":"uint8[3]"}],"stateMutability":"pure"},{"type":"function","name":"supportsInterface","inputs":[{"name":"_interfaceId","type":"bytes4","internalType":"bytes4"}],"outputs":[{"name":"","type":"bool","internalType":"bool"}],"stateMutability":"view"},{"type":"error","name":"NoPluginProvided","inputs":[]}],"bytecode":{"object":"0x6101c06040523480156200001257600080fd5b5060405162005954380380620059548339810160408190526200003591620003bc565b6001600160a01b0380831660a052811660c052604051600090620000599062000395565b604051809103906000f08015801562000076573d6000803e3d6000fd5b509050806001600160a01b03166080816001600160a01b031681525050806001600160a01b03166309e56b146040518163ffffffff1660e01b8152600401602060405180830381865afa158015620000d2573d6000803e3d6000fd5b505050506040513d601f19601f82011682018060405250810190620000f89190620003fb565b60e08181525050806001600160a01b03166324b4d73f6040518163ffffffff1660e01b8152600401602060405180830381865afa1580156200013e573d6000803e3d6000fd5b505050506040513d601f19601f82011682018060405250810190620001649190620003fb565b6101008181525050806001600160a01b031663829331a16040518163ffffffff1660e01b8152600401602060405180830381865afa158015620001ab573d6000803e3d6000fd5b505050506040513d601f19601f82011682018060405250810190620001d19190620003fb565b6101208181525050806001600160a01b031663e306bee76040518163ffffffff1660e01b8152600401602060405180830381865afa15801562000218573d6000803e3d6000fd5b505050506040513d601f19601f820116820180604052508101906200023e9190620003fb565b6101408181525050806001600160a01b03166326875b1f6040518163ffffffff1660e01b8152600401602060405180830381865afa15801562000285573d6000803e3d6000fd5b505050506040513d601f19601f82011682018060405250810190620002ab9190620003fb565b6101608181525050806001600160a01b0316630729d0546040518163ffffffff1660e01b8152600401602060405180830381865afa158015620002f2573d6000803e3d6000fd5b505050506040513d601f19601f82011682018060405250810190620003189190620003fb565b610180818152505060c0516001600160a01b031663747e5ec16040518163ffffffff1660e01b8152600401602060405180830381865afa15801562000361573d6000803e3d6000fd5b505050506040513d601f19601f82011682018060405250810190620003879190620003fb565b6101a0525062000415915050565b613620806200233483390190565b6001600160a01b0381168114620003b957600080fd5b50565b60008060408385031215620003d057600080fd5b8251620003dd81620003a3565b6020840151909250620003f081620003a3565b809150509250929050565b6000602082840312156200040e57600080fd5b5051919050565b60805160a05160c05160e05161010051610120516101405161016051610180516101a051611e66620004ce600039600081816103ad0152610772015260006107ff01526000610bd801526000610b7101526000610b0a01526000610aa3015260008181610327015281816106ec015281816108910152610a3c01526000818160fb015281816102eb0152818161041b015261057701526000818160a101526101ea01526000818161014a01526109760152611e666000f3fe60806040523480156200001157600080fd5b50600436106200006a5760003560e01c806301ffc9a7146200006f5780632a2b6ba0146200009b5780632ae9c60014620000dc578063a9445d9b14620000f5578063b5568838146200011d578063d9f8bd231462000144575b600080fd5b620000866200008036600462000d31565b6200016c565b60405190151581526020015b60405180910390f35b620000c37f000000000000000000000000000000000000000000000000000000000000000081565b6040516001600160a01b03909116815260200162000092565b620000e6620001a3565b60405162000092919062000d64565b620000c37f000000000000000000000000000000000000000000000000000000000000000081565b620001346200012e36600462000d9a565b620001cf565b6040516200009292919062000ee6565b620000c37f000000000000000000000000000000000000000000000000000000000000000081565b60006001600160e01b03198216621574e360e91b14806200019d57506301ffc9a760e01b6001600160e01b03198316145b92915050565b620001ad62000cc7565b5060408051606081018252600181526004602082015260009181019190915290565b60006060620001de85620008f7565b91506001600160a01b037f00000000000000000000000000000000000000000000000000000000000000001663ede4973983336200022060408a018a62000fca565b6040518563ffffffff1660e01b815260040162000241949392919062001044565b600060405180830381600087803b1580156200025c57600080fd5b505af115801562000271573d6000803e3d6000fd5b508492505084159050620007d6578367ffffffffffffffff8111156200029b576200029b6200107d565b604051908082528060200260200182016040528015620002d857816020015b620002c462000ce5565b815260200190600190039081620002ba5790505b506040516335a2eb4b60e21b81529092507f0000000000000000000000000000000000000000000000000000000000000000906001600160a01b0385169063d68bad2c906200035090859085907f00000000000000000000000000000000000000000000000000000000000000009060040162001093565b600060405180830381600087803b1580156200036b57600080fd5b505af115801562000380573d6000803e3d6000fd5b50506040516335a2eb4b60e21b81526001600160a01b038716925063d68bad2c9150620003d690849030907f00000000000000000000000000000000000000000000000000000000000000009060040162001093565b600060405180830381600087803b158015620003f157600080fd5b505af115801562000406573d6000803e3d6000fd5b5050505060005b85811015620006c2576000807f00000000000000000000000000000000000000000000000000000000000000006001600160a01b0316633c8c01d18660405180604001604052808d8d89818110620004695762000469620010b7565b90506020028101906200047d9190620010cd565b6200048f90368190038101906200118d565b81526020018d8d89818110620004a957620004a9620010b7565b9050602002810190620004bd9190620010cd565b620004cd90606081019062000fca565b8080601f01602080910402602001604051908101604052809392919081815260200183838082843760009201919091525050509152506040516001600160e01b031960e085901b1681526200052792919060040162001260565b6000604051808303816000875af115801562000547573d6000803e3d6000fd5b505050506040513d6000823e601f3d908101601f19168201604052620005719190810190620013de565b915091507f00000000000000000000000000000000000000000000000000000000000000006001600160a01b031663fe6c34748660405180608001604052808d8d89818110620005c557620005c5620010b7565b9050602002810190620005d99190620010cd565b620005eb90368190038101906200118d565b8152602001866001600160a01b03168152602001856020015181526020016200061886600001516200099d565b8152506040518363ffffffff1660e01b81526004016200063a929190620014f5565b600060405180830381600087803b1580156200065557600080fd5b505af11580156200066a573d6000803e3d6000fd5b505050506040518060400160405280836001600160a01b0316815260200182815250868481518110620006a157620006a1620010b7565b6020026020010181905250505080620006ba906200157b565b90506200040d565b50604051633658153160e21b81526001600160a01b0385169063d96054c4906200071590859085907f00000000000000000000000000000000000000000000000000000000000000009060040162001093565b600060405180830381600087803b1580156200073057600080fd5b505af115801562000745573d6000803e3d6000fd5b5050604051633658153160e21b81526001600160a01b038716925063d96054c491506200079b90849030907f00000000000000000000000000000000000000000000000000000000000000009060040162001093565b600060405180830381600087803b158015620007b657600080fd5b505af1158015620007cb573d6000803e3d6000fd5b50505050506200085d565b6040516335a2eb4b60e21b81526001600160a01b0384169063d68bad2c906200082890849033907f00000000000000000000000000000000000000000000000000000000000000009060040162001093565b600060405180830381600087803b1580156200084357600080fd5b505af115801562000858573d6000803e3d6000fd5b505050505b6200086881620009cf565b604051633658153160e21b81526001600160a01b0384169063d96054c490620008ba90849030907f00000000000000000000000000000000000000000000000000000000000000009060040162001093565b600060405180830381600087803b158015620008d557600080fd5b505af1158015620008ea573d6000803e3d6000fd5b5050505050935093915050565b60006200019d6200090c606084018462000fca565b306200091c6020870187620015a3565b6200092b602088018862000fca565b6040516024016200094296959493929190620015c3565b60408051601f198184030181529190526020810180516001600160e01b031663757dc58360e11b1790526001600160a01b037f0000000000000000000000000000000000000000000000000000000000000000169062000c83565b600081604051602001620009b2919062001612565b604051602081830303815290604052805190602001209050919050565b60408051600580825260c08201909252600091816020015b6040805160608101825260008082526020808301829052928201528252600019909201910181620009e75790505060408051606081019091529091508060008152602001836001600160a01b031681526020017f00000000000000000000000000000000000000000000000000000000000000008152508160008151811062000a745762000a74620010b7565b602090810291909101015260408051606081019091528060008152602001836001600160a01b031681526020017f00000000000000000000000000000000000000000000000000000000000000008152508160018151811062000adb5762000adb620010b7565b602090810291909101015260408051606081019091528060008152602001836001600160a01b031681526020017f00000000000000000000000000000000000000000000000000000000000000008152508160028151811062000b425762000b42620010b7565b602090810291909101015260408051606081019091528060008152602001836001600160a01b031681526020017f00000000000000000000000000000000000000000000000000000000000000008152508160038151811062000ba95762000ba9620010b7565b602090810291909101015260408051606081019091528060008152602001836001600160a01b031681526020017f00000000000000000000000000000000000000000000000000000000000000008152508160048151811062000c105762000c10620010b7565b60209081029190910101526040516308a1134160e21b81526001600160a01b038316906322844d049062000c4b908590859060040162001661565b600060405180830381600087803b15801562000c6657600080fd5b505af115801562000c7b573d6000803e3d6000fd5b505050505050565b6000828260405162000c959062000d23565b62000ca2929190620016db565b604051809103906000f08015801562000cbf573d6000803e3d6000fd5b509392505050565b60405180606001604052806003906020820280368337509192915050565b604051806040016040528060006001600160a01b0316815260200162000d1e604051806040016040528060608152602001606081525090565b905290565b610727806200170a83390190565b60006020828403121562000d4457600080fd5b81356001600160e01b03198116811462000d5d57600080fd5b9392505050565b60608101818360005b600381101562000d9157815160ff1683526020928301929091019060010162000d6d565b50505092915050565b60008060006040848603121562000db057600080fd5b833567ffffffffffffffff8082111562000dc957600080fd5b908501906080828803121562000dde57600080fd5b9093506020850135908082111562000df557600080fd5b818601915086601f83011262000e0a57600080fd5b81358181111562000e1a57600080fd5b8760208260051b850101111562000e3057600080fd5b6020830194508093505050509250925092565b6003811062000e6257634e487b7160e01b600052602160045260246000fd5b9052565b600081518084526020808501945080840160005b8381101562000edb57815162000e9288825162000e43565b838101516001600160a01b03908116898601526040808301518216908a0152606080830151909116908901526080908101519088015260a0909601959082019060010162000e7a565b509495945050505050565b6001600160a01b038381168252604060208084018290528451848301819052600093606092909183870190600581901b8801850189840188805b8481101562000fb8578b8403605f1901865282518051891685528701518785018b905280518b86018c905280516080870181905290890190849060a08801905b8083101562000f845783518d168252928b019260019290920191908b019062000f60565b50928a0151878403603f19018d8901529262000fa1818562000e66565b998b01999750505093880193505060010162000f20565b50919c9b505050505050505050505050565b6000808335601e1984360301811262000fe257600080fd5b83018035915067ffffffffffffffff82111562000ffe57600080fd5b6020019150368190038213156200101457600080fd5b9250929050565b81835281816020850137506000828201602090810191909152601f909101601f19169091010190565b6001600160a01b038581168252841660208201526060604082018190526000906200107390830184866200101b565b9695505050505050565b634e487b7160e01b600052604160045260246000fd5b6001600160a01b039384168152919092166020820152604081019190915260600190565b634e487b7160e01b600052603260045260246000fd5b60008235607e19833603018112620010e457600080fd5b9190910192915050565b6040805190810167ffffffffffffffff811182821017156200111457620011146200107d565b60405290565b60405160a0810167ffffffffffffffff811182821017156200111457620011146200107d565b604051601f8201601f1916810167ffffffffffffffff811182821017156200116c576200116c6200107d565b604052919050565b6001600160a01b03811681146200118a57600080fd5b50565b60008183036060811215620011a157600080fd5b620011ab620010ee565b6040821215620011ba57600080fd5b620011c4620010ee565b9150833560ff81168114620011d857600080fd5b8252602084013561ffff81168114620011f057600080fd5b6020830152908152604083013590620012098262001174565b60208101919091529392505050565b6000815180845260005b81811015620012405760208185018101518683018201520162001222565b506000602082860101526020601f19601f83011685010191505092915050565b6001600160a01b03831681526040602082018190528251620012a9918301908051805160ff16835260209081015161ffff168184015201516001600160a01b0316604090910152565b60006020830151608060a0840152620012c660c084018262001218565b95945050505050565b600067ffffffffffffffff821115620012ec57620012ec6200107d565b5060051b60200190565b600082601f8301126200130857600080fd5b81516020620013216200131b83620012cf565b62001140565b82815260a092830285018201928282019190878511156200134157600080fd5b8387015b85811015620013d15781818a0312156200135f5760008081fd5b620013696200111a565b8151600381106200137a5760008081fd5b8152818601516200138b8162001174565b81870152604082810151620013a08162001174565b90820152606082810151620013b58162001174565b9082015260808281015190820152845292840192810162001345565b5090979650505050505050565b60008060408385031215620013f257600080fd5b8251620013ff8162001174565b8092505060208084015167ffffffffffffffff808211156200142057600080fd5b90850190604082880312156200143557600080fd5b6200143f620010ee565b8251828111156200144f57600080fd5b8301601f810189136200146157600080fd5b8051620014726200131b82620012cf565b81815260059190911b8201860190868101908b8311156200149257600080fd5b928701925b82841015620014bd578351620014ad8162001174565b8252928701929087019062001497565b84525050508284015182811115620014d457600080fd5b620014e289828601620012f6565b8583015250809450505050509250929050565b600060018060a01b038085168352604060208401526200153e6040840185518051805160ff16835260209081015161ffff168184015201516001600160a01b0316604090910152565b60208401511660a0830152604083015160c0808401526200156461010084018262000e66565b9050606084015160e0840152809150509392505050565b6000600182016200159c57634e487b7160e01b600052601160045260246000fd5b5060010190565b600060208284031215620015b657600080fd5b813562000d5d8162001174565b608081526000620015d960808301888a6200101b565b6001600160a01b038781166020850152861660408401528281036060840152620016058185876200101b565b9998505050505050505050565b6020808252825182820181905260009190848201906040850190845b81811015620016555783516001600160a01b0316835292840192918401916001016200162e565b50909695505050505050565b6001600160a01b038381168252604060208084018290528451848301819052600093606092909183870190888301875b82811015620016cb578151620016a985825162000e43565b8086015187168587015288015188850152928601929084019060010162001691565b50919a9950505050505050505050565b6001600160a01b0383168152604060208201819052600090620017019083018462001218565b94935050505056fe608060405260405161072738038061072783398101604081905261002291610319565b61002e82826000610035565b5050610436565b61003e8361006b565b60008251118061004b5750805b156100665761006483836100ab60201b6100291760201c565b505b505050565b610074816100d7565b6040516001600160a01b038216907fbc7cd75a20ee27fd9adebab32041f755214dbc6bffa90cc0225b39da2e5c2d3b90600090a250565b60606100d08383604051806060016040528060278152602001610700602791396101a9565b9392505050565b6100ea8161022260201b6100551760201c565b6101515760405162461bcd60e51b815260206004820152602d60248201527f455243313936373a206e657720696d706c656d656e746174696f6e206973206e60448201526c1bdd08184818dbdb9d1c9858dd609a1b60648201526084015b60405180910390fd5b806101887f360894a13ba1a3210667c828492db98dca3e2076cc3735a920a3ca505d382bbc60001b61023160201b6100641760201c565b80546001600160a01b0319166001600160a01b039290921691909117905550565b6060600080856001600160a01b0316856040516101c691906103e7565b600060405180830381855af49150503d8060008114610201576040519150601f19603f3d011682016040523d82523d6000602084013e610206565b606091505b50909250905061021886838387610234565b9695505050505050565b6001600160a01b03163b151590565b90565b606083156102a357825160000361029c576001600160a01b0385163b61029c5760405162461bcd60e51b815260206004820152601d60248201527f416464726573733a2063616c6c20746f206e6f6e2d636f6e74726163740000006044820152606401610148565b50816102ad565b6102ad83836102b5565b949350505050565b8151156102c55781518083602001fd5b8060405162461bcd60e51b81526004016101489190610403565b634e487b7160e01b600052604160045260246000fd5b60005b838110156103105781810151838201526020016102f8565b50506000910152565b6000806040838503121561032c57600080fd5b82516001600160a01b038116811461034357600080fd5b60208401519092506001600160401b038082111561036057600080fd5b818501915085601f83011261037457600080fd5b815181811115610386576103866102df565b604051601f8201601f19908116603f011681019083821181831017156103ae576103ae6102df565b816040528281528860208487010111156103c757600080fd5b6103d88360208301602088016102f5565b80955050505050509250929050565b600082516103f98184602087016102f5565b9190910192915050565b60208152600082518060208401526104228160408501602087016102f5565b601f01601f19169190910160400192915050565b6102bb806104456000396000f3fe60806040523661001357610011610017565b005b6100115b610027610022610067565b61009f565b565b606061004e838360405180606001604052806027815260200161025f602791396100c3565b9392505050565b6001600160a01b03163b151590565b90565b600061009a7f360894a13ba1a3210667c828492db98dca3e2076cc3735a920a3ca505d382bbc546001600160a01b031690565b905090565b3660008037600080366000845af43d6000803e8080156100be573d6000f35b3d6000fd5b6060600080856001600160a01b0316856040516100e0919061020f565b600060405180830381855af49150503d806000811461011b576040519150601f19603f3d011682016040523d82523d6000602084013e610120565b606091505b50915091506101318683838761013b565b9695505050505050565b606083156101af5782516000036101a8576001600160a01b0385163b6101a85760405162461bcd60e51b815260206004820152601d60248201527f416464726573733a2063616c6c20746f206e6f6e2d636f6e747261637400000060448201526064015b60405180910390fd5b50816101b9565b6101b983836101c1565b949350505050565b8151156101d15781518083602001fd5b8060405162461bcd60e51b815260040161019f919061022b565b60005b838110156102065781810151838201526020016101ee565b50506000910152565b600082516102218184602087016101eb565b9190910192915050565b602081526000825180602084015261024a8160408501602087016101eb565b601f01601f1916919091016040019291505056fe416464726573733a206c6f772d6c6576656c2064656c65676174652063616c6c206661696c6564a26469706673582212206422cddf590659cffa3b67bffda8bc5358782dd87571fd3a8c2e682a409c28aa64736f6c63430008110033416464726573733a206c6f772d6c6576656c2064656c65676174652063616c6c206661696c6564a26469706673582212204ac4dbfad4f059c2353b43e837cb17be8b743eeda17eaf4d4d56a47109b2084264736f6c6343000811003360a0604052306080523480156200001557600080fd5b506200002062000026565b620000e7565b600054610100900460ff1615620000935760405162461bcd60e51b815260206004820152602760248201527f496e697469616c697a61626c653a20636f6e747261637420697320696e697469604482015266616c697a696e6760c81b606482015260840160405180910390fd5b60005460ff90811614620000e5576000805460ff191660ff9081179091556040519081527f7f26b83ff96e1f2b6a682f133852f6798a09c465da95921460cefb38474024989060200160405180910390a15b565b6080516135016200011f60003960008181610aee01528181610b2e01528181610dae01528181610dee0152610e8101526135016000f3fe6080604052600436106101dc5760003560e01c806352d1902d11610102578063d68bad2c11610095578063e978afe511610064578063e978afe5146106ac578063eafb8b06146106cc578063ee57e36f146106ec578063fdef91061461070c5761021b565b8063d68bad2c1461062a578063d96054c41461064a578063da7422281461066a578063e306bee71461068a5761021b565b8063c4a50145116100d1578063c4a5014514610593578063c71bf324146105b3578063c9dbc2a4146105e1578063ce1b815f146106015761021b565b806352d1902d146105155780637034731b1461052a578063829331a11461054c578063bfe07da6146105805761021b565b80632675fdd01161017a5780633e2ab0d9116101495780633e2ab0d91461048e57806342d8e99e146104ae5780634ec7ac23146104ce5780634f1ef286146105025761021b565b80632675fdd0146103f857806326875b1f146104185780632ae9c6001461044c5780633659cfe61461046e5761021b565b80631080f99b116101b65780631080f99b146103495780631626ba7e1461036b57806322844d04146103a457806324b4d73f146103c45761021b565b806301ffc9a7146102b05780630729d054146102e557806309e56b14146103275761021b565b3661021b57604080513381523460208201527f62c2c8e34665db7c56b2cabd7f5fb9702ccd352ffa8150147e450797e9f8e8f3910160405180910390a1005b34801561022757600080fd5b506000366060600061027b6000356001600160e01b03191685858080601f01602080910402602001604051908101604052809392919081815260200183838082843760009201919091525061072c92505050565b604080516001600160e01b03198316602082015291925001604051602081830303815290604052915050915050805190602001f35b3480156102bc57600080fd5b506102d06102cb3660046126bd565b6107d5565b60405190151581526020015b60405180910390f35b3480156102f157600080fd5b506103197fbf04b4486c9663d805744005c3da000eda93de6e3308a4a7a812eb565327b78d81565b6040519081526020016102dc565b34801561033357600080fd5b506103196000805160206134ac83398151915281565b34801561035557600080fd5b50610369610364366004612720565b610811565b005b34801561037757600080fd5b5061038b610386366004612803565b610838565b6040516001600160e01b031990911681526020016102dc565b3480156103b057600080fd5b506103696103bf36600461285e565b6108aa565b3480156103d057600080fd5b506103197f1f53edd44352e5d15bad2b29233baa93bcd595e09457780bc7c5445bbbe751cc81565b34801561040457600080fd5b506102d06104133660046128e5565b61099b565b34801561042457600080fd5b506103197ffaf505be9907aa6951c2ebe5b0312f4980e14f21912ed355372103cc8bd683bc81565b34801561045857600080fd5b50610461610aba565b6040516102dc9190612950565b34801561047a57600080fd5b50610369610489366004612984565b610ae4565b34801561049a57600080fd5b506103696104a9366004612984565b610bc3565b3480156104ba57600080fd5b506103696104c93660046129a1565b610bdc565b3480156104da57600080fd5b506103197f968c17ebf04aa1b7544168e69314cdab6b69ba813bb6080d49c0c40a65560f5881565b6103696105103660046129f8565b610da4565b34801561052157600080fd5b50610319610e74565b34801561053657600080fd5b5061053f610f27565b6040516102dc9190612a81565b34801561055857600080fd5b506103197f06d294bc8cbad2e393408b20dd019a772661f60b8d633e56761157cb1ec85f8c81565b61036961058e366004612a94565b610fba565b34801561059f57600080fd5b506103696105ae366004612aef565b6110a9565b3480156105bf57600080fd5b506105d36105ce366004612b32565b611133565b6040516102dc929190612c0b565b3480156105ed57600080fd5b506103696105fc366004612c2d565b6113f4565b34801561060d57600080fd5b5061012e546040516001600160a01b0390911681526020016102dc565b34801561063657600080fd5b50610369610645366004612c80565b611418565b34801561065657600080fd5b50610369610665366004612c80565b611441565b34801561067657600080fd5b50610369610685366004612984565b611464565b34801561069657600080fd5b5061031960008051602061344583398151915281565b3480156106b857600080fd5b506103696106c7366004612cc1565b611497565b3480156106d857600080fd5b506103696106e7366004612d35565b6115b8565b3480156106f857600080fd5b50610369610707366004612720565b61170a565b34801561071857600080fd5b506102d06107273660046128e5565b61172c565b6001600160e01b0319808316600090815260fb6020526040812054909160e09190911b90811661078857604051634aa318c360e01b81526001600160e01b03198086166004830152821660248201526044015b60405180910390fd5b836001600160e01b0319167f4792cb6e46e49876374bea490ba23274bacea6b84c216a64f47abab54027589b33856040516107c4929190612dcd565b60405180910390a290505b92915050565b60006301ffc9a760e01b6001600160e01b0319831614806107cf5750506001600160e01b03191660009081526033602052604090205460ff1690565b60008051602061344583398151915261082981611743565b61083383836117b2565b505050565b600061088730337f968c17ebf04aa1b7544168e69314cdab6b69ba813bb6080d49c0c40a65560f588686604051602001610873929190612df1565b60405160208183030381529060405261099b565b1561089a5750630b135d3f60e11b6107cf565b506001600160e01b031992915050565b6000805160206134ac8339815191526108c281611743565b60005b828110156109945760008484838181106108e1576108e1612e0a565b9050606002018036038101906108f79190612e2f565b905060008151600281111561090e5761090e612e97565b0361092b5761092686826020015183604001516117fe565b61098b565b60018151600281111561094057610940612e97565b03610958576109268682602001518360400151611928565b60028151600281111561096d5761096d612e97565b0361098b5760405163d4d3bef760e01b815260040160405180910390fd5b506001016108c5565b5050505050565b60008060c960006109ad8888886119bc565b81526020810191909152604001600020546001600160a01b0316905060011981016109dc576001915050610ab2565b6001600160a01b03811615610a00576109f88187878787611a21565b915050610ab2565b50600060c96000610a19886001600160a01b03886119bc565b81526020810191909152604001600020546001600160a01b031690506001198101610a48576001915050610ab2565b6001600160a01b03811615610a64576109f88187878787611a21565b50600060c96000610a7d6001600160a01b0388886119bc565b81526020810191909152604001600020546001600160a01b031690508015610aac576109f88187878787611a21565b50600090505b949350505050565b610ac2612682565b5060408051606081018252600181526004602082015260009181019190915290565b6001600160a01b037f0000000000000000000000000000000000000000000000000000000000000000163003610b2c5760405162461bcd60e51b815260040161077f90612ead565b7f00000000000000000000000000000000000000000000000000000000000000006001600160a01b0316610b75600080516020613465833981519152546001600160a01b031690565b6001600160a01b031614610b9b5760405162461bcd60e51b815260040161077f90612ef9565b610ba481611ab2565b60408051600080825260208201909252610bc091839190611adc565b50565b60405163b2728e9960e01b815260040160405180910390fd5b600054600390610100900460ff16158015610bfe575060005460ff8083169116105b610c1a5760405162461bcd60e51b815260040161077f90612f45565b6000805461ffff191660ff831617610100179055610c3b6020850185612fa4565b60ff16600114610c6057836040516384833d6760e01b815260040161077f9190612fbf565b6040805160608082018352600182526003602083018190526000838501528351808301909452610ca9939188919083908390808284376000920191909152509192915050611c47565b15610cc357600161013055610cc3621574e360e91b611ce2565b604080516060808201835260018252600460208301526000828401528251808201909352610d0c9290879060039083908390808284376000920191909152509192915050611c47565b15610d5c57610d3c30307f0dcbfb19b09fb8ff4e9af583d4b8e9c8127cc1b26529b4d96dd3b7e778088372611928565b610d4c632a4f53ad60e11b611ce2565b610d5c6331c6fcc960e21b611ce2565b6000805461ff001916905560405160ff821681527f7f26b83ff96e1f2b6a682f133852f6798a09c465da95921460cefb3847402498906020015b60405180910390a150505050565b6001600160a01b037f0000000000000000000000000000000000000000000000000000000000000000163003610dec5760405162461bcd60e51b815260040161077f90612ead565b7f00000000000000000000000000000000000000000000000000000000000000006001600160a01b0316610e35600080516020613465833981519152546001600160a01b031690565b6001600160a01b031614610e5b5760405162461bcd60e51b815260040161077f90612ef9565b610e6482611ab2565b610e7082826001611adc565b5050565b6000306001600160a01b037f00000000000000000000000000000000000000000000000000000000000000001614610f145760405162461bcd60e51b815260206004820152603860248201527f555550535570677261646561626c653a206d757374206e6f742062652063616c60448201527f6c6564207468726f7567682064656c656761746563616c6c0000000000000000606482015260840161077f565b5060008051602061346583398151915290565b606061012f8054610f3790612ff2565b80601f0160208091040260200160405190810160405280929190818152602001828054610f6390612ff2565b8015610fb05780601f10610f8557610100808354040283529160200191610fb0565b820191906000526020600020905b815481529060010190602001808311610f9357829003601f168201915b5050505050905090565b82600003610fdb57604051631f2a200560e01b815260040160405180910390fd5b6001600160a01b03841661101757823414611012576040516301abd56160e41b81526004810184905234602482015260440161077f565b611054565b341561103f576040516301abd56160e41b81526000600482015234602482015260440161077f565b6110546001600160a01b038516333086611d61565b836001600160a01b0316336001600160a01b03167f2bc500cf071be2d1c1458ed6ff484cd4db4345ada8943dee7ff29e7af3558f7685858560405161109b93929190613055565b60405180910390a350505050565b7ffaf505be9907aa6951c2ebe5b0312f4980e14f21912ed355372103cc8bd683bc6110d381611743565b6110dc84611ce2565b6110e68383611dbb565b604080516001600160e01b0319808716825280861660208301528416918101919091527ffc72fd547553f7a663e0048e590afc9c47b56a4242e960f31cf4c62e23d308b990606001610d96565b606060006002610130540361115b576040516306fda65d60e31b815260040160405180910390fd5b6002610130557fbf04b4486c9663d805744005c3da000eda93de6e3308a4a7a812eb565327b78d61118b81611743565b6101008511156111ae576040516308e3b1eb60e11b815260040160405180910390fd5b846001600160401b038111156111c6576111c6612761565b6040519080825280602002602001820160405280156111f957816020015b60608152602001906001900390816111e45790505b50925060008060005b87811015611394575a92506000808a8a8481811061122257611222612e0a565b9050602002810190611234919061306f565b611242906020810190612984565b6001600160a01b03168b8b8581811061125d5761125d612e0a565b905060200281019061126f919061306f565b602001358c8c8681811061128557611285612e0a565b9050602002810190611297919061306f565b6112a590604081019061308f565b6040516112b39291906130d5565b60006040518083038185875af1925050503d80600081146112f0576040519150601f19603f3d011682016040523d82523d6000602084013e6112f5565b606091505b50915091505a9350600160ff84161b8916611330578161132b5760405163a6a7dbbd60e01b81526004810184905260240161077f565b61136c565b8161136c576113406040866130e5565b841015611360576040516307099c5360e21b815260040160405180910390fd5b600160ff84161b871896505b8088848151811061137f5761137f612e0a565b60209081029190910101525050600101611202565b50336001600160a01b03167fd4e57c2049f004fb297ef78591cd409503ceb6b2c722d7ffed032fc99e5f3b588a8a8a8a898b6040516113d896959493929190613107565b60405180910390a2505060016101305550909590945092505050565b6000805160206134ac83398151915261140c81611743565b61099485858585611ded565b6000805160206134ac83398151915261143081611743565b61143b8484846117fe565b50505050565b6000805160206134ac83398151915261145981611743565b61143b848484611928565b7f06d294bc8cbad2e393408b20dd019a772661f60b8d633e56761157cb1ec85f8c61148e81611743565b610e708261205b565b6000805160206134ac8339815191526114af81611743565b60005b8281101561143b5760008484838181106114ce576114ce612e0a565b905060a002018036038101906114e49190613215565b90506000815160028111156114fb576114fb612e97565b036115485760608101516001600160a01b03161561152c5760405163d4d3bef760e01b815260040160405180910390fd5b6115438160200151826040015183608001516117fe565b6115af565b60018151600281111561155d5761155d612e97565b0361157957611543816020015182604001518360800151611928565b60028151600281111561158e5761158e612e97565b036115af576115af8160200151826040015183608001518460600151611ded565b506001016114b2565b60005460ff16156115db5760405162dc149f60e41b815260040160405180910390fd5b600054600390610100900460ff161580156115fd575060005460ff8083169116105b6116195760405162461bcd60e51b815260040161077f90612f45565b6000805461ffff191660ff8316176101001790556001610130556116436349c2aa3f60e11b611ce2565b611653632a4f53ad60e11b611ce2565b6116636331c6fcc960e21b611ce2565b611673630b135d3f60e11b611ce2565b611683637034731b60e01b611ce2565b611692621574e360e91b611ce2565b61169a6120b0565b6116a48787612105565b6116ad8461205b565b6116b783836117b2565b6116c085612136565b6000805461ff001916905560405160ff821681527f7f26b83ff96e1f2b6a682f133852f6798a09c465da95921460cefb38474024989060200160405180910390a150505050505050565b60008051602061344583398151915261172281611743565b6108338383612105565b600061173a8585858561099b565b95945050505050565b6117863033836000368080601f01602080910402602001604051908101604052809392919081815260200183838082843760009201919091525061099b92505050565b610bc057604051631e09743f60e01b81523060048201523360248201526044810182905260640161077f565b61012f6117c08284836132f1565b507fe9b617ecb5f63f6a9ccd8d4d5fa0d7b2ef9b17ce3f48e6b135808d6a40e6774282826040516117f29291906133b0565b60405180910390a15050565b6002600160a01b03196001600160a01b0384160161182f576040516324159e5b60e01b815260040160405180910390fd5b6002600160a01b03196001600160a01b03831601611885576000805160206134ac8339815191528114806118675750611867816121aa565b15611885576040516324159e5b60e01b815260040160405180910390fd5b60006118928484846119bc565b600081815260c960205260409020549091506001600160a01b03168061099457600082815260c9602090815260409182902080546001600160a01b031916600290811790915582516001600160a01b0389811682529281019190915290861691339186917f0f579ad49235a8c1fd9041427e7067b1eb10926bbed380bf6fabc73e0e807644910160405180910390a45050505050565b60006119358484846119bc565b600081815260c960205260409020549091506001600160a01b03161561143b57600081815260c9602090815260409182902080546001600160a01b031916905590516001600160a01b038681168252851691339185917f3ca48185ec3f6e47e24db18b13f1c65b1ce05da1659f9c1c4fe717dda5f67524910160405180910390a450505050565b604051692822a926a4a9a9a4a7a760b11b60208201526bffffffffffffffffffffffff19606084811b8216602a84015285901b16603e820152605281018290526000906072016040516020818303038152906040528051906020012090509392505050565b6040516302675fdd60e41b81526000906001600160a01b03871690632675fdd090611a569088908890889088906004016133c4565b602060405180830381865afa925050508015611a8f575060408051601f3d908101601f19168201909252611a8c918101906133f7565b60015b15611aa6578015611aa457600191505061173a565b505b50600095945050505050565b7f1f53edd44352e5d15bad2b29233baa93bcd595e09457780bc7c5445bbbe751cc610e7081611743565b7f4910fdfa16fed3260ed0e7147f7cc6da11a60208b5b9406d12a635614ffd91435460ff1615611b0f5761083383612267565b826001600160a01b03166352d1902d6040518163ffffffff1660e01b8152600401602060405180830381865afa925050508015611b69575060408051601f3d908101601f19168201909252611b6691810190613419565b60015b611bcc5760405162461bcd60e51b815260206004820152602e60248201527f45524331393637557067726164653a206e657720696d706c656d656e7461746960448201526d6f6e206973206e6f74205555505360901b606482015260840161077f565b6000805160206134658339815191528114611c3b5760405162461bcd60e51b815260206004820152602960248201527f45524331393637557067726164653a20756e737570706f727465642070726f786044820152681a58589b195555525160ba1b606482015260840161077f565b50610833838383612303565b8051825160009160ff90811691161015611c63575060016107cf565b8151835160ff91821691161115611c7c575060006107cf565b6020808301519084015160ff91821691161015611c9b575060016107cf565b6020808301519084015160ff91821691161115611cba575060006107cf565b6040808301519084015160ff91821691161015611cd9575060016107cf565b50600092915050565b6001600160e01b03198082169003611d3c5760405162461bcd60e51b815260206004820152601c60248201527f4552433136353a20696e76616c696420696e7465726661636520696400000000604482015260640161077f565b6001600160e01b0319166000908152603360205260409020805460ff19166001179055565b604080516001600160a01b0385811660248301528416604482015260648082018490528251808303909101815260849091019091526020810180516001600160e01b03166323b872dd60e01b17905261143b908590612328565b6001600160e01b031991909116600090815260fb60205260409020805463ffffffff191660e09290921c919091179055565b806001600160a01b0381163b611e215760405163241acd7b60e11b81526001600160a01b038316600482015260240161077f565b6040516301ffc9a760e01b81526302675fdd60e41b60048201526001600160a01b038216906301ffc9a790602401602060405180830381865afa158015611e6c573d6000803e3d6000fd5b505050506040513d601f19601f82011682018060405250810190611e9091906133f7565b611eb857604051636dd8243160e11b81526001600160a01b038316600482015260240161077f565b6001600160a01b03858116148015611ed857506001600160a01b03848116145b15611ef6576040516385f1ba9960e01b815260040160405180910390fd5b6001600160a01b038581161480611f1557506001600160a01b03848116145b15611f58576000805160206134ac833981519152831480611f3a5750611f3a836121aa565b15611f58576040516324159e5b60e01b815260040160405180910390fd5b6000611f658686866119bc565b600081815260c960205260409020549091506001600160a01b031680611ff657600082815260c9602090815260409182902080546001600160a01b0319166001600160a01b0387811691821790925583518b8316815292830152881691339188917f0f579ad49235a8c1fd9041427e7067b1eb10926bbed380bf6fabc73e0e807644910160405180910390a4612052565b826001600160a01b0316816001600160a01b031614612052576040516305cc3c4f60e11b81526001600160a01b03808916600483015280881660248301526044820187905280831660648301528416608482015260a40161077f565b50505050505050565b61012e80546001600160a01b0319166001600160a01b0383169081179091556040519081527fd91237492a9e30cd2faf361fc103998a382ff0ec2b1b07dc1cbebb76ae2f1ea29060200160405180910390a150565b6120c0630a85bd0160e11b611ce2565b6120d0630271189760e51b611ce2565b6120e1630a85bd0160e11b80611dbb565b6120f263f23a6e6160e01b80611dbb565b61210363bc197c8160e01b80611dbb565b565b7fbb39ebb37e60fb5d606ffdb749d2336e56b88e6c88c4bd6513b308f643186eed82826040516117f29291906133b0565b600054610100900460ff166121a15760405162461bcd60e51b815260206004820152602b60248201527f496e697469616c697a61626c653a20636f6e7472616374206973206e6f74206960448201526a6e697469616c697a696e6760a81b606482015260840161077f565b610bc0816123fd565b60007fbf04b4486c9663d805744005c3da000eda93de6e3308a4a7a812eb565327b78d8214806121f957507f1f53edd44352e5d15bad2b29233baa93bcd595e09457780bc7c5445bbbe751cc82145b80612211575060008051602061344583398151915282145b8061223b57507f06d294bc8cbad2e393408b20dd019a772661f60b8d633e56761157cb1ec85f8c82145b806107cf5750507ffaf505be9907aa6951c2ebe5b0312f4980e14f21912ed355372103cc8bd683bc1490565b6001600160a01b0381163b6122d45760405162461bcd60e51b815260206004820152602d60248201527f455243313936373a206e657720696d706c656d656e746174696f6e206973206e60448201526c1bdd08184818dbdb9d1c9858dd609a1b606482015260840161077f565b60008051602061346583398151915280546001600160a01b0319166001600160a01b0392909216919091179055565b61230c83612416565b6000825111806123195750805b156108335761143b8383612456565b600061237d826040518060400160405280602081526020017f5361666545524332303a206c6f772d6c6576656c2063616c6c206661696c6564815250856001600160a01b03166124829092919063ffffffff16565b905080516000148061239e57508080602001905181019061239e91906133f7565b6108335760405162461bcd60e51b815260206004820152602a60248201527f5361666545524332303a204552433230206f7065726174696f6e20646964206e6044820152691bdd081cdd58d8d9595960b21b606482015260840161077f565b610bc030826000805160206134ac8339815191526117fe565b61241f81612267565b6040516001600160a01b038216907fbc7cd75a20ee27fd9adebab32041f755214dbc6bffa90cc0225b39da2e5c2d3b90600090a250565b606061247b838360405180606001604052806027815260200161348560279139612491565b9392505050565b6060610ab28484600085612509565b6060600080856001600160a01b0316856040516124ae9190613432565b600060405180830381855af49150503d80600081146124e9576040519150601f19603f3d011682016040523d82523d6000602084013e6124ee565b606091505b50915091506124ff868383876125e4565b9695505050505050565b60608247101561256a5760405162461bcd60e51b815260206004820152602660248201527f416464726573733a20696e73756666696369656e742062616c616e636520666f6044820152651c8818d85b1b60d21b606482015260840161077f565b600080866001600160a01b031685876040516125869190613432565b60006040518083038185875af1925050503d80600081146125c3576040519150601f19603f3d011682016040523d82523d6000602084013e6125c8565b606091505b50915091506125d9878383876125e4565b979650505050505050565b6060831561265357825160000361264c576001600160a01b0385163b61264c5760405162461bcd60e51b815260206004820152601d60248201527f416464726573733a2063616c6c20746f206e6f6e2d636f6e7472616374000000604482015260640161077f565b5081610ab2565b610ab283838151156126685781518083602001fd5b8060405162461bcd60e51b815260040161077f9190612a81565b60405180606001604052806003906020820280368337509192915050565b80356001600160e01b0319811681146126b857600080fd5b919050565b6000602082840312156126cf57600080fd5b61247b826126a0565b60008083601f8401126126ea57600080fd5b5081356001600160401b0381111561270157600080fd5b60208301915083602082850101111561271957600080fd5b9250929050565b6000806020838503121561273357600080fd5b82356001600160401b0381111561274957600080fd5b612755858286016126d8565b90969095509350505050565b634e487b7160e01b600052604160045260246000fd5b600082601f83011261278857600080fd5b81356001600160401b03808211156127a2576127a2612761565b604051601f8301601f19908116603f011681019082821181831017156127ca576127ca612761565b816040528381528660208588010111156127e357600080fd5b836020870160208301376000602085830101528094505050505092915050565b6000806040838503121561281657600080fd5b8235915060208301356001600160401b0381111561283357600080fd5b61283f85828601612777565b9150509250929050565b6001600160a01b0381168114610bc057600080fd5b60008060006040848603121561287357600080fd5b833561287e81612849565b925060208401356001600160401b038082111561289a57600080fd5b818601915086601f8301126128ae57600080fd5b8135818111156128bd57600080fd5b8760206060830285010111156128d257600080fd5b6020830194508093505050509250925092565b600080600080608085870312156128fb57600080fd5b843561290681612849565b9350602085013561291681612849565b92506040850135915060608501356001600160401b0381111561293857600080fd5b61294487828801612777565b91505092959194509250565b60608101818360005b600381101561297b57815160ff16835260209283019290910190600101612959565b50505092915050565b60006020828403121561299657600080fd5b813561247b81612849565b6000806000608084860312156129b657600080fd5b60608401858111156129c757600080fd5b849350356001600160401b038111156129df57600080fd5b6129eb868287016126d8565b9497909650939450505050565b60008060408385031215612a0b57600080fd5b8235612a1681612849565b915060208301356001600160401b0381111561283357600080fd5b60005b83811015612a4c578181015183820152602001612a34565b50506000910152565b60008151808452612a6d816020860160208601612a31565b601f01601f19169290920160200192915050565b60208152600061247b6020830184612a55565b60008060008060608587031215612aaa57600080fd5b8435612ab581612849565b93506020850135925060408501356001600160401b03811115612ad757600080fd5b612ae3878288016126d8565b95989497509550505050565b600080600060608486031215612b0457600080fd5b612b0d846126a0565b9250612b1b602085016126a0565b9150612b29604085016126a0565b90509250925092565b60008060008060608587031215612b4857600080fd5b8435935060208501356001600160401b0380821115612b6657600080fd5b818701915087601f830112612b7a57600080fd5b813581811115612b8957600080fd5b8860208260051b8501011115612b9e57600080fd5b95986020929092019750949560400135945092505050565b600081518084526020808501808196508360051b8101915082860160005b85811015612bfe578284038952612bec848351612a55565b98850198935090840190600101612bd4565b5091979650505050505050565b604081526000612c1e6040830185612bb6565b90508260208301529392505050565b60008060008060808587031215612c4357600080fd5b8435612c4e81612849565b93506020850135612c5e81612849565b9250604085013591506060850135612c7581612849565b939692955090935050565b600080600060608486031215612c9557600080fd5b8335612ca081612849565b92506020840135612cb081612849565b929592945050506040919091013590565b60008060208385031215612cd457600080fd5b82356001600160401b0380821115612ceb57600080fd5b818501915085601f830112612cff57600080fd5b813581811115612d0e57600080fd5b86602060a083028501011115612d2357600080fd5b60209290920196919550909350505050565b60008060008060008060808789031215612d4e57600080fd5b86356001600160401b0380821115612d6557600080fd5b612d718a838b016126d8565b909850965060208901359150612d8682612849565b909450604088013590612d9882612849565b90935060608801359080821115612dae57600080fd5b50612dbb89828a016126d8565b979a9699509497509295939492505050565b6001600160a01b0383168152604060208201819052600090610ab290830184612a55565b828152604060208201526000610ab26040830184612a55565b634e487b7160e01b600052603260045260246000fd5b8035600381106126b857600080fd5b600060608284031215612e4157600080fd5b604051606081018181106001600160401b0382111715612e6357612e63612761565b604052612e6f83612e20565b81526020830135612e7f81612849565b60208201526040928301359281019290925250919050565b634e487b7160e01b600052602160045260246000fd5b6020808252602c908201527f46756e6374696f6e206d7573742062652063616c6c6564207468726f7567682060408201526b19195b1959d85d1958d85b1b60a21b606082015260800190565b6020808252602c908201527f46756e6374696f6e206d7573742062652063616c6c6564207468726f7567682060408201526b6163746976652070726f787960a01b606082015260800190565b6020808252602e908201527f496e697469616c697a61626c653a20636f6e747261637420697320616c72656160408201526d191e481a5b9a5d1a585b1a5e995960921b606082015260800190565b803560ff811681146126b857600080fd5b600060208284031215612fb657600080fd5b61247b82612f93565b60608101818360005b600381101561297b5760ff612fdc83612f93565b1683526020928301929190910190600101612fc8565b600181811c9082168061300657607f821691505b60208210810361302657634e487b7160e01b600052602260045260246000fd5b50919050565b81835281816020850137506000828201602090810191909152601f909101601f19169091010190565b83815260406020820152600061173a60408301848661302c565b60008235605e1983360301811261308557600080fd5b9190910192915050565b6000808335601e198436030181126130a657600080fd5b8301803591506001600160401b038211156130c057600080fd5b60200191503681900382131561271957600080fd5b8183823760009101908152919050565b60008261310257634e487b7160e01b600052601260045260246000fd5b500490565b600060a08201888352602060a0818501528188835260c08501905060c08960051b86010192508960005b8a8110156131e65786850360bf190183528135368d9003605e1901811261315757600080fd5b8c016060813561316681612849565b6001600160a01b03168752818601358688015260408083013536849003601e1901811261319257600080fd5b9092018681019290356001600160401b038111156131af57600080fd5b8036038413156131be57600080fd5b82828a01526131d0838a01828661302c565b9850505093850193505090830190600101613131565b5050505085604084015284606084015282810360808401526132088185612bb6565b9998505050505050505050565b600060a0828403121561322757600080fd5b60405160a081018181106001600160401b038211171561324957613249612761565b60405261325583612e20565b8152602083013561326581612849565b6020820152604083013561327881612849565b6040820152606083013561328b81612849565b60608201526080928301359281019290925250919050565b601f82111561083357600081815260208120601f850160051c810160208610156132ca5750805b601f850160051c820191505b818110156132e9578281556001016132d6565b505050505050565b6001600160401b0383111561330857613308612761565b61331c836133168354612ff2565b836132a3565b6000601f84116001811461335057600085156133385750838201355b600019600387901b1c1916600186901b178355610994565b600083815260209020601f19861690835b828110156133815786850135825560209485019460019092019101613361565b508682101561339e5760001960f88860031b161c19848701351681555b505060018560011b0183555050505050565b602081526000610ab260208301848661302c565b6001600160a01b03858116825284166020820152604081018390526080606082018190526000906124ff90830184612a55565b60006020828403121561340957600080fd5b8151801515811461247b57600080fd5b60006020828403121561342b57600080fd5b5051919050565b60008251613085818460208701612a3156fe4707e94b25cfce1a7c363508fbb838c35864388ad77284b248282b9746982b9b360894a13ba1a3210667c828492db98dca3e2076cc3735a920a3ca505d382bbc416464726573733a206c6f772d6c6576656c2064656c65676174652063616c6c206661696c6564815fe80e4b37c8582a3b773d1d7071f983eacfd56b5965db654f3087c25ada33a2646970667358221220af198a91a79119bd5f82589d22a8b11ad6ce57474f675ef2a77bf4ee5a41b64e64736f6c63430008110033","linkReferences":{}},"methodIdentifiers":{"createDao((address,string,string,bytes),(((uint8,uint16),address),bytes)[])":"b5568838","daoBase()":"d9f8bd23","daoRegistry()":"2a2b6ba0","pluginSetupProcessor()":"a9445d9b","protocolVersion()":"2ae9c600","supportsInterface(bytes4)":"01ffc9a7"},"id":293}