{"abi":[{"type":"function","name":"deposit","inputs":[{"name":"payee","type":"address","internalType":"address"}],"outputs":[],"stateMutability":"payable"},{"type":"function","name":"depositsOf","inputs":[{"name":"payee","type":"address","internalType":"address"}],"outputs":[{"name":"","type":"uint256","internalType":"uint256"}],"stateMutability":"view"},{"type":"function","name":"initialize","inputs":[],"outputs":[],"stateMutability":"nonpayable"},{"type":"function","name":"owner","inputs":[],"outputs":[{"name":"","type":"address","internalType":"address"}],"stateMutability":"view"},{"type":"function","name":"renounceOwnership","inputs":[],"outputs":[],"stateMutability":"nonpayable"},{"type":"function","name":"transferOwnership","inputs":[{"name":"newOwner","type":"address","internalType":"address"}],"outputs":[],"stateMutability":"nonpayable"},{"type":"function","name":"withdraw","inputs":[{"name":"payee","type":"address","internalType":"address payable"}],"outputs":[],"stateMutability":"nonpayable"},{"type":"event","name":"Deposited","inputs":[{"name":"payee","type":"address","indexed":true,"internalType":"address"},{"name":"weiAmount","type":"uint256","indexed":false,"internalType":"uint256"}],"anonymous":false},{"type":"event","name":"Initialized","inputs":[{"name":"version","type":"uint8","indexed":false,"internalType":"uint8"}],"anonymous":false},{"type":"event","name":"OwnershipTransferred","inputs":[{"name":"previousOwner","type":"address","indexed":true,"internalType":"address"},{"name":"newOwner","type":"address","indexed":true,"internalType":"address"}],"anonymous":false},{"type":"event","name":"Withdrawn","inputs":[{"name":"payee","type":"address","indexed":true,"internalType":"address"},{"name":"weiAmount","type":"uint256","indexed":false,"internalType":"uint256"}],"anonymous":false}],"bytecode":{"object":"0x608060405234801561001057600080fd5b506106f3806100206000396000f3fe6080604052600436106100705760003560e01c80638da5cb5b1161004e5780638da5cb5b146100c1578063e3a9db1a146100ee578063f2fde38b14610132578063f340fa011461015257600080fd5b806351cff8d914610075578063715018a6146100975780638129fc1c146100ac575b600080fd5b34801561008157600080fd5b50610095610090366004610627565b610165565b005b3480156100a357600080fd5b506100956101dc565b3480156100b857600080fd5b506100956101f0565b3480156100cd57600080fd5b506033546040516001600160a01b0390911681526020015b60405180910390f35b3480156100fa57600080fd5b50610124610109366004610627565b6001600160a01b031660009081526065602052604090205490565b6040519081526020016100e5565b34801561013e57600080fd5b5061009561014d366004610627565b610306565b610095610160366004610627565b61037c565b61016d6103ee565b6001600160a01b03811660008181526065602052604081208054919055906101959082610448565b816001600160a01b03167f7084f5476618d8e60b11ef0d7d3f06914655adb8793e28ff7f018d4c76d505d5826040516101d091815260200190565b60405180910390a25050565b6101e46103ee565b6101ee6000610566565b565b600054610100900460ff16158080156102105750600054600160ff909116105b8061022a5750303b15801561022a575060005460ff166001145b6102925760405162461bcd60e51b815260206004820152602e60248201527f496e697469616c697a61626c653a20636f6e747261637420697320616c72656160448201526d191e481a5b9a5d1a585b1a5e995960921b60648201526084015b60405180910390fd5b6000805460ff1916600117905580156102b5576000805461ff0019166101001790555b6102bd6105b8565b8015610303576000805461ff0019169055604051600181527f7f26b83ff96e1f2b6a682f133852f6798a09c465da95921460cefb38474024989060200160405180910390a15b50565b61030e6103ee565b6001600160a01b0381166103735760405162461bcd60e51b815260206004820152602660248201527f4f776e61626c653a206e6577206f776e657220697320746865207a65726f206160448201526564647265737360d01b6064820152608401610289565b61030381610566565b6103846103ee565b6001600160a01b0381166000908152606560205260408120805434928392916103ae90849061064b565b90915550506040518181526001600160a01b038316907f2da466a7b24304f47e87fa2e1e5a81b9831ce54fec19055ce277ca2f39ba42c4906020016101d0565b6033546001600160a01b031633146101ee5760405162461bcd60e51b815260206004820181905260248201527f4f776e61626c653a2063616c6c6572206973206e6f7420746865206f776e65726044820152606401610289565b804710156104985760405162461bcd60e51b815260206004820152601d60248201527f416464726573733a20696e73756666696369656e742062616c616e63650000006044820152606401610289565b6000826001600160a01b03168260405160006040518083038185875af1925050503d80600081146104e5576040519150601f19603f3d011682016040523d82523d6000602084013e6104ea565b606091505b50509050806105615760405162461bcd60e51b815260206004820152603a60248201527f416464726573733a20756e61626c6520746f2073656e642076616c75652c207260448201527f6563697069656e74206d617920686176652072657665727465640000000000006064820152608401610289565b505050565b603380546001600160a01b038381166001600160a01b0319831681179093556040519116919082907f8be0079c531659141344cd1fd0a4f28419497f9722a3daafe3b4186f6b6457e090600090a35050565b600054610100900460ff166105df5760405162461bcd60e51b815260040161028990610672565b6101ee600054610100900460ff166106095760405162461bcd60e51b815260040161028990610672565b6101ee33610566565b6001600160a01b038116811461030357600080fd5b60006020828403121561063957600080fd5b813561064481610612565b9392505050565b8082018082111561066c57634e487b7160e01b600052601160045260246000fd5b92915050565b6020808252602b908201527f496e697469616c697a61626c653a20636f6e7472616374206973206e6f74206960408201526a6e697469616c697a696e6760a81b60608201526080019056fea2646970667358221220d368043d5c0b1a99b9af9ddf5e0214ae11420ebbab1cd2ace5d595ef4767e83864736f6c63430008110033","linkReferences":{}},"methodIdentifiers":{"deposit(address)":"f340fa01","depositsOf(address)":"e3a9db1a","initialize()":"8129fc1c","owner()":"8da5cb5b","renounceOwnership()":"715018a6","transferOwnership(address)":"f2fde38b","withdraw(address)":"51cff8d9"},"id":448}