{"abi":[{"type":"constructor","inputs":[{"name":"_ens","type":"address","internalType":"contract ENS"},{"name":"wrapperAddress","type":"address","internalType":"contract INameWrapper"}],"stateMutability":"nonpayable"},{"type":"function","name":"ABI","inputs":[{"name":"node","type":"bytes32","internalType":"bytes32"},{"name":"contentTypes","type":"uint256","internalType":"uint256"}],"outputs":[{"name":"","type":"uint256","internalType":"uint256"},{"name":"","type":"bytes","internalType":"bytes"}],"stateMutability":"view"},{"type":"function","name":"addr","inputs":[{"name":"node","type":"bytes32","internalType":"bytes32"}],"outputs":[{"name":"","type":"address","internalType":"address payable"}],"stateMutability":"view"},{"type":"function","name":"addr","inputs":[{"name":"node","type":"bytes32","internalType":"bytes32"},{"name":"coinType","type":"uint256","internalType":"uint256"}],"outputs":[{"name":"","type":"bytes","internalType":"bytes"}],"stateMutability":"view"},{"type":"function","name":"clearDNSZone","inputs":[{"name":"node","type":"bytes32","internalType":"bytes32"}],"outputs":[],"stateMutability":"nonpayable"},{"type":"function","name":"contenthash","inputs":[{"name":"node","type":"bytes32","internalType":"bytes32"}],"outputs":[{"name":"","type":"bytes","internalType":"bytes"}],"stateMutability":"view"},{"type":"function","name":"dnsRecord","inputs":[{"name":"node","type":"bytes32","internalType":"bytes32"},{"name":"name","type":"bytes32","internalType":"bytes32"},{"name":"resource","type":"uint16","internalType":"uint16"}],"outputs":[{"name":"","type":"bytes","internalType":"bytes"}],"stateMutability":"view"},{"type":"function","name":"hasDNSRecords","inputs":[{"name":"node","type":"bytes32","internalType":"bytes32"},{"name":"name","type":"bytes32","internalType":"bytes32"}],"outputs":[{"name":"","type":"bool","internalType":"bool"}],"stateMutability":"view"},{"type":"function","name":"interfaceImplementer","inputs":[{"name":"node","type":"bytes32","internalType":"bytes32"},{"name":"interfaceID","type":"bytes4","internalType":"bytes4"}],"outputs":[{"name":"","type":"address","internalType":"address"}],"stateMutability":"view"},{"type":"function","name":"isApprovedForAll","inputs":[{"name":"account","type":"address","internalType":"address"},{"name":"operator","type":"address","internalType":"address"}],"outputs":[{"name":"","type":"bool","internalType":"bool"}],"stateMutability":"view"},{"type":"function","name":"multicall","inputs":[{"name":"data","type":"bytes[]","internalType":"bytes[]"}],"outputs":[{"name":"results","type":"bytes[]","internalType":"bytes[]"}],"stateMutability":"nonpayable"},{"type":"function","name":"name","inputs":[{"name":"node","type":"bytes32","internalType":"bytes32"}],"outputs":[{"name":"","type":"string","internalType":"string"}],"stateMutability":"view"},{"type":"function","name":"pubkey","inputs":[{"name":"node","type":"bytes32","internalType":"bytes32"}],"outputs":[{"name":"x","type":"bytes32","internalType":"bytes32"},{"name":"y","type":"bytes32","internalType":"bytes32"}],"stateMutability":"view"},{"type":"function","name":"setABI","inputs":[{"name":"node","type":"bytes32","internalType":"bytes32"},{"name":"contentType","type":"uint256","internalType":"uint256"},{"name":"data","type":"bytes","internalType":"bytes"}],"outputs":[],"stateMutability":"nonpayable"},{"type":"function","name":"setAddr","inputs":[{"name":"node","type":"bytes32","internalType":"bytes32"},{"name":"coinType","type":"uint256","internalType":"uint256"},{"name":"a","type":"bytes","internalType":"bytes"}],"outputs":[],"stateMutability":"nonpayable"},{"type":"function","name":"setAddr","inputs":[{"name":"node","type":"bytes32","internalType":"bytes32"},{"name":"a","type":"address","internalType":"address"}],"outputs":[],"stateMutability":"nonpayable"},{"type":"function","name":"setApprovalForAll","inputs":[{"name":"operator","type":"address","internalType":"address"},{"name":"approved","type":"bool","internalType":"bool"}],"outputs":[],"stateMutability":"nonpayable"},{"type":"function","name":"setContenthash","inputs":[{"name":"node","type":"bytes32","internalType":"bytes32"},{"name":"hash","type":"bytes","internalType":"bytes"}],"outputs":[],"stateMutability":"nonpayable"},{"type":"function","name":"setDNSRecords","inputs":[{"name":"node","type":"bytes32","internalType":"bytes32"},{"name":"data","type":"bytes","internalType":"bytes"}],"outputs":[],"stateMutability":"nonpayable"},{"type":"function","name":"setInterface","inputs":[{"name":"node","type":"bytes32","internalType":"bytes32"},{"name":"interfaceID","type":"bytes4","internalType":"bytes4"},{"name":"implementer","type":"address","internalType":"address"}],"outputs":[],"stateMutability":"nonpayable"},{"type":"function","name":"setName","inputs":[{"name":"node","type":"bytes32","internalType":"bytes32"},{"name":"newName","type":"string","internalType":"string"}],"outputs":[],"stateMutability":"nonpayable"},{"type":"function","name":"setPubkey","inputs":[{"name":"node","type":"bytes32","internalType":"bytes32"},{"name":"x","type":"bytes32","internalType":"bytes32"},{"name":"y","type":"bytes32","internalType":"bytes32"}],"outputs":[],"stateMutability":"nonpayable"},{"type":"function","name":"setText","inputs":[{"name":"node","type":"bytes32","internalType":"bytes32"},{"name":"key","type":"string","internalType":"string"},{"name":"value","type":"string","internalType":"string"}],"outputs":[],"stateMutability":"nonpayable"},{"type":"function","name":"setZonehash","inputs":[{"name":"node","type":"bytes32","internalType":"bytes32"},{"name":"hash","type":"bytes","internalType":"bytes"}],"outputs":[],"stateMutability":"nonpayable"},{"type":"function","name":"supportsInterface","inputs":[{"name":"interfaceID","type":"bytes4","internalType":"bytes4"}],"outputs":[{"name":"","type":"bool","internalType":"bool"}],"stateMutability":"pure"},{"type":"function","name":"text","inputs":[{"name":"node","type":"bytes32","internalType":"bytes32"},{"name":"key","type":"string","internalType":"string"}],"outputs":[{"name":"","type":"string","internalType":"string"}],"stateMutability":"view"},{"type":"function","name":"zonehash","inputs":[{"name":"node","type":"bytes32","internalType":"bytes32"}],"outputs":[{"name":"","type":"bytes","internalType":"bytes"}],"stateMutability":"view"},{"type":"event","name":"ABIChanged","inputs":[{"name":"node","type":"bytes32","indexed":true,"internalType":"bytes32"},{"name":"contentType","type":"uint256","indexed":true,"internalType":"uint256"}],"anonymous":false},{"type":"event","name":"AddrChanged","inputs":[{"name":"node","type":"bytes32","indexed":true,"internalType":"bytes32"},{"name":"a","type":"address","indexed":false,"internalType":"address"}],"anonymous":false},{"type":"event","name":"AddressChanged","inputs":[{"name":"node","type":"bytes32","indexed":true,"internalType":"bytes32"},{"name":"coinType","type":"uint256","indexed":false,"internalType":"uint256"},{"name":"newAddress","type":"bytes","indexed":false,"internalType":"bytes"}],"anonymous":false},{"type":"event","name":"ApprovalForAll","inputs":[{"name":"owner","type":"address","indexed":true,"internalType":"address"},{"name":"operator","type":"address","indexed":true,"internalType":"address"},{"name":"approved","type":"bool","indexed":false,"internalType":"bool"}],"anonymous":false},{"type":"event","name":"ContenthashChanged","inputs":[{"name":"node","type":"bytes32","indexed":true,"internalType":"bytes32"},{"name":"hash","type":"bytes","indexed":false,"internalType":"bytes"}],"anonymous":false},{"type":"event","name":"DNSRecordChanged","inputs":[{"name":"node","type":"bytes32","indexed":true,"internalType":"bytes32"},{"name":"name","type":"bytes","indexed":false,"internalType":"bytes"},{"name":"resource","type":"uint16","indexed":false,"internalType":"uint16"},{"name":"record","type":"bytes","indexed":false,"internalType":"bytes"}],"anonymous":false},{"type":"event","name":"DNSRecordDeleted","inputs":[{"name":"node","type":"bytes32","indexed":true,"internalType":"bytes32"},{"name":"name","type":"bytes","indexed":false,"internalType":"bytes"},{"name":"resource","type":"uint16","indexed":false,"internalType":"uint16"}],"anonymous":false},{"type":"event","name":"DNSZoneCleared","inputs":[{"name":"node","type":"bytes32","indexed":true,"internalType":"bytes32"}],"anonymous":false},{"type":"event","name":"DNSZonehashChanged","inputs":[{"name":"node","type":"bytes32","indexed":true,"internalType":"bytes32"},{"name":"lastzonehash","type":"bytes","indexed":false,"internalType":"bytes"},{"name":"zonehash","type":"bytes","indexed":false,"internalType":"bytes"}],"anonymous":false},{"type":"event","name":"InterfaceChanged","inputs":[{"name":"node","type":"bytes32","indexed":true,"internalType":"bytes32"},{"name":"interfaceID","type":"bytes4","indexed":true,"internalType":"bytes4"},{"name":"implementer","type":"address","indexed":false,"internalType":"address"}],"anonymous":false},{"type":"event","name":"NameChanged","inputs":[{"name":"node","type":"bytes32","indexed":true,"internalType":"bytes32"},{"name":"name","type":"string","indexed":false,"internalType":"string"}],"anonymous":false},{"type":"event","name":"PubkeyChanged","inputs":[{"name":"node","type":"bytes32","indexed":true,"internalType":"bytes32"},{"name":"x","type":"bytes32","indexed":false,"internalType":"bytes32"},{"name":"y","type":"bytes32","indexed":false,"internalType":"bytes32"}],"anonymous":false},{"type":"event","name":"TextChanged","inputs":[{"name":"node","type":"bytes32","indexed":true,"internalType":"bytes32"},{"name":"indexedKey","type":"string","indexed":true,"internalType":"string"},{"name":"key","type":"string","indexed":false,"internalType":"string"}],"anonymous":false}],"bytecode":{"object":"0x60806040523480156200001157600080fd5b50604051620027843803806200278483398101604081905262000034916200007f565b600b80546001600160a01b039384166001600160a01b031991821617909155600c8054929093169116179055620000be565b6001600160a01b03811681146200007c57600080fd5b50565b600080604083850312156200009357600080fd5b8251620000a08162000066565b6020840151909250620000b38162000066565b809150509250929050565b6126b680620000ce6000396000f3fe608060405234801561001057600080fd5b506004361061018e5760003560e01c806377372213116100de578063bc1c58d111610097578063d5fa2b0011610071578063d5fa2b00146103e3578063e59d895d146103f6578063e985e9c514610409578063f1cb7e061461044557600080fd5b8063bc1c58d114610380578063c869023314610393578063ce3decdc146103d057600080fd5b806377372213146103015780638b95dd7114610314578063a22cb46514610327578063a8fa56821461033a578063ac9650d81461034d578063ad5780af1461036d57600080fd5b8063304e6ade1161014b57806359d1d43c1161012557806359d1d43c146102a85780635c98042b146102c8578063623195b0146102db578063691f3431146102ee57600080fd5b8063304e6ade146102425780633b3b57de146102555780634cbf6ba41461026857600080fd5b806301ffc9a7146101935780630af179d7146101bb57806310f13a8c146101d0578063124a319c146101e35780632203ab561461020e57806329cd62ea1461022f575b600080fd5b6101a66101a1366004611d15565b610458565b60405190151581526020015b60405180910390f35b6101ce6101c9366004611d72565b610483565b005b6101ce6101de366004611dbe565b610671565b6101f66101f1366004611e38565b61071f565b6040516001600160a01b0390911681526020016101b2565b61022161021c366004611e64565b610957565b6040516101b2929190611ed6565b6101ce61023d366004611eef565b610a72565b6101ce610250366004611d72565b610af2565b6101f6610263366004611f1b565b610b51565b6101a6610276366004611e64565b600091825260066020908152604080842060048352818520548552825280842092845291905290205461ffff16151590565b6102bb6102b6366004611d72565b610b83565b6040516101b29190611f34565b6102bb6102d6366004611f1b565b610c48565b6101ce6102e9366004611f47565b610cea565b6102bb6102fc366004611f1b565b610d6b565b6101ce61030f366004611d72565b610d88565b6101ce610322366004611fb0565b610de7565b6101ce610335366004612089565b610ead565b6102bb6103483660046120c7565b610f87565b61036061035b366004612107565b610fca565b6040516101b2919061217c565b6101ce61037b366004611f1b565b6110e5565b6102bb61038e366004611f1b565b611146565b6103bb6103a1366004611f1b565b600090815260096020526040902080546001909101549091565b604080519283526020830191909152016101b2565b6101ce6103de366004611d72565b611163565b6101ce6103f13660046121de565b61126f565b6101ce610404366004612203565b611296565b6101a6610417366004612238565b6001600160a01b039182166000908152600d6020908152604080832093909416825291909152205460ff1690565b6102bb610453366004611e64565b611323565b60006001600160e01b03198216631592ca1b60e31b148061047d575061047d826113d1565b92915050565b8261048d816113f6565b61049657600080fd5b6000806060806000806104e360008a8a8080601f016020809104026020016040519081016040528093929190818152602001838380828437600092019190915250929392505061152f9050565b90505b8051516020820151101561060c578561ffff1660000361054b578060400151955061051081611590565b9350836040516020016105239190612266565b604051602081830303815290604052805190602001209150610544816115b1565b92506105fe565b600061055682611590565b9050816040015161ffff168761ffff1614158061057a575061057885826115cd565b155b156105fc576105d58b86898d8d8080601f016020809104026020016040519081016040528093929190818152602001838380828437600092019190915250505060208801518c91506105cd908290612298565b8a51156115eb565b8160400151965081602001519550809450848051906020012092506105f9826115b1565b93505b505b6106078161182a565b6104e6565b50825115610666576106668984878b8b8080601f0160208091040260200160405190810160405280939291908181526020018383808284376000920191909152508b925061065e91508290508e612298565b8851156115eb565b505050505050505050565b8461067b816113f6565b61068457600080fd5b8282600a600089815260200190815260200160002087876040516106a99291906122ab565b908152602001604051809103902091826106c4929190612343565b5084846040516106d59291906122ab565b6040518091039020867fd8c9334b1a9c2f9da342a0a2b32629c1a229b6445dad78947f674b44444a7550878760405161070f92919061242c565b60405180910390a3505050505050565b60008281526007602090815260408083206001600160e01b0319851684529091528120546001600160a01b0316801561075957905061047d565b600061076485610b51565b90506001600160a01b03811661077f5760009250505061047d565b6040516301ffc9a760e01b602482015260009081906001600160a01b0384169060440160408051601f198184030181529181526020820180516001600160e01b03166301ffc9a760e01b179052516107d79190612266565b600060405180830381855afa9150503d8060008114610812576040519150601f19603f3d011682016040523d82523d6000602084013e610817565b606091505b509150915081158061082a575060208151105b80610854575080601f8151811061084357610843612440565b01602001516001600160f81b031916155b1561086657600094505050505061047d565b6040516001600160e01b0319871660248201526001600160a01b0384169060440160408051601f198184030181529181526020820180516001600160e01b03166301ffc9a760e01b179052516108bc9190612266565b600060405180830381855afa9150503d80600081146108f7576040519150601f19603f3d011682016040523d82523d6000602084013e6108fc565b606091505b509092509050811580610910575060208151105b8061093a575080601f8151811061092957610929612440565b01602001516001600160f81b031916155b1561094c57600094505050505061047d565b509095945050505050565b600082815260208190526040812060609060015b848111610a52578085161580159061099b575060008181526020839052604081208054610997906122bb565b9050115b15610a4a57808260008381526020019081526020016000208080546109bf906122bb565b80601f01602080910402602001604051908101604052809291908181526020018280546109eb906122bb565b8015610a385780601f10610a0d57610100808354040283529160200191610a38565b820191906000526020600020905b815481529060010190602001808311610a1b57829003601f168201915b50505050509050935093505050610a6b565b60011b61096b565b5060006040518060200160405280600081525092509250505b9250929050565b82610a7c816113f6565b610a8557600080fd5b60408051808201825284815260208082018581526000888152600983528490209251835551600190920191909155815185815290810184905285917f1d6f5e03d3f63eb58751986629a5439baee5079ff04f345becb66e23eb154e4691015b60405180910390a250505050565b82610afc816113f6565b610b0557600080fd5b6000848152600260205260409020610b1e838583612343565b50837fe379c1624ed7e714cc0937528a32359d69d5281337765313dba4e081b72d75788484604051610ae492919061242c565b600080610b5f83603c611323565b90508051600003610b735750600092915050565b610b7c81611912565b9392505050565b6060600a60008581526020019081526020016000208383604051610ba89291906122ab565b90815260200160405180910390208054610bc1906122bb565b80601f0160208091040260200160405190810160405280929190818152602001828054610bed906122bb565b8015610c3a5780601f10610c0f57610100808354040283529160200191610c3a565b820191906000526020600020905b815481529060010190602001808311610c1d57829003601f168201915b505050505090509392505050565b6000818152600360205260409020805460609190610c65906122bb565b80601f0160208091040260200160405190810160405280929190818152602001828054610c91906122bb565b8015610cde5780601f10610cb357610100808354040283529160200191610cde565b820191906000526020600020905b815481529060010190602001808311610cc157829003601f168201915b50505050509050919050565b83610cf4816113f6565b610cfd57600080fd5b83610d09600182612298565b1615610d1457600080fd5b6000858152602081815260408083208784529091529020610d36838583612343565b50604051849086907faa121bbeef5f32f5961a2a28966e769023910fc9479059ee3495d4c1a696efe390600090a35050505050565b6000818152600860205260409020805460609190610c65906122bb565b82610d92816113f6565b610d9b57600080fd5b6000848152600860205260409020610db4838583612343565b50837fb7d29e911041e8d9b843369e890bcb72c9388692ba48b65ac54e7214c4c348f78484604051610ae492919061242c565b82610df1816113f6565b610dfa57600080fd5b837f65412581168e88a1e60c6459d7f44ae83ad0832e670826c05a4e2476b57af7528484604051610e2c929190611ed6565b60405180910390a2603c8303610e8357837f52d7d861f09ab3d26239d492e8968629f95e9e318cf0b73bfddc441522a15fd2610e6784611912565b6040516001600160a01b03909116815260200160405180910390a25b60008481526001602090815260408083208684529091529020610ea68382612456565b5050505050565b6001600160a01b0382163303610f1b5760405162461bcd60e51b815260206004820152602960248201527f455243313135353a2073657474696e6720617070726f76616c20737461747573604482015268103337b91039b2b63360b91b606482015260840160405180910390fd5b336000818152600d602090815260408083206001600160a01b03871680855290835292819020805460ff191686151590811790915590519081529192917f17307eab39ab6107e8899845ad3d59bd9653f200f220920489ca2b5937696c31910160405180910390a35050565b6000838152600560209081526040808320600483528184205484528252808320858452825280832061ffff851684529091529020805460609190610bc1906122bb565b60608167ffffffffffffffff811115610fe557610fe5611f9a565b60405190808252806020026020018201604052801561101857816020015b60608152602001906001900390816110035790505b50905060005b828110156110de576000803086868581811061103c5761103c612440565b905060200281019061104e9190612516565b60405161105c9291906122ab565b600060405180830381855af49150503d8060008114611097576040519150601f19603f3d011682016040523d82523d6000602084013e61109c565b606091505b5091509150816110ab57600080fd5b808484815181106110be576110be612440565b6020026020010181905250505080806110d69061255d565b91505061101e565b5092915050565b806110ef816113f6565b6110f857600080fd5b60008281526004602052604081208054916111128361255d565b909155505060405182907fb757169b8492ca2f1c6619d9d76ce22803035c3b1d5f6930dffe7b127c1a198390600090a25050565b6000818152600260205260409020805460609190610c65906122bb565b8261116d816113f6565b61117657600080fd5b6000848152600360205260408120805461118f906122bb565b80601f01602080910402602001604051908101604052809291908181526020018280546111bb906122bb565b80156112085780601f106111dd57610100808354040283529160200191611208565b820191906000526020600020905b8154815290600101906020018083116111eb57829003601f168201915b505050600088815260036020526040902092935061122b91508590508683612343565b50847f8f15ed4b723ef428f250961da8315675b507046737e19319fc1a4d81bfe87f8582868660405161126093929190612576565b60405180910390a25050505050565b81611279816113f6565b61128257600080fd5b61129183603c61032285611931565b505050565b826112a0816113f6565b6112a957600080fd5b60008481526007602090815260408083206001600160e01b031987168085529083529281902080546001600160a01b0319166001600160a01b038716908117909155905190815286917f7c69f06bea0bdef565b709e93a147836b0063ba2dd89f02d0b7e8d931e6a6daa910160405180910390a350505050565b6000828152600160209081526040808320848452909152902080546060919061134b906122bb565b80601f0160208091040260200160405190810160405280929190818152602001828054611377906122bb565b80156113c45780601f10611399576101008083540402835291602001916113c4565b820191906000526020600020905b8154815290600101906020018083116113a757829003601f168201915b5050505050905092915050565b60006001600160e01b03198216631674750f60e21b148061047d575061047d82611961565b600b546040516302571be360e01b81526004810183905260009182916001600160a01b03909116906302571be390602401602060405180830381865afa158015611444573d6000803e3d6000fd5b505050506040513d601f19601f8201168201806040525081019061146891906125a6565b600c549091506001600160a01b03908116908216036114f157600c546040516331a9108f60e11b8152600481018590526001600160a01b0390911690636352211e90602401602060405180830381865afa1580156114ca573d6000803e3d6000fd5b505050506040513d601f19601f820116820180604052508101906114ee91906125a6565b90505b6001600160a01b038116331480610b7c57506001600160a01b0381166000908152600d6020908152604080832033845290915290205460ff16610b7c565b61157d6040518060e001604052806060815260200160008152602001600061ffff168152602001600061ffff168152602001600063ffffffff16815260200160008152602001600081525090565b82815260c0810182905261047d8161182a565b6020810151815160609161047d916115a89082611986565b845191906119e8565b60a081015160c082015160609161047d916115a8908290612298565b600081518351148015610b7c5750610b7c8360008460008751611a5f565b600087815260046020908152604082205488519189019190912090916116128787876119e8565b9050831561171b5760008a81526005602090815260408083208684528252808320858452825280832061ffff8c16845290915290208054611652906122bb565b1590506116a65760008a815260066020908152604080832086845282528083208584529091528120805461ffff169161168a836125c3565b91906101000a81548161ffff021916908361ffff160217905550505b60008a81526005602090815260408083208684528252808320858452825280832061ffff8c16845290915281206116dc91611ca2565b897f03528ed0c2a3ebc993b12ce3c16bb382f9c7d88ef7d8a1bf290eaf35955a12078a8a60405161170e9291906125e1565b60405180910390a261181e565b60008a81526005602090815260408083208684528252808320858452825280832061ffff8c16845290915290208054611753906122bb565b90506000036117a95760008a815260066020908152604080832086845282528083208584529091528120805461ffff169161178d83612607565b91906101000a81548161ffff021916908361ffff160217905550505b60008a81526005602090815260408083208684528252808320858452825280832061ffff8c16845290915290206117e08282612456565b50897f52a608b3303a48862d07a73d82fa221318c0027fbbcfb1b2329bface3f19ff2b8a8a8460405161181593929190612628565b60405180910390a25b50505050505050505050565b60c081015160208201819052815151116118415750565b600061185582600001518360200151611986565b82602001516118649190612657565b82519091506118739082611a82565b61ffff166040830152611887600282612657565b82519091506118969082611a82565b61ffff1660608301526118aa600282612657565b82519091506118b99082611aaa565b63ffffffff1660808301526118cf600482612657565b82519091506000906118e19083611a82565b61ffff1690506118f2600283612657565b60a0840181905291506119058183612657565b60c0909301929092525050565b6000815160141461192257600080fd5b5060200151600160601b900490565b604080516014808252818301909252606091602082018180368337505050600160601b9290920260208301525090565b60006001600160e01b0319821663c869023360e01b148061047d575061047d82611ad4565b6000815b8351811061199a5761199a61266a565b60006119a68583611af9565b60ff1690506119b6816001612657565b6119c09083612657565b9150806000036119d057506119d6565b5061198a565b6119e08382612298565b949350505050565b82516060906119f78385612657565b1115611a0257600080fd5b60008267ffffffffffffffff811115611a1d57611a1d611f9a565b6040519080825280601f01601f191660200182016040528015611a47576020820181803683370190505b5090506020808201908686010161094c828287611b1d565b6000611a6c848484611b73565b611a77878785611b73565b149695505050505050565b8151600090611a92836002612657565b1115611a9d57600080fd5b50016002015161ffff1690565b8151600090611aba836004612657565b1115611ac557600080fd5b50016004015163ffffffff1690565b60006001600160e01b0319821663691f343160e01b148061047d575061047d82611b97565b6000828281518110611b0d57611b0d612440565b016020015160f81c905092915050565b60208110611b555781518352611b34602084612657565b9250611b41602083612657565b9150611b4e602082612298565b9050611b1d565b905182516020929092036101000a6000190180199091169116179052565b8251600090611b828385612657565b1115611b8d57600080fd5b5091016020012090565b60006001600160e01b031982166304928c6760e21b148061047d575061047d8260006001600160e01b0319821663547d2b4160e11b1480611be857506001600160e01b03198216635c98042b60e01b145b8061047d575061047d8260006001600160e01b0319821663bc1c58d160e01b148061047d575061047d8260006001600160e01b03198216631d9dabef60e11b1480611c4357506001600160e01b031982166378e5bf0360e11b145b8061047d575061047d8260006001600160e01b03198216631101d5ab60e11b148061047d575061047d8260006001600160e01b03198216631592ca1b60e31b148061047d57506301ffc9a760e01b6001600160e01b031983161461047d565b508054611cae906122bb565b6000825580601f10611cbe575050565b601f016020900490600052602060002090810190611cdc9190611cdf565b50565b5b80821115611cf45760008155600101611ce0565b5090565b80356001600160e01b031981168114611d1057600080fd5b919050565b600060208284031215611d2757600080fd5b610b7c82611cf8565b60008083601f840112611d4257600080fd5b50813567ffffffffffffffff811115611d5a57600080fd5b602083019150836020828501011115610a6b57600080fd5b600080600060408486031215611d8757600080fd5b83359250602084013567ffffffffffffffff811115611da557600080fd5b611db186828701611d30565b9497909650939450505050565b600080600080600060608688031215611dd657600080fd5b85359450602086013567ffffffffffffffff80821115611df557600080fd5b611e0189838a01611d30565b90965094506040880135915080821115611e1a57600080fd5b50611e2788828901611d30565b969995985093965092949392505050565b60008060408385031215611e4b57600080fd5b82359150611e5b60208401611cf8565b90509250929050565b60008060408385031215611e7757600080fd5b50508035926020909101359150565b60005b83811015611ea1578181015183820152602001611e89565b50506000910152565b60008151808452611ec2816020860160208601611e86565b601f01601f19169290920160200192915050565b8281526040602082015260006119e06040830184611eaa565b600080600060608486031215611f0457600080fd5b505081359360208301359350604090920135919050565b600060208284031215611f2d57600080fd5b5035919050565b602081526000610b7c6020830184611eaa565b60008060008060608587031215611f5d57600080fd5b8435935060208501359250604085013567ffffffffffffffff811115611f8257600080fd5b611f8e87828801611d30565b95989497509550505050565b634e487b7160e01b600052604160045260246000fd5b600080600060608486031215611fc557600080fd5b8335925060208401359150604084013567ffffffffffffffff80821115611feb57600080fd5b818601915086601f830112611fff57600080fd5b81358181111561201157612011611f9a565b604051601f8201601f19908116603f0116810190838211818310171561203957612039611f9a565b8160405282815289602084870101111561205257600080fd5b8260208601602083013760006020848301015280955050505050509250925092565b6001600160a01b0381168114611cdc57600080fd5b6000806040838503121561209c57600080fd5b82356120a781612074565b9150602083013580151581146120bc57600080fd5b809150509250929050565b6000806000606084860312156120dc57600080fd5b8335925060208401359150604084013561ffff811681146120fc57600080fd5b809150509250925092565b6000806020838503121561211a57600080fd5b823567ffffffffffffffff8082111561213257600080fd5b818501915085601f83011261214657600080fd5b81358181111561215557600080fd5b8660208260051b850101111561216a57600080fd5b60209290920196919550909350505050565b6000602080830181845280855180835260408601915060408160051b870101925083870160005b828110156121d157603f198886030184526121bf858351611eaa565b945092850192908501906001016121a3565b5092979650505050505050565b600080604083850312156121f157600080fd5b8235915060208301356120bc81612074565b60008060006060848603121561221857600080fd5b8335925061222860208501611cf8565b915060408401356120fc81612074565b6000806040838503121561224b57600080fd5b823561225681612074565b915060208301356120bc81612074565b60008251612278818460208701611e86565b9190910192915050565b634e487b7160e01b600052601160045260246000fd5b8181038181111561047d5761047d612282565b8183823760009101908152919050565b600181811c908216806122cf57607f821691505b6020821081036122ef57634e487b7160e01b600052602260045260246000fd5b50919050565b601f82111561129157600081815260208120601f850160051c8101602086101561231c5750805b601f850160051c820191505b8181101561233b57828155600101612328565b505050505050565b67ffffffffffffffff83111561235b5761235b611f9a565b61236f8361236983546122bb565b836122f5565b6000601f8411600181146123a3576000851561238b5750838201355b600019600387901b1c1916600186901b178355610ea6565b600083815260209020601f19861690835b828110156123d457868501358255602094850194600190920191016123b4565b50868210156123f15760001960f88860031b161c19848701351681555b505060018560011b0183555050505050565b81835281816020850137506000828201602090810191909152601f909101601f19169091010190565b6020815260006119e0602083018486612403565b634e487b7160e01b600052603260045260246000fd5b815167ffffffffffffffff81111561247057612470611f9a565b6124848161247e84546122bb565b846122f5565b602080601f8311600181146124b957600084156124a15750858301515b600019600386901b1c1916600185901b17855561233b565b600085815260208120601f198616915b828110156124e8578886015182559484019460019091019084016124c9565b50858210156125065787850151600019600388901b60f8161c191681555b5050505050600190811b01905550565b6000808335601e1984360301811261252d57600080fd5b83018035915067ffffffffffffffff82111561254857600080fd5b602001915036819003821315610a6b57600080fd5b60006001820161256f5761256f612282565b5060010190565b6040815260006125896040830186611eaa565b828103602084015261259c818587612403565b9695505050505050565b6000602082840312156125b857600080fd5b8151610b7c81612074565b600061ffff8216806125d7576125d7612282565b6000190192915050565b6040815260006125f46040830185611eaa565b905061ffff831660208301529392505050565b600061ffff80831681810361261e5761261e612282565b6001019392505050565b60608152600061263b6060830186611eaa565b61ffff85166020840152828103604084015261259c8185611eaa565b8082018082111561047d5761047d612282565b634e487b7160e01b600052600160045260246000fdfea264697066735822122060e8cfcd4736fbbc50ac72e55ecfa22b4a27bbdb35dec8775a071818a4d0286e64736f6c63430008110033","linkReferences":{}},"methodIdentifiers":{"ABI(bytes32,uint256)":"2203ab56","addr(bytes32)":"3b3b57de","addr(bytes32,uint256)":"f1cb7e06","clearDNSZone(bytes32)":"ad5780af","contenthash(bytes32)":"bc1c58d1","dnsRecord(bytes32,bytes32,uint16)":"a8fa5682","hasDNSRecords(bytes32,bytes32)":"4cbf6ba4","interfaceImplementer(bytes32,bytes4)":"124a319c","isApprovedForAll(address,address)":"e985e9c5","multicall(bytes[])":"ac9650d8","name(bytes32)":"691f3431","pubkey(bytes32)":"c8690233","setABI(bytes32,uint256,bytes)":"623195b0","setAddr(bytes32,address)":"d5fa2b00","setAddr(bytes32,uint256,bytes)":"8b95dd71","setApprovalForAll(address,bool)":"a22cb465","setContenthash(bytes32,bytes)":"304e6ade","setDNSRecords(bytes32,bytes)":"0af179d7","setInterface(bytes32,bytes4,address)":"e59d895d","setName(bytes32,string)":"77372213","setPubkey(bytes32,bytes32,bytes32)":"29cd62ea","setText(bytes32,string,string)":"10f13a8c","setZonehash(bytes32,bytes)":"ce3decdc","supportsInterface(bytes4)":"01ffc9a7","text(bytes32,string)":"59d1d43c","zonehash(bytes32)":"5c98042b"},"id":73}