{"abi":[{"type":"function","name":"allowance","inputs":[{"name":"owner","type":"address","internalType":"address"},{"name":"spender","type":"address","internalType":"address"}],"outputs":[{"name":"","type":"uint256","internalType":"uint256"}],"stateMutability":"view"},{"type":"function","name":"approve","inputs":[{"name":"spender","type":"address","internalType":"address"},{"name":"amount","type":"uint256","internalType":"uint256"}],"outputs":[{"name":"","type":"bool","internalType":"bool"}],"stateMutability":"nonpayable"},{"type":"function","name":"balanceOf","inputs":[{"name":"account","type":"address","internalType":"address"}],"outputs":[{"name":"","type":"uint256","internalType":"uint256"}],"stateMutability":"view"},{"type":"function","name":"burn","inputs":[{"name":"amount","type":"uint256","internalType":"uint256"}],"outputs":[],"stateMutability":"nonpayable"},{"type":"function","name":"burnFrom","inputs":[{"name":"account","type":"address","internalType":"address"},{"name":"amount","type":"uint256","internalType":"uint256"}],"outputs":[],"stateMutability":"nonpayable"},{"type":"function","name":"decimals","inputs":[],"outputs":[{"name":"","type":"uint8","internalType":"uint8"}],"stateMutability":"view"},{"type":"function","name":"decreaseAllowance","inputs":[{"name":"spender","type":"address","internalType":"address"},{"name":"subtractedValue","type":"uint256","internalType":"uint256"}],"outputs":[{"name":"","type":"bool","internalType":"bool"}],"stateMutability":"nonpayable"},{"type":"function","name":"increaseAllowance","inputs":[{"name":"spender","type":"address","internalType":"address"},{"name":"addedValue","type":"uint256","internalType":"uint256"}],"outputs":[{"name":"","type":"bool","internalType":"bool"}],"stateMutability":"nonpayable"},{"type":"function","name":"initialize","inputs":[{"name":"name","type":"string","internalType":"string"},{"name":"symbol","type":"string","internalType":"string"},{"name":"initialSupply","type":"uint256","internalType":"uint256"},{"name":"owner","type":"address","internalType":"address"}],"outputs":[],"stateMutability":"nonpayable"},{"type":"function","name":"name","inputs":[],"outputs":[{"name":"","type":"string","internalType":"string"}],"stateMutability":"view"},{"type":"function","name":"symbol","inputs":[],"outputs":[{"name":"","type":"string","internalType":"string"}],"stateMutability":"view"},{"type":"function","name":"totalSupply","inputs":[],"outputs":[{"name":"","type":"uint256","internalType":"uint256"}],"stateMutability":"view"},{"type":"function","name":"transfer","inputs":[{"name":"to","type":"address","internalType":"address"},{"name":"amount","type":"uint256","internalType":"uint256"}],"outputs":[{"name":"","type":"bool","internalType":"bool"}],"stateMutability":"nonpayable"},{"type":"function","name":"transferFrom","inputs":[{"name":"from","type":"address","internalType":"address"},{"name":"to","type":"address","internalType":"address"},{"name":"amount","type":"uint256","internalType":"uint256"}],"outputs":[{"name":"","type":"bool","internalType":"bool"}],"stateMutability":"nonpayable"},{"type":"event","name":"Approval","inputs":[{"name":"owner","type":"address","indexed":true,"internalType":"address"},{"name":"spender","type":"address","indexed":true,"internalType":"address"},{"name":"value","type":"uint256","indexed":false,"internalType":"uint256"}],"anonymous":false},{"type":"event","name":"Initialized","inputs":[{"name":"version","type":"uint8","indexed":false,"internalType":"uint8"}],"anonymous":false},{"type":"event","name":"Transfer","inputs":[{"name":"from","type":"address","indexed":true,"internalType":"address"},{"name":"to","type":"address","indexed":true,"internalType":"address"},{"name":"value","type":"uint256","indexed":false,"internalType":"uint256"}],"anonymous":false}],"bytecode":{"object":"0x608060405234801561001057600080fd5b50610f43806100206000396000f3fe608060405234801561001057600080fd5b50600436106100ea5760003560e01c806370a082311161008c578063a457c2d711610066578063a457c2d7146101d0578063a9059cbb146101e3578063bd3a13f6146101f6578063dd62ed3e1461020957600080fd5b806370a082311461018c57806379cc6790146101b557806395d89b41146101c857600080fd5b806323b872dd116100c857806323b872dd14610142578063313ce56714610155578063395093511461016457806342966c681461017757600080fd5b806306fdde03146100ef578063095ea7b31461010d57806318160ddd14610130575b600080fd5b6100f761021c565b6040516101049190610afa565b60405180910390f35b61012061011b366004610b64565b6102ae565b6040519015158152602001610104565b6035545b604051908152602001610104565b610120610150366004610b8e565b6102c8565b60405160128152602001610104565b610120610172366004610b64565b6102ec565b61018a610185366004610bca565b61030e565b005b61013461019a366004610be3565b6001600160a01b031660009081526033602052604090205490565b61018a6101c3366004610b64565b61031b565b6100f7610334565b6101206101de366004610b64565b610343565b6101206101f1366004610b64565b6103c3565b61018a610204366004610ca8565b6103d1565b610134610217366004610d26565b6104ea565b60606036805461022b90610d59565b80601f016020809104026020016040519081016040528092919081815260200182805461025790610d59565b80156102a45780601f10610279576101008083540402835291602001916102a4565b820191906000526020600020905b81548152906001019060200180831161028757829003601f168201915b5050505050905090565b6000336102bc818585610515565b60019150505b92915050565b6000336102d685828561063a565b6102e18585856106b4565b506001949350505050565b6000336102bc8185856102ff83836104ea565b6103099190610d93565b610515565b610318338261085f565b50565b61032682338361063a565b610330828261085f565b5050565b60606037805461022b90610d59565b6000338161035182866104ea565b9050838110156103b65760405162461bcd60e51b815260206004820152602560248201527f45524332303a2064656372656173656420616c6c6f77616e63652062656c6f77604482015264207a65726f60d81b60648201526084015b60405180910390fd5b6102e18286868403610515565b6000336102bc8185856106b4565b600054610100900460ff16158080156103f15750600054600160ff909116105b8061040b5750303b15801561040b575060005460ff166001145b61046e5760405162461bcd60e51b815260206004820152602e60248201527f496e697469616c697a61626c653a20636f6e747261637420697320616c72656160448201526d191e481a5b9a5d1a585b1a5e995960921b60648201526084016103ad565b6000805460ff191660011790558015610491576000805461ff0019166101001790555b61049d85858585610990565b80156104e3576000805461ff0019169055604051600181527f7f26b83ff96e1f2b6a682f133852f6798a09c465da95921460cefb38474024989060200160405180910390a15b5050505050565b6001600160a01b03918216600090815260346020908152604080832093909416825291909152205490565b6001600160a01b0383166105775760405162461bcd60e51b8152602060048201526024808201527f45524332303a20617070726f76652066726f6d20746865207a65726f206164646044820152637265737360e01b60648201526084016103ad565b6001600160a01b0382166105d85760405162461bcd60e51b815260206004820152602260248201527f45524332303a20617070726f766520746f20746865207a65726f206164647265604482015261737360f01b60648201526084016103ad565b6001600160a01b0383811660008181526034602090815260408083209487168084529482529182902085905590518481527f8c5be1e5ebec7d5bd14f71427d1e84f3dd0314c0f7b2291e5b200ac8c7c3b92591015b60405180910390a3505050565b600061064684846104ea565b905060001981146106ae57818110156106a15760405162461bcd60e51b815260206004820152601d60248201527f45524332303a20696e73756666696369656e7420616c6c6f77616e636500000060448201526064016103ad565b6106ae8484848403610515565b50505050565b6001600160a01b0383166107185760405162461bcd60e51b815260206004820152602560248201527f45524332303a207472616e736665722066726f6d20746865207a65726f206164604482015264647265737360d81b60648201526084016103ad565b6001600160a01b03821661077a5760405162461bcd60e51b815260206004820152602360248201527f45524332303a207472616e7366657220746f20746865207a65726f206164647260448201526265737360e81b60648201526084016103ad565b6001600160a01b038316600090815260336020526040902054818110156107f25760405162461bcd60e51b815260206004820152602660248201527f45524332303a207472616e7366657220616d6f756e7420657863656564732062604482015265616c616e636560d01b60648201526084016103ad565b6001600160a01b0380851660008181526033602052604080822086860390559286168082529083902080548601905591517fddf252ad1be2c89b69c2b068fc378daa952ba7f163c4a11628f55a4df523b3ef906108529086815260200190565b60405180910390a36106ae565b6001600160a01b0382166108bf5760405162461bcd60e51b815260206004820152602160248201527f45524332303a206275726e2066726f6d20746865207a65726f206164647265736044820152607360f81b60648201526084016103ad565b6001600160a01b038216600090815260336020526040902054818110156109335760405162461bcd60e51b815260206004820152602260248201527f45524332303a206275726e20616d6f756e7420657863656564732062616c616e604482015261636560f01b60648201526084016103ad565b6001600160a01b03831660008181526033602090815260408083208686039055603580548790039055518581529192917fddf252ad1be2c89b69c2b068fc378daa952ba7f163c4a11628f55a4df523b3ef910161062d565b505050565b600054610100900460ff166109b75760405162461bcd60e51b81526004016103ad90610db4565b6109c184846109cd565b6106ae84848484610a0d565b600054610100900460ff166109f45760405162461bcd60e51b81526004016103ad90610db4565b6036610a008382610e4d565b50603761098b8282610e4d565b600054610100900460ff16610a345760405162461bcd60e51b81526004016103ad90610db4565b6106ae81836001600160a01b038216610a8f5760405162461bcd60e51b815260206004820152601f60248201527f45524332303a206d696e7420746f20746865207a65726f20616464726573730060448201526064016103ad565b8060356000828254610aa19190610d93565b90915550506001600160a01b0382166000818152603360209081526040808320805486019055518481527fddf252ad1be2c89b69c2b068fc378daa952ba7f163c4a11628f55a4df523b3ef910160405180910390a35050565b600060208083528351808285015260005b81811015610b2757858101830151858201604001528201610b0b565b506000604082860101526040601f19601f8301168501019250505092915050565b80356001600160a01b0381168114610b5f57600080fd5b919050565b60008060408385031215610b7757600080fd5b610b8083610b48565b946020939093013593505050565b600080600060608486031215610ba357600080fd5b610bac84610b48565b9250610bba60208501610b48565b9150604084013590509250925092565b600060208284031215610bdc57600080fd5b5035919050565b600060208284031215610bf557600080fd5b610bfe82610b48565b9392505050565b634e487b7160e01b600052604160045260246000fd5b600082601f830112610c2c57600080fd5b813567ffffffffffffffff80821115610c4757610c47610c05565b604051601f8301601f19908116603f01168101908282118183101715610c6f57610c6f610c05565b81604052838152866020858801011115610c8857600080fd5b836020870160208301376000602085830101528094505050505092915050565b60008060008060808587031215610cbe57600080fd5b843567ffffffffffffffff80821115610cd657600080fd5b610ce288838901610c1b565b95506020870135915080821115610cf857600080fd5b50610d0587828801610c1b565b93505060408501359150610d1b60608601610b48565b905092959194509250565b60008060408385031215610d3957600080fd5b610d4283610b48565b9150610d5060208401610b48565b90509250929050565b600181811c90821680610d6d57607f821691505b602082108103610d8d57634e487b7160e01b600052602260045260246000fd5b50919050565b808201808211156102c257634e487b7160e01b600052601160045260246000fd5b6020808252602b908201527f496e697469616c697a61626c653a20636f6e7472616374206973206e6f74206960408201526a6e697469616c697a696e6760a81b606082015260800190565b601f82111561098b57600081815260208120601f850160051c81016020861015610e265750805b601f850160051c820191505b81811015610e4557828155600101610e32565b505050505050565b815167ffffffffffffffff811115610e6757610e67610c05565b610e7b81610e758454610d59565b84610dff565b602080601f831160018114610eb05760008415610e985750858301515b600019600386901b1c1916600185901b178555610e45565b600085815260208120601f198616915b82811015610edf57888601518255948401946001909101908401610ec0565b5085821015610efd5787850151600019600388901b60f8161c191681555b5050505050600190811b0190555056fea2646970667358221220a2e019cb425b09003d017bedf65aecb96b0ab98aaba4f7649a6fc36f65512d9a64736f6c63430008110033","linkReferences":{}},"methodIdentifiers":{"allowance(address,address)":"dd62ed3e","approve(address,uint256)":"095ea7b3","balanceOf(address)":"70a08231","burn(uint256)":"42966c68","burnFrom(address,uint256)":"79cc6790","decimals()":"313ce567","decreaseAllowance(address,uint256)":"a457c2d7","increaseAllowance(address,uint256)":"39509351","initialize(string,string,uint256,address)":"bd3a13f6","name()":"06fdde03","symbol()":"95d89b41","totalSupply()":"18160ddd","transfer(address,uint256)":"a9059cbb","transferFrom(address,address,uint256)":"23b872dd"},"id":406}