{"abi":[{"type":"constructor","inputs":[{"name":"implementation","type":"address","internalType":"address"}],"stateMutability":"nonpayable"},{"type":"function","name":"implementation","inputs":[],"outputs":[{"name":"","type":"address","internalType":"address"}],"stateMutability":"view"},{"type":"function","name":"mockHelperCount","inputs":[{"name":"_helpersCount","type":"uint160","internalType":"uint160"}],"outputs":[],"stateMutability":"nonpayable"},{"type":"function","name":"mockPermissionIndexes","inputs":[{"name":"_lowerIndex","type":"uint160","internalType":"uint160"},{"name":"_upperIndex","type":"uint160","internalType":"uint160"}],"outputs":[],"stateMutability":"nonpayable"},{"type":"function","name":"prepareInstallation","inputs":[{"name":"_dao","type":"address","internalType":"address"},{"name":"_data","type":"bytes","internalType":"bytes"}],"outputs":[{"name":"plugin","type":"address","internalType":"address"},{"name":"preparedSetupData","type":"tuple","internalType":"struct IPluginSetup.PreparedSetupData","components":[{"name":"helpers","type":"address[]","internalType":"address[]"},{"name":"permissions","type":"tuple[]","internalType":"struct PermissionLib.MultiTargetPermission[]","components":[{"name":"operation","type":"uint8","internalType":"enum PermissionLib.Operation"},{"name":"where","type":"address","internalType":"address"},{"name":"who","type":"address","internalType":"address"},{"name":"condition","type":"address","internalType":"address"},{"name":"permissionId","type":"bytes32","internalType":"bytes32"}]}]}],"stateMutability":"nonpayable"},{"type":"function","name":"prepareUninstallation","inputs":[{"name":"_dao","type":"address","internalType":"address"},{"name":"_payload","type":"tuple","internalType":"struct IPluginSetup.SetupPayload","components":[{"name":"plugin","type":"address","internalType":"address"},{"name":"currentHelpers","type":"address[]","internalType":"address[]"},{"name":"data","type":"bytes","internalType":"bytes"}]}],"outputs":[{"name":"permissions","type":"tuple[]","internalType":"struct PermissionLib.MultiTargetPermission[]","components":[{"name":"operation","type":"uint8","internalType":"enum PermissionLib.Operation"},{"name":"where","type":"address","internalType":"address"},{"name":"who","type":"address","internalType":"address"},{"name":"condition","type":"address","internalType":"address"},{"name":"permissionId","type":"bytes32","internalType":"bytes32"}]}],"stateMutability":"nonpayable"},{"type":"function","name":"prepareUpdate","inputs":[{"name":"_dao","type":"address","internalType":"address"},{"name":"_fromBuild","type":"uint16","internalType":"uint16"},{"name":"_payload","type":"tuple","internalType":"struct IPluginSetup.SetupPayload","components":[{"name":"plugin","type":"address","internalType":"address"},{"name":"currentHelpers","type":"address[]","internalType":"address[]"},{"name":"data","type":"bytes","internalType":"bytes"}]}],"outputs":[{"name":"","type":"bytes","internalType":"bytes"},{"name":"","type":"tuple","internalType":"struct IPluginSetup.PreparedSetupData","components":[{"name":"helpers","type":"address[]","internalType":"address[]"},{"name":"permissions","type":"tuple[]","internalType":"struct PermissionLib.MultiTargetPermission[]","components":[{"name":"operation","type":"uint8","internalType":"enum PermissionLib.Operation"},{"name":"where","type":"address","internalType":"address"},{"name":"who","type":"address","internalType":"address"},{"name":"condition","type":"address","internalType":"address"},{"name":"permissionId","type":"bytes32","internalType":"bytes32"}]}]}],"stateMutability":"nonpayable"},{"type":"function","name":"protocolVersion","inputs":[],"outputs":[{"name":"","type":"uint8[3]","internalType":"uint8[3]"}],"stateMutability":"pure"},{"type":"function","name":"reset","inputs":[],"outputs":[],"stateMutability":"nonpayable"},{"type":"function","name":"supportsInterface","inputs":[{"name":"_interfaceId","type":"bytes4","internalType":"bytes4"}],"outputs":[{"name":"","type":"bool","internalType":"bool"}],"stateMutability":"view"},{"type":"event","name":"InstallationPrepared","inputs":[{"name":"dao","type":"address","indexed":false,"internalType":"address"},{"name":"data","type":"bytes","indexed":false,"internalType":"bytes"}],"anonymous":false},{"type":"event","name":"UninstallationPrepared","inputs":[{"name":"dao","type":"address","indexed":false,"internalType":"address"},{"name":"payload","type":"tuple","indexed":false,"internalType":"struct IPluginSetup.SetupPayload","components":[{"name":"plugin","type":"address","internalType":"address"},{"name":"currentHelpers","type":"address[]","internalType":"address[]"},{"name":"data","type":"bytes","internalType":"bytes"}]}],"anonymous":false},{"type":"event","name":"UpdatePrepared","inputs":[{"name":"dao","type":"address","indexed":false,"internalType":"address"},{"name":"build","type":"uint16","indexed":false,"internalType":"uint16"},{"name":"payload","type":"tuple","indexed":false,"internalType":"struct IPluginSetup.SetupPayload","components":[{"name":"plugin","type":"address","internalType":"address"},{"name":"currentHelpers","type":"address[]","internalType":"address[]"},{"name":"data","type":"bytes","internalType":"bytes"}]}],"anonymous":false},{"type":"error","name":"ConflictingValues","inputs":[]},{"type":"error","name":"InvalidUpdatePath","inputs":[{"name":"fromBuild","type":"uint16","internalType":"uint16"},{"name":"thisBuild","type":"uint16","internalType":"uint16"}]}],"bytecode":{"object":"0x60a060405234801561001057600080fd5b506040516116e63803806116e683398101604081905261002f91610040565b6001600160a01b0316608052610070565b60006020828403121561005257600080fd5b81516001600160a01b038116811461006957600080fd5b9392505050565b6080516116546100926000396000818161012b015261032901526116546000f3fe60806040523480156200001157600080fd5b50600436106200009f5760003560e01c80639cb0a124116200006e5780639cb0a1241462000156578063a8a9c29e146200017c578063bc93bb2e14620001a3578063d826f88f14620001e2578063f10832f1146200020c57600080fd5b806301ffc9a714620000a45780632ae9c60014620000d057806346c2002414620000e95780635c60da1b146200011e575b600080fd5b620000bb620000b5366004620007d9565b62000233565b60405190151581526020015b60405180910390f35b620000da62000286565b604051620000c7919062000805565b6200011c620000fa36600462000854565b600080546001600160a01b0319166001600160a01b0392909216919091179055565b005b6040516001600160a01b037f0000000000000000000000000000000000000000000000000000000000000000168152602001620000c7565b6200016d6200016736600462000887565b620002b2565b604051620000c791906200095a565b620001936200018d366004620009a7565b620002db565b604051620000c792919062000b11565b6200011c620001b436600462000b43565b600180546001600160a01b039384166001600160a01b03199182161790915560028054929093169116179055565b6200011c600180546001600160a01b03199081169091556002805482169055600080549091169055565b620002236200021d36600462000c6e565b62000303565b604051620000c792919062000cba565b60006001600160e01b0319821663099718b560e41b14806200026457506001600160e01b03198216621574e360e91b145b806200028057506301ffc9a760e01b6001600160e01b03198316145b92915050565b62000290620007ad565b5060408051606081018252600181526004602082015260009181019190915290565b6060620002c3600060018062000386565b90506200028083620002d58462000ce0565b620003ed565b6060620002fb604051806040016040528060608152602001606081525090565b935093915050565b600062000323604051806040016040528060608152602001606081525090565b6200034f7f0000000000000000000000000000000000000000000000000000000000000000856200042c565b91506200035d6002620004ac565b81526200036e600060028162000386565b60208201526200037f8484620004e1565b9250929050565b600154606090620003e5906001600160a01b0316600003620003a95784620003b6565b6001546001600160a01b03165b6002546001600160a01b0316600003620003d15784620003de565b6002546001600160a01b03165b8462000514565b949350505050565b7ffcfdc3b542b4ad36e57b00e7f79a3d4121a844f1b7fa32829e4914320236f47482826040516200042092919062000de6565b60405180910390a15050565b6040516001600160a01b0382166024820152600090620004a59084907fc4d66de8473e8f74cb05df264ee8262da16b56717ef1f05d73bfdcea3adc85e59060440160408051601f198184030181529190526020810180516001600160e01b03166001600160e01b031990931692909217909152620006ad565b9392505050565b6000805460609162000280916001600160a01b03169003620004cf5782620006e9565b6000546001600160a01b0316620006e9565b7f788f140d37f3ca802bffe7ec3134153ce98a1c58d10bbb00a4b6d449beca9ac882826040516200042092919062000e4a565b6060826001600160a01b0316846001600160a01b031611156200054a57604051633a4013cd60e21b815260040160405180910390fd5b62000556848462000e86565b6001600160a01b031667ffffffffffffffff8111156200057a576200057a62000b81565b604051908082528060200260200182016040528015620005d557816020015b6040805160a081018252600080825260208083018290529282018190526060820181905260808201528252600019909201910181620005995790505b509050835b836001600160a01b0316816001600160a01b03161015620006a5576040518060a00160405280846002811115620006155762000615620008dd565b81526001600160a01b038316602082018190526040820152600060608201527fa280eec51ab8e1bc4b6b0c1b7f1bde785761b787a49db404e3e9338ed9b016ef6080909101528262000668878462000e86565b6001600160a01b03168151811062000684576200068462000eb0565b602002602001018190525080806200069c9062000ec6565b915050620005da565b509392505050565b60008282604051620006bf90620007cb565b620006cc92919062000e4a565b604051809103906000f080158015620006a5573d6000803e3d6000fd5b6060816001600160a01b031667ffffffffffffffff81111562000710576200071062000b81565b6040519080825280602002602001820160405280156200073a578160200160208202803683370190505b50905060005b826001600160a01b0316816001600160a01b03161015620007a7578082826001600160a01b0316815181106200077a576200077a62000eb0565b6001600160a01b0390921660209283029190910190910152806200079e8162000ec6565b91505062000740565b50919050565b60405180606001604052806003906020820280368337509192915050565b6107278062000ef883390190565b600060208284031215620007ec57600080fd5b81356001600160e01b031981168114620004a557600080fd5b60608101818360005b60038110156200083257815160ff168352602092830192909101906001016200080e565b50505092915050565b6001600160a01b03811681146200085157600080fd5b50565b6000602082840312156200086757600080fd5b8135620004a5816200083b565b600060608284031215620007a757600080fd5b600080604083850312156200089b57600080fd5b8235620008a8816200083b565b9150602083013567ffffffffffffffff811115620008c557600080fd5b620008d38582860162000874565b9150509250929050565b634e487b7160e01b600052602160045260246000fd5b60008151600381106200091657634e487b7160e01b600052602160045260246000fd5b8352506020818101516001600160a01b0390811691840191909152604080830151821690840152606080830151909116908301526080908101519082015260a00190565b6020808252825182820181905260009190848201906040850190845b818110156200099b576200098c838551620008f3565b93850193925060010162000976565b50909695505050505050565b600080600060608486031215620009bd57600080fd5b8335620009ca816200083b565b9250602084013561ffff81168114620009e257600080fd5b9150604084013567ffffffffffffffff811115620009ff57600080fd5b62000a0d8682870162000874565b9150509250925092565b6000815180845260005b8181101562000a3f5760208185018101518683018201520162000a21565b506000602082860101526020601f19601f83011685010191505092915050565b600081518084526020808501945080840160005b8381101562000a9a5781516001600160a01b03168752958201959082019060010162000a73565b509495945050505050565b600081516040845262000abc604085018262000a5f565b60208481015186830387830152805180845290820193509091600091908301905b8083101562000b065762000af3828651620008f3565b9150838501945060018301925062000add565b509695505050505050565b60408152600062000b26604083018562000a17565b828103602084015262000b3a818562000aa5565b95945050505050565b6000806040838503121562000b5757600080fd5b823562000b64816200083b565b9150602083013562000b76816200083b565b809150509250929050565b634e487b7160e01b600052604160045260246000fd5b6040516060810167ffffffffffffffff8111828210171562000bbd5762000bbd62000b81565b60405290565b604051601f8201601f1916810167ffffffffffffffff8111828210171562000bef5762000bef62000b81565b604052919050565b600082601f83011262000c0957600080fd5b813567ffffffffffffffff81111562000c265762000c2662000b81565b62000c3b601f8201601f191660200162000bc3565b81815284602083860101111562000c5157600080fd5b816020850160208301376000918101602001919091529392505050565b6000806040838503121562000c8257600080fd5b823562000c8f816200083b565b9150602083013567ffffffffffffffff81111562000cac57600080fd5b620008d38582860162000bf7565b6001600160a01b0383168152604060208201819052600090620003e59083018462000aa5565b60006060823603121562000cf357600080fd5b62000cfd62000b97565b823562000d0a816200083b565b815260208381013567ffffffffffffffff8082111562000d2957600080fd5b9085019036601f83011262000d3d57600080fd5b81358181111562000d525762000d5262000b81565b8060051b62000d6385820162000bc3565b918252838101850191858101903684111562000d7e57600080fd5b948601945b8386101562000dac578535925062000d9b836200083b565b828252948601949086019062000d83565b808789015250505050604086013592508083111562000dca57600080fd5b505062000dda3682860162000bf7565b60408301525092915050565b6001600160a01b0383811682526040602080840182905284519092169083015282015160608083015260009062000e2160a084018262000a5f565b90506040840151603f1984830301608085015262000e40828262000a17565b9695505050505050565b6001600160a01b0383168152604060208201819052600090620003e59083018462000a17565b634e487b7160e01b600052601160045260246000fd5b6001600160a01b0382811682821603908082111562000ea95762000ea962000e70565b5092915050565b634e487b7160e01b600052603260045260246000fd5b60006001600160a01b038281166002600160a01b0319810162000eed5762000eed62000e70565b600101939250505056fe608060405260405161072738038061072783398101604081905261002291610319565b61002e82826000610035565b5050610436565b61003e8361006b565b60008251118061004b5750805b156100665761006483836100ab60201b6100291760201c565b505b505050565b610074816100d7565b6040516001600160a01b038216907fbc7cd75a20ee27fd9adebab32041f755214dbc6bffa90cc0225b39da2e5c2d3b90600090a250565b60606100d08383604051806060016040528060278152602001610700602791396101a9565b9392505050565b6100ea8161022260201b6100551760201c565b6101515760405162461bcd60e51b815260206004820152602d60248201527f455243313936373a206e657720696d706c656d656e746174696f6e206973206e60448201526c1bdd08184818dbdb9d1c9858dd609a1b60648201526084015b60405180910390fd5b806101887f360894a13ba1a3210667c828492db98dca3e2076cc3735a920a3ca505d382bbc60001b61023160201b6100641760201c565b80546001600160a01b0319166001600160a01b039290921691909117905550565b6060600080856001600160a01b0316856040516101c691906103e7565b600060405180830381855af49150503d8060008114610201576040519150601f19603f3d011682016040523d82523d6000602084013e610206565b606091505b50909250905061021886838387610234565b9695505050505050565b6001600160a01b03163b151590565b90565b606083156102a357825160000361029c576001600160a01b0385163b61029c5760405162461bcd60e51b815260206004820152601d60248201527f416464726573733a2063616c6c20746f206e6f6e2d636f6e74726163740000006044820152606401610148565b50816102ad565b6102ad83836102b5565b949350505050565b8151156102c55781518083602001fd5b8060405162461bcd60e51b81526004016101489190610403565b634e487b7160e01b600052604160045260246000fd5b60005b838110156103105781810151838201526020016102f8565b50506000910152565b6000806040838503121561032c57600080fd5b82516001600160a01b038116811461034357600080fd5b60208401519092506001600160401b038082111561036057600080fd5b818501915085601f83011261037457600080fd5b815181811115610386576103866102df565b604051601f8201601f19908116603f011681019083821181831017156103ae576103ae6102df565b816040528281528860208487010111156103c757600080fd5b6103d88360208301602088016102f5565b80955050505050509250929050565b600082516103f98184602087016102f5565b9190910192915050565b60208152600082518060208401526104228160408501602087016102f5565b601f01601f19169190910160400192915050565b6102bb806104456000396000f3fe60806040523661001357610011610017565b005b6100115b610027610022610067565b61009f565b565b606061004e838360405180606001604052806027815260200161025f602791396100c3565b9392505050565b6001600160a01b03163b151590565b90565b600061009a7f360894a13ba1a3210667c828492db98dca3e2076cc3735a920a3ca505d382bbc546001600160a01b031690565b905090565b3660008037600080366000845af43d6000803e8080156100be573d6000f35b3d6000fd5b6060600080856001600160a01b0316856040516100e0919061020f565b600060405180830381855af49150503d806000811461011b576040519150601f19603f3d011682016040523d82523d6000602084013e610120565b606091505b50915091506101318683838761013b565b9695505050505050565b606083156101af5782516000036101a8576001600160a01b0385163b6101a85760405162461bcd60e51b815260206004820152601d60248201527f416464726573733a2063616c6c20746f206e6f6e2d636f6e747261637400000060448201526064015b60405180910390fd5b50816101b9565b6101b983836101c1565b949350505050565b8151156101d15781518083602001fd5b8060405162461bcd60e51b815260040161019f919061022b565b60005b838110156102065781810151838201526020016101ee565b50506000910152565b600082516102218184602087016101eb565b9190910192915050565b602081526000825180602084015261024a8160408501602087016101eb565b601f01601f1916919091016040019291505056fe416464726573733a206c6f772d6c6576656c2064656c65676174652063616c6c206661696c6564a26469706673582212206422cddf590659cffa3b67bffda8bc5358782dd87571fd3a8c2e682a409c28aa64736f6c63430008110033416464726573733a206c6f772d6c6576656c2064656c65676174652063616c6c206661696c6564a2646970667358221220801a8841b76f4f109dd6a4176cf12cff54e1562ce54ee6c9c27c860f8aa8581a64736f6c63430008110033","linkReferences":{}},"methodIdentifiers":{"implementation()":"5c60da1b","mockHelperCount(uint160)":"46c20024","mockPermissionIndexes(uint160,uint160)":"bc93bb2e","prepareInstallation(address,bytes)":"f10832f1","prepareUninstallation(address,(address,address[],bytes))":"9cb0a124","prepareUpdate(address,uint16,(address,address[],bytes))":"a8a9c29e","protocolVersion()":"2ae9c600","reset()":"d826f88f","supportsInterface(bytes4)":"01ffc9a7"},"id":318}