{"abi":[{"type":"constructor","inputs":[],"stateMutability":"nonpayable"},{"type":"function","name":"REGISTER_ENS_SUBDOMAIN_PERMISSION_ID","inputs":[],"outputs":[{"name":"","type":"bytes32","internalType":"bytes32"}],"stateMutability":"view"},{"type":"function","name":"UPGRADE_REGISTRAR_PERMISSION_ID","inputs":[],"outputs":[{"name":"","type":"bytes32","internalType":"bytes32"}],"stateMutability":"view"},{"type":"function","name":"dao","inputs":[],"outputs":[{"name":"","type":"address","internalType":"contract IDAO"}],"stateMutability":"view"},{"type":"function","name":"ens","inputs":[],"outputs":[{"name":"","type":"address","internalType":"contract ENS"}],"stateMutability":"view"},{"type":"function","name":"initialize","inputs":[{"name":"_managingDao","type":"address","internalType":"contract IDAO"},{"name":"_ens","type":"address","internalType":"contract ENS"},{"name":"_node","type":"bytes32","internalType":"bytes32"}],"outputs":[],"stateMutability":"nonpayable"},{"type":"function","name":"node","inputs":[],"outputs":[{"name":"","type":"bytes32","internalType":"bytes32"}],"stateMutability":"view"},{"type":"function","name":"proxiableUUID","inputs":[],"outputs":[{"name":"","type":"bytes32","internalType":"bytes32"}],"stateMutability":"view"},{"type":"function","name":"registerSubnode","inputs":[{"name":"_label","type":"bytes32","internalType":"bytes32"},{"name":"_targetAddress","type":"address","internalType":"address"}],"outputs":[],"stateMutability":"nonpayable"},{"type":"function","name":"resolver","inputs":[],"outputs":[{"name":"","type":"address","internalType":"address"}],"stateMutability":"view"},{"type":"function","name":"setDefaultResolver","inputs":[{"name":"_resolver","type":"address","internalType":"address"}],"outputs":[],"stateMutability":"nonpayable"},{"type":"function","name":"upgradeTo","inputs":[{"name":"newImplementation","type":"address","internalType":"address"}],"outputs":[],"stateMutability":"nonpayable"},{"type":"function","name":"upgradeToAndCall","inputs":[{"name":"newImplementation","type":"address","internalType":"address"},{"name":"data","type":"bytes","internalType":"bytes"}],"outputs":[],"stateMutability":"payable"},{"type":"event","name":"AdminChanged","inputs":[{"name":"previousAdmin","type":"address","indexed":false,"internalType":"address"},{"name":"newAdmin","type":"address","indexed":false,"internalType":"address"}],"anonymous":false},{"type":"event","name":"BeaconUpgraded","inputs":[{"name":"beacon","type":"address","indexed":true,"internalType":"address"}],"anonymous":false},{"type":"event","name":"Initialized","inputs":[{"name":"version","type":"uint8","indexed":false,"internalType":"uint8"}],"anonymous":false},{"type":"event","name":"Upgraded","inputs":[{"name":"implementation","type":"address","indexed":true,"internalType":"address"}],"anonymous":false},{"type":"error","name":"AlreadyRegistered","inputs":[{"name":"subnode","type":"bytes32","internalType":"bytes32"},{"name":"nodeOwner","type":"address","internalType":"address"}]},{"type":"error","name":"DaoUnauthorized","inputs":[{"name":"dao","type":"address","internalType":"address"},{"name":"where","type":"address","internalType":"address"},{"name":"who","type":"address","internalType":"address"},{"name":"permissionId","type":"bytes32","internalType":"bytes32"}]},{"type":"error","name":"InvalidResolver","inputs":[{"name":"node","type":"bytes32","internalType":"bytes32"},{"name":"resolver","type":"address","internalType":"address"}]}],"bytecode":{"object":"0x60a06040523060805234801561001457600080fd5b5061001d610022565b6100e1565b600054610100900460ff161561008e5760405162461bcd60e51b815260206004820152602760248201527f496e697469616c697a61626c653a20636f6e747261637420697320696e697469604482015266616c697a696e6760c81b606482015260840160405180910390fd5b60005460ff908116146100df576000805460ff191660ff9081179091556040519081527f7f26b83ff96e1f2b6a682f133852f6798a09c465da95921460cefb38474024989060200160405180910390a15b565b6080516112c061011860003960008181610267015281816102b00152818161034f0152818161038f015261042201526112c06000f3fe6080604052600436106100a75760003560e01c80636133f985116100645780636133f9851461017f57806389bb41451461019f5780639848ba51146101bf578063af7b2fed146101f3578063c66485b214610227578063d70754ec1461024757600080fd5b806304f3bcec146100ac5780633659cfe6146100e95780633f15457f1461010b5780634162169f1461012b5780634f1ef2861461014957806352d1902d1461015c575b600080fd5b3480156100b857600080fd5b5060cb546100cc906001600160a01b031681565b6040516001600160a01b0390911681526020015b60405180910390f35b3480156100f557600080fd5b50610109610104366004610f24565b61025d565b005b34801561011757600080fd5b5060c9546100cc906001600160a01b031681565b34801561013757600080fd5b506097546001600160a01b03166100cc565b610109610157366004610f57565b610345565b34801561016857600080fd5b50610171610415565b6040519081526020016100e0565b34801561018b57600080fd5b5061010961019a36600461101b565b6104c8565b3480156101ab57600080fd5b506101096101ba36600461105c565b6106bd565b3480156101cb57600080fd5b506101717fbbdfd23f099d7ed9f535e0f97d2123efb1332b16e023b8359b3b879eaecd3c1481565b3480156101ff57600080fd5b506101717fa1fcba4efb1e94b7648f5e0504bfd39734aead5f17965d12705915d771c859ff81565b34801561023357600080fd5b50610109610242366004610f24565b610934565b34801561025357600080fd5b5061017160ca5481565b6001600160a01b037f00000000000000000000000000000000000000000000000000000000000000001630036102ae5760405162461bcd60e51b81526004016102a59061108c565b60405180910390fd5b7f00000000000000000000000000000000000000000000000000000000000000006001600160a01b03166102f7600080516020611244833981519152546001600160a01b031690565b6001600160a01b03161461031d5760405162461bcd60e51b81526004016102a5906110d8565b610326816109cd565b6040805160008082526020820190925261034291839190610a06565b50565b6001600160a01b037f000000000000000000000000000000000000000000000000000000000000000016300361038d5760405162461bcd60e51b81526004016102a59061108c565b7f00000000000000000000000000000000000000000000000000000000000000006001600160a01b03166103d6600080516020611244833981519152546001600160a01b031690565b6001600160a01b0316146103fc5760405162461bcd60e51b81526004016102a5906110d8565b610405826109cd565b61041182826001610a06565b5050565b6000306001600160a01b037f000000000000000000000000000000000000000000000000000000000000000016146104b55760405162461bcd60e51b815260206004820152603860248201527f555550535570677261646561626c653a206d757374206e6f742062652063616c60448201527f6c6564207468726f7567682064656c656761746563616c6c000000000000000060648201526084016102a5565b5060008051602061124483398151915290565b600054610100900460ff16158080156104e85750600054600160ff909116105b806105025750303b158015610502575060005460ff166001145b6105655760405162461bcd60e51b815260206004820152602e60248201527f496e697469616c697a61626c653a20636f6e747261637420697320616c72656160448201526d191e481a5b9a5d1a585b1a5e995960921b60648201526084016102a5565b6000805460ff191660011790558015610588576000805461ff0019166101001790555b61059184610b76565b60c980546001600160a01b0319166001600160a01b03851690811790915560ca839055604051630178b8bf60e01b81526004810184905260009190630178b8bf90602401602060405180830381865afa1580156105f2573d6000803e3d6000fd5b505050506040513d601f19601f820116820180604052508101906106169190611124565b90506001600160a01b03811661065157604051630d7097c560e11b8152600481018490526001600160a01b03821660248201526044016102a5565b60cb80546001600160a01b0319166001600160a01b039290921691909117905580156106b7576000805461ff0019169055604051600181527f7f26b83ff96e1f2b6a682f133852f6798a09c465da95921460cefb38474024989060200160405180910390a15b50505050565b6097547fbbdfd23f099d7ed9f535e0f97d2123efb1332b16e023b8359b3b879eaecd3c14906106fb906001600160a01b031630335b84600036610c03565b600060ca548460405160200161071b929190918252602082015260400190565b60408051808303601f1901815290829052805160209091012060c9546302571be360e01b8352600483018290529092506000916001600160a01b03909116906302571be390602401602060405180830381865afa158015610780573d6000803e3d6000fd5b505050506040513d601f19601f820116820180604052508101906107a49190611124565b90506001600160a01b038116156107df5760405162fcad5d60e11b8152600481018390526001600160a01b03821660248201526044016102a5565b60c95460ca546040516306ab592360e01b81526004810191909152602481018790523060448201526001600160a01b03909116906306ab5923906064016020604051808303816000875af115801561083b573d6000803e3d6000fd5b505050506040513d601f19601f8201168201806040525081019061085f9190611141565b5060c95460cb54604051630c4b7b8560e11b8152600481018590526001600160a01b039182166024820152911690631896f70a90604401600060405180830381600087803b1580156108b057600080fd5b505af11580156108c4573d6000803e3d6000fd5b505060cb5460405162d5fa2b60e81b8152600481018690526001600160a01b038881166024830152909116925063d5fa2b009150604401600060405180830381600087803b15801561091557600080fd5b505af1158015610929573d6000803e3d6000fd5b505050505050505050565b6097547fbbdfd23f099d7ed9f535e0f97d2123efb1332b16e023b8359b3b879eaecd3c149061096d906001600160a01b031630336106f2565b6001600160a01b0382166109aa5760ca54604051630d7097c560e11b815260048101919091526001600160a01b03831660248201526044016102a5565b5060cb80546001600160a01b0319166001600160a01b0392909216919091179055565b6097547fa1fcba4efb1e94b7648f5e0504bfd39734aead5f17965d12705915d771c859ff90610411906001600160a01b031630336106f2565b7f4910fdfa16fed3260ed0e7147f7cc6da11a60208b5b9406d12a635614ffd91435460ff1615610a3e57610a3983610cbf565b505050565b826001600160a01b03166352d1902d6040518163ffffffff1660e01b8152600401602060405180830381865afa925050508015610a98575060408051601f3d908101601f19168201909252610a9591810190611141565b60015b610afb5760405162461bcd60e51b815260206004820152602e60248201527f45524331393637557067726164653a206e657720696d706c656d656e7461746960448201526d6f6e206973206e6f74205555505360901b60648201526084016102a5565b6000805160206112448339815191528114610b6a5760405162461bcd60e51b815260206004820152602960248201527f45524331393637557067726164653a20756e737570706f727465642070726f786044820152681a58589b195555525160ba1b60648201526084016102a5565b50610a39838383610d5b565b600054610100900460ff16610be15760405162461bcd60e51b815260206004820152602b60248201527f496e697469616c697a61626c653a20636f6e7472616374206973206e6f74206960448201526a6e697469616c697a696e6760a81b60648201526084016102a5565b609780546001600160a01b0319166001600160a01b0392909216919091179055565b604051637ef7c88360e11b81526001600160a01b0387169063fdef910690610c37908890889088908890889060040161115a565b602060405180830381865afa158015610c54573d6000803e3d6000fd5b505050506040513d601f19601f82011682018060405250810190610c7891906111ae565b610cb757604051630cb6f8ed60e21b81526001600160a01b038088166004830152808716602483015285166044820152606481018490526084016102a5565b505050505050565b6001600160a01b0381163b610d2c5760405162461bcd60e51b815260206004820152602d60248201527f455243313936373a206e657720696d706c656d656e746174696f6e206973206e60448201526c1bdd08184818dbdb9d1c9858dd609a1b60648201526084016102a5565b60008051602061124483398151915280546001600160a01b0319166001600160a01b0392909216919091179055565b610d6483610d80565b600082511180610d715750805b15610a39576106b78383610dc0565b610d8981610cbf565b6040516001600160a01b038216907fbc7cd75a20ee27fd9adebab32041f755214dbc6bffa90cc0225b39da2e5c2d3b90600090a250565b6060610de5838360405180606001604052806027815260200161126460279139610dec565b9392505050565b6060600080856001600160a01b031685604051610e0991906111f4565b600060405180830381855af49150503d8060008114610e44576040519150601f19603f3d011682016040523d82523d6000602084013e610e49565b606091505b5091509150610e5a86838387610e64565b9695505050505050565b60608315610ed3578251600003610ecc576001600160a01b0385163b610ecc5760405162461bcd60e51b815260206004820152601d60248201527f416464726573733a2063616c6c20746f206e6f6e2d636f6e747261637400000060448201526064016102a5565b5081610edd565b610edd8383610ee5565b949350505050565b815115610ef55781518083602001fd5b8060405162461bcd60e51b81526004016102a59190611210565b6001600160a01b038116811461034257600080fd5b600060208284031215610f3657600080fd5b8135610de581610f0f565b634e487b7160e01b600052604160045260246000fd5b60008060408385031215610f6a57600080fd5b8235610f7581610f0f565b9150602083013567ffffffffffffffff80821115610f9257600080fd5b818501915085601f830112610fa657600080fd5b813581811115610fb857610fb8610f41565b604051601f8201601f19908116603f01168101908382118183101715610fe057610fe0610f41565b81604052828152886020848701011115610ff957600080fd5b8260208601602083013760006020848301015280955050505050509250929050565b60008060006060848603121561103057600080fd5b833561103b81610f0f565b9250602084013561104b81610f0f565b929592945050506040919091013590565b6000806040838503121561106f57600080fd5b82359150602083013561108181610f0f565b809150509250929050565b6020808252602c908201527f46756e6374696f6e206d7573742062652063616c6c6564207468726f7567682060408201526b19195b1959d85d1958d85b1b60a21b606082015260800190565b6020808252602c908201527f46756e6374696f6e206d7573742062652063616c6c6564207468726f7567682060408201526b6163746976652070726f787960a01b606082015260800190565b60006020828403121561113657600080fd5b8151610de581610f0f565b60006020828403121561115357600080fd5b5051919050565b6001600160a01b038681168252851660208201526040810184905260806060820181905281018290526000828460a0840137600060a0848401015260a0601f19601f85011683010190509695505050505050565b6000602082840312156111c057600080fd5b81518015158114610de557600080fd5b60005b838110156111eb5781810151838201526020016111d3565b50506000910152565b600082516112068184602087016111d0565b9190910192915050565b602081526000825180602084015261122f8160408501602087016111d0565b601f01601f1916919091016040019291505056fe360894a13ba1a3210667c828492db98dca3e2076cc3735a920a3ca505d382bbc416464726573733a206c6f772d6c6576656c2064656c65676174652063616c6c206661696c6564a2646970667358221220158a03d8024d54a97a5b54ad8ae9cdc2c25a325be86395f59835ad5182c6a20e64736f6c63430008110033","linkReferences":{}},"methodIdentifiers":{"REGISTER_ENS_SUBDOMAIN_PERMISSION_ID()":"9848ba51","UPGRADE_REGISTRAR_PERMISSION_ID()":"af7b2fed","dao()":"4162169f","ens()":"3f15457f","initialize(address,address,bytes32)":"6133f985","node()":"d70754ec","proxiableUUID()":"52d1902d","registerSubnode(bytes32,address)":"89bb4145","resolver()":"04f3bcec","setDefaultResolver(address)":"c66485b2","upgradeTo(address)":"3659cfe6","upgradeToAndCall(address,bytes)":"4f1ef286"},"id":206}