{"abi":[{"type":"receive","stateMutability":"payable"},{"type":"function","name":"CANCELLER_ROLE","inputs":[],"outputs":[{"name":"","type":"bytes32","internalType":"bytes32"}],"stateMutability":"view"},{"type":"function","name":"DEFAULT_ADMIN_ROLE","inputs":[],"outputs":[{"name":"","type":"bytes32","internalType":"bytes32"}],"stateMutability":"view"},{"type":"function","name":"EXECUTOR_ROLE","inputs":[],"outputs":[{"name":"","type":"bytes32","internalType":"bytes32"}],"stateMutability":"view"},{"type":"function","name":"PROPOSER_ROLE","inputs":[],"outputs":[{"name":"","type":"bytes32","internalType":"bytes32"}],"stateMutability":"view"},{"type":"function","name":"TIMELOCK_ADMIN_ROLE","inputs":[],"outputs":[{"name":"","type":"bytes32","internalType":"bytes32"}],"stateMutability":"view"},{"type":"function","name":"cancel","inputs":[{"name":"id","type":"bytes32","internalType":"bytes32"}],"outputs":[],"stateMutability":"nonpayable"},{"type":"function","name":"execute","inputs":[{"name":"target","type":"address","internalType":"address"},{"name":"value","type":"uint256","internalType":"uint256"},{"name":"payload","type":"bytes","internalType":"bytes"},{"name":"predecessor","type":"bytes32","internalType":"bytes32"},{"name":"salt","type":"bytes32","internalType":"bytes32"}],"outputs":[],"stateMutability":"payable"},{"type":"function","name":"executeBatch","inputs":[{"name":"targets","type":"address[]","internalType":"address[]"},{"name":"values","type":"uint256[]","internalType":"uint256[]"},{"name":"payloads","type":"bytes[]","internalType":"bytes[]"},{"name":"predecessor","type":"bytes32","internalType":"bytes32"},{"name":"salt","type":"bytes32","internalType":"bytes32"}],"outputs":[],"stateMutability":"payable"},{"type":"function","name":"getMinDelay","inputs":[],"outputs":[{"name":"duration","type":"uint256","internalType":"uint256"}],"stateMutability":"view"},{"type":"function","name":"getRoleAdmin","inputs":[{"name":"role","type":"bytes32","internalType":"bytes32"}],"outputs":[{"name":"","type":"bytes32","internalType":"bytes32"}],"stateMutability":"view"},{"type":"function","name":"getTimestamp","inputs":[{"name":"id","type":"bytes32","internalType":"bytes32"}],"outputs":[{"name":"timestamp","type":"uint256","internalType":"uint256"}],"stateMutability":"view"},{"type":"function","name":"grantRole","inputs":[{"name":"role","type":"bytes32","internalType":"bytes32"},{"name":"account","type":"address","internalType":"address"}],"outputs":[],"stateMutability":"nonpayable"},{"type":"function","name":"hasRole","inputs":[{"name":"role","type":"bytes32","internalType":"bytes32"},{"name":"account","type":"address","internalType":"address"}],"outputs":[{"name":"","type":"bool","internalType":"bool"}],"stateMutability":"view"},{"type":"function","name":"hashOperation","inputs":[{"name":"target","type":"address","internalType":"address"},{"name":"value","type":"uint256","internalType":"uint256"},{"name":"data","type":"bytes","internalType":"bytes"},{"name":"predecessor","type":"bytes32","internalType":"bytes32"},{"name":"salt","type":"bytes32","internalType":"bytes32"}],"outputs":[{"name":"hash","type":"bytes32","internalType":"bytes32"}],"stateMutability":"pure"},{"type":"function","name":"hashOperationBatch","inputs":[{"name":"targets","type":"address[]","internalType":"address[]"},{"name":"values","type":"uint256[]","internalType":"uint256[]"},{"name":"payloads","type":"bytes[]","internalType":"bytes[]"},{"name":"predecessor","type":"bytes32","internalType":"bytes32"},{"name":"salt","type":"bytes32","internalType":"bytes32"}],"outputs":[{"name":"hash","type":"bytes32","internalType":"bytes32"}],"stateMutability":"pure"},{"type":"function","name":"isOperation","inputs":[{"name":"id","type":"bytes32","internalType":"bytes32"}],"outputs":[{"name":"registered","type":"bool","internalType":"bool"}],"stateMutability":"view"},{"type":"function","name":"isOperationDone","inputs":[{"name":"id","type":"bytes32","internalType":"bytes32"}],"outputs":[{"name":"done","type":"bool","internalType":"bool"}],"stateMutability":"view"},{"type":"function","name":"isOperationPending","inputs":[{"name":"id","type":"bytes32","internalType":"bytes32"}],"outputs":[{"name":"pending","type":"bool","internalType":"bool"}],"stateMutability":"view"},{"type":"function","name":"isOperationReady","inputs":[{"name":"id","type":"bytes32","internalType":"bytes32"}],"outputs":[{"name":"ready","type":"bool","internalType":"bool"}],"stateMutability":"view"},{"type":"function","name":"migrateTo46","inputs":[],"outputs":[],"stateMutability":"nonpayable"},{"type":"function","name":"onERC1155BatchReceived","inputs":[{"name":"","type":"address","internalType":"address"},{"name":"","type":"address","internalType":"address"},{"name":"","type":"uint256[]","internalType":"uint256[]"},{"name":"","type":"uint256[]","internalType":"uint256[]"},{"name":"","type":"bytes","internalType":"bytes"}],"outputs":[{"name":"","type":"bytes4","internalType":"bytes4"}],"stateMutability":"nonpayable"},{"type":"function","name":"onERC1155Received","inputs":[{"name":"","type":"address","internalType":"address"},{"name":"","type":"address","internalType":"address"},{"name":"","type":"uint256","internalType":"uint256"},{"name":"","type":"uint256","internalType":"uint256"},{"name":"","type":"bytes","internalType":"bytes"}],"outputs":[{"name":"","type":"bytes4","internalType":"bytes4"}],"stateMutability":"nonpayable"},{"type":"function","name":"onERC721Received","inputs":[{"name":"","type":"address","internalType":"address"},{"name":"","type":"address","internalType":"address"},{"name":"","type":"uint256","internalType":"uint256"},{"name":"","type":"bytes","internalType":"bytes"}],"outputs":[{"name":"","type":"bytes4","internalType":"bytes4"}],"stateMutability":"nonpayable"},{"type":"function","name":"renounceRole","inputs":[{"name":"role","type":"bytes32","internalType":"bytes32"},{"name":"account","type":"address","internalType":"address"}],"outputs":[],"stateMutability":"nonpayable"},{"type":"function","name":"revokeRole","inputs":[{"name":"role","type":"bytes32","internalType":"bytes32"},{"name":"account","type":"address","internalType":"address"}],"outputs":[],"stateMutability":"nonpayable"},{"type":"function","name":"schedule","inputs":[{"name":"target","type":"address","internalType":"address"},{"name":"value","type":"uint256","internalType":"uint256"},{"name":"data","type":"bytes","internalType":"bytes"},{"name":"predecessor","type":"bytes32","internalType":"bytes32"},{"name":"salt","type":"bytes32","internalType":"bytes32"},{"name":"delay","type":"uint256","internalType":"uint256"}],"outputs":[],"stateMutability":"nonpayable"},{"type":"function","name":"scheduleBatch","inputs":[{"name":"targets","type":"address[]","internalType":"address[]"},{"name":"values","type":"uint256[]","internalType":"uint256[]"},{"name":"payloads","type":"bytes[]","internalType":"bytes[]"},{"name":"predecessor","type":"bytes32","internalType":"bytes32"},{"name":"salt","type":"bytes32","internalType":"bytes32"},{"name":"delay","type":"uint256","internalType":"uint256"}],"outputs":[],"stateMutability":"nonpayable"},{"type":"function","name":"supportsInterface","inputs":[{"name":"interfaceId","type":"bytes4","internalType":"bytes4"}],"outputs":[{"name":"","type":"bool","internalType":"bool"}],"stateMutability":"view"},{"type":"function","name":"updateDelay","inputs":[{"name":"newDelay","type":"uint256","internalType":"uint256"}],"outputs":[],"stateMutability":"nonpayable"},{"type":"event","name":"CallExecuted","inputs":[{"name":"id","type":"bytes32","indexed":true,"internalType":"bytes32"},{"name":"index","type":"uint256","indexed":true,"internalType":"uint256"},{"name":"target","type":"address","indexed":false,"internalType":"address"},{"name":"value","type":"uint256","indexed":false,"internalType":"uint256"},{"name":"data","type":"bytes","indexed":false,"internalType":"bytes"}],"anonymous":false},{"type":"event","name":"CallScheduled","inputs":[{"name":"id","type":"bytes32","indexed":true,"internalType":"bytes32"},{"name":"index","type":"uint256","indexed":true,"internalType":"uint256"},{"name":"target","type":"address","indexed":false,"internalType":"address"},{"name":"value","type":"uint256","indexed":false,"internalType":"uint256"},{"name":"data","type":"bytes","indexed":false,"internalType":"bytes"},{"name":"predecessor","type":"bytes32","indexed":false,"internalType":"bytes32"},{"name":"delay","type":"uint256","indexed":false,"internalType":"uint256"}],"anonymous":false},{"type":"event","name":"Cancelled","inputs":[{"name":"id","type":"bytes32","indexed":true,"internalType":"bytes32"}],"anonymous":false},{"type":"event","name":"Initialized","inputs":[{"name":"version","type":"uint8","indexed":false,"internalType":"uint8"}],"anonymous":false},{"type":"event","name":"MinDelayChange","inputs":[{"name":"oldDuration","type":"uint256","indexed":false,"internalType":"uint256"},{"name":"newDuration","type":"uint256","indexed":false,"internalType":"uint256"}],"anonymous":false},{"type":"event","name":"RoleAdminChanged","inputs":[{"name":"role","type":"bytes32","indexed":true,"internalType":"bytes32"},{"name":"previousAdminRole","type":"bytes32","indexed":true,"internalType":"bytes32"},{"name":"newAdminRole","type":"bytes32","indexed":true,"internalType":"bytes32"}],"anonymous":false},{"type":"event","name":"RoleGranted","inputs":[{"name":"role","type":"bytes32","indexed":true,"internalType":"bytes32"},{"name":"account","type":"address","indexed":true,"internalType":"address"},{"name":"sender","type":"address","indexed":true,"internalType":"address"}],"anonymous":false},{"type":"event","name":"RoleRevoked","inputs":[{"name":"role","type":"bytes32","indexed":true,"internalType":"bytes32"},{"name":"account","type":"address","indexed":true,"internalType":"address"},{"name":"sender","type":"address","indexed":true,"internalType":"address"}],"anonymous":false}],"bytecode":{"object":"0x608060405234801561001057600080fd5b50611f28806100206000396000f3fe6080604052600436106101c65760003560e01c806364d62353116100f7578063b1c5f42711610095578063d547741f11610064578063d547741f1461057d578063e38335e51461059d578063f23a6e61146105b0578063f27a0c92146105dc57600080fd5b8063b1c5f427146104e4578063bc197c8114610504578063c4d252f514610530578063d45c44351461055057600080fd5b80638f61f4f5116100d15780638f61f4f51461046b57806391d148541461048d578063a217fddf146104ad578063b08e51c0146104c257600080fd5b806364d623531461040b5780638065657f1461042b5780638f2a0bb01461044b57600080fd5b80631fb78738116101645780632f2ff15d1161013e5780632f2ff15d1461038b57806331d50750146103ab57806336568abe146103cb578063584b153e146103eb57600080fd5b80631fb7873814610316578063248a9ca31461032b5780632ab0f5291461035b57600080fd5b80630d3cf6fc116101a05780630d3cf6fc1461026b578063134008d31461029f57806313bc9f20146102b2578063150b7a02146102d257600080fd5b806301d5062a146101d257806301ffc9a7146101f457806307bd02651461022957600080fd5b366101cd57005b600080fd5b3480156101de57600080fd5b506101f26101ed366004611505565b6105f1565b005b34801561020057600080fd5b5061021461020f366004611579565b610674565b60405190151581526020015b60405180910390f35b34801561023557600080fd5b5061025d7fd8aa0f3194971a2a116679f7c2090f6939c8d4e01a2a8d7e41d55e5351469e6381565b604051908152602001610220565b34801561027757600080fd5b5061025d7f5f58e3a2316349923ce3780f8d587db2d72378aed66a8261c916544fa6846ca581565b6101f26102ad3660046115a3565b61069f565b3480156102be57600080fd5b506102146102cd36600461160e565b610754565b3480156102de57600080fd5b506102fd6102ed3660046116dc565b630a85bd0160e11b949350505050565b6040516001600160e01b03199091168152602001610220565b34801561032257600080fd5b506101f261077a565b34801561033757600080fd5b5061025d61034636600461160e565b60009081526065602052604090206001015490565b34801561036757600080fd5b5061021461037636600461160e565b60009081526097602052604090205460011490565b34801561039757600080fd5b506101f26103a6366004611743565b6108ae565b3480156103b757600080fd5b506102146103c636600461160e565b6108d8565b3480156103d757600080fd5b506101f26103e6366004611743565b6108f1565b3480156103f757600080fd5b5061021461040636600461160e565b61096f565b34801561041757600080fd5b506101f261042636600461160e565b610986565b34801561043757600080fd5b5061025d6104463660046115a3565b610a2a565b34801561045757600080fd5b506101f26104663660046117b3565b610a69565b34801561047757600080fd5b5061025d600080516020611eb383398151915281565b34801561049957600080fd5b506102146104a8366004611743565b610ba9565b3480156104b957600080fd5b5061025d600081565b3480156104ce57600080fd5b5061025d600080516020611ed383398151915281565b3480156104f057600080fd5b5061025d6104ff366004611864565b610bd4565b34801561051057600080fd5b506102fd61051f36600461198b565b63bc197c8160e01b95945050505050565b34801561053c57600080fd5b506101f261054b36600461160e565b610c19565b34801561055c57600080fd5b5061025d61056b36600461160e565b60009081526097602052604090205490565b34801561058957600080fd5b506101f2610598366004611743565b610cdc565b6101f26105ab366004611864565b610d01565b3480156105bc57600080fd5b506102fd6105cb366004611a34565b63f23a6e6160e01b95945050505050565b3480156105e857600080fd5b5060985461025d565b600080516020611eb383398151915261060981610e8b565b6000610619898989898989610a2a565b90506106258184610e98565b6000817f4cf4410cc57040e44862ef0f45f3dd5a5e02db8eb8add648d4b0e236f1d07dca8b8b8b8b8b8a60405161066196959493929190611ac1565b60405180910390a3505050505050505050565b60006001600160e01b03198216630271189760e51b1480610699575061069982610f87565b92915050565b7fd8aa0f3194971a2a116679f7c2090f6939c8d4e01a2a8d7e41d55e5351469e636106cb816000610ba9565b6106d9576106d98133610fbc565b60006106e9888888888888610a2a565b90506106f58185611015565b610701888888886110b0565b6000817fc2617efa69bab66782fa219543714338489c4e9e178271560a91b82c3f612b588a8a8a8a6040516107399493929190611afe565b60405180910390a361074a81611183565b5050505050505050565b6000818152609760205260408120546001811180156107735750428111155b9392505050565b600080516020611eb383398151915260005260656020527fafe71ff1fe81c59ca16af21c02420893e650adae4948ece1623218f842885478547f5f58e3a2316349923ce3780f8d587db2d72378aed66a8261c916544fa6846ca51480156108175750600080516020611ed383398151915260005260656020527fb33a3829f2d1f31fd111fcd13892b72b93a782f7b93bf968903b15b040efa32154155b6108745760405162461bcd60e51b8152602060048201526024808201527f54696d656c6f636b436f6e74726f6c6c65723a20616c7265616479206d696772604482015263185d195960e21b60648201526084015b60405180910390fd5b6108ac600080516020611ed38339815191527f5f58e3a2316349923ce3780f8d587db2d72378aed66a8261c916544fa6846ca56111bc565b565b6000828152606560205260409020600101546108c981610e8b565b6108d38383611207565b505050565b60008181526097602052604081205481905b1192915050565b6001600160a01b03811633146109615760405162461bcd60e51b815260206004820152602f60248201527f416363657373436f6e74726f6c3a2063616e206f6e6c792072656e6f756e636560448201526e103937b632b9903337b91039b2b63360891b606482015260840161086b565b61096b828261128d565b5050565b6000818152609760205260408120546001906108ea565b3330146109e95760405162461bcd60e51b815260206004820152602b60248201527f54696d656c6f636b436f6e74726f6c6c65723a2063616c6c6572206d7573742060448201526a62652074696d656c6f636b60a81b606482015260840161086b565b60985460408051918252602082018390527f11c24f4ead16507c69ac467fbd5e4eed5fb5c699626d2cc6d66421df253886d5910160405180910390a1609855565b6000868686868686604051602001610a4796959493929190611ac1565b6040516020818303038152906040528051906020012090509695505050505050565b600080516020611eb3833981519152610a8181610e8b565b888714610aa05760405162461bcd60e51b815260040161086b90611b30565b888514610abf5760405162461bcd60e51b815260040161086b90611b30565b6000610ad18b8b8b8b8b8b8b8b610bd4565b9050610add8184610e98565b60005b8a811015610b9b5780827f4cf4410cc57040e44862ef0f45f3dd5a5e02db8eb8add648d4b0e236f1d07dca8e8e85818110610b1d57610b1d611b73565b9050602002016020810190610b329190611b89565b8d8d86818110610b4457610b44611b73565b905060200201358c8c87818110610b5d57610b5d611b73565b9050602002810190610b6f9190611ba4565b8c8b604051610b8396959493929190611ac1565b60405180910390a3610b9481611c00565b9050610ae0565b505050505050505050505050565b60009182526065602090815260408084206001600160a01b0393909316845291905290205460ff1690565b60008888888888888888604051602001610bf5989796959493929190611caa565b60405160208183030381529060405280519060200120905098975050505050505050565b600080516020611ed3833981519152610c3181610e8b565b610c3a8261096f565b610ca05760405162461bcd60e51b815260206004820152603160248201527f54696d656c6f636b436f6e74726f6c6c65723a206f7065726174696f6e2063616044820152701b9b9bdd0818994818d85b98d95b1b1959607a1b606482015260840161086b565b6000828152609760205260408082208290555183917fbaa1eb22f2a492ba1a5fea61b8df4d27c6c8b5f3971e63bb58fa14ff72eedb7091a25050565b600082815260656020526040902060010154610cf781610e8b565b6108d3838361128d565b7fd8aa0f3194971a2a116679f7c2090f6939c8d4e01a2a8d7e41d55e5351469e63610d2d816000610ba9565b610d3b57610d3b8133610fbc565b878614610d5a5760405162461bcd60e51b815260040161086b90611b30565b878414610d795760405162461bcd60e51b815260040161086b90611b30565b6000610d8b8a8a8a8a8a8a8a8a610bd4565b9050610d978185611015565b60005b89811015610e755760008b8b83818110610db657610db6611b73565b9050602002016020810190610dcb9190611b89565b905060008a8a84818110610de157610de1611b73565b9050602002013590503660008a8a86818110610dff57610dff611b73565b9050602002810190610e119190611ba4565b91509150610e21848484846110b0565b84867fc2617efa69bab66782fa219543714338489c4e9e178271560a91b82c3f612b5886868686604051610e589493929190611afe565b60405180910390a35050505080610e6e90611c00565b9050610d9a565b50610e7f81611183565b50505050505050505050565b610e958133610fbc565b50565b610ea1826108d8565b15610f065760405162461bcd60e51b815260206004820152602f60248201527f54696d656c6f636b436f6e74726f6c6c65723a206f7065726174696f6e20616c60448201526e1c9958591e481cd8da19591d5b1959608a1b606482015260840161086b565b609854811015610f675760405162461bcd60e51b815260206004820152602660248201527f54696d656c6f636b436f6e74726f6c6c65723a20696e73756666696369656e746044820152652064656c617960d01b606482015260840161086b565b610f718142611d4b565b6000928352609760205260409092209190915550565b60006001600160e01b03198216637965db0b60e01b148061069957506301ffc9a760e01b6001600160e01b0319831614610699565b610fc68282610ba9565b61096b57610fd3816112f4565b610fde836020611306565b604051602001610fef929190611d82565b60408051601f198184030181529082905262461bcd60e51b825261086b91600401611df7565b61101e82610754565b61103a5760405162461bcd60e51b815260040161086b90611e2a565b80158061105557506000818152609760205260409020546001145b61096b5760405162461bcd60e51b815260206004820152602660248201527f54696d656c6f636b436f6e74726f6c6c65723a206d697373696e6720646570656044820152656e64656e637960d01b606482015260840161086b565b6000846001600160a01b03168484846040516110cd929190611e74565b60006040518083038185875af1925050503d806000811461110a576040519150601f19603f3d011682016040523d82523d6000602084013e61110f565b606091505b505090508061117c5760405162461bcd60e51b815260206004820152603360248201527f54696d656c6f636b436f6e74726f6c6c65723a20756e6465726c79696e6720746044820152721c985b9cd858dd1a5bdb881c995d995c9d1959606a1b606482015260840161086b565b5050505050565b61118c81610754565b6111a85760405162461bcd60e51b815260040161086b90611e2a565b600090815260976020526040902060019055565b600082815260656020526040808220600101805490849055905190918391839186917fbd79b86ffe0ab8e8776151514217cd7cacd52c909f66475c3af44e129f0b00ff9190a4505050565b6112118282610ba9565b61096b5760008281526065602090815260408083206001600160a01b03851684529091529020805460ff191660011790556112493390565b6001600160a01b0316816001600160a01b0316837f2f8788117e7eff1d82e926ec794901d17c78024a50270940304540a733656f0d60405160405180910390a45050565b6112978282610ba9565b1561096b5760008281526065602090815260408083206001600160a01b0385168085529252808320805460ff1916905551339285917ff6391f5c32d9c69d2a47ea670b442974b53935d1edc7fd64eb21e047a839171b9190a45050565b60606106996001600160a01b03831660145b60606000611315836002611e84565b611320906002611d4b565b6001600160401b0381111561133757611337611627565b6040519080825280601f01601f191660200182016040528015611361576020820181803683370190505b509050600360fc1b8160008151811061137c5761137c611b73565b60200101906001600160f81b031916908160001a905350600f60fb1b816001815181106113ab576113ab611b73565b60200101906001600160f81b031916908160001a90535060006113cf846002611e84565b6113da906001611d4b565b90505b6001811115611452576f181899199a1a9b1b9c1cb0b131b232b360811b85600f166010811061140e5761140e611b73565b1a60f81b82828151811061142457611424611b73565b60200101906001600160f81b031916908160001a90535060049490941c9361144b81611e9b565b90506113dd565b5083156107735760405162461bcd60e51b815260206004820181905260248201527f537472696e67733a20686578206c656e67746820696e73756666696369656e74604482015260640161086b565b80356001600160a01b03811681146114b857600080fd5b919050565b60008083601f8401126114cf57600080fd5b5081356001600160401b038111156114e657600080fd5b6020830191508360208285010111156114fe57600080fd5b9250929050565b600080600080600080600060c0888a03121561152057600080fd5b611529886114a1565b96506020880135955060408801356001600160401b0381111561154b57600080fd5b6115578a828b016114bd565b989b979a50986060810135976080820135975060a09091013595509350505050565b60006020828403121561158b57600080fd5b81356001600160e01b03198116811461077357600080fd5b60008060008060008060a087890312156115bc57600080fd5b6115c5876114a1565b95506020870135945060408701356001600160401b038111156115e757600080fd5b6115f389828a016114bd565b979a9699509760608101359660809091013595509350505050565b60006020828403121561162057600080fd5b5035919050565b634e487b7160e01b600052604160045260246000fd5b604051601f8201601f191681016001600160401b038111828210171561166557611665611627565b604052919050565b600082601f83011261167e57600080fd5b81356001600160401b0381111561169757611697611627565b6116aa601f8201601f191660200161163d565b8181528460208386010111156116bf57600080fd5b816020850160208301376000918101602001919091529392505050565b600080600080608085870312156116f257600080fd5b6116fb856114a1565b9350611709602086016114a1565b92506040850135915060608501356001600160401b0381111561172b57600080fd5b6117378782880161166d565b91505092959194509250565b6000806040838503121561175657600080fd5b82359150611766602084016114a1565b90509250929050565b60008083601f84011261178157600080fd5b5081356001600160401b0381111561179857600080fd5b6020830191508360208260051b85010111156114fe57600080fd5b600080600080600080600080600060c08a8c0312156117d157600080fd5b89356001600160401b03808211156117e857600080fd5b6117f48d838e0161176f565b909b50995060208c013591508082111561180d57600080fd5b6118198d838e0161176f565b909950975060408c013591508082111561183257600080fd5b5061183f8c828d0161176f565b9a9d999c50979a969997986060880135976080810135975060a0013595509350505050565b60008060008060008060008060a0898b03121561188057600080fd5b88356001600160401b038082111561189757600080fd5b6118a38c838d0161176f565b909a50985060208b01359150808211156118bc57600080fd5b6118c88c838d0161176f565b909850965060408b01359150808211156118e157600080fd5b506118ee8b828c0161176f565b999c989b509699959896976060870135966080013595509350505050565b600082601f83011261191d57600080fd5b813560206001600160401b0382111561193857611938611627565b8160051b61194782820161163d565b928352848101820192828101908785111561196157600080fd5b83870192505b8483101561198057823582529183019190830190611967565b979650505050505050565b600080600080600060a086880312156119a357600080fd5b6119ac866114a1565b94506119ba602087016114a1565b935060408601356001600160401b03808211156119d657600080fd5b6119e289838a0161190c565b945060608801359150808211156119f857600080fd5b611a0489838a0161190c565b93506080880135915080821115611a1a57600080fd5b50611a278882890161166d565b9150509295509295909350565b600080600080600060a08688031215611a4c57600080fd5b611a55866114a1565b9450611a63602087016114a1565b9350604086013592506060860135915060808601356001600160401b03811115611a8c57600080fd5b611a278882890161166d565b81835281816020850137506000828201602090810191909152601f909101601f19169091010190565b60018060a01b038716815285602082015260a060408201526000611ae960a083018688611a98565b60608301949094525060800152949350505050565b60018060a01b0385168152836020820152606060408201526000611b26606083018486611a98565b9695505050505050565b60208082526023908201527f54696d656c6f636b436f6e74726f6c6c65723a206c656e677468206d69736d616040820152620e8c6d60eb1b606082015260800190565b634e487b7160e01b600052603260045260246000fd5b600060208284031215611b9b57600080fd5b610773826114a1565b6000808335601e19843603018112611bbb57600080fd5b8301803591506001600160401b03821115611bd557600080fd5b6020019150368190038213156114fe57600080fd5b634e487b7160e01b600052601160045260246000fd5b600060018201611c1257611c12611bea565b5060010190565b81835260006020808501808196508560051b810191508460005b87811015611c9d5782840389528135601e19883603018112611c5457600080fd5b870185810190356001600160401b03811115611c6f57600080fd5b803603821315611c7e57600080fd5b611c89868284611a98565b9a87019a9550505090840190600101611c33565b5091979650505050505050565b60a0808252810188905260008960c08301825b8b811015611ceb576001600160a01b03611cd6846114a1565b16825260209283019290910190600101611cbd565b5083810360208501528881526001600160fb1b03891115611d0b57600080fd5b8860051b9150818a60208301370182810360209081016040850152611d339082018789611c19565b60608401959095525050608001529695505050505050565b8082018082111561069957610699611bea565b60005b83811015611d79578181015183820152602001611d61565b50506000910152565b7f416363657373436f6e74726f6c3a206163636f756e7420000000000000000000815260008351611dba816017850160208801611d5e565b7001034b99036b4b9b9b4b733903937b6329607d1b6017918401918201528351611deb816028840160208801611d5e565b01602801949350505050565b6020815260008251806020840152611e16816040850160208701611d5e565b601f01601f19169190910160400192915050565b6020808252602a908201527f54696d656c6f636b436f6e74726f6c6c65723a206f7065726174696f6e206973604082015269206e6f7420726561647960b01b606082015260800190565b8183823760009101908152919050565b808202811582820484141761069957610699611bea565b600081611eaa57611eaa611bea565b50600019019056feb09aa5aeb3702cfd50b6b62bc4532604938f21248a27a1d5ca736082b6819cc1fd643c72710c63c0180259aba6b2d05451e3591a24e58b62239378085726f783a26469706673582212203504f6ee2b571f603dd6d842d7193194d202ddb6c86ee1a0f50822df5b70f5aa64736f6c63430008110033","linkReferences":{}},"methodIdentifiers":{"CANCELLER_ROLE()":"b08e51c0","DEFAULT_ADMIN_ROLE()":"a217fddf","EXECUTOR_ROLE()":"07bd0265","PROPOSER_ROLE()":"8f61f4f5","TIMELOCK_ADMIN_ROLE()":"0d3cf6fc","cancel(bytes32)":"c4d252f5","execute(address,uint256,bytes,bytes32,bytes32)":"134008d3","executeBatch(address[],uint256[],bytes[],bytes32,bytes32)":"e38335e5","getMinDelay()":"f27a0c92","getRoleAdmin(bytes32)":"248a9ca3","getTimestamp(bytes32)":"d45c4435","grantRole(bytes32,address)":"2f2ff15d","hasRole(bytes32,address)":"91d14854","hashOperation(address,uint256,bytes,bytes32,bytes32)":"8065657f","hashOperationBatch(address[],uint256[],bytes[],bytes32,bytes32)":"b1c5f427","isOperation(bytes32)":"31d50750","isOperationDone(bytes32)":"2ab0f529","isOperationPending(bytes32)":"584b153e","isOperationReady(bytes32)":"13bc9f20","migrateTo46()":"1fb78738","onERC1155BatchReceived(address,address,uint256[],uint256[],bytes)":"bc197c81","onERC1155Received(address,address,uint256,uint256,bytes)":"f23a6e61","onERC721Received(address,address,uint256,bytes)":"150b7a02","renounceRole(bytes32,address)":"36568abe","revokeRole(bytes32,address)":"d547741f","schedule(address,uint256,bytes,bytes32,bytes32,uint256)":"01d5062a","scheduleBatch(address[],uint256[],bytes[],bytes32,bytes32,uint256)":"8f2a0bb0","supportsInterface(bytes4)":"01ffc9a7","updateDelay(uint256)":"64d62353"},"id":329}