{"abi":[{"type":"function","name":"SET_TARGET_CONFIG_PERMISSION_ID","inputs":[],"outputs":[{"name":"","type":"bytes32","internalType":"bytes32"}],"stateMutability":"view"},{"type":"function","name":"UPGRADE_PLUGIN_PERMISSION_ID","inputs":[],"outputs":[{"name":"","type":"bytes32","internalType":"bytes32"}],"stateMutability":"view"},{"type":"function","name":"dao","inputs":[],"outputs":[{"name":"","type":"address","internalType":"contract IDAO"}],"stateMutability":"view"},{"type":"function","name":"getCurrentTargetConfig","inputs":[],"outputs":[{"name":"","type":"tuple","internalType":"struct IPlugin.TargetConfig","components":[{"name":"target","type":"address","internalType":"address"},{"name":"operation","type":"uint8","internalType":"enum IPlugin.Operation"}]}],"stateMutability":"view"},{"type":"function","name":"getTargetConfig","inputs":[],"outputs":[{"name":"","type":"tuple","internalType":"struct IPlugin.TargetConfig","components":[{"name":"target","type":"address","internalType":"address"},{"name":"operation","type":"uint8","internalType":"enum IPlugin.Operation"}]}],"stateMutability":"view"},{"type":"function","name":"implementation","inputs":[],"outputs":[{"name":"","type":"address","internalType":"address"}],"stateMutability":"view"},{"type":"function","name":"initialize","inputs":[{"name":"_dao","type":"address","internalType":"contract IDAO"}],"outputs":[],"stateMutability":"nonpayable"},{"type":"function","name":"initializeV1toV3","inputs":[],"outputs":[],"stateMutability":"nonpayable"},{"type":"function","name":"initializeV2toV3","inputs":[],"outputs":[],"stateMutability":"nonpayable"},{"type":"function","name":"pluginType","inputs":[],"outputs":[{"name":"","type":"uint8","internalType":"enum IPlugin.PluginType"}],"stateMutability":"pure"},{"type":"function","name":"protocolVersion","inputs":[],"outputs":[{"name":"","type":"uint8[3]","internalType":"uint8[3]"}],"stateMutability":"pure"},{"type":"function","name":"proxiableUUID","inputs":[],"outputs":[{"name":"","type":"bytes32","internalType":"bytes32"}],"stateMutability":"view"},{"type":"function","name":"setTargetConfig","inputs":[{"name":"_targetConfig","type":"tuple","internalType":"struct IPlugin.TargetConfig","components":[{"name":"target","type":"address","internalType":"address"},{"name":"operation","type":"uint8","internalType":"enum IPlugin.Operation"}]}],"outputs":[],"stateMutability":"nonpayable"},{"type":"function","name":"state1","inputs":[],"outputs":[{"name":"","type":"uint256","internalType":"uint256"}],"stateMutability":"view"},{"type":"function","name":"state2","inputs":[],"outputs":[{"name":"","type":"uint256","internalType":"uint256"}],"stateMutability":"view"},{"type":"function","name":"state3","inputs":[],"outputs":[{"name":"","type":"uint256","internalType":"uint256"}],"stateMutability":"view"},{"type":"function","name":"supportsInterface","inputs":[{"name":"_interfaceId","type":"bytes4","internalType":"bytes4"}],"outputs":[{"name":"","type":"bool","internalType":"bool"}],"stateMutability":"view"},{"type":"function","name":"upgradeTo","inputs":[{"name":"newImplementation","type":"address","internalType":"address"}],"outputs":[],"stateMutability":"nonpayable"},{"type":"function","name":"upgradeToAndCall","inputs":[{"name":"newImplementation","type":"address","internalType":"address"},{"name":"data","type":"bytes","internalType":"bytes"}],"outputs":[],"stateMutability":"payable"},{"type":"event","name":"AdminChanged","inputs":[{"name":"previousAdmin","type":"address","indexed":false,"internalType":"address"},{"name":"newAdmin","type":"address","indexed":false,"internalType":"address"}],"anonymous":false},{"type":"event","name":"BeaconUpgraded","inputs":[{"name":"beacon","type":"address","indexed":true,"internalType":"address"}],"anonymous":false},{"type":"event","name":"Initialized","inputs":[{"name":"version","type":"uint8","indexed":false,"internalType":"uint8"}],"anonymous":false},{"type":"event","name":"TargetSet","inputs":[{"name":"newTargetConfig","type":"tuple","indexed":false,"internalType":"struct IPlugin.TargetConfig","components":[{"name":"target","type":"address","internalType":"address"},{"name":"operation","type":"uint8","internalType":"enum IPlugin.Operation"}]}],"anonymous":false},{"type":"event","name":"Upgraded","inputs":[{"name":"implementation","type":"address","indexed":true,"internalType":"address"}],"anonymous":false},{"type":"error","name":"AlreadyInitialized","inputs":[]},{"type":"error","name":"DaoUnauthorized","inputs":[{"name":"dao","type":"address","internalType":"address"},{"name":"where","type":"address","internalType":"address"},{"name":"who","type":"address","internalType":"address"},{"name":"permissionId","type":"bytes32","internalType":"bytes32"}]},{"type":"error","name":"DelegateCallFailed","inputs":[]},{"type":"error","name":"InvalidTargetConfig","inputs":[{"name":"targetConfig","type":"tuple","internalType":"struct IPlugin.TargetConfig","components":[{"name":"target","type":"address","internalType":"address"},{"name":"operation","type":"uint8","internalType":"enum IPlugin.Operation"}]}]}],"bytecode":{"object":"0x60a06040523060805234801561001457600080fd5b5061001d610022565b6100e1565b600054610100900460ff161561008e5760405162461bcd60e51b815260206004820152602760248201527f496e697469616c697a61626c653a20636f6e747261637420697320696e697469604482015266616c697a696e6760c81b606482015260840160405180910390fd5b60005460ff908116146100df576000805460ff191660ff9081179091556040519081527f7f26b83ff96e1f2b6a682f133852f6798a09c465da95921460cefb38474024989060200160405180910390a15b565b6080516115f6610118600039600081816104d4015281816105140152818161059c015281816105dc015261065801526115f66000f3fe6080604052600436106101145760003560e01c80635c60da1b116100a0578063c4d66de811610064578063c4d66de8146102d7578063c98425ee146102f7578063c9c4bfca14610319578063dd63c06f1461034d578063efe51cca1461036257600080fd5b80635c60da1b146102425780636accab8c146102575780637cef46951461026e5780638cb7505914610283578063bb225da2146102b757600080fd5b80633659cfe6116100e75780633659cfe6146101ac5780634162169f146101cc57806341de6830146101fe5780634f1ef2861461021a57806352d1902d1461022d57600080fd5b806301ffc9a714610119578063140457681461014e5780632491118d146101655780632ae9c6001461018a575b600080fd5b34801561012557600080fd5b506101396101343660046110e8565b610379565b60405190151581526020015b60405180910390f35b34801561015a57600080fd5b50610163610400565b005b34801561017157600080fd5b5061017c61012f5481565b604051908152602001610145565b34801561019657600080fd5b5061019f6104a0565b6040516101459190611112565b3480156101b857600080fd5b506101636101c736600461115b565b6104ca565b3480156101d857600080fd5b5060c9546001600160a01b03165b6040516001600160a01b039091168152602001610145565b34801561020a57600080fd5b506000604051610145919061118e565b6101636102283660046111ef565b610592565b34801561023957600080fd5b5061017c61064b565b34801561024e57600080fd5b506101e66106fe565b34801561026357600080fd5b5061017c61012d5481565b34801561027a57600080fd5b5061016361070d565b34801561028f57600080fd5b5061017c7f568cc693d84eb1901f8bcecba154cbdef23ca3cf67efc0a0b698528a06c660f781565b3480156102c357600080fd5b506101636102d2366004611297565b6107a3565b3480156102e357600080fd5b506101636102f236600461115b565b6107f8565b34801561030357600080fd5b5061030c6108aa565b60405161014591906112af565b34801561032557600080fd5b5061017c7f821b6e3a557148015a918c89e5d092e878a69854a2d1a410635f771bd5a8a3f581565b34801561035957600080fd5b5061030c610911565b34801561036e57600080fd5b5061017c61012e5481565b60006001600160e01b0319821663041de68360e41b14806103a957506001600160e01b03198216621574e360e91b145b806103c457506001600160e01b031982166352d1902d60e01b145b806103df57506001600160e01b0319821663afc5b82360e01b145b806103fa57506301ffc9a760e01b6001600160e01b03198316145b92915050565b600054600390610100900460ff16158015610422575060005460ff8083169116105b6104475760405162461bcd60e51b815260040161043e906112e3565b60405180910390fd5b60008054600361012f5561ffff191660ff83169081176101001761ff0019169091556040519081527f7f26b83ff96e1f2b6a682f133852f6798a09c465da95921460cefb3847402498906020015b60405180910390a150565b6104a86110ca565b5060408051606081018252600181526004602082015260009181019190915290565b6001600160a01b037f00000000000000000000000000000000000000000000000000000000000000001630036105125760405162461bcd60e51b815260040161043e90611331565b7f00000000000000000000000000000000000000000000000000000000000000006001600160a01b03166105446109c1565b6001600160a01b03161461056a5760405162461bcd60e51b815260040161043e9061137d565b610573816109dd565b6040805160008082526020820190925261058f91839190610a16565b50565b6001600160a01b037f00000000000000000000000000000000000000000000000000000000000000001630036105da5760405162461bcd60e51b815260040161043e90611331565b7f00000000000000000000000000000000000000000000000000000000000000006001600160a01b031661060c6109c1565b6001600160a01b0316146106325760405162461bcd60e51b815260040161043e9061137d565b61063b826109dd565b61064782826001610a16565b5050565b6000306001600160a01b037f000000000000000000000000000000000000000000000000000000000000000016146106eb5760405162461bcd60e51b815260206004820152603860248201527f555550535570677261646561626c653a206d757374206e6f742062652063616c60448201527f6c6564207468726f7567682064656c656761746563616c6c0000000000000000606482015260840161043e565b5060008051602061157a83398151915290565b60006107086109c1565b905090565b600054600390610100900460ff1615801561072f575060005460ff8083169116105b61074b5760405162461bcd60e51b815260040161043e906112e3565b60008054600261012e55600361012f5561ffff191660ff83169081176101001761ff0019169091556040519081527f7f26b83ff96e1f2b6a682f133852f6798a09c465da95921460cefb384740249890602001610495565b60c9547f568cc693d84eb1901f8bcecba154cbdef23ca3cf67efc0a0b698528a06c660f7906107e1906001600160a01b031630335b84600036610b86565b6106476107f3368490038401846113c9565b610c42565b600054600390610100900460ff1615801561081a575060005460ff8083169116105b6108365760405162461bcd60e51b815260040161043e906112e3565b6000805461ffff191660ff83161761010017905561085382610d23565b600161012d55600261012e55600361012f556000805461ff001916905560405160ff821681527f7f26b83ff96e1f2b6a682f133852f6798a09c465da95921460cefb38474024989060200160405180910390a15050565b60408051808201909152600080825260208201526040805180820190915260fb80546001600160a01b03811683526020830190600160a01b900460ff1660018111156108f8576108f8611178565b600181111561090957610909611178565b905250919050565b60408051808201909152600080825260208201526040805180820190915260fb80546001600160a01b038116835260009291906020830190600160a01b900460ff16600181111561096457610964611178565b600181111561097557610975611178565b90525080519091506001600160a01b03166109bc5760405180604001604052806109a760c9546001600160a01b031690565b6001600160a01b031681526020016000905290505b919050565b60008051602061157a833981519152546001600160a01b031690565b60c9547f821b6e3a557148015a918c89e5d092e878a69854a2d1a410635f771bd5a8a3f590610647906001600160a01b031630336107d8565b7f4910fdfa16fed3260ed0e7147f7cc6da11a60208b5b9406d12a635614ffd91435460ff1615610a4e57610a4983610d53565b505050565b826001600160a01b03166352d1902d6040518163ffffffff1660e01b8152600401602060405180830381865afa925050508015610aa8575060408051601f3d908101601f19168201909252610aa59181019061142c565b60015b610b0b5760405162461bcd60e51b815260206004820152602e60248201527f45524331393637557067726164653a206e657720696d706c656d656e7461746960448201526d6f6e206973206e6f74205555505360901b606482015260840161043e565b60008051602061157a8339815191528114610b7a5760405162461bcd60e51b815260206004820152602960248201527f45524331393637557067726164653a20756e737570706f727465642070726f786044820152681a58589b195555525160ba1b606482015260840161043e565b50610a49838383610def565b604051637ef7c88360e11b81526001600160a01b0387169063fdef910690610bba9088908890889088908890600401611445565b602060405180830381865afa158015610bd7573d6000803e3d6000fd5b505050506040513d601f19601f82011682018060405250810190610bfb9190611499565b610c3a57604051630cb6f8ed60e21b81526001600160a01b0380881660048301528087166024830152851660448201526064810184905260840161043e565b505050505050565b8051610c5e906001600160a01b0316632a4f53ad60e11b610e1a565b8015610c7f5750600181602001516001811115610c7d57610c7d611178565b145b15610c9f578060405163266d0fb960e01b815260040161043e91906112af565b805160fb80546001600160a01b039092166001600160a01b031983168117825560208401518493909183916001600160a81b03191617600160a01b836001811115610cec57610cec611178565b02179055509050507f88e879ae0d71faf3aa708f2978daccb99b95243615dc104835b8c5a21c884ae68160405161049591906112af565b600054610100900460ff16610d4a5760405162461bcd60e51b815260040161043e906114bb565b61058f81610e3d565b6001600160a01b0381163b610dc05760405162461bcd60e51b815260206004820152602d60248201527f455243313936373a206e657720696d706c656d656e746174696f6e206973206e60448201526c1bdd08184818dbdb9d1c9858dd609a1b606482015260840161043e565b60008051602061157a83398151915280546001600160a01b0319166001600160a01b0392909216919091179055565b610df883610e86565b600082511180610e055750805b15610a4957610e148383610ec6565b50505050565b6000610e2583610eeb565b8015610e365750610e368383610f1e565b9392505050565b600054610100900460ff16610e645760405162461bcd60e51b815260040161043e906114bb565b60c980546001600160a01b0319166001600160a01b0392909216919091179055565b610e8f81610d53565b6040516001600160a01b038216907fbc7cd75a20ee27fd9adebab32041f755214dbc6bffa90cc0225b39da2e5c2d3b90600090a250565b6060610e36838360405180606001604052806027815260200161159a60279139610fa7565b6000610efe826301ffc9a760e01b610f1e565b80156103fa5750610f17826001600160e01b0319610f1e565b1592915050565b604080516001600160e01b03198316602480830191909152825180830390910181526044909101909152602080820180516001600160e01b03166301ffc9a760e01b178152825160009392849283928392918391908a617530fa92503d91506000519050828015610f90575060208210155b8015610f9c5750600081115b979650505050505050565b6060600080856001600160a01b031685604051610fc4919061152a565b600060405180830381855af49150503d8060008114610fff576040519150601f19603f3d011682016040523d82523d6000602084013e611004565b606091505b50915091506110158683838761101f565b9695505050505050565b6060831561108e578251600003611087576001600160a01b0385163b6110875760405162461bcd60e51b815260206004820152601d60248201527f416464726573733a2063616c6c20746f206e6f6e2d636f6e7472616374000000604482015260640161043e565b5081611098565b61109883836110a0565b949350505050565b8151156110b05781518083602001fd5b8060405162461bcd60e51b815260040161043e9190611546565b60405180606001604052806003906020820280368337509192915050565b6000602082840312156110fa57600080fd5b81356001600160e01b031981168114610e3657600080fd5b60608101818360005b600381101561113d57815160ff1683526020928301929091019060010161111b565b50505092915050565b6001600160a01b038116811461058f57600080fd5b60006020828403121561116d57600080fd5b8135610e3681611146565b634e487b7160e01b600052602160045260246000fd5b60208101600383106111a2576111a2611178565b91905290565b634e487b7160e01b600052604160045260246000fd5b604051601f8201601f1916810167ffffffffffffffff811182821017156111e7576111e76111a8565b604052919050565b6000806040838503121561120257600080fd5b823561120d81611146565b915060208381013567ffffffffffffffff8082111561122b57600080fd5b818601915086601f83011261123f57600080fd5b813581811115611251576112516111a8565b611263601f8201601f191685016111be565b9150808252878482850101111561127957600080fd5b80848401858401376000848284010152508093505050509250929050565b6000604082840312156112a957600080fd5b50919050565b81516001600160a01b0316815260208201516040820190600281106112d6576112d6611178565b8060208401525092915050565b6020808252602e908201527f496e697469616c697a61626c653a20636f6e747261637420697320616c72656160408201526d191e481a5b9a5d1a585b1a5e995960921b606082015260800190565b6020808252602c908201527f46756e6374696f6e206d7573742062652063616c6c6564207468726f7567682060408201526b19195b1959d85d1958d85b1b60a21b606082015260800190565b6020808252602c908201527f46756e6374696f6e206d7573742062652063616c6c6564207468726f7567682060408201526b6163746976652070726f787960a01b606082015260800190565b6000604082840312156113db57600080fd5b6040516040810181811067ffffffffffffffff821117156113fe576113fe6111a8565b604052823561140c81611146565b815260208301356002811061142057600080fd5b60208201529392505050565b60006020828403121561143e57600080fd5b5051919050565b6001600160a01b038681168252851660208201526040810184905260806060820181905281018290526000828460a0840137600060a0848401015260a0601f19601f85011683010190509695505050505050565b6000602082840312156114ab57600080fd5b81518015158114610e3657600080fd5b6020808252602b908201527f496e697469616c697a61626c653a20636f6e7472616374206973206e6f74206960408201526a6e697469616c697a696e6760a81b606082015260800190565b60005b83811015611521578181015183820152602001611509565b50506000910152565b6000825161153c818460208701611506565b9190910192915050565b6020815260008251806020840152611565816040850160208701611506565b601f01601f1916919091016040019291505056fe360894a13ba1a3210667c828492db98dca3e2076cc3735a920a3ca505d382bbc416464726573733a206c6f772d6c6576656c2064656c65676174652063616c6c206661696c6564a2646970667358221220859d807b4c4dac88b9f8e8badd363953778e11bd6ce5e6641d4dcc134ab8309a64736f6c63430008110033","linkReferences":{}},"methodIdentifiers":{"SET_TARGET_CONFIG_PERMISSION_ID()":"8cb75059","UPGRADE_PLUGIN_PERMISSION_ID()":"c9c4bfca","dao()":"4162169f","getCurrentTargetConfig()":"c98425ee","getTargetConfig()":"dd63c06f","implementation()":"5c60da1b","initialize(address)":"c4d66de8","initializeV1toV3()":"7cef4695","initializeV2toV3()":"14045768","pluginType()":"41de6830","protocolVersion()":"2ae9c600","proxiableUUID()":"52d1902d","setTargetConfig((address,uint8))":"bb225da2","state1()":"6accab8c","state2()":"efe51cca","state3()":"2491118d","supportsInterface(bytes4)":"01ffc9a7","upgradeTo(address)":"3659cfe6","upgradeToAndCall(address,bytes)":"4f1ef286"},"id":236}