{"abi":[{"type":"function","name":"NO_CONDITION","inputs":[],"outputs":[{"name":"","type":"address","internalType":"address"}],"stateMutability":"view"}],"bytecode":{"object":"0x6091610038600b82828239805160001a607314602b57634e487b7160e01b600052600060045260246000fd5b30600052607381538281f3fe730000000000000000000000000000000000000000301460806040526004361060335760003560e01c80636dd02a5b146038575b600080fd5b603f600081565b6040516001600160a01b03909116815260200160405180910390f3fea264697066735822122073e1208c04714376bd6886360d1987e702b39bf2d18a76cc5cfa682837f437de64736f6c63430008110033","linkReferences":{}},"methodIdentifiers":{"NO_CONDITION()":"6dd02a5b"},"id":3}