{"abi":[{"type":"constructor","inputs":[{"name":"_uri","type":"string","internalType":"string"}],"stateMutability":"nonpayable"},{"type":"function","name":"balanceOf","inputs":[{"name":"account","type":"address","internalType":"address"},{"name":"id","type":"uint256","internalType":"uint256"}],"outputs":[{"name":"","type":"uint256","internalType":"uint256"}],"stateMutability":"view"},{"type":"function","name":"balanceOfBatch","inputs":[{"name":"accounts","type":"address[]","internalType":"address[]"},{"name":"ids","type":"uint256[]","internalType":"uint256[]"}],"outputs":[{"name":"","type":"uint256[]","internalType":"uint256[]"}],"stateMutability":"view"},{"type":"function","name":"burn","inputs":[{"name":"account","type":"address","internalType":"address"},{"name":"tokenId","type":"uint256","internalType":"uint256"},{"name":"amount","type":"uint256","internalType":"uint256"}],"outputs":[],"stateMutability":"nonpayable"},{"type":"function","name":"isApprovedForAll","inputs":[{"name":"account","type":"address","internalType":"address"},{"name":"operator","type":"address","internalType":"address"}],"outputs":[{"name":"","type":"bool","internalType":"bool"}],"stateMutability":"view"},{"type":"function","name":"mint","inputs":[{"name":"account","type":"address","internalType":"address"},{"name":"tokenId","type":"uint256","internalType":"uint256"},{"name":"amount","type":"uint256","internalType":"uint256"}],"outputs":[],"stateMutability":"nonpayable"},{"type":"function","name":"safeBatchTransferFrom","inputs":[{"name":"from","type":"address","internalType":"address"},{"name":"to","type":"address","internalType":"address"},{"name":"ids","type":"uint256[]","internalType":"uint256[]"},{"name":"amounts","type":"uint256[]","internalType":"uint256[]"},{"name":"data","type":"bytes","internalType":"bytes"}],"outputs":[],"stateMutability":"nonpayable"},{"type":"function","name":"safeTransferFrom","inputs":[{"name":"from","type":"address","internalType":"address"},{"name":"to","type":"address","internalType":"address"},{"name":"id","type":"uint256","internalType":"uint256"},{"name":"amount","type":"uint256","internalType":"uint256"},{"name":"data","type":"bytes","internalType":"bytes"}],"outputs":[],"stateMutability":"nonpayable"},{"type":"function","name":"setApprovalForAll","inputs":[{"name":"operator","type":"address","internalType":"address"},{"name":"approved","type":"bool","internalType":"bool"}],"outputs":[],"stateMutability":"nonpayable"},{"type":"function","name":"supportsInterface","inputs":[{"name":"interfaceId","type":"bytes4","internalType":"bytes4"}],"outputs":[{"name":"","type":"bool","internalType":"bool"}],"stateMutability":"view"},{"type":"function","name":"uri","inputs":[{"name":"","type":"uint256","internalType":"uint256"}],"outputs":[{"name":"","type":"string","internalType":"string"}],"stateMutability":"view"},{"type":"event","name":"ApprovalForAll","inputs":[{"name":"account","type":"address","indexed":true,"internalType":"address"},{"name":"operator","type":"address","indexed":true,"internalType":"address"},{"name":"approved","type":"bool","indexed":false,"internalType":"bool"}],"anonymous":false},{"type":"event","name":"TransferBatch","inputs":[{"name":"operator","type":"address","indexed":true,"internalType":"address"},{"name":"from","type":"address","indexed":true,"internalType":"address"},{"name":"to","type":"address","indexed":true,"internalType":"address"},{"name":"ids","type":"uint256[]","indexed":false,"internalType":"uint256[]"},{"name":"values","type":"uint256[]","indexed":false,"internalType":"uint256[]"}],"anonymous":false},{"type":"event","name":"TransferSingle","inputs":[{"name":"operator","type":"address","indexed":true,"internalType":"address"},{"name":"from","type":"address","indexed":true,"internalType":"address"},{"name":"to","type":"address","indexed":true,"internalType":"address"},{"name":"id","type":"uint256","indexed":false,"internalType":"uint256"},{"name":"value","type":"uint256","indexed":false,"internalType":"uint256"}],"anonymous":false},{"type":"event","name":"URI","inputs":[{"name":"value","type":"string","indexed":false,"internalType":"string"},{"name":"id","type":"uint256","indexed":true,"internalType":"uint256"}],"anonymous":false}],"bytecode":{"object":"0x60806040523480156200001157600080fd5b506040516200194e3803806200194e833981016040819052620000349162000070565b80620000408162000048565b5050620002a0565b6002620000568282620001d4565b5050565b634e487b7160e01b600052604160045260246000fd5b600060208083850312156200008457600080fd5b82516001600160401b03808211156200009c57600080fd5b818501915085601f830112620000b157600080fd5b815181811115620000c657620000c66200005a565b604051601f8201601f19908116603f01168101908382118183101715620000f157620000f16200005a565b8160405282815288868487010111156200010a57600080fd5b600093505b828410156200012e57848401860151818501870152928501926200010f565b600086848301015280965050505050505092915050565b600181811c908216806200015a57607f821691505b6020821081036200017b57634e487b7160e01b600052602260045260246000fd5b50919050565b601f821115620001cf57600081815260208120601f850160051c81016020861015620001aa5750805b601f850160051c820191505b81811015620001cb57828155600101620001b6565b5050505b505050565b81516001600160401b03811115620001f057620001f06200005a565b620002088162000201845462000145565b8462000181565b602080601f831160018114620002405760008415620002275750858301515b600019600386901b1c1916600185901b178555620001cb565b600085815260208120601f198616915b82811015620002715788860151825594840194600190910190840162000250565b5085821015620002905787850151600019600388901b60f8161c191681555b5050505050600190811b01905550565b61169e80620002b06000396000f3fe608060405234801561001057600080fd5b506004361061009d5760003560e01c80634e1273f4116100665780634e1273f414610133578063a22cb46514610153578063e985e9c514610166578063f242432a146101a2578063f5298aca146101b557600080fd5b8062fdd58e146100a257806301ffc9a7146100c85780630e89341c146100eb578063156e29f61461010b5780632eb2c2d614610120575b600080fd5b6100b56100b0366004610e2e565b6101c8565b6040519081526020015b60405180910390f35b6100db6100d6366004610e71565b610261565b60405190151581526020016100bf565b6100fe6100f9366004610e95565b6102b1565b6040516100bf9190610ef4565b61011e610119366004610f07565b610345565b005b61011e61012e366004611086565b610365565b610146610141366004611130565b6103b1565b6040516100bf9190611236565b61011e610161366004611249565b6104db565b6100db610174366004611285565b6001600160a01b03918216600090815260016020908152604080832093909416825291909152205460ff1690565b61011e6101b03660046112b8565b6104ea565b61011e6101c3366004610f07565b61052f565b60006001600160a01b0383166102385760405162461bcd60e51b815260206004820152602a60248201527f455243313135353a2061646472657373207a65726f206973206e6f742061207660448201526930b634b21037bbb732b960b11b60648201526084015b60405180910390fd5b506000818152602081815260408083206001600160a01b03861684529091529020545b92915050565b60006001600160e01b03198216636cdb3d1360e11b148061029257506001600160e01b031982166303a24d0760e21b145b8061025b57506301ffc9a760e01b6001600160e01b031983161461025b565b6060600280546102c09061131d565b80601f01602080910402602001604051908101604052809291908181526020018280546102ec9061131d565b80156103395780601f1061030e57610100808354040283529160200191610339565b820191906000526020600020905b81548152906001019060200180831161031c57829003601f168201915b50505050509050919050565b6103608383836040518060200160405280600081525061053a565b505050565b6001600160a01b03851633148061038157506103818533610174565b61039d5760405162461bcd60e51b815260040161022f90611357565b6103aa858585858561064e565b5050505050565b606081518351146104165760405162461bcd60e51b815260206004820152602960248201527f455243313135353a206163636f756e747320616e6420696473206c656e677468604482015268040dad2e6dac2e8c6d60bb1b606482015260840161022f565b6000835167ffffffffffffffff81111561043257610432610f3a565b60405190808252806020026020018201604052801561045b578160200160208202803683370190505b50905060005b84518110156104d3576104a685828151811061047f5761047f6113a5565b6020026020010151858381518110610499576104996113a5565b60200260200101516101c8565b8282815181106104b8576104b86113a5565b60209081029190910101526104cc816113d1565b9050610461565b509392505050565b6104e633838361082b565b5050565b6001600160a01b03851633148061050657506105068533610174565b6105225760405162461bcd60e51b815260040161022f90611357565b6103aa858585858561090b565b610360838383610a35565b6001600160a01b03841661059a5760405162461bcd60e51b815260206004820152602160248201527f455243313135353a206d696e7420746f20746865207a65726f206164647265736044820152607360f81b606482015260840161022f565b3360006105a685610bb1565b905060006105b385610bb1565b90506000868152602081815260408083206001600160a01b038b168452909152812080548792906105e59084906113ea565b909155505060408051878152602081018790526001600160a01b03808a1692600092918716917fc3d58168c5ae7397731d063d5bbf3d657854427343f4c083240f7aacaa2d0f62910160405180910390a461064583600089898989610bfc565b50505050505050565b81518351146106b05760405162461bcd60e51b815260206004820152602860248201527f455243313135353a2069647320616e6420616d6f756e7473206c656e677468206044820152670dad2e6dac2e8c6d60c31b606482015260840161022f565b6001600160a01b0384166106d65760405162461bcd60e51b815260040161022f906113fd565b3360005b84518110156107bd5760008582815181106106f7576106f76113a5565b602002602001015190506000858381518110610715576107156113a5565b602090810291909101810151600084815280835260408082206001600160a01b038e1683529093529190912054909150818110156107655760405162461bcd60e51b815260040161022f90611442565b6000838152602081815260408083206001600160a01b038e8116855292528083208585039055908b168252812080548492906107a29084906113ea565b92505081905550505050806107b6906113d1565b90506106da565b50846001600160a01b0316866001600160a01b0316826001600160a01b03167f4a39dc06d4c0dbc64b70af90fd698a233a518aa5d07e595d983b8c0526c8f7fb878760405161080d92919061148c565b60405180910390a4610823818787878787610d57565b505050505050565b816001600160a01b0316836001600160a01b03160361089e5760405162461bcd60e51b815260206004820152602960248201527f455243313135353a2073657474696e6720617070726f76616c20737461747573604482015268103337b91039b2b63360b91b606482015260840161022f565b6001600160a01b03838116600081815260016020908152604080832094871680845294825291829020805460ff191686151590811790915591519182527f17307eab39ab6107e8899845ad3d59bd9653f200f220920489ca2b5937696c31910160405180910390a3505050565b6001600160a01b0384166109315760405162461bcd60e51b815260040161022f906113fd565b33600061093d85610bb1565b9050600061094a85610bb1565b90506000868152602081815260408083206001600160a01b038c1684529091529020548581101561098d5760405162461bcd60e51b815260040161022f90611442565b6000878152602081815260408083206001600160a01b038d8116855292528083208985039055908a168252812080548892906109ca9084906113ea565b909155505060408051888152602081018890526001600160a01b03808b16928c821692918816917fc3d58168c5ae7397731d063d5bbf3d657854427343f4c083240f7aacaa2d0f62910160405180910390a4610a2a848a8a8a8a8a610bfc565b505050505050505050565b6001600160a01b038316610a975760405162461bcd60e51b815260206004820152602360248201527f455243313135353a206275726e2066726f6d20746865207a65726f206164647260448201526265737360e81b606482015260840161022f565b336000610aa384610bb1565b90506000610ab084610bb1565b60408051602080820183526000918290528882528181528282206001600160a01b038b1683529052205490915084811015610b395760405162461bcd60e51b8152602060048201526024808201527f455243313135353a206275726e20616d6f756e7420657863656564732062616c604482015263616e636560e01b606482015260840161022f565b6000868152602081815260408083206001600160a01b038b81168086529184528285208a8703905582518b81529384018a90529092908816917fc3d58168c5ae7397731d063d5bbf3d657854427343f4c083240f7aacaa2d0f62910160405180910390a4604080516020810190915260009052610645565b60408051600180825281830190925260609160009190602080830190803683370190505090508281600081518110610beb57610beb6113a5565b602090810291909101015292915050565b6001600160a01b0384163b156108235760405163f23a6e6160e01b81526001600160a01b0385169063f23a6e6190610c4090899089908890889088906004016114ba565b6020604051808303816000875af1925050508015610c7b575060408051601f3d908101601f19168201909252610c78918101906114ff565b60015b610d2757610c8761151c565b806308c379a003610cc05750610c9b611538565b80610ca65750610cc2565b8060405162461bcd60e51b815260040161022f9190610ef4565b505b60405162461bcd60e51b815260206004820152603460248201527f455243313135353a207472616e7366657220746f206e6f6e2d455243313135356044820152732932b1b2b4bb32b91034b6b83632b6b2b73a32b960611b606482015260840161022f565b6001600160e01b0319811663f23a6e6160e01b146106455760405162461bcd60e51b815260040161022f906115c2565b6001600160a01b0384163b156108235760405163bc197c8160e01b81526001600160a01b0385169063bc197c8190610d9b908990899088908890889060040161160a565b6020604051808303816000875af1925050508015610dd6575060408051601f3d908101601f19168201909252610dd3918101906114ff565b60015b610de257610c8761151c565b6001600160e01b0319811663bc197c8160e01b146106455760405162461bcd60e51b815260040161022f906115c2565b80356001600160a01b0381168114610e2957600080fd5b919050565b60008060408385031215610e4157600080fd5b610e4a83610e12565b946020939093013593505050565b6001600160e01b031981168114610e6e57600080fd5b50565b600060208284031215610e8357600080fd5b8135610e8e81610e58565b9392505050565b600060208284031215610ea757600080fd5b5035919050565b6000815180845260005b81811015610ed457602081850181015186830182015201610eb8565b506000602082860101526020601f19601f83011685010191505092915050565b602081526000610e8e6020830184610eae565b600080600060608486031215610f1c57600080fd5b610f2584610e12565b95602085013595506040909401359392505050565b634e487b7160e01b600052604160045260246000fd5b601f8201601f1916810167ffffffffffffffff81118282101715610f7657610f76610f3a565b6040525050565b600067ffffffffffffffff821115610f9757610f97610f3a565b5060051b60200190565b600082601f830112610fb257600080fd5b81356020610fbf82610f7d565b604051610fcc8282610f50565b83815260059390931b8501820192828101915086841115610fec57600080fd5b8286015b848110156110075780358352918301918301610ff0565b509695505050505050565b600082601f83011261102357600080fd5b813567ffffffffffffffff81111561103d5761103d610f3a565b604051611054601f8301601f191660200182610f50565b81815284602083860101111561106957600080fd5b816020850160208301376000918101602001919091529392505050565b600080600080600060a0868803121561109e57600080fd5b6110a786610e12565b94506110b560208701610e12565b9350604086013567ffffffffffffffff808211156110d257600080fd5b6110de89838a01610fa1565b945060608801359150808211156110f457600080fd5b61110089838a01610fa1565b9350608088013591508082111561111657600080fd5b5061112388828901611012565b9150509295509295909350565b6000806040838503121561114357600080fd5b823567ffffffffffffffff8082111561115b57600080fd5b818501915085601f83011261116f57600080fd5b8135602061117c82610f7d565b6040516111898282610f50565b83815260059390931b85018201928281019150898411156111a957600080fd5b948201945b838610156111ce576111bf86610e12565b825294820194908201906111ae565b965050860135925050808211156111e457600080fd5b506111f185828601610fa1565b9150509250929050565b600081518084526020808501945080840160005b8381101561122b5781518752958201959082019060010161120f565b509495945050505050565b602081526000610e8e60208301846111fb565b6000806040838503121561125c57600080fd5b61126583610e12565b91506020830135801515811461127a57600080fd5b809150509250929050565b6000806040838503121561129857600080fd5b6112a183610e12565b91506112af60208401610e12565b90509250929050565b600080600080600060a086880312156112d057600080fd5b6112d986610e12565b94506112e760208701610e12565b93506040860135925060608601359150608086013567ffffffffffffffff81111561131157600080fd5b61112388828901611012565b600181811c9082168061133157607f821691505b60208210810361135157634e487b7160e01b600052602260045260246000fd5b50919050565b6020808252602e908201527f455243313135353a2063616c6c6572206973206e6f7420746f6b656e206f776e60408201526d195c881bdc88185c1c1c9bdd995960921b606082015260800190565b634e487b7160e01b600052603260045260246000fd5b634e487b7160e01b600052601160045260246000fd5b6000600182016113e3576113e36113bb565b5060010190565b8082018082111561025b5761025b6113bb565b60208082526025908201527f455243313135353a207472616e7366657220746f20746865207a65726f206164604082015264647265737360d81b606082015260800190565b6020808252602a908201527f455243313135353a20696e73756666696369656e742062616c616e636520666f60408201526939103a3930b739b332b960b11b606082015260800190565b60408152600061149f60408301856111fb565b82810360208401526114b181856111fb565b95945050505050565b6001600160a01b03868116825285166020820152604081018490526060810183905260a0608082018190526000906114f490830184610eae565b979650505050505050565b60006020828403121561151157600080fd5b8151610e8e81610e58565b600060033d11156115355760046000803e5060005160e01c5b90565b600060443d10156115465790565b6040516003193d81016004833e81513d67ffffffffffffffff816024840111818411171561157657505050505090565b828501915081518181111561158e5750505050505090565b843d87010160208285010111156115a85750505050505090565b6115b760208286010187610f50565b509095945050505050565b60208082526028908201527f455243313135353a204552433131353552656365697665722072656a656374656040820152676420746f6b656e7360c01b606082015260800190565b6001600160a01b0386811682528516602082015260a060408201819052600090611636908301866111fb565b828103606084015261164881866111fb565b9050828103608084015261165c8185610eae565b9897505050505050505056fea2646970667358221220c194d513d9c1931d57c75902d84981c1c0f0515cb8545783e8c28815fda2853464736f6c63430008110033","linkReferences":{}},"methodIdentifiers":{"balanceOf(address,uint256)":"00fdd58e","balanceOfBatch(address[],uint256[])":"4e1273f4","burn(address,uint256,uint256)":"f5298aca","isApprovedForAll(address,address)":"e985e9c5","mint(address,uint256,uint256)":"156e29f6","safeBatchTransferFrom(address,address,uint256[],uint256[],bytes)":"2eb2c2d6","safeTransferFrom(address,address,uint256,uint256,bytes)":"f242432a","setApprovalForAll(address,bool)":"a22cb465","supportsInterface(bytes4)":"01ffc9a7","uri(uint256)":"0e89341c"},"id":238}