{"abi":[{"type":"constructor","inputs":[{"name":"_ensRegistry","type":"address","internalType":"address"},{"name":"_ensResolver","type":"address","internalType":"address"},{"name":"_daoNode","type":"bytes32","internalType":"bytes32"},{"name":"_pluginNode","type":"bytes32","internalType":"bytes32"}],"stateMutability":"nonpayable"},{"type":"function","name":"EXECUTE_PERMISSION","inputs":[],"outputs":[{"name":"","type":"bytes32","internalType":"bytes32"}],"stateMutability":"view"},{"type":"function","name":"REGISTER_DAO_PERMISSION","inputs":[],"outputs":[{"name":"","type":"bytes32","internalType":"bytes32"}],"stateMutability":"view"},{"type":"function","name":"REGISTER_ENS_SUBDOMAIN_PERMISSION","inputs":[],"outputs":[{"name":"","type":"bytes32","internalType":"bytes32"}],"stateMutability":"view"},{"type":"function","name":"REGISTER_PLUGIN_REPO_PERMISSION","inputs":[],"outputs":[{"name":"","type":"bytes32","internalType":"bytes32"}],"stateMutability":"view"},{"type":"function","name":"UPGRADE_REGISTRAR_PERMISSION","inputs":[],"outputs":[{"name":"","type":"bytes32","internalType":"bytes32"}],"stateMutability":"view"},{"type":"function","name":"UPGRADE_REGISTRY_PERMISSION","inputs":[],"outputs":[{"name":"","type":"bytes32","internalType":"bytes32"}],"stateMutability":"view"},{"type":"function","name":"daoBase","inputs":[],"outputs":[{"name":"","type":"address","internalType":"address"}],"stateMutability":"view"},{"type":"function","name":"daoNode","inputs":[],"outputs":[{"name":"","type":"bytes32","internalType":"bytes32"}],"stateMutability":"view"},{"type":"function","name":"daoRegistryBase","inputs":[],"outputs":[{"name":"","type":"address","internalType":"address"}],"stateMutability":"view"},{"type":"function","name":"deployFramework","inputs":[{"name":"_daoSettings","type":"tuple","internalType":"struct DeployFrameworkFactory.DAOSettings","components":[{"name":"metadata","type":"bytes","internalType":"bytes"},{"name":"trustedForwarder","type":"address","internalType":"address"},{"name":"daoURI","type":"string","internalType":"string"}]},{"name":"_daoSubdomain","type":"string","internalType":"string"},{"name":"_daoPermissionIds","type":"bytes32[]","internalType":"bytes32[]"},{"name":"_bytecodes","type":"tuple","internalType":"struct DeployFrameworkFactory.Bytecodes","components":[{"name":"daoFactory","type":"bytes","internalType":"bytes"},{"name":"pluginRepoFactory","type":"bytes","internalType":"bytes"},{"name":"psp","type":"bytes","internalType":"bytes"}]}],"outputs":[{"name":"deps","type":"tuple","internalType":"struct DeployFrameworkFactory.Deployments","components":[{"name":"dao","type":"address","internalType":"address"},{"name":"daoEnsRegistrar","type":"address","internalType":"address"},{"name":"pluginEnsRegistrar","type":"address","internalType":"address"},{"name":"daoRegistry","type":"address","internalType":"address"},{"name":"pluginRepoRegistry","type":"address","internalType":"address"},{"name":"psp","type":"address","internalType":"address"},{"name":"daoFactory","type":"address","internalType":"address"},{"name":"pluginRepoFactory","type":"address","internalType":"address"}]}],"stateMutability":"nonpayable"},{"type":"function","name":"ensRegistry","inputs":[],"outputs":[{"name":"","type":"address","internalType":"address"}],"stateMutability":"view"},{"type":"function","name":"ensResolver","inputs":[],"outputs":[{"name":"","type":"address","internalType":"address"}],"stateMutability":"view"},{"type":"function","name":"ensSubdomainRegistrarBase","inputs":[],"outputs":[{"name":"","type":"address","internalType":"address"}],"stateMutability":"view"},{"type":"function","name":"owner","inputs":[],"outputs":[{"name":"","type":"address","internalType":"address"}],"stateMutability":"view"},{"type":"function","name":"pluginNode","inputs":[],"outputs":[{"name":"","type":"bytes32","internalType":"bytes32"}],"stateMutability":"view"},{"type":"function","name":"pluginRepoRegistryBase","inputs":[],"outputs":[{"name":"","type":"address","internalType":"address"}],"stateMutability":"view"},{"type":"event","name":"DeploymentResults","inputs":[{"name":"deps","type":"tuple","indexed":false,"internalType":"struct DeployFrameworkFactory.Deployments","components":[{"name":"dao","type":"address","internalType":"address"},{"name":"daoEnsRegistrar","type":"address","internalType":"address"},{"name":"pluginEnsRegistrar","type":"address","internalType":"address"},{"name":"daoRegistry","type":"address","internalType":"address"},{"name":"pluginRepoRegistry","type":"address","internalType":"address"},{"name":"psp","type":"address","internalType":"address"},{"name":"daoFactory","type":"address","internalType":"address"},{"name":"pluginRepoFactory","type":"address","internalType":"address"}]}],"anonymous":false}],"bytecode":{"object":"0x6101806040523480156200001257600080fd5b506040516200a0b23803806200a0b28339810160408190526200003591620001a8565b6001600160a01b0380851661010052831661012052610140829052610160819052600080546001600160a01b03191633179055604051620000769062000153565b604051809103906000f08015801562000093573d6000803e3d6000fd5b506001600160a01b0316608052604051620000ae9062000161565b604051809103906000f080158015620000cb573d6000803e3d6000fd5b506001600160a01b031660a052604051620000e6906200016f565b604051809103906000f08015801562000103573d6000803e3d6000fd5b506001600160a01b031660c0526040516200011e906200017d565b604051809103906000f0801580156200013b573d6000803e3d6000fd5b506001600160a01b031660e05250620001f092505050565b6136208062002b2d83390190565b611491806200614d83390190565b61156580620075de83390190565b61156f8062008b4383390190565b80516001600160a01b0381168114620001a357600080fd5b919050565b60008060008060808587031215620001bf57600080fd5b620001ca856200018b565b9350620001da602086016200018b565b6040860151606090960151949790965092505050565b60805160a05160c05160e05161010051610120516101405161016051612852620002db60003960008181610305015281816104ad015281816104db015281816106bf015281816106f501526108f80152600081816101200152818161044901528181610477015281816105e001528181610616015261081a015260006102dd0152600081816101ea0152818161064c0152818161072b01528181610853015281816109310152610dd801526000818161024e0152610f5001526000818161029e0152610ecd01526000818161015b0152610e4001526000818161036c0152610da101526128526000f3fe60806040523480156200001157600080fd5b5060043610620001155760003560e01c8063a6d7e72e11620000a3578063b451ba36116200006e578063b451ba3614620002ff578063bcfa47841462000327578063cd5e2773146200033e578063d9f8bd23146200036657600080fd5b8063a6d7e72e1462000270578063a865299c1462000298578063aae2f42614620002c0578063adce1c5f14620002d757600080fd5b80637d73b23111620000e45780637d73b23114620001e45780638da5cb5b146200020c57806390008628146200022057806395e8f57e146200024857600080fd5b80631449e283146200011a5780633cfb35aa14620001555780633dec5b20146200019657806359e4367714620001be575b600080fd5b620001427f000000000000000000000000000000000000000000000000000000000000000081565b6040519081526020015b60405180910390f35b6200017d7f000000000000000000000000000000000000000000000000000000000000000081565b6040516001600160a01b0390911681526020016200014c565b620001427f60b96ff9fb5f29153c29c1747515b8be4ee523d686cc6f453ec294b0afa7293281565b620001d5620001cf36600462001aa3565b6200038e565b6040516200014c919062001b99565b6200017d7f000000000000000000000000000000000000000000000000000000000000000081565b6000546200017d906001600160a01b031681565b620001427fa1fcba4efb1e94b7648f5e0504bfd39734aead5f17965d12705915d771c859ff81565b6200017d7f000000000000000000000000000000000000000000000000000000000000000081565b620001427f055973dfb6d3b3cd890dde3a801f5427fa973864752b6d2a1ae61cbd5ae5dc0981565b6200017d7f000000000000000000000000000000000000000000000000000000000000000081565b62000142600080516020620027dd83398151915281565b6200017d7f000000000000000000000000000000000000000000000000000000000000000081565b620001427f000000000000000000000000000000000000000000000000000000000000000081565b62000142600080516020620027fd83398151915281565b620001427fbbdfd23f099d7ed9f535e0f97d2123efb1332b16e023b8359b3b879eaecd3c1481565b6200017d7f000000000000000000000000000000000000000000000000000000000000000081565b6040805161010081018252600080825260208201819052918101829052606081018290526080810182905260a0810182905260c0810182905260e08101919091526000546001600160a01b03163314620004275760405162461bcd60e51b815260206004820152601660248201527539b2b73232b91034b9903737ba1030b71037bbb732b960511b604482015260640160405180910390fd5b6200043c620004368762001c05565b62000d3f565b6001600160a01b031681527f000000000000000000000000000000000000000000000000000000000000000015620004ab5780516200049c907f000000000000000000000000000000000000000000000000000000000000000062000dcf565b6001600160a01b031660208201525b7f0000000000000000000000000000000000000000000000000000000000000000156200050f57805162000500907f000000000000000000000000000000000000000000000000000000000000000062000dcf565b6001600160a01b031660408201525b6200052881600001518260200151836040015162000e70565b6001600160a01b03908116608084018190529116606083015260408381015181516020810193909352910160408051601f198184030181529082905262000573929160200162001ccd565b60408051601f198184030181529181528301819052620005939062000f85565b6001600160a01b031660a0820181905260808201516060830151620005b9928562000f96565b6001600160a01b0390811660c08401521660e0820152620005db81846200103f565b6000807f000000000000000000000000000000000000000000000000000000000000000015620006bd578251604051635b0fc9c360e01b81527f000000000000000000000000000000000000000000000000000000000000000060048201526001600160a01b0391821660248201527f000000000000000000000000000000000000000000000000000000000000000090911690635b0fc9c390604401600060405180830381600087803b1580156200069357600080fd5b505af1158015620006a8573d6000803e3d6000fd5b505050508180620006b99062001d16565b9250505b7f0000000000000000000000000000000000000000000000000000000000000000156200079c578251604051635b0fc9c360e01b81527f000000000000000000000000000000000000000000000000000000000000000060048201526001600160a01b0391821660248201527f000000000000000000000000000000000000000000000000000000000000000090911690635b0fc9c390604401600060405180830381600087803b1580156200077257600080fd5b505af115801562000787573d6000803e3d6000fd5b505050508180620007989062001d16565b9250505b6000620007ab83600462001d32565b67ffffffffffffffff811115620007c657620007c662001868565b6040519080825280602002602001820160405280156200081557816020015b60408051606080820183526000808352602083015291810191909152815260200190600190039081620007e55790505b5090507f000000000000000000000000000000000000000000000000000000000000000015620008f657604080516060810182526001600160a01b037f000000000000000000000000000000000000000000000000000000000000000081168252600060208084019190915287015183519116602482015260016044820152909182019060640160408051601f198184030181529190526020810180516001600160e01b031663a22cb46560e01b17905290528183620008d58162001d16565b945081518110620008ea57620008ea62001d48565b60200260200101819052505b7f000000000000000000000000000000000000000000000000000000000000000015620009d157604080516060810182526001600160a01b037f000000000000000000000000000000000000000000000000000000000000000081168252600060208301528683015183519116602482015260016044820152909182019060640160408051601f198184030181529190526020810180516001600160e01b031663a22cb46560e01b17905290528183620009b08162001d16565b945081518110620009c557620009c562001d48565b60200260200101819052505b604051806060016040528085606001516001600160a01b03168152602001600081526020018560000151338b8b60405160240162000a13949392919062001d5e565b60408051601f198184030181529190526020810180516001600160e01b031663ede4973960e01b1790529052818362000a4c8162001d16565b94508151811062000a615762000a6162001d48565b6020026020010181905250604051806060016040528085600001516001600160a01b031681526020016000815260200185606001518660000151600080516020620027dd83398151915260405160240162000abf9392919062001daa565b60408051601f198184030181529190526020810180516001600160e01b0316633658153160e21b1790529052818362000af88162001d16565b94508151811062000b0d5762000b0d62001d48565b6020026020010181905250604051806060016040528085600001516001600160a01b0316815260200160008152602001856000015130600080516020620027fd83398151915260405160240162000b679392919062001daa565b60408051601f198184030181529190526020810180516001600160e01b0316633658153160e21b1790529052818362000ba08162001d16565b94508151811062000bb55762000bb562001d48565b6020026020010181905250604051806060016040528085600001516001600160a01b03168152602001600081526020018560000151307f815fe80e4b37c8582a3b773d1d7071f983eacfd56b5965db654f3087c25ada3360405160240162000c209392919062001daa565b60408051601f198184030181529190526020810180516001600160e01b0316633658153160e21b1790529052818362000c598162001d16565b94508151811062000c6e5762000c6e62001d48565b602090810291909101015283516040516331c6fcc960e21b81526001600160a01b039091169063c71bf3249062000caf906000908590829060040162001dfc565b6000604051808303816000875af115801562000ccf573d6000803e3d6000fd5b505050506040513d6000823e601f3d908101601f1916820160405262000cf9919081019062001e98565b50507e914066d8e7dc82ec36301432990101cd98de4d9fe47cb07da71939a9e98a7e8460405162000d2b919062001b99565b60405180910390a150505095945050505050565b6000808260000151308460200151856040015160405160240162000d67949392919062001f9d565b60408051601f198184030181529190526020810180516001600160e01b031663757dc58360e11b179052905062000dc86001600160a01b037f0000000000000000000000000000000000000000000000000000000000000000168262001816565b9392505050565b600062000e67837f00000000000000000000000000000000000000000000000000000000000000008460405160240162000e0c9392919062001daa565b60408051601f198184030181529190526020810180516001600160e01b0316636133f98560e01b1790526001600160a01b037f0000000000000000000000000000000000000000000000000000000000000000169062001816565b90505b92915050565b6040516001600160a01b038085166024830152831660448201526000908190819062000ef49060640160408051601f198184030181529190526020810180516001600160e01b031663485cc95560e01b1790526001600160a01b037f0000000000000000000000000000000000000000000000000000000000000000169062001816565b6040516001600160a01b0380891660248301528616604482015290915060009062000f779060640160408051601f198184030181529190526020810180516001600160e01b031663485cc95560e01b1790526001600160a01b037f0000000000000000000000000000000000000000000000000000000000000000169062001816565b919791965090945050505050565b60008151602083016000f092915050565b600080600062000ffa84602001518860405160200162000fc591906001600160a01b0391909116815260200190565b60408051601f198184030181529082905262000fe5929160200162001ccd565b60405160208183030381529060405262000f85565b90506000620010308560000151888860405160200162000fc59291906001600160a01b0392831681529116602082015260400190565b91989197509095505050505050565b8051602083015181906001600160a01b03161562001067576200106460028262001d32565b90505b60408401516001600160a01b0316156200108b576200108860028262001d32565b90505b60006200109a82600762001d32565b67ffffffffffffffff811115620010b557620010b562001868565b6040519080825280602002602001820160405280156200111057816020015b6040805160a081018252600080825260208083018290529282018190526060820181905260808201528252600019909201910181620010d45790505b50905060005b83811015620011be576040805160a08101909152806000815260200187600001516001600160a01b0316815260200187600001516001600160a01b0316815260200160006001600160a01b031681526020018683815181106200117d576200117d62001d48565b60200260200101518152508282815181106200119d576200119d62001d48565b60200260200101819052508080620011b59062001d16565b91505062001116565b5060208501516001600160a01b0316156200130a576040805160a08101909152806000815260200186602001516001600160a01b0316815260200186606001516001600160a01b0316815260200160006001600160a01b031681526020017fbbdfd23f099d7ed9f535e0f97d2123efb1332b16e023b8359b3b879eaecd3c148152508184806200124e9062001d16565b95508151811062001263576200126362001d48565b60209081029190910101526040805160a08101909152806000815260200186602001516001600160a01b0316815260200186600001516001600160a01b0316815260200160006001600160a01b031681526020017fa1fcba4efb1e94b7648f5e0504bfd39734aead5f17965d12705915d771c859ff815250818480620012e99062001d16565b955081518110620012fe57620012fe62001d48565b60200260200101819052505b60408501516001600160a01b03161562001442576040805160a08101909152806000815260200186604001516001600160a01b0316815260200186608001516001600160a01b0316815260200160006001600160a01b031681526020017fbbdfd23f099d7ed9f535e0f97d2123efb1332b16e023b8359b3b879eaecd3c14815250818480620013999062001d16565b955081518110620013ae57620013ae62001d48565b60209081029190910101526040805160a0810190915280600081526040808801516001600160a01b03908116602084015288511690820152600060608201527fa1fcba4efb1e94b7648f5e0504bfd39734aead5f17965d12705915d771c859ff6080909101528184620014218162001d16565b95508151811062001436576200143662001d48565b60200260200101819052505b6040805160a0810190915280600081526060808801516001600160a01b03908116602084015260c0890151166040830152600090820152600080516020620027dd83398151915260809091015281846200149c8162001d16565b955081518110620014b157620014b162001d48565b60209081029190910101526040805160a0810190915280600081526060808801516001600160a01b03908116602084015288511660408301526000908201527f60b96ff9fb5f29153c29c1747515b8be4ee523d686cc6f453ec294b0afa729326080909101528184620015248162001d16565b95508151811062001539576200153962001d48565b60209081029190910101526040805160a0810190915280600081526080808801516001600160a01b03908116602084015260e0890151166040830152600060608301527f055973dfb6d3b3cd890dde3a801f5427fa973864752b6d2a1ae61cbd5ae5dc099101528184620015ad8162001d16565b955081518110620015c257620015c262001d48565b60209081029190910101526040805160a0810190915280600081526080808801516001600160a01b0390811660208401528851166040830152600060608301527f60b96ff9fb5f29153c29c1747515b8be4ee523d686cc6f453ec294b0afa729329101528184620016338162001d16565b95508151811062001648576200164862001d48565b60209081029190910101526040805160a08101909152806000815286516001600160a01b0316602082015233604082015260006060820152600080516020620027fd8339815191526080909101528184620016a38162001d16565b955081518110620016b857620016b862001d48565b60209081029190910101526040805160a08101909152806000815286516001600160a01b0316602082015230604082015260006060820152600080516020620027fd8339815191526080909101528184620017138162001d16565b95508151811062001728576200172862001d48565b60209081029190910101526040805160a0810190915280600081526060808801516001600160a01b0390811660208401528851166040830152600090820152600080516020620027dd83398151915260809091015281846200178a8162001d16565b9550815181106200179f576200179f62001d48565b6020908102919091010152845160405163e978afe560e01b81526001600160a01b039091169063e978afe590620017db90849060040162001fe8565b600060405180830381600087803b158015620017f657600080fd5b505af11580156200180b573d6000803e3d6000fd5b505050505050505050565b6000828260405162001828906200185a565b6200183592919062002087565b604051809103906000f08015801562001852573d6000803e3d6000fd5b509392505050565b61072780620020b683390190565b634e487b7160e01b600052604160045260246000fd5b6040516060810167ffffffffffffffff81118282101715620018a457620018a462001868565b60405290565b604051601f8201601f1916810167ffffffffffffffff81118282101715620018d657620018d662001868565b604052919050565b600067ffffffffffffffff821115620018fb57620018fb62001868565b5060051b60200190565b600082601f8301126200191757600080fd5b81356020620019306200192a83620018de565b620018aa565b82815260059290921b840181019181810190868411156200195057600080fd5b8286015b848110156200196d578035835291830191830162001954565b509695505050505050565b600067ffffffffffffffff82111562001995576200199562001868565b50601f01601f191660200190565b6000620019b46200192a8462001978565b9050828152838383011115620019c957600080fd5b828260208301376000602084830101529392505050565b600082601f830112620019f257600080fd5b62000e6783833560208501620019a3565b60006060828403121562001a1657600080fd5b62001a206200187e565b9050813567ffffffffffffffff8082111562001a3b57600080fd5b62001a4985838601620019e0565b8352602084013591508082111562001a6057600080fd5b62001a6e85838601620019e0565b6020840152604084013591508082111562001a8857600080fd5b5062001a9784828501620019e0565b60408301525092915050565b60008060008060006080868803121562001abc57600080fd5b853567ffffffffffffffff8082111562001ad557600080fd5b908701906060828a03121562001aea57600080fd5b9095506020870135908082111562001b0157600080fd5b818801915088601f83011262001b1657600080fd5b81358181111562001b2657600080fd5b89602082850101111562001b3957600080fd5b60208301965080955050604088013591508082111562001b5857600080fd5b62001b6689838a0162001905565b9350606088013591508082111562001b7d57600080fd5b5062001b8c8882890162001a03565b9150509295509295909350565b81516001600160a01b03908116825260208084015182169083015260408084015182169083015260608084015182169083015260808084015182169083015260a08084015182169083015260c08084015182169083015260e09283015116918101919091526101000190565b60006060823603121562001c1857600080fd5b62001c226200187e565b823567ffffffffffffffff8082111562001c3b57600080fd5b62001c4936838701620019e0565b8352602085013591506001600160a01b038216821462001c6857600080fd5b816020840152604085013591508082111562001c8357600080fd5b50830136601f82011262001c9657600080fd5b62001a9736823560208401620019a3565b60005b8381101562001cc457818101518382015260200162001caa565b50506000910152565b6000835162001ce181846020880162001ca7565b83519083019062001cf781836020880162001ca7565b01949350505050565b634e487b7160e01b600052601160045260246000fd5b60006001820162001d2b5762001d2b62001d00565b5060010190565b8082018082111562000e6a5762000e6a62001d00565b634e487b7160e01b600052603260045260246000fd5b6001600160a01b0385811682528416602082015260606040820181905281018290526000828460808401376000608084840101526080601f19601f850116830101905095945050505050565b6001600160a01b039384168152919092166020820152604081019190915260600190565b6000815180845262001de881602086016020860162001ca7565b601f01601f19169290920160200192915050565b600060608083018684526020828186015281875180845260808701915060808160051b880101935082890160005b8281101562001e8157888603607f19018452815180516001600160a01b03168752858101518688015260409081015190870188905262001e6d8888018262001dce565b965050928401929084019060010162001e2a565b505050505060409390930193909352509392505050565b600080604080848603121562001ead57600080fd5b835167ffffffffffffffff8082111562001ec657600080fd5b818601915086601f83011262001edb57600080fd5b8151602062001eee6200192a83620018de565b82815260059290921b8401810191818101908a84111562001f0e57600080fd5b8286015b8481101562001f895780518681111562001f2c5760008081fd5b8701603f81018d1362001f3f5760008081fd5b8481015162001f526200192a8262001978565b8181528e8b83850101111562001f685760008081fd5b62001f79828883018d860162001ca7565b8552505091830191830162001f12565b509890910151979997985050505050505050565b60808152600062001fb2608083018762001dce565b6001600160a01b03868116602085015285166040840152828103606084015262001fdd818562001dce565b979650505050505050565b60208082528251828201819052600091906040908185019086840185805b83811015620020795782518051600381106200203057634e487b7160e01b84526021600452602484fd5b8652808801516001600160a01b039081168988015287820151811688880152606080830151909116908701526080908101519086015260a0909401939186019160010162002006565b509298975050505050505050565b6001600160a01b0383168152604060208201819052600090620020ad9083018462001dce565b94935050505056fe608060405260405161072738038061072783398101604081905261002291610319565b61002e82826000610035565b5050610436565b61003e8361006b565b60008251118061004b5750805b156100665761006483836100ab60201b6100291760201c565b505b505050565b610074816100d7565b6040516001600160a01b038216907fbc7cd75a20ee27fd9adebab32041f755214dbc6bffa90cc0225b39da2e5c2d3b90600090a250565b60606100d08383604051806060016040528060278152602001610700602791396101a9565b9392505050565b6100ea8161022260201b6100551760201c565b6101515760405162461bcd60e51b815260206004820152602d60248201527f455243313936373a206e657720696d706c656d656e746174696f6e206973206e60448201526c1bdd08184818dbdb9d1c9858dd609a1b60648201526084015b60405180910390fd5b806101887f360894a13ba1a3210667c828492db98dca3e2076cc3735a920a3ca505d382bbc60001b61023160201b6100641760201c565b80546001600160a01b0319166001600160a01b039290921691909117905550565b6060600080856001600160a01b0316856040516101c691906103e7565b600060405180830381855af49150503d8060008114610201576040519150601f19603f3d011682016040523d82523d6000602084013e610206565b606091505b50909250905061021886838387610234565b9695505050505050565b6001600160a01b03163b151590565b90565b606083156102a357825160000361029c576001600160a01b0385163b61029c5760405162461bcd60e51b815260206004820152601d60248201527f416464726573733a2063616c6c20746f206e6f6e2d636f6e74726163740000006044820152606401610148565b50816102ad565b6102ad83836102b5565b949350505050565b8151156102c55781518083602001fd5b8060405162461bcd60e51b81526004016101489190610403565b634e487b7160e01b600052604160045260246000fd5b60005b838110156103105781810151838201526020016102f8565b50506000910152565b6000806040838503121561032c57600080fd5b82516001600160a01b038116811461034357600080fd5b60208401519092506001600160401b038082111561036057600080fd5b818501915085601f83011261037457600080fd5b815181811115610386576103866102df565b604051601f8201601f19908116603f011681019083821181831017156103ae576103ae6102df565b816040528281528860208487010111156103c757600080fd5b6103d88360208301602088016102f5565b80955050505050509250929050565b600082516103f98184602087016102f5565b9190910192915050565b60208152600082518060208401526104228160408501602087016102f5565b601f01601f19169190910160400192915050565b6102bb806104456000396000f3fe60806040523661001357610011610017565b005b6100115b610027610022610067565b61009f565b565b606061004e838360405180606001604052806027815260200161025f602791396100c3565b9392505050565b6001600160a01b03163b151590565b90565b600061009a7f360894a13ba1a3210667c828492db98dca3e2076cc3735a920a3ca505d382bbc546001600160a01b031690565b905090565b3660008037600080366000845af43d6000803e8080156100be573d6000f35b3d6000fd5b6060600080856001600160a01b0316856040516100e0919061020f565b600060405180830381855af49150503d806000811461011b576040519150601f19603f3d011682016040523d82523d6000602084013e610120565b606091505b50915091506101318683838761013b565b9695505050505050565b606083156101af5782516000036101a8576001600160a01b0385163b6101a85760405162461bcd60e51b815260206004820152601d60248201527f416464726573733a2063616c6c20746f206e6f6e2d636f6e747261637400000060448201526064015b60405180910390fd5b50816101b9565b6101b983836101c1565b949350505050565b8151156101d15781518083602001fd5b8060405162461bcd60e51b815260040161019f919061022b565b60005b838110156102065781810151838201526020016101ee565b50506000910152565b600082516102218184602087016101eb565b9190910192915050565b602081526000825180602084015261024a8160408501602087016101eb565b601f01601f1916919091016040019291505056fe416464726573733a206c6f772d6c6576656c2064656c65676174652063616c6c206661696c6564a26469706673582212206422cddf590659cffa3b67bffda8bc5358782dd87571fd3a8c2e682a409c28aa64736f6c63430008110033416464726573733a206c6f772d6c6576656c2064656c65676174652063616c6c206661696c6564de5e253d6956bc5fb69cfa564733633f4e53b143e42859306cd13cdc54856215bf04b4486c9663d805744005c3da000eda93de6e3308a4a7a812eb565327b78da2646970667358221220463cbf8c5722c7bef008cbdedc1c29c0883278fcc1bc1d68f86e27d44fdb643964736f6c6343000811003360a0604052306080523480156200001557600080fd5b506200002062000026565b620000e7565b600054610100900460ff1615620000935760405162461bcd60e51b815260206004820152602760248201527f496e697469616c697a61626c653a20636f6e747261637420697320696e697469604482015266616c697a696e6760c81b606482015260840160405180910390fd5b60005460ff90811614620000e5576000805460ff191660ff9081179091556040519081527f7f26b83ff96e1f2b6a682f133852f6798a09c465da95921460cefb38474024989060200160405180910390a15b565b6080516135016200011f60003960008181610aee01528181610b2e01528181610dae01528181610dee0152610e8101526135016000f3fe6080604052600436106101dc5760003560e01c806352d1902d11610102578063d68bad2c11610095578063e978afe511610064578063e978afe5146106ac578063eafb8b06146106cc578063ee57e36f146106ec578063fdef91061461070c5761021b565b8063d68bad2c1461062a578063d96054c41461064a578063da7422281461066a578063e306bee71461068a5761021b565b8063c4a50145116100d1578063c4a5014514610593578063c71bf324146105b3578063c9dbc2a4146105e1578063ce1b815f146106015761021b565b806352d1902d146105155780637034731b1461052a578063829331a11461054c578063bfe07da6146105805761021b565b80632675fdd01161017a5780633e2ab0d9116101495780633e2ab0d91461048e57806342d8e99e146104ae5780634ec7ac23146104ce5780634f1ef286146105025761021b565b80632675fdd0146103f857806326875b1f146104185780632ae9c6001461044c5780633659cfe61461046e5761021b565b80631080f99b116101b65780631080f99b146103495780631626ba7e1461036b57806322844d04146103a457806324b4d73f146103c45761021b565b806301ffc9a7146102b05780630729d054146102e557806309e56b14146103275761021b565b3661021b57604080513381523460208201527f62c2c8e34665db7c56b2cabd7f5fb9702ccd352ffa8150147e450797e9f8e8f3910160405180910390a1005b34801561022757600080fd5b506000366060600061027b6000356001600160e01b03191685858080601f01602080910402602001604051908101604052809392919081815260200183838082843760009201919091525061072c92505050565b604080516001600160e01b03198316602082015291925001604051602081830303815290604052915050915050805190602001f35b3480156102bc57600080fd5b506102d06102cb3660046126bd565b6107d5565b60405190151581526020015b60405180910390f35b3480156102f157600080fd5b506103197fbf04b4486c9663d805744005c3da000eda93de6e3308a4a7a812eb565327b78d81565b6040519081526020016102dc565b34801561033357600080fd5b506103196000805160206134ac83398151915281565b34801561035557600080fd5b50610369610364366004612720565b610811565b005b34801561037757600080fd5b5061038b610386366004612803565b610838565b6040516001600160e01b031990911681526020016102dc565b3480156103b057600080fd5b506103696103bf36600461285e565b6108aa565b3480156103d057600080fd5b506103197f1f53edd44352e5d15bad2b29233baa93bcd595e09457780bc7c5445bbbe751cc81565b34801561040457600080fd5b506102d06104133660046128e5565b61099b565b34801561042457600080fd5b506103197ffaf505be9907aa6951c2ebe5b0312f4980e14f21912ed355372103cc8bd683bc81565b34801561045857600080fd5b50610461610aba565b6040516102dc9190612950565b34801561047a57600080fd5b50610369610489366004612984565b610ae4565b34801561049a57600080fd5b506103696104a9366004612984565b610bc3565b3480156104ba57600080fd5b506103696104c93660046129a1565b610bdc565b3480156104da57600080fd5b506103197f968c17ebf04aa1b7544168e69314cdab6b69ba813bb6080d49c0c40a65560f5881565b6103696105103660046129f8565b610da4565b34801561052157600080fd5b50610319610e74565b34801561053657600080fd5b5061053f610f27565b6040516102dc9190612a81565b34801561055857600080fd5b506103197f06d294bc8cbad2e393408b20dd019a772661f60b8d633e56761157cb1ec85f8c81565b61036961058e366004612a94565b610fba565b34801561059f57600080fd5b506103696105ae366004612aef565b6110a9565b3480156105bf57600080fd5b506105d36105ce366004612b32565b611133565b6040516102dc929190612c0b565b3480156105ed57600080fd5b506103696105fc366004612c2d565b6113f4565b34801561060d57600080fd5b5061012e546040516001600160a01b0390911681526020016102dc565b34801561063657600080fd5b50610369610645366004612c80565b611418565b34801561065657600080fd5b50610369610665366004612c80565b611441565b34801561067657600080fd5b50610369610685366004612984565b611464565b34801561069657600080fd5b5061031960008051602061344583398151915281565b3480156106b857600080fd5b506103696106c7366004612cc1565b611497565b3480156106d857600080fd5b506103696106e7366004612d35565b6115b8565b3480156106f857600080fd5b50610369610707366004612720565b61170a565b34801561071857600080fd5b506102d06107273660046128e5565b61172c565b6001600160e01b0319808316600090815260fb6020526040812054909160e09190911b90811661078857604051634aa318c360e01b81526001600160e01b03198086166004830152821660248201526044015b60405180910390fd5b836001600160e01b0319167f4792cb6e46e49876374bea490ba23274bacea6b84c216a64f47abab54027589b33856040516107c4929190612dcd565b60405180910390a290505b92915050565b60006301ffc9a760e01b6001600160e01b0319831614806107cf5750506001600160e01b03191660009081526033602052604090205460ff1690565b60008051602061344583398151915261082981611743565b61083383836117b2565b505050565b600061088730337f968c17ebf04aa1b7544168e69314cdab6b69ba813bb6080d49c0c40a65560f588686604051602001610873929190612df1565b60405160208183030381529060405261099b565b1561089a5750630b135d3f60e11b6107cf565b506001600160e01b031992915050565b6000805160206134ac8339815191526108c281611743565b60005b828110156109945760008484838181106108e1576108e1612e0a565b9050606002018036038101906108f79190612e2f565b905060008151600281111561090e5761090e612e97565b0361092b5761092686826020015183604001516117fe565b61098b565b60018151600281111561094057610940612e97565b03610958576109268682602001518360400151611928565b60028151600281111561096d5761096d612e97565b0361098b5760405163d4d3bef760e01b815260040160405180910390fd5b506001016108c5565b5050505050565b60008060c960006109ad8888886119bc565b81526020810191909152604001600020546001600160a01b0316905060011981016109dc576001915050610ab2565b6001600160a01b03811615610a00576109f88187878787611a21565b915050610ab2565b50600060c96000610a19886001600160a01b03886119bc565b81526020810191909152604001600020546001600160a01b031690506001198101610a48576001915050610ab2565b6001600160a01b03811615610a64576109f88187878787611a21565b50600060c96000610a7d6001600160a01b0388886119bc565b81526020810191909152604001600020546001600160a01b031690508015610aac576109f88187878787611a21565b50600090505b949350505050565b610ac2612682565b5060408051606081018252600181526004602082015260009181019190915290565b6001600160a01b037f0000000000000000000000000000000000000000000000000000000000000000163003610b2c5760405162461bcd60e51b815260040161077f90612ead565b7f00000000000000000000000000000000000000000000000000000000000000006001600160a01b0316610b75600080516020613465833981519152546001600160a01b031690565b6001600160a01b031614610b9b5760405162461bcd60e51b815260040161077f90612ef9565b610ba481611ab2565b60408051600080825260208201909252610bc091839190611adc565b50565b60405163b2728e9960e01b815260040160405180910390fd5b600054600390610100900460ff16158015610bfe575060005460ff8083169116105b610c1a5760405162461bcd60e51b815260040161077f90612f45565b6000805461ffff191660ff831617610100179055610c3b6020850185612fa4565b60ff16600114610c6057836040516384833d6760e01b815260040161077f9190612fbf565b6040805160608082018352600182526003602083018190526000838501528351808301909452610ca9939188919083908390808284376000920191909152509192915050611c47565b15610cc357600161013055610cc3621574e360e91b611ce2565b604080516060808201835260018252600460208301526000828401528251808201909352610d0c9290879060039083908390808284376000920191909152509192915050611c47565b15610d5c57610d3c30307f0dcbfb19b09fb8ff4e9af583d4b8e9c8127cc1b26529b4d96dd3b7e778088372611928565b610d4c632a4f53ad60e11b611ce2565b610d5c6331c6fcc960e21b611ce2565b6000805461ff001916905560405160ff821681527f7f26b83ff96e1f2b6a682f133852f6798a09c465da95921460cefb3847402498906020015b60405180910390a150505050565b6001600160a01b037f0000000000000000000000000000000000000000000000000000000000000000163003610dec5760405162461bcd60e51b815260040161077f90612ead565b7f00000000000000000000000000000000000000000000000000000000000000006001600160a01b0316610e35600080516020613465833981519152546001600160a01b031690565b6001600160a01b031614610e5b5760405162461bcd60e51b815260040161077f90612ef9565b610e6482611ab2565b610e7082826001611adc565b5050565b6000306001600160a01b037f00000000000000000000000000000000000000000000000000000000000000001614610f145760405162461bcd60e51b815260206004820152603860248201527f555550535570677261646561626c653a206d757374206e6f742062652063616c60448201527f6c6564207468726f7567682064656c656761746563616c6c0000000000000000606482015260840161077f565b5060008051602061346583398151915290565b606061012f8054610f3790612ff2565b80601f0160208091040260200160405190810160405280929190818152602001828054610f6390612ff2565b8015610fb05780601f10610f8557610100808354040283529160200191610fb0565b820191906000526020600020905b815481529060010190602001808311610f9357829003601f168201915b5050505050905090565b82600003610fdb57604051631f2a200560e01b815260040160405180910390fd5b6001600160a01b03841661101757823414611012576040516301abd56160e41b81526004810184905234602482015260440161077f565b611054565b341561103f576040516301abd56160e41b81526000600482015234602482015260440161077f565b6110546001600160a01b038516333086611d61565b836001600160a01b0316336001600160a01b03167f2bc500cf071be2d1c1458ed6ff484cd4db4345ada8943dee7ff29e7af3558f7685858560405161109b93929190613055565b60405180910390a350505050565b7ffaf505be9907aa6951c2ebe5b0312f4980e14f21912ed355372103cc8bd683bc6110d381611743565b6110dc84611ce2565b6110e68383611dbb565b604080516001600160e01b0319808716825280861660208301528416918101919091527ffc72fd547553f7a663e0048e590afc9c47b56a4242e960f31cf4c62e23d308b990606001610d96565b606060006002610130540361115b576040516306fda65d60e31b815260040160405180910390fd5b6002610130557fbf04b4486c9663d805744005c3da000eda93de6e3308a4a7a812eb565327b78d61118b81611743565b6101008511156111ae576040516308e3b1eb60e11b815260040160405180910390fd5b846001600160401b038111156111c6576111c6612761565b6040519080825280602002602001820160405280156111f957816020015b60608152602001906001900390816111e45790505b50925060008060005b87811015611394575a92506000808a8a8481811061122257611222612e0a565b9050602002810190611234919061306f565b611242906020810190612984565b6001600160a01b03168b8b8581811061125d5761125d612e0a565b905060200281019061126f919061306f565b602001358c8c8681811061128557611285612e0a565b9050602002810190611297919061306f565b6112a590604081019061308f565b6040516112b39291906130d5565b60006040518083038185875af1925050503d80600081146112f0576040519150601f19603f3d011682016040523d82523d6000602084013e6112f5565b606091505b50915091505a9350600160ff84161b8916611330578161132b5760405163a6a7dbbd60e01b81526004810184905260240161077f565b61136c565b8161136c576113406040866130e5565b841015611360576040516307099c5360e21b815260040160405180910390fd5b600160ff84161b871896505b8088848151811061137f5761137f612e0a565b60209081029190910101525050600101611202565b50336001600160a01b03167fd4e57c2049f004fb297ef78591cd409503ceb6b2c722d7ffed032fc99e5f3b588a8a8a8a898b6040516113d896959493929190613107565b60405180910390a2505060016101305550909590945092505050565b6000805160206134ac83398151915261140c81611743565b61099485858585611ded565b6000805160206134ac83398151915261143081611743565b61143b8484846117fe565b50505050565b6000805160206134ac83398151915261145981611743565b61143b848484611928565b7f06d294bc8cbad2e393408b20dd019a772661f60b8d633e56761157cb1ec85f8c61148e81611743565b610e708261205b565b6000805160206134ac8339815191526114af81611743565b60005b8281101561143b5760008484838181106114ce576114ce612e0a565b905060a002018036038101906114e49190613215565b90506000815160028111156114fb576114fb612e97565b036115485760608101516001600160a01b03161561152c5760405163d4d3bef760e01b815260040160405180910390fd5b6115438160200151826040015183608001516117fe565b6115af565b60018151600281111561155d5761155d612e97565b0361157957611543816020015182604001518360800151611928565b60028151600281111561158e5761158e612e97565b036115af576115af8160200151826040015183608001518460600151611ded565b506001016114b2565b60005460ff16156115db5760405162dc149f60e41b815260040160405180910390fd5b600054600390610100900460ff161580156115fd575060005460ff8083169116105b6116195760405162461bcd60e51b815260040161077f90612f45565b6000805461ffff191660ff8316176101001790556001610130556116436349c2aa3f60e11b611ce2565b611653632a4f53ad60e11b611ce2565b6116636331c6fcc960e21b611ce2565b611673630b135d3f60e11b611ce2565b611683637034731b60e01b611ce2565b611692621574e360e91b611ce2565b61169a6120b0565b6116a48787612105565b6116ad8461205b565b6116b783836117b2565b6116c085612136565b6000805461ff001916905560405160ff821681527f7f26b83ff96e1f2b6a682f133852f6798a09c465da95921460cefb38474024989060200160405180910390a150505050505050565b60008051602061344583398151915261172281611743565b6108338383612105565b600061173a8585858561099b565b95945050505050565b6117863033836000368080601f01602080910402602001604051908101604052809392919081815260200183838082843760009201919091525061099b92505050565b610bc057604051631e09743f60e01b81523060048201523360248201526044810182905260640161077f565b61012f6117c08284836132f1565b507fe9b617ecb5f63f6a9ccd8d4d5fa0d7b2ef9b17ce3f48e6b135808d6a40e6774282826040516117f29291906133b0565b60405180910390a15050565b6002600160a01b03196001600160a01b0384160161182f576040516324159e5b60e01b815260040160405180910390fd5b6002600160a01b03196001600160a01b03831601611885576000805160206134ac8339815191528114806118675750611867816121aa565b15611885576040516324159e5b60e01b815260040160405180910390fd5b60006118928484846119bc565b600081815260c960205260409020549091506001600160a01b03168061099457600082815260c9602090815260409182902080546001600160a01b031916600290811790915582516001600160a01b0389811682529281019190915290861691339186917f0f579ad49235a8c1fd9041427e7067b1eb10926bbed380bf6fabc73e0e807644910160405180910390a45050505050565b60006119358484846119bc565b600081815260c960205260409020549091506001600160a01b03161561143b57600081815260c9602090815260409182902080546001600160a01b031916905590516001600160a01b038681168252851691339185917f3ca48185ec3f6e47e24db18b13f1c65b1ce05da1659f9c1c4fe717dda5f67524910160405180910390a450505050565b604051692822a926a4a9a9a4a7a760b11b60208201526bffffffffffffffffffffffff19606084811b8216602a84015285901b16603e820152605281018290526000906072016040516020818303038152906040528051906020012090509392505050565b6040516302675fdd60e41b81526000906001600160a01b03871690632675fdd090611a569088908890889088906004016133c4565b602060405180830381865afa925050508015611a8f575060408051601f3d908101601f19168201909252611a8c918101906133f7565b60015b15611aa6578015611aa457600191505061173a565b505b50600095945050505050565b7f1f53edd44352e5d15bad2b29233baa93bcd595e09457780bc7c5445bbbe751cc610e7081611743565b7f4910fdfa16fed3260ed0e7147f7cc6da11a60208b5b9406d12a635614ffd91435460ff1615611b0f5761083383612267565b826001600160a01b03166352d1902d6040518163ffffffff1660e01b8152600401602060405180830381865afa925050508015611b69575060408051601f3d908101601f19168201909252611b6691810190613419565b60015b611bcc5760405162461bcd60e51b815260206004820152602e60248201527f45524331393637557067726164653a206e657720696d706c656d656e7461746960448201526d6f6e206973206e6f74205555505360901b606482015260840161077f565b6000805160206134658339815191528114611c3b5760405162461bcd60e51b815260206004820152602960248201527f45524331393637557067726164653a20756e737570706f727465642070726f786044820152681a58589b195555525160ba1b606482015260840161077f565b50610833838383612303565b8051825160009160ff90811691161015611c63575060016107cf565b8151835160ff91821691161115611c7c575060006107cf565b6020808301519084015160ff91821691161015611c9b575060016107cf565b6020808301519084015160ff91821691161115611cba575060006107cf565b6040808301519084015160ff91821691161015611cd9575060016107cf565b50600092915050565b6001600160e01b03198082169003611d3c5760405162461bcd60e51b815260206004820152601c60248201527f4552433136353a20696e76616c696420696e7465726661636520696400000000604482015260640161077f565b6001600160e01b0319166000908152603360205260409020805460ff19166001179055565b604080516001600160a01b0385811660248301528416604482015260648082018490528251808303909101815260849091019091526020810180516001600160e01b03166323b872dd60e01b17905261143b908590612328565b6001600160e01b031991909116600090815260fb60205260409020805463ffffffff191660e09290921c919091179055565b806001600160a01b0381163b611e215760405163241acd7b60e11b81526001600160a01b038316600482015260240161077f565b6040516301ffc9a760e01b81526302675fdd60e41b60048201526001600160a01b038216906301ffc9a790602401602060405180830381865afa158015611e6c573d6000803e3d6000fd5b505050506040513d601f19601f82011682018060405250810190611e9091906133f7565b611eb857604051636dd8243160e11b81526001600160a01b038316600482015260240161077f565b6001600160a01b03858116148015611ed857506001600160a01b03848116145b15611ef6576040516385f1ba9960e01b815260040160405180910390fd5b6001600160a01b038581161480611f1557506001600160a01b03848116145b15611f58576000805160206134ac833981519152831480611f3a5750611f3a836121aa565b15611f58576040516324159e5b60e01b815260040160405180910390fd5b6000611f658686866119bc565b600081815260c960205260409020549091506001600160a01b031680611ff657600082815260c9602090815260409182902080546001600160a01b0319166001600160a01b0387811691821790925583518b8316815292830152881691339188917f0f579ad49235a8c1fd9041427e7067b1eb10926bbed380bf6fabc73e0e807644910160405180910390a4612052565b826001600160a01b0316816001600160a01b031614612052576040516305cc3c4f60e11b81526001600160a01b03808916600483015280881660248301526044820187905280831660648301528416608482015260a40161077f565b50505050505050565b61012e80546001600160a01b0319166001600160a01b0383169081179091556040519081527fd91237492a9e30cd2faf361fc103998a382ff0ec2b1b07dc1cbebb76ae2f1ea29060200160405180910390a150565b6120c0630a85bd0160e11b611ce2565b6120d0630271189760e51b611ce2565b6120e1630a85bd0160e11b80611dbb565b6120f263f23a6e6160e01b80611dbb565b61210363bc197c8160e01b80611dbb565b565b7fbb39ebb37e60fb5d606ffdb749d2336e56b88e6c88c4bd6513b308f643186eed82826040516117f29291906133b0565b600054610100900460ff166121a15760405162461bcd60e51b815260206004820152602b60248201527f496e697469616c697a61626c653a20636f6e7472616374206973206e6f74206960448201526a6e697469616c697a696e6760a81b606482015260840161077f565b610bc0816123fd565b60007fbf04b4486c9663d805744005c3da000eda93de6e3308a4a7a812eb565327b78d8214806121f957507f1f53edd44352e5d15bad2b29233baa93bcd595e09457780bc7c5445bbbe751cc82145b80612211575060008051602061344583398151915282145b8061223b57507f06d294bc8cbad2e393408b20dd019a772661f60b8d633e56761157cb1ec85f8c82145b806107cf5750507ffaf505be9907aa6951c2ebe5b0312f4980e14f21912ed355372103cc8bd683bc1490565b6001600160a01b0381163b6122d45760405162461bcd60e51b815260206004820152602d60248201527f455243313936373a206e657720696d706c656d656e746174696f6e206973206e60448201526c1bdd08184818dbdb9d1c9858dd609a1b606482015260840161077f565b60008051602061346583398151915280546001600160a01b0319166001600160a01b0392909216919091179055565b61230c83612416565b6000825111806123195750805b156108335761143b8383612456565b600061237d826040518060400160405280602081526020017f5361666545524332303a206c6f772d6c6576656c2063616c6c206661696c6564815250856001600160a01b03166124829092919063ffffffff16565b905080516000148061239e57508080602001905181019061239e91906133f7565b6108335760405162461bcd60e51b815260206004820152602a60248201527f5361666545524332303a204552433230206f7065726174696f6e20646964206e6044820152691bdd081cdd58d8d9595960b21b606482015260840161077f565b610bc030826000805160206134ac8339815191526117fe565b61241f81612267565b6040516001600160a01b038216907fbc7cd75a20ee27fd9adebab32041f755214dbc6bffa90cc0225b39da2e5c2d3b90600090a250565b606061247b838360405180606001604052806027815260200161348560279139612491565b9392505050565b6060610ab28484600085612509565b6060600080856001600160a01b0316856040516124ae9190613432565b600060405180830381855af49150503d80600081146124e9576040519150601f19603f3d011682016040523d82523d6000602084013e6124ee565b606091505b50915091506124ff868383876125e4565b9695505050505050565b60608247101561256a5760405162461bcd60e51b815260206004820152602660248201527f416464726573733a20696e73756666696369656e742062616c616e636520666f6044820152651c8818d85b1b60d21b606482015260840161077f565b600080866001600160a01b031685876040516125869190613432565b60006040518083038185875af1925050503d80600081146125c3576040519150601f19603f3d011682016040523d82523d6000602084013e6125c8565b606091505b50915091506125d9878383876125e4565b979650505050505050565b6060831561265357825160000361264c576001600160a01b0385163b61264c5760405162461bcd60e51b815260206004820152601d60248201527f416464726573733a2063616c6c20746f206e6f6e2d636f6e7472616374000000604482015260640161077f565b5081610ab2565b610ab283838151156126685781518083602001fd5b8060405162461bcd60e51b815260040161077f9190612a81565b60405180606001604052806003906020820280368337509192915050565b80356001600160e01b0319811681146126b857600080fd5b919050565b6000602082840312156126cf57600080fd5b61247b826126a0565b60008083601f8401126126ea57600080fd5b5081356001600160401b0381111561270157600080fd5b60208301915083602082850101111561271957600080fd5b9250929050565b6000806020838503121561273357600080fd5b82356001600160401b0381111561274957600080fd5b612755858286016126d8565b90969095509350505050565b634e487b7160e01b600052604160045260246000fd5b600082601f83011261278857600080fd5b81356001600160401b03808211156127a2576127a2612761565b604051601f8301601f19908116603f011681019082821181831017156127ca576127ca612761565b816040528381528660208588010111156127e357600080fd5b836020870160208301376000602085830101528094505050505092915050565b6000806040838503121561281657600080fd5b8235915060208301356001600160401b0381111561283357600080fd5b61283f85828601612777565b9150509250929050565b6001600160a01b0381168114610bc057600080fd5b60008060006040848603121561287357600080fd5b833561287e81612849565b925060208401356001600160401b038082111561289a57600080fd5b818601915086601f8301126128ae57600080fd5b8135818111156128bd57600080fd5b8760206060830285010111156128d257600080fd5b6020830194508093505050509250925092565b600080600080608085870312156128fb57600080fd5b843561290681612849565b9350602085013561291681612849565b92506040850135915060608501356001600160401b0381111561293857600080fd5b61294487828801612777565b91505092959194509250565b60608101818360005b600381101561297b57815160ff16835260209283019290910190600101612959565b50505092915050565b60006020828403121561299657600080fd5b813561247b81612849565b6000806000608084860312156129b657600080fd5b60608401858111156129c757600080fd5b849350356001600160401b038111156129df57600080fd5b6129eb868287016126d8565b9497909650939450505050565b60008060408385031215612a0b57600080fd5b8235612a1681612849565b915060208301356001600160401b0381111561283357600080fd5b60005b83811015612a4c578181015183820152602001612a34565b50506000910152565b60008151808452612a6d816020860160208601612a31565b601f01601f19169290920160200192915050565b60208152600061247b6020830184612a55565b60008060008060608587031215612aaa57600080fd5b8435612ab581612849565b93506020850135925060408501356001600160401b03811115612ad757600080fd5b612ae3878288016126d8565b95989497509550505050565b600080600060608486031215612b0457600080fd5b612b0d846126a0565b9250612b1b602085016126a0565b9150612b29604085016126a0565b90509250925092565b60008060008060608587031215612b4857600080fd5b8435935060208501356001600160401b0380821115612b6657600080fd5b818701915087601f830112612b7a57600080fd5b813581811115612b8957600080fd5b8860208260051b8501011115612b9e57600080fd5b95986020929092019750949560400135945092505050565b600081518084526020808501808196508360051b8101915082860160005b85811015612bfe578284038952612bec848351612a55565b98850198935090840190600101612bd4565b5091979650505050505050565b604081526000612c1e6040830185612bb6565b90508260208301529392505050565b60008060008060808587031215612c4357600080fd5b8435612c4e81612849565b93506020850135612c5e81612849565b9250604085013591506060850135612c7581612849565b939692955090935050565b600080600060608486031215612c9557600080fd5b8335612ca081612849565b92506020840135612cb081612849565b929592945050506040919091013590565b60008060208385031215612cd457600080fd5b82356001600160401b0380821115612ceb57600080fd5b818501915085601f830112612cff57600080fd5b813581811115612d0e57600080fd5b86602060a083028501011115612d2357600080fd5b60209290920196919550909350505050565b60008060008060008060808789031215612d4e57600080fd5b86356001600160401b0380821115612d6557600080fd5b612d718a838b016126d8565b909850965060208901359150612d8682612849565b909450604088013590612d9882612849565b90935060608801359080821115612dae57600080fd5b50612dbb89828a016126d8565b979a9699509497509295939492505050565b6001600160a01b0383168152604060208201819052600090610ab290830184612a55565b828152604060208201526000610ab26040830184612a55565b634e487b7160e01b600052603260045260246000fd5b8035600381106126b857600080fd5b600060608284031215612e4157600080fd5b604051606081018181106001600160401b0382111715612e6357612e63612761565b604052612e6f83612e20565b81526020830135612e7f81612849565b60208201526040928301359281019290925250919050565b634e487b7160e01b600052602160045260246000fd5b6020808252602c908201527f46756e6374696f6e206d7573742062652063616c6c6564207468726f7567682060408201526b19195b1959d85d1958d85b1b60a21b606082015260800190565b6020808252602c908201527f46756e6374696f6e206d7573742062652063616c6c6564207468726f7567682060408201526b6163746976652070726f787960a01b606082015260800190565b6020808252602e908201527f496e697469616c697a61626c653a20636f6e747261637420697320616c72656160408201526d191e481a5b9a5d1a585b1a5e995960921b606082015260800190565b803560ff811681146126b857600080fd5b600060208284031215612fb657600080fd5b61247b82612f93565b60608101818360005b600381101561297b5760ff612fdc83612f93565b1683526020928301929190910190600101612fc8565b600181811c9082168061300657607f821691505b60208210810361302657634e487b7160e01b600052602260045260246000fd5b50919050565b81835281816020850137506000828201602090810191909152601f909101601f19169091010190565b83815260406020820152600061173a60408301848661302c565b60008235605e1983360301811261308557600080fd5b9190910192915050565b6000808335601e198436030181126130a657600080fd5b8301803591506001600160401b038211156130c057600080fd5b60200191503681900382131561271957600080fd5b8183823760009101908152919050565b60008261310257634e487b7160e01b600052601260045260246000fd5b500490565b600060a08201888352602060a0818501528188835260c08501905060c08960051b86010192508960005b8a8110156131e65786850360bf190183528135368d9003605e1901811261315757600080fd5b8c016060813561316681612849565b6001600160a01b03168752818601358688015260408083013536849003601e1901811261319257600080fd5b9092018681019290356001600160401b038111156131af57600080fd5b8036038413156131be57600080fd5b82828a01526131d0838a01828661302c565b9850505093850193505090830190600101613131565b5050505085604084015284606084015282810360808401526132088185612bb6565b9998505050505050505050565b600060a0828403121561322757600080fd5b60405160a081018181106001600160401b038211171561324957613249612761565b60405261325583612e20565b8152602083013561326581612849565b6020820152604083013561327881612849565b6040820152606083013561328b81612849565b60608201526080928301359281019290925250919050565b601f82111561083357600081815260208120601f850160051c810160208610156132ca5750805b601f850160051c820191505b818110156132e9578281556001016132d6565b505050505050565b6001600160401b0383111561330857613308612761565b61331c836133168354612ff2565b836132a3565b6000601f84116001811461335057600085156133385750838201355b600019600387901b1c1916600186901b178355610994565b600083815260209020601f19861690835b828110156133815786850135825560209485019460019092019101613361565b508682101561339e5760001960f88860031b161c19848701351681555b505060018560011b0183555050505050565b602081526000610ab260208301848661302c565b6001600160a01b03858116825284166020820152604081018390526080606082018190526000906124ff90830184612a55565b60006020828403121561340957600080fd5b8151801515811461247b57600080fd5b60006020828403121561342b57600080fd5b5051919050565b60008251613085818460208701612a3156fe4707e94b25cfce1a7c363508fbb838c35864388ad77284b248282b9746982b9b360894a13ba1a3210667c828492db98dca3e2076cc3735a920a3ca505d382bbc416464726573733a206c6f772d6c6576656c2064656c65676174652063616c6c206661696c6564815fe80e4b37c8582a3b773d1d7071f983eacfd56b5965db654f3087c25ada33a2646970667358221220af198a91a79119bd5f82589d22a8b11ad6ce57474f675ef2a77bf4ee5a41b64e64736f6c6343000811003360a06040523060805234801561001457600080fd5b5061001d610022565b6100e1565b600054610100900460ff161561008e5760405162461bcd60e51b815260206004820152602760248201527f496e697469616c697a61626c653a20636f6e747261637420697320696e697469604482015266616c697a696e6760c81b606482015260840160405180910390fd5b60005460ff908116146100df576000805460ff191660ff9081179091556040519081527f7f26b83ff96e1f2b6a682f133852f6798a09c465da95921460cefb38474024989060200160405180910390a15b565b608051611379610118600039600081816102ce01528181610317015281816103b6015281816103f6015261048901526113796000f3fe6080604052600436106100c25760003560e01c806352d1902d1161007f5780639848ba51116100595780639848ba51146101fc578063af7b2fed14610230578063c66485b214610264578063d70754ec1461028457600080fd5b806352d1902d146101995780636133f985146101bc57806389bb4145146101dc57600080fd5b806304f3bcec146100c75780632ae9c600146101045780633659cfe6146101265780633f15457f146101485780634162169f146101685780634f1ef28614610186575b600080fd5b3480156100d357600080fd5b5060cb546100e7906001600160a01b031681565b6040516001600160a01b0390911681526020015b60405180910390f35b34801561011057600080fd5b5061011961029a565b6040516100fb9190610f94565b34801561013257600080fd5b50610146610141366004610fdd565b6102c4565b005b34801561015457600080fd5b5060c9546100e7906001600160a01b031681565b34801561017457600080fd5b506097546001600160a01b03166100e7565b610146610194366004611010565b6103ac565b3480156101a557600080fd5b506101ae61047c565b6040519081526020016100fb565b3480156101c857600080fd5b506101466101d73660046110d4565b61052f565b3480156101e857600080fd5b506101466101f7366004611115565b610724565b34801561020857600080fd5b506101ae7fbbdfd23f099d7ed9f535e0f97d2123efb1332b16e023b8359b3b879eaecd3c1481565b34801561023c57600080fd5b506101ae7fa1fcba4efb1e94b7648f5e0504bfd39734aead5f17965d12705915d771c859ff81565b34801561027057600080fd5b5061014661027f366004610fdd565b61099b565b34801561029057600080fd5b506101ae60ca5481565b6102a2610f76565b5060408051606081018252600181526004602082015260009181019190915290565b6001600160a01b037f00000000000000000000000000000000000000000000000000000000000000001630036103155760405162461bcd60e51b815260040161030c90611145565b60405180910390fd5b7f00000000000000000000000000000000000000000000000000000000000000006001600160a01b031661035e6000805160206112fd833981519152546001600160a01b031690565b6001600160a01b0316146103845760405162461bcd60e51b815260040161030c90611191565b61038d81610a34565b604080516000808252602082019092526103a991839190610a6d565b50565b6001600160a01b037f00000000000000000000000000000000000000000000000000000000000000001630036103f45760405162461bcd60e51b815260040161030c90611145565b7f00000000000000000000000000000000000000000000000000000000000000006001600160a01b031661043d6000805160206112fd833981519152546001600160a01b031690565b6001600160a01b0316146104635760405162461bcd60e51b815260040161030c90611191565b61046c82610a34565b61047882826001610a6d565b5050565b6000306001600160a01b037f0000000000000000000000000000000000000000000000000000000000000000161461051c5760405162461bcd60e51b815260206004820152603860248201527f555550535570677261646561626c653a206d757374206e6f742062652063616c60448201527f6c6564207468726f7567682064656c656761746563616c6c0000000000000000606482015260840161030c565b506000805160206112fd83398151915290565b600054610100900460ff161580801561054f5750600054600160ff909116105b806105695750303b158015610569575060005460ff166001145b6105cc5760405162461bcd60e51b815260206004820152602e60248201527f496e697469616c697a61626c653a20636f6e747261637420697320616c72656160448201526d191e481a5b9a5d1a585b1a5e995960921b606482015260840161030c565b6000805460ff1916600117905580156105ef576000805461ff0019166101001790555b6105f884610bdd565b60c980546001600160a01b0319166001600160a01b03851690811790915560ca839055604051630178b8bf60e01b81526004810184905260009190630178b8bf90602401602060405180830381865afa158015610659573d6000803e3d6000fd5b505050506040513d601f19601f8201168201806040525081019061067d91906111dd565b90506001600160a01b0381166106b857604051630d7097c560e11b8152600481018490526001600160a01b038216602482015260440161030c565b60cb80546001600160a01b0319166001600160a01b0392909216919091179055801561071e576000805461ff0019169055604051600181527f7f26b83ff96e1f2b6a682f133852f6798a09c465da95921460cefb38474024989060200160405180910390a15b50505050565b6097547fbbdfd23f099d7ed9f535e0f97d2123efb1332b16e023b8359b3b879eaecd3c1490610762906001600160a01b031630335b84600036610c6a565b600060ca5484604051602001610782929190918252602082015260400190565b60408051808303601f1901815290829052805160209091012060c9546302571be360e01b8352600483018290529092506000916001600160a01b03909116906302571be390602401602060405180830381865afa1580156107e7573d6000803e3d6000fd5b505050506040513d601f19601f8201168201806040525081019061080b91906111dd565b90506001600160a01b038116156108465760405162fcad5d60e11b8152600481018390526001600160a01b038216602482015260440161030c565b60c95460ca546040516306ab592360e01b81526004810191909152602481018790523060448201526001600160a01b03909116906306ab5923906064016020604051808303816000875af11580156108a2573d6000803e3d6000fd5b505050506040513d601f19601f820116820180604052508101906108c691906111fa565b5060c95460cb54604051630c4b7b8560e11b8152600481018590526001600160a01b039182166024820152911690631896f70a90604401600060405180830381600087803b15801561091757600080fd5b505af115801561092b573d6000803e3d6000fd5b505060cb5460405162d5fa2b60e81b8152600481018690526001600160a01b038881166024830152909116925063d5fa2b009150604401600060405180830381600087803b15801561097c57600080fd5b505af1158015610990573d6000803e3d6000fd5b505050505050505050565b6097547fbbdfd23f099d7ed9f535e0f97d2123efb1332b16e023b8359b3b879eaecd3c14906109d4906001600160a01b03163033610759565b6001600160a01b038216610a115760ca54604051630d7097c560e11b815260048101919091526001600160a01b038316602482015260440161030c565b5060cb80546001600160a01b0319166001600160a01b0392909216919091179055565b6097547fa1fcba4efb1e94b7648f5e0504bfd39734aead5f17965d12705915d771c859ff90610478906001600160a01b03163033610759565b7f4910fdfa16fed3260ed0e7147f7cc6da11a60208b5b9406d12a635614ffd91435460ff1615610aa557610aa083610d26565b505050565b826001600160a01b03166352d1902d6040518163ffffffff1660e01b8152600401602060405180830381865afa925050508015610aff575060408051601f3d908101601f19168201909252610afc918101906111fa565b60015b610b625760405162461bcd60e51b815260206004820152602e60248201527f45524331393637557067726164653a206e657720696d706c656d656e7461746960448201526d6f6e206973206e6f74205555505360901b606482015260840161030c565b6000805160206112fd8339815191528114610bd15760405162461bcd60e51b815260206004820152602960248201527f45524331393637557067726164653a20756e737570706f727465642070726f786044820152681a58589b195555525160ba1b606482015260840161030c565b50610aa0838383610dc2565b600054610100900460ff16610c485760405162461bcd60e51b815260206004820152602b60248201527f496e697469616c697a61626c653a20636f6e7472616374206973206e6f74206960448201526a6e697469616c697a696e6760a81b606482015260840161030c565b609780546001600160a01b0319166001600160a01b0392909216919091179055565b604051637ef7c88360e11b81526001600160a01b0387169063fdef910690610c9e9088908890889088908890600401611213565b602060405180830381865afa158015610cbb573d6000803e3d6000fd5b505050506040513d601f19601f82011682018060405250810190610cdf9190611267565b610d1e57604051630cb6f8ed60e21b81526001600160a01b0380881660048301528087166024830152851660448201526064810184905260840161030c565b505050505050565b6001600160a01b0381163b610d935760405162461bcd60e51b815260206004820152602d60248201527f455243313936373a206e657720696d706c656d656e746174696f6e206973206e60448201526c1bdd08184818dbdb9d1c9858dd609a1b606482015260840161030c565b6000805160206112fd83398151915280546001600160a01b0319166001600160a01b0392909216919091179055565b610dcb83610de7565b600082511180610dd85750805b15610aa05761071e8383610e27565b610df081610d26565b6040516001600160a01b038216907fbc7cd75a20ee27fd9adebab32041f755214dbc6bffa90cc0225b39da2e5c2d3b90600090a250565b6060610e4c838360405180606001604052806027815260200161131d60279139610e53565b9392505050565b6060600080856001600160a01b031685604051610e7091906112ad565b600060405180830381855af49150503d8060008114610eab576040519150601f19603f3d011682016040523d82523d6000602084013e610eb0565b606091505b5091509150610ec186838387610ecb565b9695505050505050565b60608315610f3a578251600003610f33576001600160a01b0385163b610f335760405162461bcd60e51b815260206004820152601d60248201527f416464726573733a2063616c6c20746f206e6f6e2d636f6e7472616374000000604482015260640161030c565b5081610f44565b610f448383610f4c565b949350505050565b815115610f5c5781518083602001fd5b8060405162461bcd60e51b815260040161030c91906112c9565b60405180606001604052806003906020820280368337509192915050565b60608101818360005b6003811015610fbf57815160ff16835260209283019290910190600101610f9d565b50505092915050565b6001600160a01b03811681146103a957600080fd5b600060208284031215610fef57600080fd5b8135610e4c81610fc8565b634e487b7160e01b600052604160045260246000fd5b6000806040838503121561102357600080fd5b823561102e81610fc8565b9150602083013567ffffffffffffffff8082111561104b57600080fd5b818501915085601f83011261105f57600080fd5b81358181111561107157611071610ffa565b604051601f8201601f19908116603f0116810190838211818310171561109957611099610ffa565b816040528281528860208487010111156110b257600080fd5b8260208601602083013760006020848301015280955050505050509250929050565b6000806000606084860312156110e957600080fd5b83356110f481610fc8565b9250602084013561110481610fc8565b929592945050506040919091013590565b6000806040838503121561112857600080fd5b82359150602083013561113a81610fc8565b809150509250929050565b6020808252602c908201527f46756e6374696f6e206d7573742062652063616c6c6564207468726f7567682060408201526b19195b1959d85d1958d85b1b60a21b606082015260800190565b6020808252602c908201527f46756e6374696f6e206d7573742062652063616c6c6564207468726f7567682060408201526b6163746976652070726f787960a01b606082015260800190565b6000602082840312156111ef57600080fd5b8151610e4c81610fc8565b60006020828403121561120c57600080fd5b5051919050565b6001600160a01b038681168252851660208201526040810184905260806060820181905281018290526000828460a0840137600060a0848401015260a0601f19601f85011683010190509695505050505050565b60006020828403121561127957600080fd5b81518015158114610e4c57600080fd5b60005b838110156112a457818101518382015260200161128c565b50506000910152565b600082516112bf818460208701611289565b9190910192915050565b60208152600082518060208401526112e8816040850160208701611289565b601f01601f1916919091016040019291505056fe360894a13ba1a3210667c828492db98dca3e2076cc3735a920a3ca505d382bbc416464726573733a206c6f772d6c6576656c2064656c65676174652063616c6c206661696c6564a2646970667358221220396556be21ff3bd5eb3c95edf364090a4654b67bc5d61c76c035036203803e7164736f6c6343000811003360a06040523060805234801561001457600080fd5b5061001d610022565b6100e1565b600054610100900460ff161561008e5760405162461bcd60e51b815260206004820152602760248201527f496e697469616c697a61626c653a20636f6e747261637420697320696e697469604482015266616c697a696e6760c81b606482015260840160405180910390fd5b60005460ff908116146100df576000805460ff191660ff9081179091556040519081527f7f26b83ff96e1f2b6a682f133852f6798a09c465da95921460cefb38474024989060200160405180910390a15b565b60805161144d610118600039600081816102cf01528181610318015281816104ee0152818161052e01526105c1015261144d6000f3fe6080604052600436106100a65760003560e01c80634f1ef286116100645780634f1ef2861461019d57806352d1902d146101b057806374574eb7146101d3578063a2298b4b14610207578063ede497391461023b578063f29ee1251461025b57600080fd5b8062077393146100ab5780632ae9c600146100e85780633659cfe61461010a5780634162169f1461012c57806344162ef81461014a578063485cc9551461017d575b600080fd5b3480156100b757600080fd5b5060fb546100cb906001600160a01b031681565b6040516001600160a01b0390911681526020015b60405180910390f35b3480156100f457600080fd5b506100fd61029b565b6040516100df9190610f76565b34801561011657600080fd5b5061012a610125366004610fbf565b6102c5565b005b34801561013857600080fd5b506097546001600160a01b03166100cb565b34801561015657600080fd5b5060c9546101649060e01b81565b6040516001600160e01b031990911681526020016100df565b34801561018957600080fd5b5061012a610198366004610fdc565b6103ad565b61012a6101ab36600461102b565b6104e4565b3480156101bc57600080fd5b506101c56105b4565b6040519081526020016100df565b3480156101df57600080fd5b506101c57f60b96ff9fb5f29153c29c1747515b8be4ee523d686cc6f453ec294b0afa7293281565b34801561021357600080fd5b506101c57fde5e253d6956bc5fb69cfa564733633f4e53b143e42859306cd13cdc5485621581565b34801561024757600080fd5b5061012a6102563660046110ef565b610667565b34801561026757600080fd5b5061028b610276366004610fbf565b60ca6020526000908152604090205460ff1681565b60405190151581526020016100df565b6102a3610f58565b5060408051606081018252600181526004602082015260009181019190915290565b6001600160a01b037f00000000000000000000000000000000000000000000000000000000000000001630036103165760405162461bcd60e51b815260040161030d90611181565b60405180910390fd5b7f00000000000000000000000000000000000000000000000000000000000000006001600160a01b031661035f6000805160206113d1833981519152546001600160a01b031690565b6001600160a01b0316146103855760405162461bcd60e51b815260040161030d906111cd565b61038e816107df565b604080516000808252602082019092526103aa91839190610818565b50565b600054610100900460ff16158080156103cd5750600054600160ff909116105b806103e75750303b1580156103e7575060005460ff166001145b61044a5760405162461bcd60e51b815260206004820152602e60248201527f496e697469616c697a61626c653a20636f6e747261637420697320616c72656160448201526d191e481a5b9a5d1a585b1a5e995960921b606482015260840161030d565b6000805460ff19166001179055801561046d576000805461ff0019166101001790555b61047e83632a4f53ad60e11b610983565b60fb80546001600160a01b0319166001600160a01b03841617905580156104df576000805461ff0019169055604051600181527f7f26b83ff96e1f2b6a682f133852f6798a09c465da95921460cefb38474024989060200160405180910390a15b505050565b6001600160a01b037f000000000000000000000000000000000000000000000000000000000000000016300361052c5760405162461bcd60e51b815260040161030d90611181565b7f00000000000000000000000000000000000000000000000000000000000000006001600160a01b03166105756000805160206113d1833981519152546001600160a01b031690565b6001600160a01b03161461059b5760405162461bcd60e51b815260040161030d906111cd565b6105a4826107df565b6105b082826001610818565b5050565b6000306001600160a01b037f000000000000000000000000000000000000000000000000000000000000000016146106545760405162461bcd60e51b815260206004820152603860248201527f555550535570677261646561626c653a206d757374206e6f742062652063616c60448201527f6c6564207468726f7567682064656c656761746563616c6c0000000000000000606482015260840161030d565b506000805160206113d183398151915290565b6097547fde5e253d6956bc5fb69cfa564733633f4e53b143e42859306cd13cdc54856215906106a5906001600160a01b031630335b846000366109cd565b846106af81610a89565b821561078a5760fb546001600160a01b03166106de57604051637b97ca3560e11b815260040160405180910390fd5b6106e88484610b34565b610709578383604051633a5bf49b60e01b815260040161030d929190611242565b6000848460405161071b929190611256565b60405190819003812060fb546389bb414560e01b8352600483018290526001600160a01b03858116602485015291935016906389bb414590604401600060405180830381600087803b15801561077057600080fd5b505af1158015610784573d6000803e3d6000fd5b50505050505b846001600160a01b0316816001600160a01b03167fbc0b11fe649bb4d67c7fb40936163e5423f45c3ae83fbd8f8f8c75e1a3fa97af86866040516107cf929190611242565b60405180910390a3505050505050565b6097547f60b96ff9fb5f29153c29c1747515b8be4ee523d686cc6f453ec294b0afa72932906105b0906001600160a01b0316303361069c565b7f4910fdfa16fed3260ed0e7147f7cc6da11a60208b5b9406d12a635614ffd91435460ff161561084b576104df83610be1565b826001600160a01b03166352d1902d6040518163ffffffff1660e01b8152600401602060405180830381865afa9250505080156108a5575060408051601f3d908101601f191682019092526108a291810190611266565b60015b6109085760405162461bcd60e51b815260206004820152602e60248201527f45524331393637557067726164653a206e657720696d706c656d656e7461746960448201526d6f6e206973206e6f74205555505360901b606482015260840161030d565b6000805160206113d183398151915281146109775760405162461bcd60e51b815260206004820152602960248201527f45524331393637557067726164653a20756e737570706f727465642070726f786044820152681a58589b195555525160ba1b606482015260840161030d565b506104df838383610c7d565b600054610100900460ff166109aa5760405162461bcd60e51b815260040161030d9061127f565b6109b382610ca8565b60c9805463ffffffff191660e09290921c91909117905550565b604051637ef7c88360e11b81526001600160a01b0387169063fdef910690610a0190889088908890889088906004016112ca565b602060405180830381865afa158015610a1e573d6000803e3d6000fd5b505050506040513d601f19601f82011682018060405250810190610a4291906112fe565b610a8157604051630cb6f8ed60e21b81526001600160a01b0380881660048301528087166024830152851660448201526064810184905260840161030d565b505050505050565b6001600160a01b038116600090815260ca602052604090205460ff1615610ace5760405163fdcce17f60e01b81526001600160a01b038216600482015260240161030d565b60c954610ae8906001600160a01b0383169060e01b610cf1565b610b10576040516338811e4560e11b81526001600160a01b038216600482015260240161030d565b6001600160a01b0316600090815260ca60205260409020805460ff19166001179055565b6000828280835b81811015610bd2576000848483818110610b5757610b57611320565b919091013560f81c915050606081118015610b755750607b8160ff16105b15610b805750610bc0565b602f8160ff16118015610b965750603a8160ff16105b15610ba15750610bc0565b8060ff16602d03610bb25750610bc0565b600095505050505050610bdb565b80610bca81611336565b915050610b3b565b50600193505050505b92915050565b6001600160a01b0381163b610c4e5760405162461bcd60e51b815260206004820152602d60248201527f455243313936373a206e657720696d706c656d656e746174696f6e206973206e60448201526c1bdd08184818dbdb9d1c9858dd609a1b606482015260840161030d565b6000805160206113d183398151915280546001600160a01b0319166001600160a01b0392909216919091179055565b610c8683610d14565b600082511180610c935750805b156104df57610ca28383610d54565b50505050565b600054610100900460ff16610ccf5760405162461bcd60e51b815260040161030d9061127f565b609780546001600160a01b0319166001600160a01b0392909216919091179055565b6000610cfc83610d79565b8015610d0d5750610d0d8383610dac565b9392505050565b610d1d81610be1565b6040516001600160a01b038216907fbc7cd75a20ee27fd9adebab32041f755214dbc6bffa90cc0225b39da2e5c2d3b90600090a250565b6060610d0d83836040518060600160405280602781526020016113f160279139610e35565b6000610d8c826301ffc9a760e01b610dac565b8015610bdb5750610da5826001600160e01b0319610dac565b1592915050565b604080516001600160e01b03198316602480830191909152825180830390910181526044909101909152602080820180516001600160e01b03166301ffc9a760e01b178152825160009392849283928392918391908a617530fa92503d91506000519050828015610e1e575060208210155b8015610e2a5750600081115b979650505050505050565b6060600080856001600160a01b031685604051610e529190611381565b600060405180830381855af49150503d8060008114610e8d576040519150601f19603f3d011682016040523d82523d6000602084013e610e92565b606091505b5091509150610ea386838387610ead565b9695505050505050565b60608315610f1c578251600003610f15576001600160a01b0385163b610f155760405162461bcd60e51b815260206004820152601d60248201527f416464726573733a2063616c6c20746f206e6f6e2d636f6e7472616374000000604482015260640161030d565b5081610f26565b610f268383610f2e565b949350505050565b815115610f3e5781518083602001fd5b8060405162461bcd60e51b815260040161030d919061139d565b60405180606001604052806003906020820280368337509192915050565b60608101818360005b6003811015610fa157815160ff16835260209283019290910190600101610f7f565b50505092915050565b6001600160a01b03811681146103aa57600080fd5b600060208284031215610fd157600080fd5b8135610d0d81610faa565b60008060408385031215610fef57600080fd5b8235610ffa81610faa565b9150602083013561100a81610faa565b809150509250929050565b634e487b7160e01b600052604160045260246000fd5b6000806040838503121561103e57600080fd5b823561104981610faa565b9150602083013567ffffffffffffffff8082111561106657600080fd5b818501915085601f83011261107a57600080fd5b81358181111561108c5761108c611015565b604051601f8201601f19908116603f011681019083821181831017156110b4576110b4611015565b816040528281528860208487010111156110cd57600080fd5b8260208601602083013760006020848301015280955050505050509250929050565b6000806000806060858703121561110557600080fd5b843561111081610faa565b9350602085013561112081610faa565b9250604085013567ffffffffffffffff8082111561113d57600080fd5b818701915087601f83011261115157600080fd5b81358181111561116057600080fd5b88602082850101111561117257600080fd5b95989497505060200194505050565b6020808252602c908201527f46756e6374696f6e206d7573742062652063616c6c6564207468726f7567682060408201526b19195b1959d85d1958d85b1b60a21b606082015260800190565b6020808252602c908201527f46756e6374696f6e206d7573742062652063616c6c6564207468726f7567682060408201526b6163746976652070726f787960a01b606082015260800190565b81835281816020850137506000828201602090810191909152601f909101601f19169091010190565b602081526000610f26602083018486611219565b8183823760009101908152919050565b60006020828403121561127857600080fd5b5051919050565b6020808252602b908201527f496e697469616c697a61626c653a20636f6e7472616374206973206e6f74206960408201526a6e697469616c697a696e6760a81b606082015260800190565b6001600160a01b0386811682528516602082015260408101849052608060608201819052600090610e2a9083018486611219565b60006020828403121561131057600080fd5b81518015158114610d0d57600080fd5b634e487b7160e01b600052603260045260246000fd5b60006001820161135657634e487b7160e01b600052601160045260246000fd5b5060010190565b60005b83811015611378578181015183820152602001611360565b50506000910152565b6000825161139381846020870161135d565b9190910192915050565b60208152600082518060208401526113bc81604085016020870161135d565b601f01601f1916919091016040019291505056fe360894a13ba1a3210667c828492db98dca3e2076cc3735a920a3ca505d382bbc416464726573733a206c6f772d6c6576656c2064656c65676174652063616c6c206661696c6564a2646970667358221220c514ecb66f97652b68345424fec36074df1b8dffb8f75d20a19cebfc102eecbb64736f6c6343000811003360a06040523060805234801561001457600080fd5b5061001d610022565b6100e1565b600054610100900460ff161561008e5760405162461bcd60e51b815260206004820152602760248201527f496e697469616c697a61626c653a20636f6e747261637420697320696e697469604482015266616c697a696e6760c81b606482015260840160405180910390fd5b60005460ff908116146100df576000805460ff191660ff9081179091556040519081527f7f26b83ff96e1f2b6a682f133852f6798a09c465da95921460cefb38474024989060200160405180910390a15b565b608051611457610118600039600081816102cf01528181610318015281816104f00152818161053001526105c301526114576000f3fe6080604052600436106100a65760003560e01c80634f1ef286116100645780634f1ef2861461019d57806352d1902d146101b057806374574eb7146101d3578063ce091c8614610207578063f29ee1251461023b578063fdb9df551461027b57600080fd5b8062077393146100ab5780632ae9c600146100e85780633659cfe61461010a5780634162169f1461012c57806344162ef81461014a578063485cc9551461017d575b600080fd5b3480156100b757600080fd5b5060fb546100cb906001600160a01b031681565b6040516001600160a01b0390911681526020015b60405180910390f35b3480156100f457600080fd5b506100fd61029b565b6040516100df9190610f63565b34801561011657600080fd5b5061012a610125366004610fac565b6102c5565b005b34801561013857600080fd5b506097546001600160a01b03166100cb565b34801561015657600080fd5b5060c9546101649060e01b81565b6040516001600160e01b031990911681526020016100df565b34801561018957600080fd5b5061012a610198366004610fc9565b6103ad565b61012a6101ab366004611018565b6104e6565b3480156101bc57600080fd5b506101c56105b6565b6040519081526020016100df565b3480156101df57600080fd5b506101c57f60b96ff9fb5f29153c29c1747515b8be4ee523d686cc6f453ec294b0afa7293281565b34801561021357600080fd5b506101c57f055973dfb6d3b3cd890dde3a801f5427fa973864752b6d2a1ae61cbd5ae5dc0981565b34801561024757600080fd5b5061026b610256366004610fac565b60ca6020526000908152604090205460ff1681565b60405190151581526020016100df565b34801561028757600080fd5b5061012a6102963660046110dc565b610669565b6102a3610f45565b5060408051606081018252600181526004602082015260009181019190915290565b6001600160a01b037f00000000000000000000000000000000000000000000000000000000000000001630036103165760405162461bcd60e51b815260040161030d9061115f565b60405180910390fd5b7f00000000000000000000000000000000000000000000000000000000000000006001600160a01b031661035f6000805160206113db833981519152546001600160a01b031690565b6001600160a01b0316146103855760405162461bcd60e51b815260040161030d906111ab565b61038e816107cc565b604080516000808252602082019092526103aa91839190610805565b50565b600054610100900460ff16158080156103cd5750600054600160ff909116105b806103e75750303b1580156103e7575060005460ff166001145b61044a5760405162461bcd60e51b815260206004820152602e60248201527f496e697469616c697a61626c653a20636f6e747261637420697320616c72656160448201526d191e481a5b9a5d1a585b1a5e995960921b606482015260840161030d565b6000805460ff19166001179055801561046d576000805461ff0019166101001790555b630350c86d60e61b61047f8482610970565b5060fb80546001600160a01b0319166001600160a01b03841617905580156104e1576000805461ff0019169055604051600181527f7f26b83ff96e1f2b6a682f133852f6798a09c465da95921460cefb38474024989060200160405180910390a15b505050565b6001600160a01b037f000000000000000000000000000000000000000000000000000000000000000016300361052e5760405162461bcd60e51b815260040161030d9061115f565b7f00000000000000000000000000000000000000000000000000000000000000006001600160a01b03166105776000805160206113db833981519152546001600160a01b031690565b6001600160a01b03161461059d5760405162461bcd60e51b815260040161030d906111ab565b6105a6826107cc565b6105b282826001610805565b5050565b6000306001600160a01b037f000000000000000000000000000000000000000000000000000000000000000016146106565760405162461bcd60e51b815260206004820152603860248201527f555550535570677261646561626c653a206d757374206e6f742062652063616c60448201527f6c6564207468726f7567682064656c656761746563616c6c0000000000000000606482015260840161030d565b506000805160206113db83398151915290565b6097547f055973dfb6d3b3cd890dde3a801f5427fa973864752b6d2a1ae61cbd5ae5dc09906106a7906001600160a01b031630335b846000366109ba565b82156107825760fb546001600160a01b03166106d657604051637b97ca3560e11b815260040160405180910390fd5b6106e08484610a76565b610701578383604051635b7dee8360e01b815260040161030d929190611220565b60008484604051610713929190611234565b60405190819003812060fb546389bb414560e01b8352600483018290526001600160a01b03868116602485015291935016906389bb414590604401600060405180830381600087803b15801561076857600080fd5b505af115801561077c573d6000803e3d6000fd5b50505050505b61078b82610b23565b7f8cc06643d6cbee78b006d2df2db4d2487b69dd64bb2c96088280fb29dd93a0b28484846040516107be93929190611244565b60405180910390a150505050565b6097547f60b96ff9fb5f29153c29c1747515b8be4ee523d686cc6f453ec294b0afa72932906105b2906001600160a01b0316303361069e565b7f4910fdfa16fed3260ed0e7147f7cc6da11a60208b5b9406d12a635614ffd91435460ff1615610838576104e183610bce565b826001600160a01b03166352d1902d6040518163ffffffff1660e01b8152600401602060405180830381865afa925050508015610892575060408051601f3d908101601f1916820190925261088f91810190611270565b60015b6108f55760405162461bcd60e51b815260206004820152602e60248201527f45524331393637557067726164653a206e657720696d706c656d656e7461746960448201526d6f6e206973206e6f74205555505360901b606482015260840161030d565b6000805160206113db83398151915281146109645760405162461bcd60e51b815260206004820152602960248201527f45524331393637557067726164653a20756e737570706f727465642070726f786044820152681a58589b195555525160ba1b606482015260840161030d565b506104e1838383610c6a565b600054610100900460ff166109975760405162461bcd60e51b815260040161030d90611289565b6109a082610c95565b60c9805463ffffffff191660e09290921c91909117905550565b604051637ef7c88360e11b81526001600160a01b0387169063fdef9106906109ee90889088908890889088906004016112d4565b602060405180830381865afa158015610a0b573d6000803e3d6000fd5b505050506040513d601f19601f82011682018060405250810190610a2f9190611308565b610a6e57604051630cb6f8ed60e21b81526001600160a01b0380881660048301528087166024830152851660448201526064810184905260840161030d565b505050505050565b6000828280835b81811015610b14576000848483818110610a9957610a9961132a565b919091013560f81c915050606081118015610ab75750607b8160ff16105b15610ac25750610b02565b602f8160ff16118015610ad85750603a8160ff16105b15610ae35750610b02565b8060ff16602d03610af45750610b02565b600095505050505050610b1d565b80610b0c81611340565b915050610a7d565b50600193505050505b92915050565b6001600160a01b038116600090815260ca602052604090205460ff1615610b685760405163fdcce17f60e01b81526001600160a01b038216600482015260240161030d565b60c954610b82906001600160a01b0383169060e01b610cde565b610baa576040516338811e4560e11b81526001600160a01b038216600482015260240161030d565b6001600160a01b0316600090815260ca60205260409020805460ff19166001179055565b6001600160a01b0381163b610c3b5760405162461bcd60e51b815260206004820152602d60248201527f455243313936373a206e657720696d706c656d656e746174696f6e206973206e60448201526c1bdd08184818dbdb9d1c9858dd609a1b606482015260840161030d565b6000805160206113db83398151915280546001600160a01b0319166001600160a01b0392909216919091179055565b610c7383610d01565b600082511180610c805750805b156104e157610c8f8383610d41565b50505050565b600054610100900460ff16610cbc5760405162461bcd60e51b815260040161030d90611289565b609780546001600160a01b0319166001600160a01b0392909216919091179055565b6000610ce983610d66565b8015610cfa5750610cfa8383610d99565b9392505050565b610d0a81610bce565b6040516001600160a01b038216907fbc7cd75a20ee27fd9adebab32041f755214dbc6bffa90cc0225b39da2e5c2d3b90600090a250565b6060610cfa83836040518060600160405280602781526020016113fb60279139610e22565b6000610d79826301ffc9a760e01b610d99565b8015610b1d5750610d92826001600160e01b0319610d99565b1592915050565b604080516001600160e01b03198316602480830191909152825180830390910181526044909101909152602080820180516001600160e01b03166301ffc9a760e01b178152825160009392849283928392918391908a617530fa92503d91506000519050828015610e0b575060208210155b8015610e175750600081115b979650505050505050565b6060600080856001600160a01b031685604051610e3f919061138b565b600060405180830381855af49150503d8060008114610e7a576040519150601f19603f3d011682016040523d82523d6000602084013e610e7f565b606091505b5091509150610e9086838387610e9a565b9695505050505050565b60608315610f09578251600003610f02576001600160a01b0385163b610f025760405162461bcd60e51b815260206004820152601d60248201527f416464726573733a2063616c6c20746f206e6f6e2d636f6e7472616374000000604482015260640161030d565b5081610f13565b610f138383610f1b565b949350505050565b815115610f2b5781518083602001fd5b8060405162461bcd60e51b815260040161030d91906113a7565b60405180606001604052806003906020820280368337509192915050565b60608101818360005b6003811015610f8e57815160ff16835260209283019290910190600101610f6c565b50505092915050565b6001600160a01b03811681146103aa57600080fd5b600060208284031215610fbe57600080fd5b8135610cfa81610f97565b60008060408385031215610fdc57600080fd5b8235610fe781610f97565b91506020830135610ff781610f97565b809150509250929050565b634e487b7160e01b600052604160045260246000fd5b6000806040838503121561102b57600080fd5b823561103681610f97565b9150602083013567ffffffffffffffff8082111561105357600080fd5b818501915085601f83011261106757600080fd5b81358181111561107957611079611002565b604051601f8201601f19908116603f011681019083821181831017156110a1576110a1611002565b816040528281528860208487010111156110ba57600080fd5b8260208601602083013760006020848301015280955050505050509250929050565b6000806000604084860312156110f157600080fd5b833567ffffffffffffffff8082111561110957600080fd5b818601915086601f83011261111d57600080fd5b81358181111561112c57600080fd5b87602082850101111561113e57600080fd5b6020928301955093505084013561115481610f97565b809150509250925092565b6020808252602c908201527f46756e6374696f6e206d7573742062652063616c6c6564207468726f7567682060408201526b19195b1959d85d1958d85b1b60a21b606082015260800190565b6020808252602c908201527f46756e6374696f6e206d7573742062652063616c6c6564207468726f7567682060408201526b6163746976652070726f787960a01b606082015260800190565b81835281816020850137506000828201602090810191909152601f909101601f19169091010190565b602081526000610f136020830184866111f7565b8183823760009101908152919050565b6040815260006112586040830185876111f7565b905060018060a01b0383166020830152949350505050565b60006020828403121561128257600080fd5b5051919050565b6020808252602b908201527f496e697469616c697a61626c653a20636f6e7472616374206973206e6f74206960408201526a6e697469616c697a696e6760a81b606082015260800190565b6001600160a01b0386811682528516602082015260408101849052608060608201819052600090610e1790830184866111f7565b60006020828403121561131a57600080fd5b81518015158114610cfa57600080fd5b634e487b7160e01b600052603260045260246000fd5b60006001820161136057634e487b7160e01b600052601160045260246000fd5b5060010190565b60005b8381101561138257818101518382015260200161136a565b50506000910152565b6000825161139d818460208701611367565b9190910192915050565b60208152600082518060208401526113c6816040850160208701611367565b601f01601f1916919091016040019291505056fe360894a13ba1a3210667c828492db98dca3e2076cc3735a920a3ca505d382bbc416464726573733a206c6f772d6c6576656c2064656c65676174652063616c6c206661696c6564a26469706673582212204ed2ece53f2ac4acc0c51075531959ab0b677634f53cfb9efb613be98619c73d64736f6c63430008110033","linkReferences":{}},"methodIdentifiers":{"EXECUTE_PERMISSION()":"bcfa4784","REGISTER_DAO_PERMISSION()":"aae2f426","REGISTER_ENS_SUBDOMAIN_PERMISSION()":"cd5e2773","REGISTER_PLUGIN_REPO_PERMISSION()":"a6d7e72e","UPGRADE_REGISTRAR_PERMISSION()":"90008628","UPGRADE_REGISTRY_PERMISSION()":"3dec5b20","daoBase()":"d9f8bd23","daoNode()":"1449e283","daoRegistryBase()":"a865299c","deployFramework((bytes,address,string),string,bytes32[],(bytes,bytes,bytes))":"59e43677","ensRegistry()":"7d73b231","ensResolver()":"adce1c5f","ensSubdomainRegistrarBase()":"3cfb35aa","owner()":"8da5cb5b","pluginNode()":"b451ba36","pluginRepoRegistryBase()":"95e8f57e"},"id":288}