{"abi":[{"type":"constructor","inputs":[],"stateMutability":"nonpayable"},{"type":"function","name":"REGISTER_DAO_PERMISSION_ID","inputs":[],"outputs":[{"name":"","type":"bytes32","internalType":"bytes32"}],"stateMutability":"view"},{"type":"function","name":"UPGRADE_REGISTRY_PERMISSION_ID","inputs":[],"outputs":[{"name":"","type":"bytes32","internalType":"bytes32"}],"stateMutability":"view"},{"type":"function","name":"dao","inputs":[],"outputs":[{"name":"","type":"address","internalType":"contract IDAO"}],"stateMutability":"view"},{"type":"function","name":"entries","inputs":[{"name":"","type":"address","internalType":"address"}],"outputs":[{"name":"","type":"bool","internalType":"bool"}],"stateMutability":"view"},{"type":"function","name":"initialize","inputs":[{"name":"_managingDao","type":"address","internalType":"contract IDAO"},{"name":"_subdomainRegistrar","type":"address","internalType":"contract ENSSubdomainRegistrar"}],"outputs":[],"stateMutability":"nonpayable"},{"type":"function","name":"proxiableUUID","inputs":[],"outputs":[{"name":"","type":"bytes32","internalType":"bytes32"}],"stateMutability":"view"},{"type":"function","name":"register","inputs":[{"name":"dao","type":"address","internalType":"contract IDAO"},{"name":"creator","type":"address","internalType":"address"},{"name":"subdomain","type":"string","internalType":"string"}],"outputs":[],"stateMutability":"nonpayable"},{"type":"function","name":"subdomainRegistrar","inputs":[],"outputs":[{"name":"","type":"address","internalType":"contract ENSSubdomainRegistrar"}],"stateMutability":"view"},{"type":"function","name":"targetInterfaceId","inputs":[],"outputs":[{"name":"","type":"bytes4","internalType":"bytes4"}],"stateMutability":"view"},{"type":"function","name":"upgradeTo","inputs":[{"name":"newImplementation","type":"address","internalType":"address"}],"outputs":[],"stateMutability":"nonpayable"},{"type":"function","name":"upgradeToAndCall","inputs":[{"name":"newImplementation","type":"address","internalType":"address"},{"name":"data","type":"bytes","internalType":"bytes"}],"outputs":[],"stateMutability":"payable"},{"type":"event","name":"AdminChanged","inputs":[{"name":"previousAdmin","type":"address","indexed":false,"internalType":"address"},{"name":"newAdmin","type":"address","indexed":false,"internalType":"address"}],"anonymous":false},{"type":"event","name":"BeaconUpgraded","inputs":[{"name":"beacon","type":"address","indexed":true,"internalType":"address"}],"anonymous":false},{"type":"event","name":"DAORegistered","inputs":[{"name":"dao","type":"address","indexed":true,"internalType":"address"},{"name":"creator","type":"address","indexed":true,"internalType":"address"},{"name":"subdomain","type":"string","indexed":false,"internalType":"string"}],"anonymous":false},{"type":"event","name":"Initialized","inputs":[{"name":"version","type":"uint8","indexed":false,"internalType":"uint8"}],"anonymous":false},{"type":"event","name":"Upgraded","inputs":[{"name":"implementation","type":"address","indexed":true,"internalType":"address"}],"anonymous":false},{"type":"error","name":"ContractAlreadyRegistered","inputs":[{"name":"registrant","type":"address","internalType":"address"}]},{"type":"error","name":"ContractERC165SupportInvalid","inputs":[{"name":"registrant","type":"address","internalType":"address"}]},{"type":"error","name":"ContractInterfaceInvalid","inputs":[{"name":"registrant","type":"address","internalType":"address"}]},{"type":"error","name":"DaoUnauthorized","inputs":[{"name":"dao","type":"address","internalType":"address"},{"name":"where","type":"address","internalType":"address"},{"name":"who","type":"address","internalType":"address"},{"name":"permissionId","type":"bytes32","internalType":"bytes32"}]},{"type":"error","name":"InvalidDaoSubdomain","inputs":[{"name":"subdomain","type":"string","internalType":"string"}]}],"bytecode":{"object":"0x60a06040523060805234801561001457600080fd5b5061001d610022565b6100e1565b600054610100900460ff161561008e5760405162461bcd60e51b815260206004820152602760248201527f496e697469616c697a61626c653a20636f6e747261637420697320696e697469604482015266616c697a696e6760c81b606482015260840160405180910390fd5b60005460ff908116146100df576000805460ff191660ff9081179091556040519081527f7f26b83ff96e1f2b6a682f133852f6798a09c465da95921460cefb38474024989060200160405180910390a15b565b60805161137b61011860003960008181610278015281816102c101528181610497015281816104d7015261056a015261137b6000f3fe60806040526004361061009b5760003560e01c80634f1ef286116100645780634f1ef2861461017057806352d1902d1461018357806374574eb7146101a6578063a2298b4b146101da578063ede497391461020e578063f29ee1251461022e57600080fd5b8062077393146100a05780633659cfe6146100dd5780634162169f146100ff57806344162ef81461011d578063485cc95514610150575b600080fd5b3480156100ac57600080fd5b5060fb546100c0906001600160a01b031681565b6040516001600160a01b0390911681526020015b60405180910390f35b3480156100e957600080fd5b506100fd6100f8366004610eed565b61026e565b005b34801561010b57600080fd5b506097546001600160a01b03166100c0565b34801561012957600080fd5b5060c9546101379060e01b81565b6040516001600160e01b031990911681526020016100d4565b34801561015c57600080fd5b506100fd61016b366004610f0a565b610356565b6100fd61017e366004610f59565b61048d565b34801561018f57600080fd5b5061019861055d565b6040519081526020016100d4565b3480156101b257600080fd5b506101987f60b96ff9fb5f29153c29c1747515b8be4ee523d686cc6f453ec294b0afa7293281565b3480156101e657600080fd5b506101987fde5e253d6956bc5fb69cfa564733633f4e53b143e42859306cd13cdc5485621581565b34801561021a57600080fd5b506100fd61022936600461101d565b610610565b34801561023a57600080fd5b5061025e610249366004610eed565b60ca6020526000908152604090205460ff1681565b60405190151581526020016100d4565b6001600160a01b037f00000000000000000000000000000000000000000000000000000000000000001630036102bf5760405162461bcd60e51b81526004016102b6906110af565b60405180910390fd5b7f00000000000000000000000000000000000000000000000000000000000000006001600160a01b03166103086000805160206112ff833981519152546001600160a01b031690565b6001600160a01b03161461032e5760405162461bcd60e51b81526004016102b6906110fb565b6103378161075f565b6040805160008082526020820190925261035391839190610798565b50565b600054610100900460ff16158080156103765750600054600160ff909116105b806103905750303b158015610390575060005460ff166001145b6103f35760405162461bcd60e51b815260206004820152602e60248201527f496e697469616c697a61626c653a20636f6e747261637420697320616c72656160448201526d191e481a5b9a5d1a585b1a5e995960921b60648201526084016102b6565b6000805460ff191660011790558015610416576000805461ff0019166101001790555b610427836349c2aa3f60e11b610903565b60fb80546001600160a01b0319166001600160a01b0384161790558015610488576000805461ff0019169055604051600181527f7f26b83ff96e1f2b6a682f133852f6798a09c465da95921460cefb38474024989060200160405180910390a15b505050565b6001600160a01b037f00000000000000000000000000000000000000000000000000000000000000001630036104d55760405162461bcd60e51b81526004016102b6906110af565b7f00000000000000000000000000000000000000000000000000000000000000006001600160a01b031661051e6000805160206112ff833981519152546001600160a01b031690565b6001600160a01b0316146105445760405162461bcd60e51b81526004016102b6906110fb565b61054d8261075f565b61055982826001610798565b5050565b6000306001600160a01b037f000000000000000000000000000000000000000000000000000000000000000016146105fd5760405162461bcd60e51b815260206004820152603860248201527f555550535570677261646561626c653a206d757374206e6f742062652063616c60448201527f6c6564207468726f7567682064656c656761746563616c6c000000000000000060648201526084016102b6565b506000805160206112ff83398151915290565b6097547fde5e253d6956bc5fb69cfa564733633f4e53b143e42859306cd13cdc548562159061064e906001600160a01b031630335b8460003661094d565b8461065881610a09565b821561070a576106688484610ab4565b610689578383604051633a5bf49b60e01b81526004016102b6929190611170565b6000848460405161069b929190611184565b60405190819003812060fb546389bb414560e01b8352600483018290526001600160a01b03858116602485015291935016906389bb414590604401600060405180830381600087803b1580156106f057600080fd5b505af1158015610704573d6000803e3d6000fd5b50505050505b846001600160a01b0316816001600160a01b03167fbc0b11fe649bb4d67c7fb40936163e5423f45c3ae83fbd8f8f8c75e1a3fa97af868660405161074f929190611170565b60405180910390a3505050505050565b6097547f60b96ff9fb5f29153c29c1747515b8be4ee523d686cc6f453ec294b0afa7293290610559906001600160a01b03163033610645565b7f4910fdfa16fed3260ed0e7147f7cc6da11a60208b5b9406d12a635614ffd91435460ff16156107cb5761048883610b61565b826001600160a01b03166352d1902d6040518163ffffffff1660e01b8152600401602060405180830381865afa925050508015610825575060408051601f3d908101601f1916820190925261082291810190611194565b60015b6108885760405162461bcd60e51b815260206004820152602e60248201527f45524331393637557067726164653a206e657720696d706c656d656e7461746960448201526d6f6e206973206e6f74205555505360901b60648201526084016102b6565b6000805160206112ff83398151915281146108f75760405162461bcd60e51b815260206004820152602960248201527f45524331393637557067726164653a20756e737570706f727465642070726f786044820152681a58589b195555525160ba1b60648201526084016102b6565b50610488838383610bfd565b600054610100900460ff1661092a5760405162461bcd60e51b81526004016102b6906111ad565b61093382610c28565b60c9805463ffffffff191660e09290921c91909117905550565b604051637ef7c88360e11b81526001600160a01b0387169063fdef91069061098190889088908890889088906004016111f8565b602060405180830381865afa15801561099e573d6000803e3d6000fd5b505050506040513d601f19601f820116820180604052508101906109c2919061122c565b610a0157604051630cb6f8ed60e21b81526001600160a01b038088166004830152808716602483015285166044820152606481018490526084016102b6565b505050505050565b6001600160a01b038116600090815260ca602052604090205460ff1615610a4e5760405163fdcce17f60e01b81526001600160a01b03821660048201526024016102b6565b60c954610a68906001600160a01b0383169060e01b610c71565b610a90576040516338811e4560e11b81526001600160a01b03821660048201526024016102b6565b6001600160a01b0316600090815260ca60205260409020805460ff19166001179055565b6000828280835b81811015610b52576000848483818110610ad757610ad761124e565b919091013560f81c915050606081118015610af55750607b8160ff16105b15610b005750610b40565b602f8160ff16118015610b165750603a8160ff16105b15610b215750610b40565b8060ff16602d03610b325750610b40565b600095505050505050610b5b565b80610b4a81611264565b915050610abb565b50600193505050505b92915050565b6001600160a01b0381163b610bce5760405162461bcd60e51b815260206004820152602d60248201527f455243313936373a206e657720696d706c656d656e746174696f6e206973206e60448201526c1bdd08184818dbdb9d1c9858dd609a1b60648201526084016102b6565b6000805160206112ff83398151915280546001600160a01b0319166001600160a01b0392909216919091179055565b610c0683610c94565b600082511180610c135750805b1561048857610c228383610cd4565b50505050565b600054610100900460ff16610c4f5760405162461bcd60e51b81526004016102b6906111ad565b609780546001600160a01b0319166001600160a01b0392909216919091179055565b6000610c7c83610cf9565b8015610c8d5750610c8d8383610d2c565b9392505050565b610c9d81610b61565b6040516001600160a01b038216907fbc7cd75a20ee27fd9adebab32041f755214dbc6bffa90cc0225b39da2e5c2d3b90600090a250565b6060610c8d838360405180606001604052806027815260200161131f60279139610db5565b6000610d0c826301ffc9a760e01b610d2c565b8015610b5b5750610d25826001600160e01b0319610d2c565b1592915050565b604080516001600160e01b03198316602480830191909152825180830390910181526044909101909152602080820180516001600160e01b03166301ffc9a760e01b178152825160009392849283928392918391908a617530fa92503d91506000519050828015610d9e575060208210155b8015610daa5750600081115b979650505050505050565b6060600080856001600160a01b031685604051610dd291906112af565b600060405180830381855af49150503d8060008114610e0d576040519150601f19603f3d011682016040523d82523d6000602084013e610e12565b606091505b5091509150610e2386838387610e2d565b9695505050505050565b60608315610e9c578251600003610e95576001600160a01b0385163b610e955760405162461bcd60e51b815260206004820152601d60248201527f416464726573733a2063616c6c20746f206e6f6e2d636f6e747261637400000060448201526064016102b6565b5081610ea6565b610ea68383610eae565b949350505050565b815115610ebe5781518083602001fd5b8060405162461bcd60e51b81526004016102b691906112cb565b6001600160a01b038116811461035357600080fd5b600060208284031215610eff57600080fd5b8135610c8d81610ed8565b60008060408385031215610f1d57600080fd5b8235610f2881610ed8565b91506020830135610f3881610ed8565b809150509250929050565b634e487b7160e01b600052604160045260246000fd5b60008060408385031215610f6c57600080fd5b8235610f7781610ed8565b9150602083013567ffffffffffffffff80821115610f9457600080fd5b818501915085601f830112610fa857600080fd5b813581811115610fba57610fba610f43565b604051601f8201601f19908116603f01168101908382118183101715610fe257610fe2610f43565b81604052828152886020848701011115610ffb57600080fd5b8260208601602083013760006020848301015280955050505050509250929050565b6000806000806060858703121561103357600080fd5b843561103e81610ed8565b9350602085013561104e81610ed8565b9250604085013567ffffffffffffffff8082111561106b57600080fd5b818701915087601f83011261107f57600080fd5b81358181111561108e57600080fd5b8860208285010111156110a057600080fd5b95989497505060200194505050565b6020808252602c908201527f46756e6374696f6e206d7573742062652063616c6c6564207468726f7567682060408201526b19195b1959d85d1958d85b1b60a21b606082015260800190565b6020808252602c908201527f46756e6374696f6e206d7573742062652063616c6c6564207468726f7567682060408201526b6163746976652070726f787960a01b606082015260800190565b81835281816020850137506000828201602090810191909152601f909101601f19169091010190565b602081526000610ea6602083018486611147565b8183823760009101908152919050565b6000602082840312156111a657600080fd5b5051919050565b6020808252602b908201527f496e697469616c697a61626c653a20636f6e7472616374206973206e6f74206960408201526a6e697469616c697a696e6760a81b606082015260800190565b6001600160a01b0386811682528516602082015260408101849052608060608201819052600090610daa9083018486611147565b60006020828403121561123e57600080fd5b81518015158114610c8d57600080fd5b634e487b7160e01b600052603260045260246000fd5b60006001820161128457634e487b7160e01b600052601160045260246000fd5b5060010190565b60005b838110156112a657818101518382015260200161128e565b50506000910152565b600082516112c181846020870161128b565b9190910192915050565b60208152600082518060208401526112ea81604085016020870161128b565b601f01601f1916919091016040019291505056fe360894a13ba1a3210667c828492db98dca3e2076cc3735a920a3ca505d382bbc416464726573733a206c6f772d6c6576656c2064656c65676174652063616c6c206661696c6564a2646970667358221220a1a985acbe7db41dd15e584557e988086676253248dfad12e6e3b909bf504ee564736f6c63430008110033","linkReferences":{}},"methodIdentifiers":{"REGISTER_DAO_PERMISSION_ID()":"a2298b4b","UPGRADE_REGISTRY_PERMISSION_ID()":"74574eb7","dao()":"4162169f","entries(address)":"f29ee125","initialize(address,address)":"485cc955","proxiableUUID()":"52d1902d","register(address,address,string)":"ede49739","subdomainRegistrar()":"00077393","targetInterfaceId()":"44162ef8","upgradeTo(address)":"3659cfe6","upgradeToAndCall(address,bytes)":"4f1ef286"},"id":53}