{"abi":[{"type":"function","name":"DEFAULT_ADMIN_ROLE","inputs":[],"outputs":[{"name":"","type":"bytes32","internalType":"bytes32"}],"stateMutability":"view"},{"type":"function","name":"MINTER_ROLE","inputs":[],"outputs":[{"name":"","type":"bytes32","internalType":"bytes32"}],"stateMutability":"view"},{"type":"function","name":"PAUSER_ROLE","inputs":[],"outputs":[{"name":"","type":"bytes32","internalType":"bytes32"}],"stateMutability":"view"},{"type":"function","name":"balanceOf","inputs":[{"name":"account","type":"address","internalType":"address"},{"name":"id","type":"uint256","internalType":"uint256"}],"outputs":[{"name":"","type":"uint256","internalType":"uint256"}],"stateMutability":"view"},{"type":"function","name":"balanceOfBatch","inputs":[{"name":"accounts","type":"address[]","internalType":"address[]"},{"name":"ids","type":"uint256[]","internalType":"uint256[]"}],"outputs":[{"name":"","type":"uint256[]","internalType":"uint256[]"}],"stateMutability":"view"},{"type":"function","name":"burn","inputs":[{"name":"account","type":"address","internalType":"address"},{"name":"id","type":"uint256","internalType":"uint256"},{"name":"value","type":"uint256","internalType":"uint256"}],"outputs":[],"stateMutability":"nonpayable"},{"type":"function","name":"burnBatch","inputs":[{"name":"account","type":"address","internalType":"address"},{"name":"ids","type":"uint256[]","internalType":"uint256[]"},{"name":"values","type":"uint256[]","internalType":"uint256[]"}],"outputs":[],"stateMutability":"nonpayable"},{"type":"function","name":"getRoleAdmin","inputs":[{"name":"role","type":"bytes32","internalType":"bytes32"}],"outputs":[{"name":"","type":"bytes32","internalType":"bytes32"}],"stateMutability":"view"},{"type":"function","name":"getRoleMember","inputs":[{"name":"role","type":"bytes32","internalType":"bytes32"},{"name":"index","type":"uint256","internalType":"uint256"}],"outputs":[{"name":"","type":"address","internalType":"address"}],"stateMutability":"view"},{"type":"function","name":"getRoleMemberCount","inputs":[{"name":"role","type":"bytes32","internalType":"bytes32"}],"outputs":[{"name":"","type":"uint256","internalType":"uint256"}],"stateMutability":"view"},{"type":"function","name":"grantRole","inputs":[{"name":"role","type":"bytes32","internalType":"bytes32"},{"name":"account","type":"address","internalType":"address"}],"outputs":[],"stateMutability":"nonpayable"},{"type":"function","name":"hasRole","inputs":[{"name":"role","type":"bytes32","internalType":"bytes32"},{"name":"account","type":"address","internalType":"address"}],"outputs":[{"name":"","type":"bool","internalType":"bool"}],"stateMutability":"view"},{"type":"function","name":"initialize","inputs":[{"name":"uri","type":"string","internalType":"string"}],"outputs":[],"stateMutability":"nonpayable"},{"type":"function","name":"isApprovedForAll","inputs":[{"name":"account","type":"address","internalType":"address"},{"name":"operator","type":"address","internalType":"address"}],"outputs":[{"name":"","type":"bool","internalType":"bool"}],"stateMutability":"view"},{"type":"function","name":"mint","inputs":[{"name":"to","type":"address","internalType":"address"},{"name":"id","type":"uint256","internalType":"uint256"},{"name":"amount","type":"uint256","internalType":"uint256"},{"name":"data","type":"bytes","internalType":"bytes"}],"outputs":[],"stateMutability":"nonpayable"},{"type":"function","name":"mintBatch","inputs":[{"name":"to","type":"address","internalType":"address"},{"name":"ids","type":"uint256[]","internalType":"uint256[]"},{"name":"amounts","type":"uint256[]","internalType":"uint256[]"},{"name":"data","type":"bytes","internalType":"bytes"}],"outputs":[],"stateMutability":"nonpayable"},{"type":"function","name":"pause","inputs":[],"outputs":[],"stateMutability":"nonpayable"},{"type":"function","name":"paused","inputs":[],"outputs":[{"name":"","type":"bool","internalType":"bool"}],"stateMutability":"view"},{"type":"function","name":"renounceRole","inputs":[{"name":"role","type":"bytes32","internalType":"bytes32"},{"name":"account","type":"address","internalType":"address"}],"outputs":[],"stateMutability":"nonpayable"},{"type":"function","name":"revokeRole","inputs":[{"name":"role","type":"bytes32","internalType":"bytes32"},{"name":"account","type":"address","internalType":"address"}],"outputs":[],"stateMutability":"nonpayable"},{"type":"function","name":"safeBatchTransferFrom","inputs":[{"name":"from","type":"address","internalType":"address"},{"name":"to","type":"address","internalType":"address"},{"name":"ids","type":"uint256[]","internalType":"uint256[]"},{"name":"amounts","type":"uint256[]","internalType":"uint256[]"},{"name":"data","type":"bytes","internalType":"bytes"}],"outputs":[],"stateMutability":"nonpayable"},{"type":"function","name":"safeTransferFrom","inputs":[{"name":"from","type":"address","internalType":"address"},{"name":"to","type":"address","internalType":"address"},{"name":"id","type":"uint256","internalType":"uint256"},{"name":"amount","type":"uint256","internalType":"uint256"},{"name":"data","type":"bytes","internalType":"bytes"}],"outputs":[],"stateMutability":"nonpayable"},{"type":"function","name":"setApprovalForAll","inputs":[{"name":"operator","type":"address","internalType":"address"},{"name":"approved","type":"bool","internalType":"bool"}],"outputs":[],"stateMutability":"nonpayable"},{"type":"function","name":"supportsInterface","inputs":[{"name":"interfaceId","type":"bytes4","internalType":"bytes4"}],"outputs":[{"name":"","type":"bool","internalType":"bool"}],"stateMutability":"view"},{"type":"function","name":"unpause","inputs":[],"outputs":[],"stateMutability":"nonpayable"},{"type":"function","name":"uri","inputs":[{"name":"","type":"uint256","internalType":"uint256"}],"outputs":[{"name":"","type":"string","internalType":"string"}],"stateMutability":"view"},{"type":"event","name":"ApprovalForAll","inputs":[{"name":"account","type":"address","indexed":true,"internalType":"address"},{"name":"operator","type":"address","indexed":true,"internalType":"address"},{"name":"approved","type":"bool","indexed":false,"internalType":"bool"}],"anonymous":false},{"type":"event","name":"Initialized","inputs":[{"name":"version","type":"uint8","indexed":false,"internalType":"uint8"}],"anonymous":false},{"type":"event","name":"Paused","inputs":[{"name":"account","type":"address","indexed":false,"internalType":"address"}],"anonymous":false},{"type":"event","name":"RoleAdminChanged","inputs":[{"name":"role","type":"bytes32","indexed":true,"internalType":"bytes32"},{"name":"previousAdminRole","type":"bytes32","indexed":true,"internalType":"bytes32"},{"name":"newAdminRole","type":"bytes32","indexed":true,"internalType":"bytes32"}],"anonymous":false},{"type":"event","name":"RoleGranted","inputs":[{"name":"role","type":"bytes32","indexed":true,"internalType":"bytes32"},{"name":"account","type":"address","indexed":true,"internalType":"address"},{"name":"sender","type":"address","indexed":true,"internalType":"address"}],"anonymous":false},{"type":"event","name":"RoleRevoked","inputs":[{"name":"role","type":"bytes32","indexed":true,"internalType":"bytes32"},{"name":"account","type":"address","indexed":true,"internalType":"address"},{"name":"sender","type":"address","indexed":true,"internalType":"address"}],"anonymous":false},{"type":"event","name":"TransferBatch","inputs":[{"name":"operator","type":"address","indexed":true,"internalType":"address"},{"name":"from","type":"address","indexed":true,"internalType":"address"},{"name":"to","type":"address","indexed":true,"internalType":"address"},{"name":"ids","type":"uint256[]","indexed":false,"internalType":"uint256[]"},{"name":"values","type":"uint256[]","indexed":false,"internalType":"uint256[]"}],"anonymous":false},{"type":"event","name":"TransferSingle","inputs":[{"name":"operator","type":"address","indexed":true,"internalType":"address"},{"name":"from","type":"address","indexed":true,"internalType":"address"},{"name":"to","type":"address","indexed":true,"internalType":"address"},{"name":"id","type":"uint256","indexed":false,"internalType":"uint256"},{"name":"value","type":"uint256","indexed":false,"internalType":"uint256"}],"anonymous":false},{"type":"event","name":"URI","inputs":[{"name":"value","type":"string","indexed":false,"internalType":"string"},{"name":"id","type":"uint256","indexed":true,"internalType":"uint256"}],"anonymous":false},{"type":"event","name":"Unpaused","inputs":[{"name":"account","type":"address","indexed":false,"internalType":"address"}],"anonymous":false}],"bytecode":{"object":"0x608060405234801561001057600080fd5b50612d14806100206000396000f3fe608060405234801561001057600080fd5b506004361061018d5760003560e01c80638456cb59116100de578063d539139311610097578063e985e9c511610071578063e985e9c514610377578063f242432a146103b3578063f5298aca146103c6578063f62d1888146103d957600080fd5b8063d53913931461033a578063d547741f1461034f578063e63ab1e91461036257600080fd5b80638456cb59146102c65780639010d07c146102ce57806391d14854146102f9578063a217fddf1461030c578063a22cb46514610314578063ca15c8731461032757600080fd5b80632f2ff15d1161014b5780634e1273f4116101255780634e1273f4146102745780635c975abb146102945780636b20c454146102a0578063731133e9146102b357600080fd5b80632f2ff15d1461024657806336568abe146102595780633f4ba83a1461026c57600080fd5b8062fdd58e1461019257806301ffc9a7146101b85780630e89341c146101db5780631f7fdffa146101fb578063248a9ca3146102105780632eb2c2d614610233575b600080fd5b6101a56101a0366004611ee4565b6103ec565b6040519081526020015b60405180910390f35b6101cb6101c6366004611f24565b610487565b60405190151581526020016101af565b6101ee6101e9366004611f41565b610492565b6040516101af9190611faa565b61020e610209366004612110565b610526565b005b6101a561021e366004611f41565b60009081526065602052604090206001015490565b61020e6102413660046121a8565b61056c565b61020e610254366004612251565b6105b8565b61020e610267366004612251565b6105e2565b61020e610660565b61028761028236600461227d565b6106f4565b6040516101af9190612382565b61012d5460ff166101cb565b61020e6102ae366004612395565b61081d565b61020e6102c1366004612408565b610860565b61020e6108a0565b6102e16102dc36600461245c565b610932565b6040516001600160a01b0390911681526020016101af565b6101cb610307366004612251565b610951565b6101a5600081565b61020e61032236600461247e565b61097c565b6101a5610335366004611f41565b610987565b6101a5600080516020612cbf83398151915281565b61020e61035d366004612251565b61099e565b6101a5600080516020612c9f83398151915281565b6101cb6103853660046124ba565b6001600160a01b03918216600090815260ca6020908152604080832093909416825291909152205460ff1690565b61020e6103c13660046124e4565b6109c3565b61020e6103d4366004612548565b610a08565b61020e6103e736600461257b565b610a4b565b60006001600160a01b03831661045c5760405162461bcd60e51b815260206004820152602a60248201527f455243313135353a2061646472657373207a65726f206973206e6f742061207660448201526930b634b21037bbb732b960b11b60648201526084015b60405180910390fd5b50600081815260c9602090815260408083206001600160a01b03861684529091529020545b92915050565b600061048182610b5d565b606060cb80546104a1906125cb565b80601f01602080910402602001604051908101604052809291908181526020018280546104cd906125cb565b801561051a5780601f106104ef5761010080835404028352916020019161051a565b820191906000526020600020905b8154815290600101906020018083116104fd57829003601f168201915b50505050509050919050565b61053e600080516020612cbf83398151915233610951565b61055a5760405162461bcd60e51b815260040161045390612605565b61056684848484610b9d565b50505050565b6001600160a01b03851633148061058857506105888533610385565b6105a45760405162461bcd60e51b815260040161045390612662565b6105b18585858585610cf8565b5050505050565b6000828152606560205260409020600101546105d381610ea5565b6105dd8383610eb2565b505050565b6001600160a01b03811633146106525760405162461bcd60e51b815260206004820152602f60248201527f416363657373436f6e74726f6c3a2063616e206f6e6c792072656e6f756e636560448201526e103937b632b9903337b91039b2b63360891b6064820152608401610453565b61065c8282610ed4565b5050565b610678600080516020612c9f83398151915233610951565b6106ea5760405162461bcd60e51b815260206004820152603b60248201527f455243313135355072657365744d696e7465725061757365723a206d7573742060448201527f686176652070617573657220726f6c6520746f20756e706175736500000000006064820152608401610453565b6106f2610ef6565b565b606081518351146107595760405162461bcd60e51b815260206004820152602960248201527f455243313135353a206163636f756e747320616e6420696473206c656e677468604482015268040dad2e6dac2e8c6d60bb1b6064820152608401610453565b600083516001600160401b0381111561077457610774611fbd565b60405190808252806020026020018201604052801561079d578160200160208202803683370190505b50905060005b8451811015610815576107e88582815181106107c1576107c16126b0565b60200260200101518583815181106107db576107db6126b0565b60200260200101516103ec565b8282815181106107fa576107fa6126b0565b602090810291909101015261080e816126dc565b90506107a3565b509392505050565b6001600160a01b03831633148061083957506108398333610385565b6108555760405162461bcd60e51b815260040161045390612662565b6105dd838383610f49565b610878600080516020612cbf83398151915233610951565b6108945760405162461bcd60e51b815260040161045390612605565b610566848484846110e8565b6108b8600080516020612c9f83398151915233610951565b61092a5760405162461bcd60e51b815260206004820152603960248201527f455243313135355072657365744d696e7465725061757365723a206d7573742060448201527f686176652070617573657220726f6c6520746f207061757365000000000000006064820152608401610453565b6106f26111d3565b600082815260976020526040812061094a9083611211565b9392505050565b60009182526065602090815260408084206001600160a01b0393909316845291905290205460ff1690565b61065c33838361121d565b6000818152609760205260408120610481906112fd565b6000828152606560205260409020600101546109b981610ea5565b6105dd8383610ed4565b6001600160a01b0385163314806109df57506109df8533610385565b6109fb5760405162461bcd60e51b815260040161045390612662565b6105b18585858585611307565b6001600160a01b038316331480610a245750610a248333610385565b610a405760405162461bcd60e51b815260040161045390612662565b6105dd838383611443565b600054610100900460ff1615808015610a6b5750600054600160ff909116105b80610a855750303b158015610a85575060005460ff166001145b610ae85760405162461bcd60e51b815260206004820152602e60248201527f496e697469616c697a61626c653a20636f6e747261637420697320616c72656160448201526d191e481a5b9a5d1a585b1a5e995960921b6064820152608401610453565b6000805460ff191660011790558015610b0b576000805461ff0019166101001790555b610b148261155f565b801561065c576000805461ff0019169055604051600181527f7f26b83ff96e1f2b6a682f133852f6798a09c465da95921460cefb38474024989060200160405180910390a15050565b60006001600160e01b03198216636cdb3d1360e11b1480610b8e57506001600160e01b031982166303a24d0760e21b145b806104815750610481826115a0565b6001600160a01b038416610bc35760405162461bcd60e51b8152600401610453906126f5565b8151835114610be45760405162461bcd60e51b815260040161045390612736565b33610bf4816000878787876115c5565b60005b8451811015610c9057838181518110610c1257610c126126b0565b602002602001015160c96000878481518110610c3057610c306126b0565b602002602001015181526020019081526020016000206000886001600160a01b03166001600160a01b031681526020019081526020016000206000828254610c78919061277e565b90915550819050610c88816126dc565b915050610bf7565b50846001600160a01b031660006001600160a01b0316826001600160a01b03167f4a39dc06d4c0dbc64b70af90fd698a233a518aa5d07e595d983b8c0526c8f7fb8787604051610ce1929190612791565b60405180910390a46105b1816000878787876115d3565b8151835114610d195760405162461bcd60e51b815260040161045390612736565b6001600160a01b038416610d3f5760405162461bcd60e51b8152600401610453906127bf565b33610d4e8187878787876115c5565b60005b8451811015610e37576000858281518110610d6e57610d6e6126b0565b602002602001015190506000858381518110610d8c57610d8c6126b0565b602090810291909101810151600084815260c9835260408082206001600160a01b038e168352909352919091205490915081811015610ddd5760405162461bcd60e51b815260040161045390612804565b600083815260c9602090815260408083206001600160a01b038e8116855292528083208585039055908b16825281208054849290610e1c90849061277e565b9250508190555050505080610e30906126dc565b9050610d51565b50846001600160a01b0316866001600160a01b0316826001600160a01b03167f4a39dc06d4c0dbc64b70af90fd698a233a518aa5d07e595d983b8c0526c8f7fb8787604051610e87929190612791565b60405180910390a4610e9d8187878787876115d3565b505050505050565b610eaf813361172e565b50565b610ebc8282611787565b60008281526097602052604090206105dd908261180d565b610ede8282611822565b60008281526097602052604090206105dd9082611889565b610efe61189e565b61012d805460ff191690557f5db9ee0a495bf2e6ff9c91a7834c1ba4fdd244a5e8aa4e537bd38aeae4b073aa335b6040516001600160a01b03909116815260200160405180910390a1565b6001600160a01b038316610f6f5760405162461bcd60e51b81526004016104539061284e565b8051825114610f905760405162461bcd60e51b815260040161045390612736565b6000339050610fb3818560008686604051806020016040528060008152506115c5565b60005b835181101561107b576000848281518110610fd357610fd36126b0565b602002602001015190506000848381518110610ff157610ff16126b0565b602090810291909101810151600084815260c9835260408082206001600160a01b038c1683529093529190912054909150818110156110425760405162461bcd60e51b815260040161045390612891565b600092835260c9602090815260408085206001600160a01b038b1686529091529092209103905580611073816126dc565b915050610fb6565b5060006001600160a01b0316846001600160a01b0316826001600160a01b03167f4a39dc06d4c0dbc64b70af90fd698a233a518aa5d07e595d983b8c0526c8f7fb86866040516110cc929190612791565b60405180910390a4604080516020810190915260009052610566565b6001600160a01b03841661110e5760405162461bcd60e51b8152600401610453906126f5565b33600061111a856118e8565b90506000611127856118e8565b9050611138836000898585896115c5565b600086815260c9602090815260408083206001600160a01b038b1684529091528120805487929061116a90849061277e565b909155505060408051878152602081018790526001600160a01b03808a1692600092918716917fc3d58168c5ae7397731d063d5bbf3d657854427343f4c083240f7aacaa2d0f62910160405180910390a46111ca83600089898989611933565b50505050505050565b6111db6119ee565b61012d805460ff191660011790557f62e78cea01bee320cd4e420270b5ea74000d11b0c9f74754ebdbfc544b05a258610f2c3390565b600061094a8383611a35565b816001600160a01b0316836001600160a01b0316036112905760405162461bcd60e51b815260206004820152602960248201527f455243313135353a2073657474696e6720617070726f76616c20737461747573604482015268103337b91039b2b63360b91b6064820152608401610453565b6001600160a01b03838116600081815260ca6020908152604080832094871680845294825291829020805460ff191686151590811790915591519182527f17307eab39ab6107e8899845ad3d59bd9653f200f220920489ca2b5937696c31910160405180910390a3505050565b6000610481825490565b6001600160a01b03841661132d5760405162461bcd60e51b8152600401610453906127bf565b336000611339856118e8565b90506000611346856118e8565b90506113568389898585896115c5565b600086815260c9602090815260408083206001600160a01b038c168452909152902054858110156113995760405162461bcd60e51b815260040161045390612804565b600087815260c9602090815260408083206001600160a01b038d8116855292528083208985039055908a168252812080548892906113d890849061277e565b909155505060408051888152602081018890526001600160a01b03808b16928c821692918816917fc3d58168c5ae7397731d063d5bbf3d657854427343f4c083240f7aacaa2d0f62910160405180910390a4611438848a8a8a8a8a611933565b505050505050505050565b6001600160a01b0383166114695760405162461bcd60e51b81526004016104539061284e565b336000611475846118e8565b90506000611482846118e8565b90506114a2838760008585604051806020016040528060008152506115c5565b600085815260c9602090815260408083206001600160a01b038a168452909152902054848110156114e55760405162461bcd60e51b815260040161045390612891565b600086815260c9602090815260408083206001600160a01b038b81168086529184528285208a8703905582518b81529384018a90529092908816917fc3d58168c5ae7397731d063d5bbf3d657854427343f4c083240f7aacaa2d0f62910160405180910390a46040805160208101909152600090526111ca565b600054610100900460ff166115865760405162461bcd60e51b8152600401610453906128d5565b61158f81611a5f565b611597611a8f565b610eaf81611ac3565b60006001600160e01b03198216635a05180f60e01b1480610481575061048182611b25565b610e9d868686868686611b5a565b6001600160a01b0384163b15610e9d5760405163bc197c8160e01b81526001600160a01b0385169063bc197c81906116179089908990889088908890600401612920565b6020604051808303816000875af1925050508015611652575060408051601f3d908101601f1916820190925261164f9181019061297e565b60015b6116fe5761165e61299b565b806308c379a00361169757506116726129b7565b8061167d5750611699565b8060405162461bcd60e51b81526004016104539190611faa565b505b60405162461bcd60e51b815260206004820152603460248201527f455243313135353a207472616e7366657220746f206e6f6e2d455243313135356044820152732932b1b2b4bb32b91034b6b83632b6b2b73a32b960611b6064820152608401610453565b6001600160e01b0319811663bc197c8160e01b146111ca5760405162461bcd60e51b815260040161045390612a40565b6117388282610951565b61065c5761174581611bc3565b611750836020611bd5565b604051602001611761929190612a88565b60408051601f198184030181529082905262461bcd60e51b825261045391600401611faa565b6117918282610951565b61065c5760008281526065602090815260408083206001600160a01b03851684529091529020805460ff191660011790556117c93390565b6001600160a01b0316816001600160a01b0316837f2f8788117e7eff1d82e926ec794901d17c78024a50270940304540a733656f0d60405160405180910390a45050565b600061094a836001600160a01b038416611d70565b61182c8282610951565b1561065c5760008281526065602090815260408083206001600160a01b0385168085529252808320805460ff1916905551339285917ff6391f5c32d9c69d2a47ea670b442974b53935d1edc7fd64eb21e047a839171b9190a45050565b600061094a836001600160a01b038416611dbf565b61012d5460ff166106f25760405162461bcd60e51b815260206004820152601460248201527314185d5cd8589b194e881b9bdd081c185d5cd95960621b6044820152606401610453565b60408051600180825281830190925260609160009190602080830190803683370190505090508281600081518110611922576119226126b0565b602090810291909101015292915050565b6001600160a01b0384163b15610e9d5760405163f23a6e6160e01b81526001600160a01b0385169063f23a6e61906119779089908990889088908890600401612afd565b6020604051808303816000875af19250505080156119b2575060408051601f3d908101601f191682019092526119af9181019061297e565b60015b6119be5761165e61299b565b6001600160e01b0319811663f23a6e6160e01b146111ca5760405162461bcd60e51b815260040161045390612a40565b61012d5460ff16156106f25760405162461bcd60e51b815260206004820152601060248201526f14185d5cd8589b194e881c185d5cd95960821b6044820152606401610453565b6000826000018281548110611a4c57611a4c6126b0565b9060005260206000200154905092915050565b600054610100900460ff16611a865760405162461bcd60e51b8152600401610453906128d5565b610eaf81611eb2565b600054610100900460ff16611ab65760405162461bcd60e51b8152600401610453906128d5565b61012d805460ff19169055565b600054610100900460ff16611aea5760405162461bcd60e51b8152600401610453906128d5565b611af5600033611ebe565b611b0d600080516020612cbf83398151915233611ebe565b610eaf600080516020612c9f83398151915233611ebe565b60006001600160e01b03198216637965db0b60e01b148061048157506301ffc9a760e01b6001600160e01b0319831614610481565b61012d5460ff1615610e9d5760405162461bcd60e51b815260206004820152602c60248201527f455243313135355061757361626c653a20746f6b656e207472616e736665722060448201526b1dda1a5b19481c185d5cd95960a21b6064820152608401610453565b60606104816001600160a01b03831660145b60606000611be4836002612b42565b611bef90600261277e565b6001600160401b03811115611c0657611c06611fbd565b6040519080825280601f01601f191660200182016040528015611c30576020820181803683370190505b509050600360fc1b81600081518110611c4b57611c4b6126b0565b60200101906001600160f81b031916908160001a905350600f60fb1b81600181518110611c7a57611c7a6126b0565b60200101906001600160f81b031916908160001a9053506000611c9e846002612b42565b611ca990600161277e565b90505b6001811115611d21576f181899199a1a9b1b9c1cb0b131b232b360811b85600f1660108110611cdd57611cdd6126b0565b1a60f81b828281518110611cf357611cf36126b0565b60200101906001600160f81b031916908160001a90535060049490941c93611d1a81612b59565b9050611cac565b50831561094a5760405162461bcd60e51b815260206004820181905260248201527f537472696e67733a20686578206c656e67746820696e73756666696369656e746044820152606401610453565b6000818152600183016020526040812054611db757508154600181810184556000848152602080822090930184905584548482528286019093526040902091909155610481565b506000610481565b60008181526001830160205260408120548015611ea8576000611de3600183612b70565b8554909150600090611df790600190612b70565b9050818114611e5c576000866000018281548110611e1757611e176126b0565b9060005260206000200154905080876000018481548110611e3a57611e3a6126b0565b6000918252602080832090910192909255918252600188019052604090208390555b8554869080611e6d57611e6d612b83565b600190038181906000526020600020016000905590558560010160008681526020019081526020016000206000905560019350505050610481565b6000915050610481565b60cb61065c8282612bdf565b61065c8282610eb2565b80356001600160a01b0381168114611edf57600080fd5b919050565b60008060408385031215611ef757600080fd5b611f0083611ec8565b946020939093013593505050565b6001600160e01b031981168114610eaf57600080fd5b600060208284031215611f3657600080fd5b813561094a81611f0e565b600060208284031215611f5357600080fd5b5035919050565b60005b83811015611f75578181015183820152602001611f5d565b50506000910152565b60008151808452611f96816020860160208601611f5a565b601f01601f19169290920160200192915050565b60208152600061094a6020830184611f7e565b634e487b7160e01b600052604160045260246000fd5b601f8201601f191681016001600160401b0381118282101715611ff857611ff8611fbd565b6040525050565b60006001600160401b0382111561201857612018611fbd565b5060051b60200190565b600082601f83011261203357600080fd5b8135602061204082611fff565b60405161204d8282611fd3565b83815260059390931b850182019282810191508684111561206d57600080fd5b8286015b848110156120885780358352918301918301612071565b509695505050505050565b60006001600160401b038311156120ac576120ac611fbd565b6040516120c3601f8501601f191660200182611fd3565b8091508381528484840111156120d857600080fd5b83836020830137600060208583010152509392505050565b600082601f83011261210157600080fd5b61094a83833560208501612093565b6000806000806080858703121561212657600080fd5b61212f85611ec8565b935060208501356001600160401b038082111561214b57600080fd5b61215788838901612022565b9450604087013591508082111561216d57600080fd5b61217988838901612022565b9350606087013591508082111561218f57600080fd5b5061219c878288016120f0565b91505092959194509250565b600080600080600060a086880312156121c057600080fd5b6121c986611ec8565b94506121d760208701611ec8565b935060408601356001600160401b03808211156121f357600080fd5b6121ff89838a01612022565b9450606088013591508082111561221557600080fd5b61222189838a01612022565b9350608088013591508082111561223757600080fd5b50612244888289016120f0565b9150509295509295909350565b6000806040838503121561226457600080fd5b8235915061227460208401611ec8565b90509250929050565b6000806040838503121561229057600080fd5b82356001600160401b03808211156122a757600080fd5b818501915085601f8301126122bb57600080fd5b813560206122c882611fff565b6040516122d58282611fd3565b83815260059390931b85018201928281019150898411156122f557600080fd5b948201945b8386101561231a5761230b86611ec8565b825294820194908201906122fa565b9650508601359250508082111561233057600080fd5b5061233d85828601612022565b9150509250929050565b600081518084526020808501945080840160005b838110156123775781518752958201959082019060010161235b565b509495945050505050565b60208152600061094a6020830184612347565b6000806000606084860312156123aa57600080fd5b6123b384611ec8565b925060208401356001600160401b03808211156123cf57600080fd5b6123db87838801612022565b935060408601359150808211156123f157600080fd5b506123fe86828701612022565b9150509250925092565b6000806000806080858703121561241e57600080fd5b61242785611ec8565b9350602085013592506040850135915060608501356001600160401b0381111561245057600080fd5b61219c878288016120f0565b6000806040838503121561246f57600080fd5b50508035926020909101359150565b6000806040838503121561249157600080fd5b61249a83611ec8565b9150602083013580151581146124af57600080fd5b809150509250929050565b600080604083850312156124cd57600080fd5b6124d683611ec8565b915061227460208401611ec8565b600080600080600060a086880312156124fc57600080fd5b61250586611ec8565b945061251360208701611ec8565b9350604086013592506060860135915060808601356001600160401b0381111561253c57600080fd5b612244888289016120f0565b60008060006060848603121561255d57600080fd5b61256684611ec8565b95602085013595506040909401359392505050565b60006020828403121561258d57600080fd5b81356001600160401b038111156125a357600080fd5b8201601f810184136125b457600080fd5b6125c384823560208401612093565b949350505050565b600181811c908216806125df57607f821691505b6020821081036125ff57634e487b7160e01b600052602260045260246000fd5b50919050565b60208082526038908201527f455243313135355072657365744d696e7465725061757365723a206d7573742060408201527f68617665206d696e74657220726f6c6520746f206d696e740000000000000000606082015260800190565b6020808252602e908201527f455243313135353a2063616c6c6572206973206e6f7420746f6b656e206f776e60408201526d195c881bdc88185c1c1c9bdd995960921b606082015260800190565b634e487b7160e01b600052603260045260246000fd5b634e487b7160e01b600052601160045260246000fd5b6000600182016126ee576126ee6126c6565b5060010190565b60208082526021908201527f455243313135353a206d696e7420746f20746865207a65726f206164647265736040820152607360f81b606082015260800190565b60208082526028908201527f455243313135353a2069647320616e6420616d6f756e7473206c656e677468206040820152670dad2e6dac2e8c6d60c31b606082015260800190565b80820180821115610481576104816126c6565b6040815260006127a46040830185612347565b82810360208401526127b68185612347565b95945050505050565b60208082526025908201527f455243313135353a207472616e7366657220746f20746865207a65726f206164604082015264647265737360d81b606082015260800190565b6020808252602a908201527f455243313135353a20696e73756666696369656e742062616c616e636520666f60408201526939103a3930b739b332b960b11b606082015260800190565b60208082526023908201527f455243313135353a206275726e2066726f6d20746865207a65726f206164647260408201526265737360e81b606082015260800190565b60208082526024908201527f455243313135353a206275726e20616d6f756e7420657863656564732062616c604082015263616e636560e01b606082015260800190565b6020808252602b908201527f496e697469616c697a61626c653a20636f6e7472616374206973206e6f74206960408201526a6e697469616c697a696e6760a81b606082015260800190565b6001600160a01b0386811682528516602082015260a06040820181905260009061294c90830186612347565b828103606084015261295e8186612347565b905082810360808401526129728185611f7e565b98975050505050505050565b60006020828403121561299057600080fd5b815161094a81611f0e565b600060033d11156129b45760046000803e5060005160e01c5b90565b600060443d10156129c55790565b6040516003193d81016004833e81513d6001600160401b0381602484011181841117156129f457505050505090565b8285019150815181811115612a0c5750505050505090565b843d8701016020828501011115612a265750505050505090565b612a3560208286010187611fd3565b509095945050505050565b60208082526028908201527f455243313135353a204552433131353552656365697665722072656a656374656040820152676420746f6b656e7360c01b606082015260800190565b7f416363657373436f6e74726f6c3a206163636f756e7420000000000000000000815260008351612ac0816017850160208801611f5a565b7001034b99036b4b9b9b4b733903937b6329607d1b6017918401918201528351612af1816028840160208801611f5a565b01602801949350505050565b6001600160a01b03868116825285166020820152604081018490526060810183905260a060808201819052600090612b3790830184611f7e565b979650505050505050565b8082028115828204841417610481576104816126c6565b600081612b6857612b686126c6565b506000190190565b81810381811115610481576104816126c6565b634e487b7160e01b600052603160045260246000fd5b601f8211156105dd57600081815260208120601f850160051c81016020861015612bc05750805b601f850160051c820191505b81811015610e9d57828155600101612bcc565b81516001600160401b03811115612bf857612bf8611fbd565b612c0c81612c0684546125cb565b84612b99565b602080601f831160018114612c415760008415612c295750858301515b600019600386901b1c1916600185901b178555610e9d565b600085815260208120601f198616915b82811015612c7057888601518255948401946001909101908401612c51565b5085821015612c8e5787850151600019600388901b60f8161c191681555b5050505050600190811b0190555056fe65d7a28e3265b37a6474929f336521b332c1681b933f6cb9f3376673440d862a9f2df0fed2c77648de5860a4cc508cd0818c85b8b8a1ab4ceeef8d981c8956a6a264697066735822122020beb254aeb96136c1db08b69cdbc2858c7d30c884953f20a13507b8ac53728e64736f6c63430008110033","linkReferences":{}},"methodIdentifiers":{"DEFAULT_ADMIN_ROLE()":"a217fddf","MINTER_ROLE()":"d5391393","PAUSER_ROLE()":"e63ab1e9","balanceOf(address,uint256)":"00fdd58e","balanceOfBatch(address[],uint256[])":"4e1273f4","burn(address,uint256,uint256)":"f5298aca","burnBatch(address,uint256[],uint256[])":"6b20c454","getRoleAdmin(bytes32)":"248a9ca3","getRoleMember(bytes32,uint256)":"9010d07c","getRoleMemberCount(bytes32)":"ca15c873","grantRole(bytes32,address)":"2f2ff15d","hasRole(bytes32,address)":"91d14854","initialize(string)":"f62d1888","isApprovedForAll(address,address)":"e985e9c5","mint(address,uint256,uint256,bytes)":"731133e9","mintBatch(address,uint256[],uint256[],bytes)":"1f7fdffa","pause()":"8456cb59","paused()":"5c975abb","renounceRole(bytes32,address)":"36568abe","revokeRole(bytes32,address)":"d547741f","safeBatchTransferFrom(address,address,uint256[],uint256[],bytes)":"2eb2c2d6","safeTransferFrom(address,address,uint256,uint256,bytes)":"f242432a","setApprovalForAll(address,bool)":"a22cb465","supportsInterface(bytes4)":"01ffc9a7","unpause()":"3f4ba83a","uri(uint256)":"0e89341c"},"id":389}