{"abi":[{"type":"constructor","inputs":[],"stateMutability":"nonpayable"},{"type":"function","name":"execute","inputs":[{"name":"_callId","type":"bytes32","internalType":"bytes32"},{"name":"_actions","type":"tuple[]","internalType":"struct Action[]","components":[{"name":"to","type":"address","internalType":"address"},{"name":"value","type":"uint256","internalType":"uint256"},{"name":"data","type":"bytes","internalType":"bytes"}]},{"name":"_allowFailureMap","type":"uint256","internalType":"uint256"}],"outputs":[{"name":"execResults","type":"bytes[]","internalType":"bytes[]"},{"name":"failureMap","type":"uint256","internalType":"uint256"}],"stateMutability":"nonpayable"},{"type":"function","name":"supportsInterface","inputs":[{"name":"_interfaceId","type":"bytes4","internalType":"bytes4"}],"outputs":[{"name":"","type":"bool","internalType":"bool"}],"stateMutability":"view"},{"type":"event","name":"Executed","inputs":[{"name":"actor","type":"address","indexed":true,"internalType":"address"},{"name":"callId","type":"bytes32","indexed":false,"internalType":"bytes32"},{"name":"actions","type":"tuple[]","indexed":false,"internalType":"struct Action[]","components":[{"name":"to","type":"address","internalType":"address"},{"name":"value","type":"uint256","internalType":"uint256"},{"name":"data","type":"bytes","internalType":"bytes"}]},{"name":"allowFailureMap","type":"uint256","indexed":false,"internalType":"uint256"},{"name":"failureMap","type":"uint256","indexed":false,"internalType":"uint256"},{"name":"execResults","type":"bytes[]","indexed":false,"internalType":"bytes[]"}],"anonymous":false},{"type":"error","name":"ActionFailed","inputs":[{"name":"index","type":"uint256","internalType":"uint256"}]},{"type":"error","name":"InsufficientGas","inputs":[]},{"type":"error","name":"ReentrantCall","inputs":[]},{"type":"error","name":"TooManyActions","inputs":[]}],"bytecode":{"object":"0x608060405234801561001057600080fd5b5061003a60017f4d6542319dfb3f7c8adbb488d7b4d7cf849381f14faf4b64de3ac05d08c0bdec55565b6107c3806100496000396000f3fe608060405234801561001057600080fd5b50600436106100365760003560e01c806301ffc9a71461003b578063c71bf32414610063575b600080fd5b61004e610049366004610381565b610084565b60405190151581526020015b60405180910390f35b610076610071366004610422565b6100bb565b60405161005a929190610663565b60006001600160e01b031982166331c6fcc960e21b14806100b557506301ffc9a760e01b6001600160e01b03198316145b92915050565b6060600060026100e97f4d6542319dfb3f7c8adbb488d7b4d7cf849381f14faf4b64de3ac05d08c0bdec5490565b03610107576040516306fda65d60e31b815260040160405180910390fd5b61013060027f4d6542319dfb3f7c8adbb488d7b4d7cf849381f14faf4b64de3ac05d08c0bdec55565b61010084511115610154576040516308e3b1eb60e11b815260040160405180910390fd5b835167ffffffffffffffff81111561016e5761016e6103b2565b6040519080825280602002602001820160405280156101a157816020015b606081526020019060019003908161018c5790505b50915060008060005b8651811015610304575a92506000808883815181106101cb576101cb610685565b6020026020010151600001516001600160a01b03168984815181106101f2576101f2610685565b6020026020010151602001518a858151811061021057610210610685565b602002602001015160400151604051610229919061069b565b60006040518083038185875af1925050503d8060008114610266576040519150601f19603f3d011682016040523d82523d6000602084013e61026b565b606091505b50915091505a9350816102dc57600160ff84161b88166102a55760405163a6a7dbbd60e01b81526004810184905260240160405180910390fd5b6102b06040866106b7565b8410156102d0576040516307099c5360e21b815260040160405180910390fd5b600160ff84161b861895505b808784815181106102ef576102ef610685565b602090810291909101015250506001016101aa565b50336001600160a01b03167fd4e57c2049f004fb297ef78591cd409503ceb6b2c722d7ffed032fc99e5f3b5888888887896040516103469594939291906106d9565b60405180910390a2505061037960017f4d6542319dfb3f7c8adbb488d7b4d7cf849381f14faf4b64de3ac05d08c0bdec55565b935093915050565b60006020828403121561039357600080fd5b81356001600160e01b0319811681146103ab57600080fd5b9392505050565b634e487b7160e01b600052604160045260246000fd5b6040516060810167ffffffffffffffff811182821017156103eb576103eb6103b2565b60405290565b604051601f8201601f1916810167ffffffffffffffff8111828210171561041a5761041a6103b2565b604052919050565b60008060006060848603121561043757600080fd5b8335925067ffffffffffffffff806020860135111561045557600080fd5b6020850135850186601f82011261046b57600080fd5b818135111561047c5761047c6103b2565b61048c6020823560051b016103f1565b81358082526020808301929160051b840101898111156104ab57600080fd5b602084015b818110156105a45785813511156104c657600080fd5b80358501601f196060828e03820112156104df57600080fd5b6104e76103c8565b60208301356001600160a01b038116811461050157600080fd5b815260408301356020820152606083013589101561051e57600080fd5b6060830135830192508d603f84011261053657600080fd5b60208301358981111561054b5761054b6103b2565b61055c602084601f840116016103f1565b92508083528e604082860101111561057357600080fd5b80604085016020850137600060208285010152508160408201528087525050506020840193506020810190506104b0565b505080955050505050604084013590509250925092565b60005b838110156105d65781810151838201526020016105be565b50506000910152565b600081518084526105f78160208601602086016105bb565b601f01601f19169290920160200192915050565b600082825180855260208086019550808260051b84010181860160005b8481101561065657601f198684030189526106448383516105df565b98840198925090830190600101610628565b5090979650505050505050565b604081526000610676604083018561060b565b90508260208301529392505050565b634e487b7160e01b600052603260045260246000fd5b600082516106ad8184602087016105bb565b9190910192915050565b6000826106d457634e487b7160e01b600052601260045260246000fd5b500490565b600060a08201878352602060a08185015281885180845260c08601915060c08160051b8701019350828a0160005b8281101561075e5787860360bf19018452815180516001600160a01b03168752858101518688015260409081015160609188018290529061074a818901836105df565b975050509284019290840190600101610707565b50505050508560408401528460608401528281036080840152610781818561060b565b9897505050505050505056fea2646970667358221220efd1eda219bb2fc86c9360bacf05eb9cc1bfa33ecfe9342403f5ddb537604ef364736f6c63430008110033","linkReferences":{}},"methodIdentifiers":{"execute(bytes32,(address,uint256,bytes)[],uint256)":"c71bf324","supportsInterface(bytes4)":"01ffc9a7"},"id":1}