{"abi":[{"type":"function","name":"consumeGas","inputs":[{"name":"count","type":"uint256","internalType":"uint256"}],"outputs":[],"stateMutability":"nonpayable"},{"type":"function","name":"store","inputs":[{"name":"","type":"uint256","internalType":"uint256"}],"outputs":[{"name":"","type":"uint256","internalType":"uint256"}],"stateMutability":"view"}],"bytecode":{"object":"0x608060405234801561001057600080fd5b5061011a806100206000396000f3fe6080604052348015600f57600080fd5b506004361060325760003560e01c80636057361d146037578063a329e8de146066575b600080fd5b6054604236600460a6565b60006020819052908152604090205481565b60405190815260200160405180910390f35b6075607136600460a6565b6077565b005b60005b8181101560a25760008181526020819052604090206001905580609b8160be565b915050607a565b5050565b60006020828403121560b757600080fd5b5035919050565b60006001820160dd57634e487b7160e01b600052601160045260246000fd5b506001019056fea26469706673582212201347533568c01dd7a0dcea6d02e3b5f53d68bb11861bd2b2f0c1e0b9d93fd5b064736f6c63430008110033","linkReferences":{}},"methodIdentifiers":{"consumeGas(uint256)":"a329e8de","store(uint256)":"6057361d"},"id":229}