{"abi":[{"type":"function","name":"protocolVersion","inputs":[],"outputs":[{"name":"","type":"uint8[3]","internalType":"uint8[3]"}],"stateMutability":"pure"}],"bytecode":{"object":"0x608060405234801561001057600080fd5b5060f58061001f6000396000f3fe6080604052348015600f57600080fd5b506004361060285760003560e01c80632ae9c60014602d575b600080fd5b60336047565b604051603e9190608d565b60405180910390f35b604d606f565b5060408051606081018252600181526004602082015260009181019190915290565b60405180606001604052806003906020820280368337509192915050565b60608101818360005b600381101560b657815160ff168352602092830192909101906001016096565b5050509291505056fea2646970667358221220fcbab1c3ebabf2a2fefa7e51734699921e65e274f84931a263f47dc1f7620f9964736f6c63430008110033","linkReferences":{}},"methodIdentifiers":{"protocolVersion()":"2ae9c600"},"id":226}