{"abi":[{"type":"function","name":"initialize","inputs":[{"name":"_dao","type":"address","internalType":"contract IDAO"}],"outputs":[],"stateMutability":"nonpayable"},{"type":"function","name":"state1","inputs":[],"outputs":[{"name":"","type":"uint256","internalType":"uint256"}],"stateMutability":"view"}],"bytecode":{"object":"0x608060405234801561001057600080fd5b5060ca8061001f6000396000f3fe6080604052348015600f57600080fd5b506004361060325760003560e01c80636accab8c146037578063c4d66de8146051575b600080fd5b603f60005481565b60405190815260200160405180910390f35b6064605c3660046066565b506001600055565b005b600060208284031215607757600080fd5b81356001600160a01b0381168114608d57600080fd5b939250505056fea26469706673582212209248d367b44f5ecfb10ab43f97c918091bfe15bcd0a53299398d65027ac5cfec64736f6c63430008110033","linkReferences":{}},"methodIdentifiers":{"initialize(address)":"c4d66de8","state1()":"6accab8c"},"id":232}