{"abi":[{"type":"constructor","inputs":[{"name":"name_","type":"string","internalType":"string"},{"name":"symbol_","type":"string","internalType":"string"},{"name":"defaultOperators_","type":"address[]","internalType":"address[]"}],"stateMutability":"nonpayable"},{"type":"function","name":"allowance","inputs":[{"name":"holder","type":"address","internalType":"address"},{"name":"spender","type":"address","internalType":"address"}],"outputs":[{"name":"","type":"uint256","internalType":"uint256"}],"stateMutability":"view"},{"type":"function","name":"approve","inputs":[{"name":"spender","type":"address","internalType":"address"},{"name":"value","type":"uint256","internalType":"uint256"}],"outputs":[{"name":"","type":"bool","internalType":"bool"}],"stateMutability":"nonpayable"},{"type":"function","name":"authorizeOperator","inputs":[{"name":"operator","type":"address","internalType":"address"}],"outputs":[],"stateMutability":"nonpayable"},{"type":"function","name":"balanceOf","inputs":[{"name":"tokenHolder","type":"address","internalType":"address"}],"outputs":[{"name":"","type":"uint256","internalType":"uint256"}],"stateMutability":"view"},{"type":"function","name":"burn","inputs":[{"name":"amount","type":"uint256","internalType":"uint256"},{"name":"data","type":"bytes","internalType":"bytes"}],"outputs":[],"stateMutability":"nonpayable"},{"type":"function","name":"decimals","inputs":[],"outputs":[{"name":"","type":"uint8","internalType":"uint8"}],"stateMutability":"pure"},{"type":"function","name":"defaultOperators","inputs":[],"outputs":[{"name":"","type":"address[]","internalType":"address[]"}],"stateMutability":"view"},{"type":"function","name":"granularity","inputs":[],"outputs":[{"name":"","type":"uint256","internalType":"uint256"}],"stateMutability":"view"},{"type":"function","name":"isOperatorFor","inputs":[{"name":"operator","type":"address","internalType":"address"},{"name":"tokenHolder","type":"address","internalType":"address"}],"outputs":[{"name":"","type":"bool","internalType":"bool"}],"stateMutability":"view"},{"type":"function","name":"name","inputs":[],"outputs":[{"name":"","type":"string","internalType":"string"}],"stateMutability":"view"},{"type":"function","name":"operatorBurn","inputs":[{"name":"account","type":"address","internalType":"address"},{"name":"amount","type":"uint256","internalType":"uint256"},{"name":"data","type":"bytes","internalType":"bytes"},{"name":"operatorData","type":"bytes","internalType":"bytes"}],"outputs":[],"stateMutability":"nonpayable"},{"type":"function","name":"operatorSend","inputs":[{"name":"sender","type":"address","internalType":"address"},{"name":"recipient","type":"address","internalType":"address"},{"name":"amount","type":"uint256","internalType":"uint256"},{"name":"data","type":"bytes","internalType":"bytes"},{"name":"operatorData","type":"bytes","internalType":"bytes"}],"outputs":[],"stateMutability":"nonpayable"},{"type":"function","name":"revokeOperator","inputs":[{"name":"operator","type":"address","internalType":"address"}],"outputs":[],"stateMutability":"nonpayable"},{"type":"function","name":"send","inputs":[{"name":"recipient","type":"address","internalType":"address"},{"name":"amount","type":"uint256","internalType":"uint256"},{"name":"data","type":"bytes","internalType":"bytes"}],"outputs":[],"stateMutability":"nonpayable"},{"type":"function","name":"symbol","inputs":[],"outputs":[{"name":"","type":"string","internalType":"string"}],"stateMutability":"view"},{"type":"function","name":"totalSupply","inputs":[],"outputs":[{"name":"","type":"uint256","internalType":"uint256"}],"stateMutability":"view"},{"type":"function","name":"transfer","inputs":[{"name":"recipient","type":"address","internalType":"address"},{"name":"amount","type":"uint256","internalType":"uint256"}],"outputs":[{"name":"","type":"bool","internalType":"bool"}],"stateMutability":"nonpayable"},{"type":"function","name":"transferFrom","inputs":[{"name":"holder","type":"address","internalType":"address"},{"name":"recipient","type":"address","internalType":"address"},{"name":"amount","type":"uint256","internalType":"uint256"}],"outputs":[{"name":"","type":"bool","internalType":"bool"}],"stateMutability":"nonpayable"},{"type":"event","name":"Approval","inputs":[{"name":"owner","type":"address","indexed":true,"internalType":"address"},{"name":"spender","type":"address","indexed":true,"internalType":"address"},{"name":"value","type":"uint256","indexed":false,"internalType":"uint256"}],"anonymous":false},{"type":"event","name":"AuthorizedOperator","inputs":[{"name":"operator","type":"address","indexed":true,"internalType":"address"},{"name":"tokenHolder","type":"address","indexed":true,"internalType":"address"}],"anonymous":false},{"type":"event","name":"Burned","inputs":[{"name":"operator","type":"address","indexed":true,"internalType":"address"},{"name":"from","type":"address","indexed":true,"internalType":"address"},{"name":"amount","type":"uint256","indexed":false,"internalType":"uint256"},{"name":"data","type":"bytes","indexed":false,"internalType":"bytes"},{"name":"operatorData","type":"bytes","indexed":false,"internalType":"bytes"}],"anonymous":false},{"type":"event","name":"Minted","inputs":[{"name":"operator","type":"address","indexed":true,"internalType":"address"},{"name":"to","type":"address","indexed":true,"internalType":"address"},{"name":"amount","type":"uint256","indexed":false,"internalType":"uint256"},{"name":"data","type":"bytes","indexed":false,"internalType":"bytes"},{"name":"operatorData","type":"bytes","indexed":false,"internalType":"bytes"}],"anonymous":false},{"type":"event","name":"RevokedOperator","inputs":[{"name":"operator","type":"address","indexed":true,"internalType":"address"},{"name":"tokenHolder","type":"address","indexed":true,"internalType":"address"}],"anonymous":false},{"type":"event","name":"Sent","inputs":[{"name":"operator","type":"address","indexed":true,"internalType":"address"},{"name":"from","type":"address","indexed":true,"internalType":"address"},{"name":"to","type":"address","indexed":true,"internalType":"address"},{"name":"amount","type":"uint256","indexed":false,"internalType":"uint256"},{"name":"data","type":"bytes","indexed":false,"internalType":"bytes"},{"name":"operatorData","type":"bytes","indexed":false,"internalType":"bytes"}],"anonymous":false},{"type":"event","name":"Transfer","inputs":[{"name":"from","type":"address","indexed":true,"internalType":"address"},{"name":"to","type":"address","indexed":true,"internalType":"address"},{"name":"value","type":"uint256","indexed":false,"internalType":"uint256"}],"anonymous":false}],"bytecode":{"object":"0x60806040523480156200001157600080fd5b5060405162001c2938038062001c2983398101604081905262000034916200035e565b600262000042848262000504565b50600362000051838262000504565b5080516200006790600490602084019062000207565b5060005b8151811015620000d757600160056000848481518110620000905762000090620005d0565b6020908102919091018101516001600160a01b03168252810191909152604001600020805460ff191691151591909117905580620000ce81620005e6565b9150506200006b565b506040516329965a1d60e01b815230600482018190527fac7fbab5f54a3ca8194167523c6753bfeb96a445279294b6125b68cce217705460248301526044820152731820a4b7618bde71dce8cdc73aab6c95905fad24906329965a1d90606401600060405180830381600087803b1580156200015257600080fd5b505af115801562000167573d6000803e3d6000fd5b50506040516329965a1d60e01b815230600482018190527faea199e31a596269b42cdafd93407f14436db6e4cad65417994c2eb37381e05a60248301526044820152731820a4b7618bde71dce8cdc73aab6c95905fad2492506329965a1d9150606401600060405180830381600087803b158015620001e557600080fd5b505af1158015620001fa573d6000803e3d6000fd5b505050505050506200060e565b8280548282559060005260206000209081019282156200025f579160200282015b828111156200025f57825182546001600160a01b0319166001600160a01b0390911617825560209092019160019091019062000228565b506200026d92915062000271565b5090565b5b808211156200026d576000815560010162000272565b634e487b7160e01b600052604160045260246000fd5b604051601f8201601f191681016001600160401b0381118282101715620002c957620002c962000288565b604052919050565b600082601f830112620002e357600080fd5b81516001600160401b03811115620002ff57620002ff62000288565b602062000315601f8301601f191682016200029e565b82815285828487010111156200032a57600080fd5b60005b838110156200034a5785810183015182820184015282016200032d565b506000928101909101919091529392505050565b6000806000606084860312156200037457600080fd5b83516001600160401b03808211156200038c57600080fd5b6200039a87838801620002d1565b9450602091508186015181811115620003b257600080fd5b620003c088828901620002d1565b945050604086015181811115620003d657600080fd5b8601601f81018813620003e857600080fd5b805182811115620003fd57620003fd62000288565b8060051b9250620004108484016200029e565b818152928201840192848101908a8511156200042b57600080fd5b928501925b848410156200046557835192506001600160a01b0383168314620004545760008081fd5b828252928501929085019062000430565b8096505050505050509250925092565b600181811c908216806200048a57607f821691505b602082108103620004ab57634e487b7160e01b600052602260045260246000fd5b50919050565b601f821115620004ff57600081815260208120601f850160051c81016020861015620004da5750805b601f850160051c820191505b81811015620004fb57828155600101620004e6565b5050505b505050565b81516001600160401b0381111562000520576200052062000288565b620005388162000531845462000475565b84620004b1565b602080601f831160018114620005705760008415620005575750858301515b600019600386901b1c1916600185901b178555620004fb565b600085815260208120601f198616915b82811015620005a15788860151825594840194600190910190840162000580565b5085821015620005c05787850151600019600388901b60f8161c191681555b5050505050600190811b01905550565b634e487b7160e01b600052603260045260246000fd5b6000600182016200060757634e487b7160e01b600052601160045260246000fd5b5060010190565b61160b806200061e6000396000f3fe608060405234801561001057600080fd5b50600436106101165760003560e01c8063959b8c3f116100a2578063d95b637111610071578063d95b63711461022b578063dd62ed3e1461023e578063fad8b32a14610277578063fc673c4f1461028a578063fe9d93031461029d57600080fd5b8063959b8c3f146101ea57806395d89b41146101fd5780639bd9bbc614610205578063a9059cbb1461021857600080fd5b806323b872dd116100e957806323b872dd14610183578063313ce56714610196578063556f0dc7146101a557806362ad1b83146101ac57806370a08231146101c157600080fd5b806306e485381461011b57806306fdde0314610139578063095ea7b31461014e57806318160ddd14610171575b600080fd5b6101236102b0565b6040516101309190611090565b60405180910390f35b610141610312565b6040516101309190611123565b61016161015c36600461114e565b61039b565b6040519015158152602001610130565b6001545b604051908152602001610130565b61016161019136600461117a565b6103b5565b60405160128152602001610130565b6001610175565b6101bf6101ba36600461125e565b6103fb565b005b6101756101cf3660046112f1565b6001600160a01b031660009081526020819052604090205490565b6101bf6101f83660046112f1565b610440565b61014161055d565b6101bf61021336600461130e565b61056c565b61016161022636600461114e565b61058f565b610161610239366004611367565b6105c7565b61017561024c366004611367565b6001600160a01b03918216600090815260086020908152604080832093909416825291909152205490565b6101bf6102853660046112f1565b610669565b6101bf6102983660046113a0565b610784565b6101bf6102ab366004611420565b6107bc565b6060600480548060200260200160405190810160405280929190818152602001828054801561030857602002820191906000526020600020905b81546001600160a01b031681526001909101906020018083116102ea575b5050505050905090565b60606002805461032190611467565b80601f016020809104026020016040519081016040528092919081815260200182805461034d90611467565b80156103085780601f1061036f57610100808354040283529160200191610308565b820191906000526020600020905b81548152906001019060200180831161037d57509395945050505050565b6000336103a98185856107db565b60019150505b92915050565b6000336103c3858285610902565b6103f08585856040518060200160405280600081525060405180602001604052806000815250600061098e565b506001949350505050565b61040533866105c7565b61042a5760405162461bcd60e51b8152600401610421906114a1565b60405180910390fd5b6104398585858585600161098e565b5050505050565b6001600160a01b03811633036104a45760405162461bcd60e51b8152602060048201526024808201527f4552433737373a20617574686f72697a696e672073656c66206173206f70657260448201526330ba37b960e11b6064820152608401610421565b6001600160a01b03811660009081526005602052604090205460ff16156104f5573360009081526007602090815260408083206001600160a01b03851684529091529020805460ff19169055610524565b3360009081526006602090815260408083206001600160a01b03851684529091529020805460ff191660011790555b60405133906001600160a01b038316907ff4caeb2d6ca8932a215a353d0703c326ec2d81fc68170f320eb2ab49e9df61f990600090a350565b60606003805461032190611467565b61058a3384848460405180602001604052806000815250600161098e565b505050565b60006105be3384846040518060200160405280600081525060405180602001604052806000815250600061098e565b50600192915050565b6000816001600160a01b0316836001600160a01b0316148061063257506001600160a01b03831660009081526005602052604090205460ff16801561063257506001600160a01b0380831660009081526007602090815260408083209387168352929052205460ff16155b8061066257506001600160a01b0380831660009081526006602090815260408083209387168352929052205460ff165b9392505050565b336001600160a01b038216036106cb5760405162461bcd60e51b815260206004820152602160248201527f4552433737373a207265766f6b696e672073656c66206173206f70657261746f6044820152603960f91b6064820152608401610421565b6001600160a01b03811660009081526005602052604090205460ff161561071f573360009081526007602090815260408083206001600160a01b03851684529091529020805460ff1916600117905561074b565b3360009081526006602090815260408083206001600160a01b03851684529091529020805460ff191690555b60405133906001600160a01b038316907f50546e66e5f44d728365dc3908c63bc5cfeeab470722c1677e3073a6ac294aa190600090a350565b61078e33856105c7565b6107aa5760405162461bcd60e51b8152600401610421906114a1565b6107b684848484610a8a565b50505050565b6107d733838360405180602001604052806000815250610a8a565b5050565b6001600160a01b03831661083f5760405162461bcd60e51b815260206004820152602560248201527f4552433737373a20617070726f76652066726f6d20746865207a65726f206164604482015264647265737360d81b6064820152608401610421565b6001600160a01b0382166108a15760405162461bcd60e51b815260206004820152602360248201527f4552433737373a20617070726f766520746f20746865207a65726f206164647260448201526265737360e81b6064820152608401610421565b6001600160a01b0383811660008181526008602090815260408083209487168084529482529182902085905590518481527f8c5be1e5ebec7d5bd14f71427d1e84f3dd0314c0f7b2291e5b200ac8c7c3b925910160405180910390a3505050565b6001600160a01b0383811660009081526008602090815260408083209386168352929052205460001981146107b657818110156109815760405162461bcd60e51b815260206004820152601e60248201527f4552433737373a20696e73756666696369656e7420616c6c6f77616e636500006044820152606401610421565b6107b684848484036107db565b6001600160a01b0386166109f35760405162461bcd60e51b815260206004820152602660248201527f4552433737373a207472616e736665722066726f6d20746865207a65726f206160448201526564647265737360d01b6064820152608401610421565b6001600160a01b038516610a555760405162461bcd60e51b8152602060048201526024808201527f4552433737373a207472616e7366657220746f20746865207a65726f206164646044820152637265737360e01b6064820152608401610421565b33610a64818888888888610c3e565b610a72818888888888610d65565b610a8181888888888888610ecb565b50505050505050565b6001600160a01b038416610aeb5760405162461bcd60e51b815260206004820152602260248201527f4552433737373a206275726e2066726f6d20746865207a65726f206164647265604482015261737360f01b6064820152608401610421565b33610afb81866000878787610c3e565b6001600160a01b03851660009081526020819052604090205484811015610b705760405162461bcd60e51b815260206004820152602360248201527f4552433737373a206275726e20616d6f756e7420657863656564732062616c616044820152626e636560e81b6064820152608401610421565b6001600160a01b0386166000908152602081905260408120868303905560018054879290610b9f908490611503565b92505081905550856001600160a01b0316826001600160a01b03167fa78a9be3a7b862d26933ad85fb11d80ef66b8f972d7cbba06621d583943a4098878787604051610bed93929190611516565b60405180910390a36040518581526000906001600160a01b038816907fddf252ad1be2c89b69c2b068fc378daa952ba7f163c4a11628f55a4df523b3ef9060200160405180910390a3505050505050565b60405163555ddc6560e11b81526001600160a01b03861660048201527f29ddb589b1fb5fc7cf394961c1adf5f8c6454761adf795e67fe149f658abe8956024820152600090731820a4b7618bde71dce8cdc73aab6c95905fad249063aabbb8ca90604401602060405180830381865afa158015610cbf573d6000803e3d6000fd5b505050506040513d601f19601f82011682018060405250810190610ce3919061154b565b90506001600160a01b03811615610a8157604051633ad5cbc160e11b81526001600160a01b038216906375ab978290610d2a908a908a908a908a908a908a90600401611568565b600060405180830381600087803b158015610d4457600080fd5b505af1158015610d58573d6000803e3d6000fd5b5050505050505050505050565b6001600160a01b03851660009081526020819052604090205483811015610dde5760405162461bcd60e51b815260206004820152602760248201527f4552433737373a207472616e7366657220616d6f756e7420657863656564732060448201526662616c616e636560c81b6064820152608401610421565b6001600160a01b03808716600090815260208190526040808220878503905591871681529081208054869290610e159084906115c2565b92505081905550846001600160a01b0316866001600160a01b0316886001600160a01b03167f06b541ddaa720db2b10a4d0cdac39b8d360425fc073085fac19bc82614677987878787604051610e6d93929190611516565b60405180910390a4846001600160a01b0316866001600160a01b03167fddf252ad1be2c89b69c2b068fc378daa952ba7f163c4a11628f55a4df523b3ef86604051610eba91815260200190565b60405180910390a350505050505050565b60405163555ddc6560e11b81526001600160a01b03861660048201527fb281fc8c12954d22544db45de3159a39272895b169a852b314f9cc762e44c53b6024820152600090731820a4b7618bde71dce8cdc73aab6c95905fad249063aabbb8ca90604401602060405180830381865afa158015610f4c573d6000803e3d6000fd5b505050506040513d601f19601f82011682018060405250810190610f70919061154b565b90506001600160a01b03811615610fec576040516223de2960e01b81526001600160a01b038216906223de2990610fb5908b908b908b908b908b908b90600401611568565b600060405180830381600087803b158015610fcf57600080fd5b505af1158015610fe3573d6000803e3d6000fd5b50505050611086565b8115611086576001600160a01b0386163b156110865760405162461bcd60e51b815260206004820152604d60248201527f4552433737373a20746f6b656e20726563697069656e7420636f6e747261637460448201527f20686173206e6f20696d706c656d656e74657220666f7220455243373737546f60648201526c1ad95b9cd49958da5c1a595b9d609a1b608482015260a401610421565b5050505050505050565b6020808252825182820181905260009190848201906040850190845b818110156110d15783516001600160a01b0316835292840192918401916001016110ac565b50909695505050505050565b6000815180845260005b81811015611103576020818501810151868301820152016110e7565b506000602082860101526020601f19601f83011685010191505092915050565b60208152600061066260208301846110dd565b6001600160a01b038116811461114b57600080fd5b50565b6000806040838503121561116157600080fd5b823561116c81611136565b946020939093013593505050565b60008060006060848603121561118f57600080fd5b833561119a81611136565b925060208401356111aa81611136565b929592945050506040919091013590565b634e487b7160e01b600052604160045260246000fd5b600082601f8301126111e257600080fd5b813567ffffffffffffffff808211156111fd576111fd6111bb565b604051601f8301601f19908116603f01168101908282118183101715611225576112256111bb565b8160405283815286602085880101111561123e57600080fd5b836020870160208301376000602085830101528094505050505092915050565b600080600080600060a0868803121561127657600080fd5b853561128181611136565b9450602086013561129181611136565b935060408601359250606086013567ffffffffffffffff808211156112b557600080fd5b6112c189838a016111d1565b935060808801359150808211156112d757600080fd5b506112e4888289016111d1565b9150509295509295909350565b60006020828403121561130357600080fd5b813561066281611136565b60008060006060848603121561132357600080fd5b833561132e81611136565b925060208401359150604084013567ffffffffffffffff81111561135157600080fd5b61135d868287016111d1565b9150509250925092565b6000806040838503121561137a57600080fd5b823561138581611136565b9150602083013561139581611136565b809150509250929050565b600080600080608085870312156113b657600080fd5b84356113c181611136565b935060208501359250604085013567ffffffffffffffff808211156113e557600080fd5b6113f1888389016111d1565b9350606087013591508082111561140757600080fd5b50611414878288016111d1565b91505092959194509250565b6000806040838503121561143357600080fd5b82359150602083013567ffffffffffffffff81111561145157600080fd5b61145d858286016111d1565b9150509250929050565b600181811c9082168061147b57607f821691505b60208210810361149b57634e487b7160e01b600052602260045260246000fd5b50919050565b6020808252602c908201527f4552433737373a2063616c6c6572206973206e6f7420616e206f70657261746f60408201526b39103337b9103437b63232b960a11b606082015260800190565b634e487b7160e01b600052601160045260246000fd5b818103818111156103af576103af6114ed565b83815260606020820152600061152f60608301856110dd565b828103604084015261154181856110dd565b9695505050505050565b60006020828403121561155d57600080fd5b815161066281611136565b6001600160a01b0387811682528681166020830152851660408201526060810184905260c0608082018190526000906115a3908301856110dd565b82810360a08401526115b581856110dd565b9998505050505050505050565b808201808211156103af576103af6114ed56fea26469706673582212206f4933ce9f17acb455035581c19b0e00d53b3597b508aca5380fab52c663c17d64736f6c63430008110033","linkReferences":{}},"methodIdentifiers":{"allowance(address,address)":"dd62ed3e","approve(address,uint256)":"095ea7b3","authorizeOperator(address)":"959b8c3f","balanceOf(address)":"70a08231","burn(uint256,bytes)":"fe9d9303","decimals()":"313ce567","defaultOperators()":"06e48538","granularity()":"556f0dc7","isOperatorFor(address,address)":"d95b6371","name()":"06fdde03","operatorBurn(address,uint256,bytes,bytes)":"fc673c4f","operatorSend(address,address,uint256,bytes,bytes)":"62ad1b83","revokeOperator(address)":"fad8b32a","send(address,uint256,bytes)":"9bd9bbc6","symbol()":"95d89b41","totalSupply()":"18160ddd","transfer(address,uint256)":"a9059cbb","transferFrom(address,address,uint256)":"23b872dd"},"id":599}