{"abi":[{"type":"function","name":"handleCallback","inputs":[{"name":"selector","type":"bytes4","internalType":"bytes4"},{"name":"data","type":"bytes","internalType":"bytes"}],"outputs":[{"name":"","type":"bytes4","internalType":"bytes4"}],"stateMutability":"nonpayable"},{"type":"function","name":"registerCallback","inputs":[{"name":"selector","type":"bytes4","internalType":"bytes4"},{"name":"magicNumber","type":"bytes4","internalType":"bytes4"}],"outputs":[],"stateMutability":"nonpayable"},{"type":"event","name":"CallbackReceived","inputs":[{"name":"sender","type":"address","indexed":false,"internalType":"address"},{"name":"sig","type":"bytes4","indexed":true,"internalType":"bytes4"},{"name":"data","type":"bytes","indexed":false,"internalType":"bytes"}],"anonymous":false},{"type":"error","name":"UnknownCallback","inputs":[{"name":"callbackSelector","type":"bytes4","internalType":"bytes4"},{"name":"magicNumber","type":"bytes4","internalType":"bytes4"}]}],"bytecode":{"object":"0x608060405234801561001057600080fd5b50610320806100206000396000f3fe608060405234801561001057600080fd5b50600436106100365760003560e01c806373be85531461003b578063fd292c5e1461006b575b600080fd5b61004e610049366004610197565b6100a9565b6040516001600160e01b0319909116815260200160405180910390f35b6100a7610079366004610259565b6001600160e01b031982166000908152602081905260409020805463ffffffff191660e083901c1790555050565b005b6000806100b684846100be565b949350505050565b6001600160e01b0319808316600090815260208190526040812054909160e09190911b90811661011957604051634aa318c360e01b81526001600160e01b031980861660048301528216602482015260440160405180910390fd5b836001600160e01b0319167f4792cb6e46e49876374bea490ba23274bacea6b84c216a64f47abab54027589b338560405161015592919061028c565b60405180910390a29392505050565b80356001600160e01b03198116811461017c57600080fd5b919050565b634e487b7160e01b600052604160045260246000fd5b600080604083850312156101aa57600080fd5b6101b383610164565b9150602083013567ffffffffffffffff808211156101d057600080fd5b818501915085601f8301126101e457600080fd5b8135818111156101f6576101f6610181565b604051601f8201601f19908116603f0116810190838211818310171561021e5761021e610181565b8160405282815288602084870101111561023757600080fd5b8260208601602083013760006020848301015280955050505050509250929050565b6000806040838503121561026c57600080fd5b61027583610164565b915061028360208401610164565b90509250929050565b60018060a01b038316815260006020604081840152835180604085015260005b818110156102c8578581018301518582016060015282016102ac565b506000606082860101526060601f19601f83011685010192505050939250505056fea26469706673582212200630d891642fca58c029a2af162f2192878e2abbb0c83389df4e44d9276b1ed364736f6c63430008110033","linkReferences":{}},"methodIdentifiers":{"handleCallback(bytes4,bytes)":"73be8553","registerCallback(bytes4,bytes4)":"fd292c5e"},"id":309}