{"abi":[{"type":"constructor","inputs":[{"name":"implementation","type":"address","internalType":"address"}],"stateMutability":"nonpayable"},{"type":"function","name":"implementation","inputs":[],"outputs":[{"name":"","type":"address","internalType":"address"}],"stateMutability":"view"},{"type":"function","name":"prepareInstallation","inputs":[{"name":"_dao","type":"address","internalType":"address"},{"name":"","type":"bytes","internalType":"bytes"}],"outputs":[{"name":"plugin","type":"address","internalType":"address"},{"name":"preparedSetupData","type":"tuple","internalType":"struct IPluginSetup.PreparedSetupData","components":[{"name":"helpers","type":"address[]","internalType":"address[]"},{"name":"permissions","type":"tuple[]","internalType":"struct PermissionLib.MultiTargetPermission[]","components":[{"name":"operation","type":"uint8","internalType":"enum PermissionLib.Operation"},{"name":"where","type":"address","internalType":"address"},{"name":"who","type":"address","internalType":"address"},{"name":"condition","type":"address","internalType":"address"},{"name":"permissionId","type":"bytes32","internalType":"bytes32"}]}]}],"stateMutability":"nonpayable"},{"type":"function","name":"prepareUninstallation","inputs":[{"name":"_dao","type":"address","internalType":"address"},{"name":"_payload","type":"tuple","internalType":"struct IPluginSetup.SetupPayload","components":[{"name":"plugin","type":"address","internalType":"address"},{"name":"currentHelpers","type":"address[]","internalType":"address[]"},{"name":"data","type":"bytes","internalType":"bytes"}]}],"outputs":[{"name":"permissions","type":"tuple[]","internalType":"struct PermissionLib.MultiTargetPermission[]","components":[{"name":"operation","type":"uint8","internalType":"enum PermissionLib.Operation"},{"name":"where","type":"address","internalType":"address"},{"name":"who","type":"address","internalType":"address"},{"name":"condition","type":"address","internalType":"address"},{"name":"permissionId","type":"bytes32","internalType":"bytes32"}]}],"stateMutability":"nonpayable"},{"type":"function","name":"prepareUpdate","inputs":[{"name":"_dao","type":"address","internalType":"address"},{"name":"_fromBuild","type":"uint16","internalType":"uint16"},{"name":"_payload","type":"tuple","internalType":"struct IPluginSetup.SetupPayload","components":[{"name":"plugin","type":"address","internalType":"address"},{"name":"currentHelpers","type":"address[]","internalType":"address[]"},{"name":"data","type":"bytes","internalType":"bytes"}]}],"outputs":[{"name":"","type":"bytes","internalType":"bytes"},{"name":"","type":"tuple","internalType":"struct IPluginSetup.PreparedSetupData","components":[{"name":"helpers","type":"address[]","internalType":"address[]"},{"name":"permissions","type":"tuple[]","internalType":"struct PermissionLib.MultiTargetPermission[]","components":[{"name":"operation","type":"uint8","internalType":"enum PermissionLib.Operation"},{"name":"where","type":"address","internalType":"address"},{"name":"who","type":"address","internalType":"address"},{"name":"condition","type":"address","internalType":"address"},{"name":"permissionId","type":"bytes32","internalType":"bytes32"}]}]}],"stateMutability":"nonpayable"},{"type":"function","name":"protocolVersion","inputs":[],"outputs":[{"name":"","type":"uint8[3]","internalType":"uint8[3]"}],"stateMutability":"pure"},{"type":"function","name":"supportsInterface","inputs":[{"name":"_interfaceId","type":"bytes4","internalType":"bytes4"}],"outputs":[{"name":"","type":"bool","internalType":"bool"}],"stateMutability":"view"},{"type":"error","name":"ConflictingValues","inputs":[]},{"type":"error","name":"NonUpgradeablePlugin","inputs":[]}],"bytecode":{"object":"0x60a060405234801561001057600080fd5b506040516112c73803806112c783398101604081905261002f91610040565b6001600160a01b0316608052610070565b60006020828403121561005257600080fd5b81516001600160a01b038116811461006957600080fd5b9392505050565b6080516112366100916000396000818160c1015261025701526112366000f3fe60806040523480156200001157600080fd5b50600436106200006a5760003560e01c806301ffc9a7146200006f5780632ae9c600146200009b5780635c60da1b14620000b45780639cb0a12414620000ec578063a8a9c29e1462000112578063f10832f11462000139575b600080fd5b6200008662000080366004620005e9565b62000160565b60405190151581526020015b60405180910390f35b620000a5620001b3565b60405162000092919062000615565b6040516001600160a01b037f000000000000000000000000000000000000000000000000000000000000000016815260200162000092565b62000103620000fd3660046200067b565b620001df565b6040516200009291906200074c565b620001296200012336600462000799565b620001f8565b60405162000092929190620008e8565b620001506200014a36600462000930565b62000231565b60405162000092929190620009fe565b60006001600160e01b0319821663099718b560e41b14806200019157506001600160e01b03198216621574e360e91b145b80620001ad57506301ffc9a760e01b6001600160e01b03198316145b92915050565b620001bd620005bd565b5060408051606081018252600181526004602082015260009181019190915290565b6060620001f1600560066001620002ab565b9392505050565b606062000218604051806040016040528060608152602001606081525090565b60405163a112810160e01b815260040160405180910390fd5b600062000251604051806040016040528060608152602001606081525090565b6200027d7f00000000000000000000000000000000000000000000000000000000000000008562000444565b91506200028b6001620004bd565b81526200029d600560066000620002ab565b602082015290939092509050565b6060826001600160a01b0316846001600160a01b03161115620002e157604051633a4013cd60e21b815260040160405180910390fd5b620002ed848462000a42565b6001600160a01b031667ffffffffffffffff8111156200031157620003116200091a565b6040519080825280602002602001820160405280156200036c57816020015b6040805160a081018252600080825260208083018290529282018190526060820181905260808201528252600019909201910181620003305790505b509050835b836001600160a01b0316816001600160a01b031610156200043c576040518060a00160405280846002811115620003ac57620003ac620006cf565b81526001600160a01b038316602082018190526040820152600060608201527fa280eec51ab8e1bc4b6b0c1b7f1bde785761b787a49db404e3e9338ed9b016ef60809091015282620003ff878462000a42565b6001600160a01b0316815181106200041b576200041b62000a6c565b60200260200101819052508080620004339062000a82565b91505062000371565b509392505050565b6040516001600160a01b0382166024820152600090620001f19084907fc4d66de8473e8f74cb05df264ee8262da16b56717ef1f05d73bfdcea3adc85e59060440160408051601f198184030181529190526020810180516001600160e01b03166001600160e01b03199093169290921790915262000581565b6060816001600160a01b031667ffffffffffffffff811115620004e457620004e46200091a565b6040519080825280602002602001820160405280156200050e578160200160208202803683370190505b50905060005b826001600160a01b0316816001600160a01b031610156200057b578082826001600160a01b0316815181106200054e576200054e62000a6c565b6001600160a01b039092166020928302919091019091015280620005728162000a82565b91505062000514565b50919050565b600082826040516200059390620005db565b620005a092919062000ab3565b604051809103906000f0801580156200043c573d6000803e3d6000fd5b60405180606001604052806003906020820280368337509192915050565b6107278062000ada83390190565b600060208284031215620005fc57600080fd5b81356001600160e01b031981168114620001f157600080fd5b60608101818360005b60038110156200064257815160ff168352602092830192909101906001016200061e565b50505092915050565b80356001600160a01b03811681146200066357600080fd5b919050565b6000606082840312156200057b57600080fd5b600080604083850312156200068f57600080fd5b6200069a836200064b565b9150602083013567ffffffffffffffff811115620006b757600080fd5b620006c58582860162000668565b9150509250929050565b634e487b7160e01b600052602160045260246000fd5b60008151600381106200070857634e487b7160e01b600052602160045260246000fd5b8352506020818101516001600160a01b0390811691840191909152604080830151821690840152606080830151909116908301526080908101519082015260a00190565b6020808252825182820181905260009190848201906040850190845b818110156200078d576200077e838551620006e5565b93850193925060010162000768565b50909695505050505050565b600080600060608486031215620007af57600080fd5b620007ba846200064b565b9250602084013561ffff81168114620007d257600080fd5b9150604084013567ffffffffffffffff811115620007ef57600080fd5b620007fd8682870162000668565b9150509250925092565b6000815180845260005b818110156200082f5760208185018101518683018201520162000811565b506000602082860101526020601f19601f83011685010191505092915050565b805160408084528151908401819052600091602091908201906060860190845b81811015620008965783516001600160a01b0316835292840192918401916001016200086f565b50508483015186820387850152805180835290840192506000918401905b80831015620008dd57620008ca828551620006e5565b91508484019350600183019250620008b4565b509695505050505050565b604081526000620008fd604083018562000807565b82810360208401526200091181856200084f565b95945050505050565b634e487b7160e01b600052604160045260246000fd5b600080604083850312156200094457600080fd5b6200094f836200064b565b9150602083013567ffffffffffffffff808211156200096d57600080fd5b818501915085601f8301126200098257600080fd5b8135818111156200099757620009976200091a565b604051601f8201601f19908116603f01168101908382118183101715620009c257620009c26200091a565b81604052828152886020848701011115620009dc57600080fd5b8260208601602083013760006020848301015280955050505050509250929050565b6001600160a01b038316815260406020820181905260009062000a24908301846200084f565b949350505050565b634e487b7160e01b600052601160045260246000fd5b6001600160a01b0382811682821603908082111562000a655762000a6562000a2c565b5092915050565b634e487b7160e01b600052603260045260246000fd5b60006001600160a01b038281166002600160a01b0319810162000aa95762000aa962000a2c565b6001019392505050565b6001600160a01b038316815260406020820181905260009062000a24908301846200080756fe608060405260405161072738038061072783398101604081905261002291610319565b61002e82826000610035565b5050610436565b61003e8361006b565b60008251118061004b5750805b156100665761006483836100ab60201b6100291760201c565b505b505050565b610074816100d7565b6040516001600160a01b038216907fbc7cd75a20ee27fd9adebab32041f755214dbc6bffa90cc0225b39da2e5c2d3b90600090a250565b60606100d08383604051806060016040528060278152602001610700602791396101a9565b9392505050565b6100ea8161022260201b6100551760201c565b6101515760405162461bcd60e51b815260206004820152602d60248201527f455243313936373a206e657720696d706c656d656e746174696f6e206973206e60448201526c1bdd08184818dbdb9d1c9858dd609a1b60648201526084015b60405180910390fd5b806101887f360894a13ba1a3210667c828492db98dca3e2076cc3735a920a3ca505d382bbc60001b61023160201b6100641760201c565b80546001600160a01b0319166001600160a01b039290921691909117905550565b6060600080856001600160a01b0316856040516101c691906103e7565b600060405180830381855af49150503d8060008114610201576040519150601f19603f3d011682016040523d82523d6000602084013e610206565b606091505b50909250905061021886838387610234565b9695505050505050565b6001600160a01b03163b151590565b90565b606083156102a357825160000361029c576001600160a01b0385163b61029c5760405162461bcd60e51b815260206004820152601d60248201527f416464726573733a2063616c6c20746f206e6f6e2d636f6e74726163740000006044820152606401610148565b50816102ad565b6102ad83836102b5565b949350505050565b8151156102c55781518083602001fd5b8060405162461bcd60e51b81526004016101489190610403565b634e487b7160e01b600052604160045260246000fd5b60005b838110156103105781810151838201526020016102f8565b50506000910152565b6000806040838503121561032c57600080fd5b82516001600160a01b038116811461034357600080fd5b60208401519092506001600160401b038082111561036057600080fd5b818501915085601f83011261037457600080fd5b815181811115610386576103866102df565b604051601f8201601f19908116603f011681019083821181831017156103ae576103ae6102df565b816040528281528860208487010111156103c757600080fd5b6103d88360208301602088016102f5565b80955050505050509250929050565b600082516103f98184602087016102f5565b9190910192915050565b60208152600082518060208401526104228160408501602087016102f5565b601f01601f19169190910160400192915050565b6102bb806104456000396000f3fe60806040523661001357610011610017565b005b6100115b610027610022610067565b61009f565b565b606061004e838360405180606001604052806027815260200161025f602791396100c3565b9392505050565b6001600160a01b03163b151590565b90565b600061009a7f360894a13ba1a3210667c828492db98dca3e2076cc3735a920a3ca505d382bbc546001600160a01b031690565b905090565b3660008037600080366000845af43d6000803e8080156100be573d6000f35b3d6000fd5b6060600080856001600160a01b0316856040516100e0919061020f565b600060405180830381855af49150503d806000811461011b576040519150601f19603f3d011682016040523d82523d6000602084013e610120565b606091505b50915091506101318683838761013b565b9695505050505050565b606083156101af5782516000036101a8576001600160a01b0385163b6101a85760405162461bcd60e51b815260206004820152601d60248201527f416464726573733a2063616c6c20746f206e6f6e2d636f6e747261637400000060448201526064015b60405180910390fd5b50816101b9565b6101b983836101c1565b949350505050565b8151156101d15781518083602001fd5b8060405162461bcd60e51b815260040161019f919061022b565b60005b838110156102065781810151838201526020016101ee565b50506000910152565b600082516102218184602087016101eb565b9190910192915050565b602081526000825180602084015261024a8160408501602087016101eb565b601f01601f1916919091016040019291505056fe416464726573733a206c6f772d6c6576656c2064656c65676174652063616c6c206661696c6564a26469706673582212206422cddf590659cffa3b67bffda8bc5358782dd87571fd3a8c2e682a409c28aa64736f6c63430008110033416464726573733a206c6f772d6c6576656c2064656c65676174652063616c6c206661696c6564a264697066735822122025f8bfa785faa23b3fd906f50f10f104539c217084342e057460bf2fec09cdac64736f6c63430008110033","linkReferences":{}},"methodIdentifiers":{"implementation()":"5c60da1b","prepareInstallation(address,bytes)":"f10832f1","prepareUninstallation(address,(address,address[],bytes))":"9cb0a124","prepareUpdate(address,uint16,(address,address[],bytes))":"a8a9c29e","protocolVersion()":"2ae9c600","supportsInterface(bytes4)":"01ffc9a7"},"id":233}