{"abi":[{"type":"constructor","inputs":[],"stateMutability":"nonpayable"},{"type":"function","name":"REGISTER_DAO_PERMISSION_ID","inputs":[],"outputs":[{"name":"","type":"bytes32","internalType":"bytes32"}],"stateMutability":"view"},{"type":"function","name":"UPGRADE_REGISTRY_PERMISSION_ID","inputs":[],"outputs":[{"name":"","type":"bytes32","internalType":"bytes32"}],"stateMutability":"view"},{"type":"function","name":"dao","inputs":[],"outputs":[{"name":"","type":"address","internalType":"contract IDAO"}],"stateMutability":"view"},{"type":"function","name":"entries","inputs":[{"name":"","type":"address","internalType":"address"}],"outputs":[{"name":"","type":"bool","internalType":"bool"}],"stateMutability":"view"},{"type":"function","name":"initialize","inputs":[{"name":"_managingDao","type":"address","internalType":"contract IDAO"},{"name":"_subdomainRegistrar","type":"address","internalType":"contract ENSSubdomainRegistrar"}],"outputs":[],"stateMutability":"nonpayable"},{"type":"function","name":"protocolVersion","inputs":[],"outputs":[{"name":"","type":"uint8[3]","internalType":"uint8[3]"}],"stateMutability":"pure"},{"type":"function","name":"proxiableUUID","inputs":[],"outputs":[{"name":"","type":"bytes32","internalType":"bytes32"}],"stateMutability":"view"},{"type":"function","name":"register","inputs":[{"name":"dao","type":"address","internalType":"contract IDAO"},{"name":"creator","type":"address","internalType":"address"},{"name":"subdomain","type":"string","internalType":"string"}],"outputs":[],"stateMutability":"nonpayable"},{"type":"function","name":"subdomainRegistrar","inputs":[],"outputs":[{"name":"","type":"address","internalType":"contract ENSSubdomainRegistrar"}],"stateMutability":"view"},{"type":"function","name":"targetInterfaceId","inputs":[],"outputs":[{"name":"","type":"bytes4","internalType":"bytes4"}],"stateMutability":"view"},{"type":"function","name":"upgradeTo","inputs":[{"name":"newImplementation","type":"address","internalType":"address"}],"outputs":[],"stateMutability":"nonpayable"},{"type":"function","name":"upgradeToAndCall","inputs":[{"name":"newImplementation","type":"address","internalType":"address"},{"name":"data","type":"bytes","internalType":"bytes"}],"outputs":[],"stateMutability":"payable"},{"type":"event","name":"AdminChanged","inputs":[{"name":"previousAdmin","type":"address","indexed":false,"internalType":"address"},{"name":"newAdmin","type":"address","indexed":false,"internalType":"address"}],"anonymous":false},{"type":"event","name":"BeaconUpgraded","inputs":[{"name":"beacon","type":"address","indexed":true,"internalType":"address"}],"anonymous":false},{"type":"event","name":"DAORegistered","inputs":[{"name":"dao","type":"address","indexed":true,"internalType":"address"},{"name":"creator","type":"address","indexed":true,"internalType":"address"},{"name":"subdomain","type":"string","indexed":false,"internalType":"string"}],"anonymous":false},{"type":"event","name":"Initialized","inputs":[{"name":"version","type":"uint8","indexed":false,"internalType":"uint8"}],"anonymous":false},{"type":"event","name":"Upgraded","inputs":[{"name":"implementation","type":"address","indexed":true,"internalType":"address"}],"anonymous":false},{"type":"error","name":"ContractAlreadyRegistered","inputs":[{"name":"registrant","type":"address","internalType":"address"}]},{"type":"error","name":"ContractERC165SupportInvalid","inputs":[{"name":"registrant","type":"address","internalType":"address"}]},{"type":"error","name":"ContractInterfaceInvalid","inputs":[{"name":"registrant","type":"address","internalType":"address"}]},{"type":"error","name":"DaoUnauthorized","inputs":[{"name":"dao","type":"address","internalType":"address"},{"name":"where","type":"address","internalType":"address"},{"name":"who","type":"address","internalType":"address"},{"name":"permissionId","type":"bytes32","internalType":"bytes32"}]},{"type":"error","name":"ENSNotSupported","inputs":[]},{"type":"error","name":"InvalidDaoSubdomain","inputs":[{"name":"subdomain","type":"string","internalType":"string"}]}],"bytecode":{"object":"0x60a06040523060805234801561001457600080fd5b5061001d610022565b6100e1565b600054610100900460ff161561008e5760405162461bcd60e51b815260206004820152602760248201527f496e697469616c697a61626c653a20636f6e747261637420697320696e697469604482015266616c697a696e6760c81b606482015260840160405180910390fd5b60005460ff908116146100df576000805460ff191660ff9081179091556040519081527f7f26b83ff96e1f2b6a682f133852f6798a09c465da95921460cefb38474024989060200160405180910390a15b565b60805161144d610118600039600081816102cf01528181610318015281816104ee0152818161052e01526105c1015261144d6000f3fe6080604052600436106100a65760003560e01c80634f1ef286116100645780634f1ef2861461019d57806352d1902d146101b057806374574eb7146101d3578063a2298b4b14610207578063ede497391461023b578063f29ee1251461025b57600080fd5b8062077393146100ab5780632ae9c600146100e85780633659cfe61461010a5780634162169f1461012c57806344162ef81461014a578063485cc9551461017d575b600080fd5b3480156100b757600080fd5b5060fb546100cb906001600160a01b031681565b6040516001600160a01b0390911681526020015b60405180910390f35b3480156100f457600080fd5b506100fd61029b565b6040516100df9190610f76565b34801561011657600080fd5b5061012a610125366004610fbf565b6102c5565b005b34801561013857600080fd5b506097546001600160a01b03166100cb565b34801561015657600080fd5b5060c9546101649060e01b81565b6040516001600160e01b031990911681526020016100df565b34801561018957600080fd5b5061012a610198366004610fdc565b6103ad565b61012a6101ab36600461102b565b6104e4565b3480156101bc57600080fd5b506101c56105b4565b6040519081526020016100df565b3480156101df57600080fd5b506101c57f60b96ff9fb5f29153c29c1747515b8be4ee523d686cc6f453ec294b0afa7293281565b34801561021357600080fd5b506101c57fde5e253d6956bc5fb69cfa564733633f4e53b143e42859306cd13cdc5485621581565b34801561024757600080fd5b5061012a6102563660046110ef565b610667565b34801561026757600080fd5b5061028b610276366004610fbf565b60ca6020526000908152604090205460ff1681565b60405190151581526020016100df565b6102a3610f58565b5060408051606081018252600181526004602082015260009181019190915290565b6001600160a01b037f00000000000000000000000000000000000000000000000000000000000000001630036103165760405162461bcd60e51b815260040161030d90611181565b60405180910390fd5b7f00000000000000000000000000000000000000000000000000000000000000006001600160a01b031661035f6000805160206113d1833981519152546001600160a01b031690565b6001600160a01b0316146103855760405162461bcd60e51b815260040161030d906111cd565b61038e816107df565b604080516000808252602082019092526103aa91839190610818565b50565b600054610100900460ff16158080156103cd5750600054600160ff909116105b806103e75750303b1580156103e7575060005460ff166001145b61044a5760405162461bcd60e51b815260206004820152602e60248201527f496e697469616c697a61626c653a20636f6e747261637420697320616c72656160448201526d191e481a5b9a5d1a585b1a5e995960921b606482015260840161030d565b6000805460ff19166001179055801561046d576000805461ff0019166101001790555b61047e83632a4f53ad60e11b610983565b60fb80546001600160a01b0319166001600160a01b03841617905580156104df576000805461ff0019169055604051600181527f7f26b83ff96e1f2b6a682f133852f6798a09c465da95921460cefb38474024989060200160405180910390a15b505050565b6001600160a01b037f000000000000000000000000000000000000000000000000000000000000000016300361052c5760405162461bcd60e51b815260040161030d90611181565b7f00000000000000000000000000000000000000000000000000000000000000006001600160a01b03166105756000805160206113d1833981519152546001600160a01b031690565b6001600160a01b03161461059b5760405162461bcd60e51b815260040161030d906111cd565b6105a4826107df565b6105b082826001610818565b5050565b6000306001600160a01b037f000000000000000000000000000000000000000000000000000000000000000016146106545760405162461bcd60e51b815260206004820152603860248201527f555550535570677261646561626c653a206d757374206e6f742062652063616c60448201527f6c6564207468726f7567682064656c656761746563616c6c0000000000000000606482015260840161030d565b506000805160206113d183398151915290565b6097547fde5e253d6956bc5fb69cfa564733633f4e53b143e42859306cd13cdc54856215906106a5906001600160a01b031630335b846000366109cd565b846106af81610a89565b821561078a5760fb546001600160a01b03166106de57604051637b97ca3560e11b815260040160405180910390fd5b6106e88484610b34565b610709578383604051633a5bf49b60e01b815260040161030d929190611242565b6000848460405161071b929190611256565b60405190819003812060fb546389bb414560e01b8352600483018290526001600160a01b03858116602485015291935016906389bb414590604401600060405180830381600087803b15801561077057600080fd5b505af1158015610784573d6000803e3d6000fd5b50505050505b846001600160a01b0316816001600160a01b03167fbc0b11fe649bb4d67c7fb40936163e5423f45c3ae83fbd8f8f8c75e1a3fa97af86866040516107cf929190611242565b60405180910390a3505050505050565b6097547f60b96ff9fb5f29153c29c1747515b8be4ee523d686cc6f453ec294b0afa72932906105b0906001600160a01b0316303361069c565b7f4910fdfa16fed3260ed0e7147f7cc6da11a60208b5b9406d12a635614ffd91435460ff161561084b576104df83610be1565b826001600160a01b03166352d1902d6040518163ffffffff1660e01b8152600401602060405180830381865afa9250505080156108a5575060408051601f3d908101601f191682019092526108a291810190611266565b60015b6109085760405162461bcd60e51b815260206004820152602e60248201527f45524331393637557067726164653a206e657720696d706c656d656e7461746960448201526d6f6e206973206e6f74205555505360901b606482015260840161030d565b6000805160206113d183398151915281146109775760405162461bcd60e51b815260206004820152602960248201527f45524331393637557067726164653a20756e737570706f727465642070726f786044820152681a58589b195555525160ba1b606482015260840161030d565b506104df838383610c7d565b600054610100900460ff166109aa5760405162461bcd60e51b815260040161030d9061127f565b6109b382610ca8565b60c9805463ffffffff191660e09290921c91909117905550565b604051637ef7c88360e11b81526001600160a01b0387169063fdef910690610a0190889088908890889088906004016112ca565b602060405180830381865afa158015610a1e573d6000803e3d6000fd5b505050506040513d601f19601f82011682018060405250810190610a4291906112fe565b610a8157604051630cb6f8ed60e21b81526001600160a01b0380881660048301528087166024830152851660448201526064810184905260840161030d565b505050505050565b6001600160a01b038116600090815260ca602052604090205460ff1615610ace5760405163fdcce17f60e01b81526001600160a01b038216600482015260240161030d565b60c954610ae8906001600160a01b0383169060e01b610cf1565b610b10576040516338811e4560e11b81526001600160a01b038216600482015260240161030d565b6001600160a01b0316600090815260ca60205260409020805460ff19166001179055565b6000828280835b81811015610bd2576000848483818110610b5757610b57611320565b919091013560f81c915050606081118015610b755750607b8160ff16105b15610b805750610bc0565b602f8160ff16118015610b965750603a8160ff16105b15610ba15750610bc0565b8060ff16602d03610bb25750610bc0565b600095505050505050610bdb565b80610bca81611336565b915050610b3b565b50600193505050505b92915050565b6001600160a01b0381163b610c4e5760405162461bcd60e51b815260206004820152602d60248201527f455243313936373a206e657720696d706c656d656e746174696f6e206973206e60448201526c1bdd08184818dbdb9d1c9858dd609a1b606482015260840161030d565b6000805160206113d183398151915280546001600160a01b0319166001600160a01b0392909216919091179055565b610c8683610d14565b600082511180610c935750805b156104df57610ca28383610d54565b50505050565b600054610100900460ff16610ccf5760405162461bcd60e51b815260040161030d9061127f565b609780546001600160a01b0319166001600160a01b0392909216919091179055565b6000610cfc83610d79565b8015610d0d5750610d0d8383610dac565b9392505050565b610d1d81610be1565b6040516001600160a01b038216907fbc7cd75a20ee27fd9adebab32041f755214dbc6bffa90cc0225b39da2e5c2d3b90600090a250565b6060610d0d83836040518060600160405280602781526020016113f160279139610e35565b6000610d8c826301ffc9a760e01b610dac565b8015610bdb5750610da5826001600160e01b0319610dac565b1592915050565b604080516001600160e01b03198316602480830191909152825180830390910181526044909101909152602080820180516001600160e01b03166301ffc9a760e01b178152825160009392849283928392918391908a617530fa92503d91506000519050828015610e1e575060208210155b8015610e2a5750600081115b979650505050505050565b6060600080856001600160a01b031685604051610e529190611381565b600060405180830381855af49150503d8060008114610e8d576040519150601f19603f3d011682016040523d82523d6000602084013e610e92565b606091505b5091509150610ea386838387610ead565b9695505050505050565b60608315610f1c578251600003610f15576001600160a01b0385163b610f155760405162461bcd60e51b815260206004820152601d60248201527f416464726573733a2063616c6c20746f206e6f6e2d636f6e7472616374000000604482015260640161030d565b5081610f26565b610f268383610f2e565b949350505050565b815115610f3e5781518083602001fd5b8060405162461bcd60e51b815260040161030d919061139d565b60405180606001604052806003906020820280368337509192915050565b60608101818360005b6003811015610fa157815160ff16835260209283019290910190600101610f7f565b50505092915050565b6001600160a01b03811681146103aa57600080fd5b600060208284031215610fd157600080fd5b8135610d0d81610faa565b60008060408385031215610fef57600080fd5b8235610ffa81610faa565b9150602083013561100a81610faa565b809150509250929050565b634e487b7160e01b600052604160045260246000fd5b6000806040838503121561103e57600080fd5b823561104981610faa565b9150602083013567ffffffffffffffff8082111561106657600080fd5b818501915085601f83011261107a57600080fd5b81358181111561108c5761108c611015565b604051601f8201601f19908116603f011681019083821181831017156110b4576110b4611015565b816040528281528860208487010111156110cd57600080fd5b8260208601602083013760006020848301015280955050505050509250929050565b6000806000806060858703121561110557600080fd5b843561111081610faa565b9350602085013561112081610faa565b9250604085013567ffffffffffffffff8082111561113d57600080fd5b818701915087601f83011261115157600080fd5b81358181111561116057600080fd5b88602082850101111561117257600080fd5b95989497505060200194505050565b6020808252602c908201527f46756e6374696f6e206d7573742062652063616c6c6564207468726f7567682060408201526b19195b1959d85d1958d85b1b60a21b606082015260800190565b6020808252602c908201527f46756e6374696f6e206d7573742062652063616c6c6564207468726f7567682060408201526b6163746976652070726f787960a01b606082015260800190565b81835281816020850137506000828201602090810191909152601f909101601f19169091010190565b602081526000610f26602083018486611219565b8183823760009101908152919050565b60006020828403121561127857600080fd5b5051919050565b6020808252602b908201527f496e697469616c697a61626c653a20636f6e7472616374206973206e6f74206960408201526a6e697469616c697a696e6760a81b606082015260800190565b6001600160a01b0386811682528516602082015260408101849052608060608201819052600090610e2a9083018486611219565b60006020828403121561131057600080fd5b81518015158114610d0d57600080fd5b634e487b7160e01b600052603260045260246000fd5b60006001820161135657634e487b7160e01b600052601160045260246000fd5b5060010190565b60005b83811015611378578181015183820152602001611360565b50506000910152565b6000825161139381846020870161135d565b9190910192915050565b60208152600082518060208401526113bc81604085016020870161135d565b601f01601f1916919091016040019291505056fe360894a13ba1a3210667c828492db98dca3e2076cc3735a920a3ca505d382bbc416464726573733a206c6f772d6c6576656c2064656c65676174652063616c6c206661696c6564a2646970667358221220c514ecb66f97652b68345424fec36074df1b8dffb8f75d20a19cebfc102eecbb64736f6c63430008110033","linkReferences":{}},"methodIdentifiers":{"REGISTER_DAO_PERMISSION_ID()":"a2298b4b","UPGRADE_REGISTRY_PERMISSION_ID()":"74574eb7","dao()":"4162169f","entries(address)":"f29ee125","initialize(address,address)":"485cc955","protocolVersion()":"2ae9c600","proxiableUUID()":"52d1902d","register(address,address,string)":"ede49739","subdomainRegistrar()":"00077393","targetInterfaceId()":"44162ef8","upgradeTo(address)":"3659cfe6","upgradeToAndCall(address,bytes)":"4f1ef286"},"id":214}