{"abi":[{"type":"function","name":"init","inputs":[{"name":"k","type":"uint256","internalType":"uint256"}],"outputs":[],"stateMutability":"nonpayable"}],"bytecode":{"object":"0x6080604052348015600f57600080fd5b50608b8061001e6000396000f3fe6080604052348015600f57600080fd5b506004361060285760003560e01c8063b7b0422d14602d575b600080fd5b603b6038366004603d565b50565b005b600060208284031215604e57600080fd5b503591905056fea26469706673582212209bb905a7cb73266ae1055c249e1b84277c40bbe3c747e0d44d88a2899f7598d264736f6c63430008110033","linkReferences":{}},"methodIdentifiers":{"init(uint256)":"b7b0422d"},"id":208}