{"abi":[{"type":"function","name":"beneficiary","inputs":[],"outputs":[{"name":"","type":"address","internalType":"address"}],"stateMutability":"view"},{"type":"function","name":"release","inputs":[],"outputs":[],"stateMutability":"nonpayable"},{"type":"function","name":"releaseTime","inputs":[],"outputs":[{"name":"","type":"uint256","internalType":"uint256"}],"stateMutability":"view"},{"type":"function","name":"token","inputs":[],"outputs":[{"name":"","type":"address","internalType":"contract IERC20Upgradeable"}],"stateMutability":"view"},{"type":"event","name":"Initialized","inputs":[{"name":"version","type":"uint8","indexed":false,"internalType":"uint8"}],"anonymous":false}],"bytecode":{"object":"0x608060405234801561001057600080fd5b506105cf806100206000396000f3fe608060405234801561001057600080fd5b506004361061004c5760003560e01c806338af3eed1461005157806386d1a69f1461007b578063b91d400114610085578063fc0c546a14610096575b600080fd5b6001546001600160a01b03165b6040516001600160a01b0390911681526020015b60405180910390f35b6100836100ad565b005b600254604051908152602001610072565b6000546201000090046001600160a01b031661005e565b60025442101561011f5760405162461bcd60e51b815260206004820152603260248201527f546f6b656e54696d656c6f636b3a2063757272656e742074696d65206973206260448201527165666f72652072656c656173652074696d6560701b60648201526084015b60405180910390fd5b600080546201000090046001600160a01b03166040516370a0823160e01b81523060048201526001600160a01b0391909116906370a0823190602401602060405180830381865afa158015610178573d6000803e3d6000fd5b505050506040513d601f19601f8201168201806040525081019061019c91906104e4565b9050600081116101fa5760405162461bcd60e51b815260206004820152602360248201527f546f6b656e54696d656c6f636b3a206e6f20746f6b656e7320746f2072656c6560448201526261736560e81b6064820152608401610116565b61022861020f6001546001600160a01b031690565b6000546201000090046001600160a01b0316908361022b565b50565b604080516001600160a01b038416602482015260448082018490528251808303909101815260649091019091526020810180516001600160e01b031663a9059cbb60e01b17905261027d908490610282565b505050565b60006102d7826040518060400160405280602081526020017f5361666545524332303a206c6f772d6c6576656c2063616c6c206661696c6564815250856001600160a01b03166103549092919063ffffffff16565b80519091501561027d57808060200190518101906102f591906104fd565b61027d5760405162461bcd60e51b815260206004820152602a60248201527f5361666545524332303a204552433230206f7065726174696f6e20646964206e6044820152691bdd081cdd58d8d9595960b21b6064820152608401610116565b6060610363848460008561036b565b949350505050565b6060824710156103cc5760405162461bcd60e51b815260206004820152602660248201527f416464726573733a20696e73756666696369656e742062616c616e636520666f6044820152651c8818d85b1b60d21b6064820152608401610116565b600080866001600160a01b031685876040516103e8919061054a565b60006040518083038185875af1925050503d8060008114610425576040519150601f19603f3d011682016040523d82523d6000602084013e61042a565b606091505b509150915061043b87838387610446565b979650505050505050565b606083156104b55782516000036104ae576001600160a01b0385163b6104ae5760405162461bcd60e51b815260206004820152601d60248201527f416464726573733a2063616c6c20746f206e6f6e2d636f6e74726163740000006044820152606401610116565b5081610363565b61036383838151156104ca5781518083602001fd5b8060405162461bcd60e51b81526004016101169190610566565b6000602082840312156104f657600080fd5b5051919050565b60006020828403121561050f57600080fd5b8151801515811461051f57600080fd5b9392505050565b60005b83811015610541578181015183820152602001610529565b50506000910152565b6000825161055c818460208701610526565b9190910192915050565b6020815260008251806020840152610585816040850160208701610526565b601f01601f1916919091016040019291505056fea2646970667358221220765cee48dcdc691626c335b208ba760cf846eb64a2fc71a0c12e6fbd827132e264736f6c63430008110033","linkReferences":{}},"methodIdentifiers":{"beneficiary()":"38af3eed","release()":"86d1a69f","releaseTime()":"b91d4001","token()":"fc0c546a"},"id":409}