{"abi":[{"type":"function","name":"SET_TARGET_CONFIG_PERMISSION_ID","inputs":[],"outputs":[{"name":"","type":"bytes32","internalType":"bytes32"}],"stateMutability":"view"},{"type":"function","name":"dao","inputs":[],"outputs":[{"name":"","type":"address","internalType":"contract IDAO"}],"stateMutability":"view"},{"type":"function","name":"getCurrentTargetConfig","inputs":[],"outputs":[{"name":"","type":"tuple","internalType":"struct IPlugin.TargetConfig","components":[{"name":"target","type":"address","internalType":"address"},{"name":"operation","type":"uint8","internalType":"enum IPlugin.Operation"}]}],"stateMutability":"view"},{"type":"function","name":"getTargetConfig","inputs":[],"outputs":[{"name":"","type":"tuple","internalType":"struct IPlugin.TargetConfig","components":[{"name":"target","type":"address","internalType":"address"},{"name":"operation","type":"uint8","internalType":"enum IPlugin.Operation"}]}],"stateMutability":"view"},{"type":"function","name":"initialize","inputs":[{"name":"_dao","type":"address","internalType":"contract IDAO"}],"outputs":[],"stateMutability":"nonpayable"},{"type":"function","name":"pluginType","inputs":[],"outputs":[{"name":"","type":"uint8","internalType":"enum IPlugin.PluginType"}],"stateMutability":"pure"},{"type":"function","name":"protocolVersion","inputs":[],"outputs":[{"name":"","type":"uint8[3]","internalType":"uint8[3]"}],"stateMutability":"pure"},{"type":"function","name":"setTargetConfig","inputs":[{"name":"_targetConfig","type":"tuple","internalType":"struct IPlugin.TargetConfig","components":[{"name":"target","type":"address","internalType":"address"},{"name":"operation","type":"uint8","internalType":"enum IPlugin.Operation"}]}],"outputs":[],"stateMutability":"nonpayable"},{"type":"function","name":"state1","inputs":[],"outputs":[{"name":"","type":"uint256","internalType":"uint256"}],"stateMutability":"view"},{"type":"function","name":"state2","inputs":[],"outputs":[{"name":"","type":"uint256","internalType":"uint256"}],"stateMutability":"view"},{"type":"function","name":"supportsInterface","inputs":[{"name":"_interfaceId","type":"bytes4","internalType":"bytes4"}],"outputs":[{"name":"","type":"bool","internalType":"bool"}],"stateMutability":"view"},{"type":"event","name":"Initialized","inputs":[{"name":"version","type":"uint8","indexed":false,"internalType":"uint8"}],"anonymous":false},{"type":"event","name":"TargetSet","inputs":[{"name":"newTargetConfig","type":"tuple","indexed":false,"internalType":"struct IPlugin.TargetConfig","components":[{"name":"target","type":"address","internalType":"address"},{"name":"operation","type":"uint8","internalType":"enum IPlugin.Operation"}]}],"anonymous":false},{"type":"error","name":"DaoUnauthorized","inputs":[{"name":"dao","type":"address","internalType":"address"},{"name":"where","type":"address","internalType":"address"},{"name":"who","type":"address","internalType":"address"},{"name":"permissionId","type":"bytes32","internalType":"bytes32"}]},{"type":"error","name":"DelegateCallFailed","inputs":[]},{"type":"error","name":"InvalidTargetConfig","inputs":[{"name":"targetConfig","type":"tuple","internalType":"struct IPlugin.TargetConfig","components":[{"name":"target","type":"address","internalType":"address"},{"name":"operation","type":"uint8","internalType":"enum IPlugin.Operation"}]}]}],"bytecode":{"object":"0x608060405234801561001057600080fd5b5061001961001e565b6100dd565b600054610100900460ff161561008a5760405162461bcd60e51b815260206004820152602760248201527f496e697469616c697a61626c653a20636f6e747261637420697320696e697469604482015266616c697a696e6760c81b606482015260840160405180910390fd5b60005460ff908116146100db576000805460ff191660ff9081179091556040519081527f7f26b83ff96e1f2b6a682f133852f6798a09c465da95921460cefb38474024989060200160405180910390a15b565b610a5c806100ec6000396000f3fe608060405234801561001057600080fd5b50600436106100a95760003560e01c80638cb75059116100715780638cb750591461012c578063bb225da214610153578063c4d66de814610168578063c98425ee1461017b578063dd63c06f14610190578063efe51cca1461019857600080fd5b806301ffc9a7146100ae5780632ae9c600146100d65780634162169f146100eb57806341de6830146101065780636accab8c14610115575b600080fd5b6100c16100bc3660046107e8565b6101a1565b60405190151581526020015b60405180910390f35b6100de61020d565b6040516100cd9190610812565b6065546040516001600160a01b0390911681526020016100cd565b60016040516100cd919061085c565b61011e60985481565b6040519081526020016100cd565b61011e7f568cc693d84eb1901f8bcecba154cbdef23ca3cf67efc0a0b698528a06c660f781565b610166610161366004610876565b610237565b005b6101666101763660046108a3565b61028f565b6101836103b0565b6040516100cd91906108c0565b610183610417565b61011e60995481565b60006001600160e01b0319821663041de68360e41b14806101d157506001600160e01b03198216621574e360e91b145b806101ec57506001600160e01b0319821663afc5b82360e01b145b8061020757506301ffc9a760e01b6001600160e01b03198316145b92915050565b6102156107ca565b5060408051606081018252600181526004602082015260009181019190915290565b6065547f568cc693d84eb1901f8bcecba154cbdef23ca3cf67efc0a0b698528a06c660f790610274906001600160a01b03163033846000366104c7565b61028b610286368490038401846108f4565b610583565b5050565b600054610100900460ff16158080156102af5750600054600160ff909116105b806102c95750303b1580156102c9575060005460ff166001145b6103315760405162461bcd60e51b815260206004820152602e60248201527f496e697469616c697a61626c653a20636f6e747261637420697320616c72656160448201526d191e481a5b9a5d1a585b1a5e995960921b60648201526084015b60405180910390fd5b6000805460ff191660011790558015610354576000805461ff0019166101001790555b61035d8261066f565b60016098556002609955801561028b576000805461ff0019169055604051600181527f7f26b83ff96e1f2b6a682f133852f6798a09c465da95921460cefb38474024989060200160405180910390a15050565b604080518082019091526000808252602082015260408051808201909152609780546001600160a01b03811683526020830190600160a01b900460ff1660018111156103fe576103fe610846565b600181111561040f5761040f610846565b905250919050565b604080518082019091526000808252602082015260408051808201909152609780546001600160a01b038116835260009291906020830190600160a01b900460ff16600181111561046a5761046a610846565b600181111561047b5761047b610846565b90525080519091506001600160a01b03166104c25760405180604001604052806104ad6065546001600160a01b031690565b6001600160a01b031681526020016000905290505b919050565b604051637ef7c88360e11b81526001600160a01b0387169063fdef9106906104fb9088908890889088908890600401610965565b602060405180830381865afa158015610518573d6000803e3d6000fd5b505050506040513d601f19601f8201168201806040525081019061053c91906109b9565b61057b57604051630cb6f8ed60e21b81526001600160a01b03808816600483015280871660248301528516604482015260648101849052608401610328565b505050505050565b805161059f906001600160a01b0316632a4f53ad60e11b6106a2565b80156105c057506001816020015160018111156105be576105be610846565b145b156105e0578060405163266d0fb960e01b815260040161032891906108c0565b8051609780546001600160a01b039092166001600160a01b031983168117825560208401518493909183916001600160a81b03191617600160a01b83600181111561062d5761062d610846565b02179055509050507f88e879ae0d71faf3aa708f2978daccb99b95243615dc104835b8c5a21c884ae68160405161066491906108c0565b60405180910390a150565b600054610100900460ff166106965760405162461bcd60e51b8152600401610328906109db565b61069f816106c5565b50565b60006106ad8361070e565b80156106be57506106be8383610741565b9392505050565b600054610100900460ff166106ec5760405162461bcd60e51b8152600401610328906109db565b606580546001600160a01b0319166001600160a01b0392909216919091179055565b6000610721826301ffc9a760e01b610741565b8015610207575061073a826001600160e01b0319610741565b1592915050565b604080516001600160e01b03198316602480830191909152825180830390910181526044909101909152602080820180516001600160e01b03166301ffc9a760e01b178152825160009392849283928392918391908a617530fa92503d915060005190508280156107b3575060208210155b80156107bf5750600081115b979650505050505050565b60405180606001604052806003906020820280368337509192915050565b6000602082840312156107fa57600080fd5b81356001600160e01b0319811681146106be57600080fd5b60608101818360005b600381101561083d57815160ff1683526020928301929091019060010161081b565b50505092915050565b634e487b7160e01b600052602160045260246000fd5b602081016003831061087057610870610846565b91905290565b60006040828403121561088857600080fd5b50919050565b6001600160a01b038116811461069f57600080fd5b6000602082840312156108b557600080fd5b81356106be8161088e565b81516001600160a01b0316815260208201516040820190600281106108e7576108e7610846565b8060208401525092915050565b60006040828403121561090657600080fd5b6040516040810181811067ffffffffffffffff8211171561093757634e487b7160e01b600052604160045260246000fd5b60405282356109458161088e565b815260208301356002811061095957600080fd5b60208201529392505050565b6001600160a01b038681168252851660208201526040810184905260806060820181905281018290526000828460a0840137600060a0848401015260a0601f19601f85011683010190509695505050505050565b6000602082840312156109cb57600080fd5b815180151581146106be57600080fd5b6020808252602b908201527f496e697469616c697a61626c653a20636f6e7472616374206973206e6f74206960408201526a6e697469616c697a696e6760a81b60608201526080019056fea2646970667358221220c19708ee3d0acd25eebdac7f3643cf239c03ba7c0fdd5e3bc878f7521ec2f34864736f6c63430008110033","linkReferences":{}},"methodIdentifiers":{"SET_TARGET_CONFIG_PERMISSION_ID()":"8cb75059","dao()":"4162169f","getCurrentTargetConfig()":"c98425ee","getTargetConfig()":"dd63c06f","initialize(address)":"c4d66de8","pluginType()":"41de6830","protocolVersion()":"2ae9c600","setTargetConfig((address,uint8))":"bb225da2","state1()":"6accab8c","state2()":"efe51cca","supportsInterface(bytes4)":"01ffc9a7"},"id":313}