{"abi":[{"type":"constructor","inputs":[{"name":"_repoRegistry","type":"address","internalType":"contract PluginRepoRegistry"}],"stateMutability":"nonpayable"},{"type":"function","name":"APPLY_INSTALLATION_PERMISSION_ID","inputs":[],"outputs":[{"name":"","type":"bytes32","internalType":"bytes32"}],"stateMutability":"view"},{"type":"function","name":"APPLY_UNINSTALLATION_PERMISSION_ID","inputs":[],"outputs":[{"name":"","type":"bytes32","internalType":"bytes32"}],"stateMutability":"view"},{"type":"function","name":"APPLY_UPDATE_PERMISSION_ID","inputs":[],"outputs":[{"name":"","type":"bytes32","internalType":"bytes32"}],"stateMutability":"view"},{"type":"function","name":"applyInstallation","inputs":[{"name":"_dao","type":"address","internalType":"address"},{"name":"_params","type":"tuple","internalType":"struct PluginSetupProcessor.ApplyInstallationParams","components":[{"name":"pluginSetupRef","type":"tuple","internalType":"struct PluginSetupRef","components":[{"name":"versionTag","type":"tuple","internalType":"struct PluginRepo.Tag","components":[{"name":"release","type":"uint8","internalType":"uint8"},{"name":"build","type":"uint16","internalType":"uint16"}]},{"name":"pluginSetupRepo","type":"address","internalType":"contract PluginRepo"}]},{"name":"plugin","type":"address","internalType":"address"},{"name":"permissions","type":"tuple[]","internalType":"struct PermissionLib.MultiTargetPermission[]","components":[{"name":"operation","type":"uint8","internalType":"enum PermissionLib.Operation"},{"name":"where","type":"address","internalType":"address"},{"name":"who","type":"address","internalType":"address"},{"name":"condition","type":"address","internalType":"address"},{"name":"permissionId","type":"bytes32","internalType":"bytes32"}]},{"name":"helpersHash","type":"bytes32","internalType":"bytes32"}]}],"outputs":[],"stateMutability":"nonpayable"},{"type":"function","name":"applyUninstallation","inputs":[{"name":"_dao","type":"address","internalType":"address"},{"name":"_params","type":"tuple","internalType":"struct PluginSetupProcessor.ApplyUninstallationParams","components":[{"name":"plugin","type":"address","internalType":"address"},{"name":"pluginSetupRef","type":"tuple","internalType":"struct PluginSetupRef","components":[{"name":"versionTag","type":"tuple","internalType":"struct PluginRepo.Tag","components":[{"name":"release","type":"uint8","internalType":"uint8"},{"name":"build","type":"uint16","internalType":"uint16"}]},{"name":"pluginSetupRepo","type":"address","internalType":"contract PluginRepo"}]},{"name":"permissions","type":"tuple[]","internalType":"struct PermissionLib.MultiTargetPermission[]","components":[{"name":"operation","type":"uint8","internalType":"enum PermissionLib.Operation"},{"name":"where","type":"address","internalType":"address"},{"name":"who","type":"address","internalType":"address"},{"name":"condition","type":"address","internalType":"address"},{"name":"permissionId","type":"bytes32","internalType":"bytes32"}]}]}],"outputs":[],"stateMutability":"nonpayable"},{"type":"function","name":"applyUpdate","inputs":[{"name":"_dao","type":"address","internalType":"address"},{"name":"_params","type":"tuple","internalType":"struct PluginSetupProcessor.ApplyUpdateParams","components":[{"name":"plugin","type":"address","internalType":"address"},{"name":"pluginSetupRef","type":"tuple","internalType":"struct PluginSetupRef","components":[{"name":"versionTag","type":"tuple","internalType":"struct PluginRepo.Tag","components":[{"name":"release","type":"uint8","internalType":"uint8"},{"name":"build","type":"uint16","internalType":"uint16"}]},{"name":"pluginSetupRepo","type":"address","internalType":"contract PluginRepo"}]},{"name":"initData","type":"bytes","internalType":"bytes"},{"name":"permissions","type":"tuple[]","internalType":"struct PermissionLib.MultiTargetPermission[]","components":[{"name":"operation","type":"uint8","internalType":"enum PermissionLib.Operation"},{"name":"where","type":"address","internalType":"address"},{"name":"who","type":"address","internalType":"address"},{"name":"condition","type":"address","internalType":"address"},{"name":"permissionId","type":"bytes32","internalType":"bytes32"}]},{"name":"helpersHash","type":"bytes32","internalType":"bytes32"}]}],"outputs":[],"stateMutability":"nonpayable"},{"type":"function","name":"prepareInstallation","inputs":[{"name":"_dao","type":"address","internalType":"address"},{"name":"_params","type":"tuple","internalType":"struct PluginSetupProcessor.PrepareInstallationParams","components":[{"name":"pluginSetupRef","type":"tuple","internalType":"struct PluginSetupRef","components":[{"name":"versionTag","type":"tuple","internalType":"struct PluginRepo.Tag","components":[{"name":"release","type":"uint8","internalType":"uint8"},{"name":"build","type":"uint16","internalType":"uint16"}]},{"name":"pluginSetupRepo","type":"address","internalType":"contract PluginRepo"}]},{"name":"data","type":"bytes","internalType":"bytes"}]}],"outputs":[{"name":"plugin","type":"address","internalType":"address"},{"name":"preparedSetupData","type":"tuple","internalType":"struct IPluginSetup.PreparedSetupData","components":[{"name":"helpers","type":"address[]","internalType":"address[]"},{"name":"permissions","type":"tuple[]","internalType":"struct PermissionLib.MultiTargetPermission[]","components":[{"name":"operation","type":"uint8","internalType":"enum PermissionLib.Operation"},{"name":"where","type":"address","internalType":"address"},{"name":"who","type":"address","internalType":"address"},{"name":"condition","type":"address","internalType":"address"},{"name":"permissionId","type":"bytes32","internalType":"bytes32"}]}]}],"stateMutability":"nonpayable"},{"type":"function","name":"prepareUninstallation","inputs":[{"name":"_dao","type":"address","internalType":"address"},{"name":"_params","type":"tuple","internalType":"struct PluginSetupProcessor.PrepareUninstallationParams","components":[{"name":"pluginSetupRef","type":"tuple","internalType":"struct PluginSetupRef","components":[{"name":"versionTag","type":"tuple","internalType":"struct PluginRepo.Tag","components":[{"name":"release","type":"uint8","internalType":"uint8"},{"name":"build","type":"uint16","internalType":"uint16"}]},{"name":"pluginSetupRepo","type":"address","internalType":"contract PluginRepo"}]},{"name":"setupPayload","type":"tuple","internalType":"struct IPluginSetup.SetupPayload","components":[{"name":"plugin","type":"address","internalType":"address"},{"name":"currentHelpers","type":"address[]","internalType":"address[]"},{"name":"data","type":"bytes","internalType":"bytes"}]}]}],"outputs":[{"name":"permissions","type":"tuple[]","internalType":"struct PermissionLib.MultiTargetPermission[]","components":[{"name":"operation","type":"uint8","internalType":"enum PermissionLib.Operation"},{"name":"where","type":"address","internalType":"address"},{"name":"who","type":"address","internalType":"address"},{"name":"condition","type":"address","internalType":"address"},{"name":"permissionId","type":"bytes32","internalType":"bytes32"}]}],"stateMutability":"nonpayable"},{"type":"function","name":"prepareUpdate","inputs":[{"name":"_dao","type":"address","internalType":"address"},{"name":"_params","type":"tuple","internalType":"struct PluginSetupProcessor.PrepareUpdateParams","components":[{"name":"currentVersionTag","type":"tuple","internalType":"struct PluginRepo.Tag","components":[{"name":"release","type":"uint8","internalType":"uint8"},{"name":"build","type":"uint16","internalType":"uint16"}]},{"name":"newVersionTag","type":"tuple","internalType":"struct PluginRepo.Tag","components":[{"name":"release","type":"uint8","internalType":"uint8"},{"name":"build","type":"uint16","internalType":"uint16"}]},{"name":"pluginSetupRepo","type":"address","internalType":"contract PluginRepo"},{"name":"setupPayload","type":"tuple","internalType":"struct IPluginSetup.SetupPayload","components":[{"name":"plugin","type":"address","internalType":"address"},{"name":"currentHelpers","type":"address[]","internalType":"address[]"},{"name":"data","type":"bytes","internalType":"bytes"}]}]}],"outputs":[{"name":"initData","type":"bytes","internalType":"bytes"},{"name":"preparedSetupData","type":"tuple","internalType":"struct IPluginSetup.PreparedSetupData","components":[{"name":"helpers","type":"address[]","internalType":"address[]"},{"name":"permissions","type":"tuple[]","internalType":"struct PermissionLib.MultiTargetPermission[]","components":[{"name":"operation","type":"uint8","internalType":"enum PermissionLib.Operation"},{"name":"where","type":"address","internalType":"address"},{"name":"who","type":"address","internalType":"address"},{"name":"condition","type":"address","internalType":"address"},{"name":"permissionId","type":"bytes32","internalType":"bytes32"}]}]}],"stateMutability":"nonpayable"},{"type":"function","name":"protocolVersion","inputs":[],"outputs":[{"name":"","type":"uint8[3]","internalType":"uint8[3]"}],"stateMutability":"pure"},{"type":"function","name":"repoRegistry","inputs":[],"outputs":[{"name":"","type":"address","internalType":"contract PluginRepoRegistry"}],"stateMutability":"view"},{"type":"function","name":"states","inputs":[{"name":"","type":"bytes32","internalType":"bytes32"}],"outputs":[{"name":"blockNumber","type":"uint256","internalType":"uint256"},{"name":"currentAppliedSetupId","type":"bytes32","internalType":"bytes32"}],"stateMutability":"view"},{"type":"function","name":"validatePreparedSetupId","inputs":[{"name":"pluginInstallationId","type":"bytes32","internalType":"bytes32"},{"name":"preparedSetupId","type":"bytes32","internalType":"bytes32"}],"outputs":[],"stateMutability":"view"},{"type":"event","name":"InstallationApplied","inputs":[{"name":"dao","type":"address","indexed":true,"internalType":"address"},{"name":"plugin","type":"address","indexed":true,"internalType":"address"},{"name":"preparedSetupId","type":"bytes32","indexed":false,"internalType":"bytes32"},{"name":"appliedSetupId","type":"bytes32","indexed":false,"internalType":"bytes32"}],"anonymous":false},{"type":"event","name":"InstallationPrepared","inputs":[{"name":"sender","type":"address","indexed":true,"internalType":"address"},{"name":"dao","type":"address","indexed":true,"internalType":"address"},{"name":"preparedSetupId","type":"bytes32","indexed":false,"internalType":"bytes32"},{"name":"pluginSetupRepo","type":"address","indexed":true,"internalType":"contract PluginRepo"},{"name":"versionTag","type":"tuple","indexed":false,"internalType":"struct PluginRepo.Tag","components":[{"name":"release","type":"uint8","internalType":"uint8"},{"name":"build","type":"uint16","internalType":"uint16"}]},{"name":"data","type":"bytes","indexed":false,"internalType":"bytes"},{"name":"plugin","type":"address","indexed":false,"internalType":"address"},{"name":"preparedSetupData","type":"tuple","indexed":false,"internalType":"struct IPluginSetup.PreparedSetupData","components":[{"name":"helpers","type":"address[]","internalType":"address[]"},{"name":"permissions","type":"tuple[]","internalType":"struct PermissionLib.MultiTargetPermission[]","components":[{"name":"operation","type":"uint8","internalType":"enum PermissionLib.Operation"},{"name":"where","type":"address","internalType":"address"},{"name":"who","type":"address","internalType":"address"},{"name":"condition","type":"address","internalType":"address"},{"name":"permissionId","type":"bytes32","internalType":"bytes32"}]}]}],"anonymous":false},{"type":"event","name":"UninstallationApplied","inputs":[{"name":"dao","type":"address","indexed":true,"internalType":"address"},{"name":"plugin","type":"address","indexed":true,"internalType":"address"},{"name":"preparedSetupId","type":"bytes32","indexed":false,"internalType":"bytes32"}],"anonymous":false},{"type":"event","name":"UninstallationPrepared","inputs":[{"name":"sender","type":"address","indexed":true,"internalType":"address"},{"name":"dao","type":"address","indexed":true,"internalType":"address"},{"name":"preparedSetupId","type":"bytes32","indexed":false,"internalType":"bytes32"},{"name":"pluginSetupRepo","type":"address","indexed":true,"internalType":"contract PluginRepo"},{"name":"versionTag","type":"tuple","indexed":false,"internalType":"struct PluginRepo.Tag","components":[{"name":"release","type":"uint8","internalType":"uint8"},{"name":"build","type":"uint16","internalType":"uint16"}]},{"name":"setupPayload","type":"tuple","indexed":false,"internalType":"struct IPluginSetup.SetupPayload","components":[{"name":"plugin","type":"address","internalType":"address"},{"name":"currentHelpers","type":"address[]","internalType":"address[]"},{"name":"data","type":"bytes","internalType":"bytes"}]},{"name":"permissions","type":"tuple[]","indexed":false,"internalType":"struct PermissionLib.MultiTargetPermission[]","components":[{"name":"operation","type":"uint8","internalType":"enum PermissionLib.Operation"},{"name":"where","type":"address","internalType":"address"},{"name":"who","type":"address","internalType":"address"},{"name":"condition","type":"address","internalType":"address"},{"name":"permissionId","type":"bytes32","internalType":"bytes32"}]}],"anonymous":false},{"type":"event","name":"UpdateApplied","inputs":[{"name":"dao","type":"address","indexed":true,"internalType":"address"},{"name":"plugin","type":"address","indexed":true,"internalType":"address"},{"name":"preparedSetupId","type":"bytes32","indexed":false,"internalType":"bytes32"},{"name":"appliedSetupId","type":"bytes32","indexed":false,"internalType":"bytes32"}],"anonymous":false},{"type":"event","name":"UpdatePrepared","inputs":[{"name":"sender","type":"address","indexed":true,"internalType":"address"},{"name":"dao","type":"address","indexed":true,"internalType":"address"},{"name":"preparedSetupId","type":"bytes32","indexed":false,"internalType":"bytes32"},{"name":"pluginSetupRepo","type":"address","indexed":true,"internalType":"contract PluginRepo"},{"name":"versionTag","type":"tuple","indexed":false,"internalType":"struct PluginRepo.Tag","components":[{"name":"release","type":"uint8","internalType":"uint8"},{"name":"build","type":"uint16","internalType":"uint16"}]},{"name":"setupPayload","type":"tuple","indexed":false,"internalType":"struct IPluginSetup.SetupPayload","components":[{"name":"plugin","type":"address","internalType":"address"},{"name":"currentHelpers","type":"address[]","internalType":"address[]"},{"name":"data","type":"bytes","internalType":"bytes"}]},{"name":"preparedSetupData","type":"tuple","indexed":false,"internalType":"struct IPluginSetup.PreparedSetupData","components":[{"name":"helpers","type":"address[]","internalType":"address[]"},{"name":"permissions","type":"tuple[]","internalType":"struct PermissionLib.MultiTargetPermission[]","components":[{"name":"operation","type":"uint8","internalType":"enum PermissionLib.Operation"},{"name":"where","type":"address","internalType":"address"},{"name":"who","type":"address","internalType":"address"},{"name":"condition","type":"address","internalType":"address"},{"name":"permissionId","type":"bytes32","internalType":"bytes32"}]}]},{"name":"initData","type":"bytes","indexed":false,"internalType":"bytes"}],"anonymous":false},{"type":"error","name":"IPluginNotSupported","inputs":[{"name":"plugin","type":"address","internalType":"address"}]},{"type":"error","name":"InvalidAppliedSetupId","inputs":[{"name":"currentAppliedSetupId","type":"bytes32","internalType":"bytes32"},{"name":"appliedSetupId","type":"bytes32","internalType":"bytes32"}]},{"type":"error","name":"InvalidUpdateVersion","inputs":[{"name":"currentVersionTag","type":"tuple","internalType":"struct PluginRepo.Tag","components":[{"name":"release","type":"uint8","internalType":"uint8"},{"name":"build","type":"uint16","internalType":"uint16"}]},{"name":"newVersionTag","type":"tuple","internalType":"struct PluginRepo.Tag","components":[{"name":"release","type":"uint8","internalType":"uint8"},{"name":"build","type":"uint16","internalType":"uint16"}]}]},{"type":"error","name":"PluginAlreadyInstalled","inputs":[]},{"type":"error","name":"PluginNonupgradeable","inputs":[{"name":"plugin","type":"address","internalType":"address"}]},{"type":"error","name":"PluginProxyUpgradeFailed","inputs":[{"name":"proxy","type":"address","internalType":"address"},{"name":"implementation","type":"address","internalType":"address"},{"name":"initData","type":"bytes","internalType":"bytes"}]},{"type":"error","name":"PluginRepoNonexistent","inputs":[]},{"type":"error","name":"SetupAlreadyPrepared","inputs":[{"name":"preparedSetupId","type":"bytes32","internalType":"bytes32"}]},{"type":"error","name":"SetupApplicationUnauthorized","inputs":[{"name":"dao","type":"address","internalType":"address"},{"name":"caller","type":"address","internalType":"address"},{"name":"permissionId","type":"bytes32","internalType":"bytes32"}]},{"type":"error","name":"SetupNotApplicable","inputs":[{"name":"preparedSetupId","type":"bytes32","internalType":"bytes32"}]}],"bytecode":{"object":"0x60806040523480156200001157600080fd5b5060405162002d5238038062002d5283398101604081905262000034916200005a565b600180546001600160a01b0319166001600160a01b03929092169190911790556200008c565b6000602082840312156200006d57600080fd5b81516001600160a01b03811681146200008557600080fd5b9392505050565b612cb6806200009c6000396000f3fe608060405234801561001057600080fd5b50600436106100cf5760003560e01c8063851d11f81161008c578063d759812211610066578063d759812214610209578063fafc79da1461022a578063fbdc1ef11461023d578063fe6c34741461027957600080fd5b8063851d11f8146101a85780639665861a146101bb578063ca211f7f146101e257600080fd5b806322e12c63146100d45780632ae9c600146100e95780632fb04336146101075780633c8c01d114610127578063483d209e14610148578063747e5ec114610173575b600080fd5b6100e76100e2366004611b93565b61028c565b005b6100f16106ae565b6040516100fe9190611be9565b60405180910390f35b61011a610115366004611c35565b6106d8565b6040516100fe9190611d3a565b61013a610135366004611c35565b6109d6565b6040516100fe929190611de0565b60015461015b906001600160a01b031681565b6040516001600160a01b0390911681526020016100fe565b61019a7ff796b89427c6552c1ac705d833bfb7909f8eb5ce502c1db97f85fabc6ad8354881565b6040519081526020016100fe565b6100e76101b6366004611e0c565b610ccc565b61019a7fb03cf3d518f6d49560b7f5bece1ccb8fd50ea7370f02f5e5210edba04be3c4f781565b61019a7fbd4dbacf5ba6d9793f600403b3293d6ecd695fcc703a2b5edcf245f45fda6cfa81565b61021c610217366004611e69565b610e89565b6040516100fe929190611efe565b6100e7610238366004611f2c565b611496565b61026461024b366004611f4e565b6000602081905290815260409020805460019091015482565b604080519283526020830191909152016100fe565b6100e7610287366004611e69565b6114db565b817fb03cf3d518f6d49560b7f5bece1ccb8fd50ea7370f02f5e5210edba04be3c4f76102b88282611704565b60006102d0856102cb6020870187611f67565b6117d1565b60008181526020818152604082209293506103ac906102f790368990038901908901612091565b61035d61030760a08a018a6120d5565b808060200260200160405190810160405280939291908181526020016000905b828210156103535761034460a0830286013681900381019061212a565b81526020019060010190610327565b5050505050611814565b60c089013561036f60808b018b6121ba565b8080601f01602080910402602001604051908101604052809392919081815260200183838082843760009201919091525060029250611844915050565b90506103b88382611496565b60006103d96103cf36899003890160208a01612091565b8860c0013561188c565b43845560018401819055905060006103f76080890160608a01611f67565b604051639af3e90960e01b81526001600160a01b039190911690639af3e909906104289060208c019060040161222d565b600060405180830381865afa158015610445573d6000803e3d6000fd5b505050506040513d6000823e601f3d908101601f1916820160405261046d91908101906122b2565b9050600061047e60208a018a611f67565b6001600160a01b0316635c60da1b6040518163ffffffff1660e01b8152600401602060405180830381865afa1580156104bb573d6000803e3d6000fd5b505050506040513d601f19601f820116820180604052508101906104df919061237b565b9050600082602001516001600160a01b0316635c60da1b6040518163ffffffff1660e01b8152600401602060405180830381865afa158015610525573d6000803e3d6000fd5b505050506040513d601f19601f82011682018060405250810190610549919061237b565b9050806001600160a01b0316826001600160a01b0316146105bc576105bc61057460208c018c611f67565b8261058260808e018e6121ba565b8080601f0160208091040260200160405190810160405280939291908181526020018383808284376000920191909152506118d392505050565b60006105cb60a08c018c6120d5565b9050111561063f576001600160a01b038b1663e978afe56105ef60a08d018d6120d5565b6040518363ffffffff1660e01b815260040161060c929190612398565b600060405180830381600087803b15801561062657600080fd5b505af115801561063a573d6000803e3d6000fd5b505050505b61064c60208b018b611f67565b6001600160a01b03168b6001600160a01b03167f24565610ddf61ee73e8501d7f0454657c71f5944882f5c586d7246bf43e13cda8787604051610699929190918252602082015260400190565b60405180910390a35050505050505050505050565b6106b6611b5d565b5060408051606081018252600181526004602082015260009181019190915290565b606060006106fa846106ec8585018661243b565b6102cb906020810190611f67565b600081815260208190526040812091925061077761071d36879003870187612091565b61077261072d606089018961243b565b61073b90602081019061245b565b808060200260200160405190810160405280939291908181526020018383602002808284376000920191909152506119f792505050565b61188c565b9050808260010154146107b257600182015460405163039d275560e51b81526004810191909152602481018290526044015b60405180910390fd5b60006107c46060870160408801611f67565b604051639af3e90960e01b81526001600160a01b039190911690639af3e909906107f290899060040161222d565b600060405180830381865afa15801561080f573d6000803e3d6000fd5b505050506040513d6000823e601f3d908101601f1916820160405261083791908101906122b2565b60208101519091506001600160a01b0316639cb0a1248861085b60608a018a61243b565b6040518363ffffffff1660e01b81526004016108789291906125e4565b6000604051808303816000875af1158015610897573d6000803e3d6000fd5b505050506040513d6000823e601f3d908101601f191682016040526108bf9190810190612704565b945060006109166108d536899003890189612091565b6108de88611814565b6040805160208101909152600081527f290decd9548b62a8d60345a988386fc84ba6bc95484008f6362f93160ef3e563906003611844565b60008181526002860160205260409020548554919250111561094e57604051630559b4b760e31b8152600481018290526024016107a9565b6000818152600285016020526040908190204390556109739060608901908901611f67565b6001600160a01b03908116908916337f5fdcd271ff15db84cbc94365956df5504f6d756e111654144648433c11a44530848b6109b2606082018261243b565b8c6040516109c39493929190612738565b60405180910390a4505050505092915050565b60006109f5604051806040016040528060608152602001606081525090565b6000610a076060850160408601611f67565b60015460405163f29ee12560e01b81526001600160a01b03808416600483015292935091169063f29ee12590602401602060405180830381865afa158015610a53573d6000803e3d6000fd5b505050506040513d601f19601f82011682018060405250810190610a779190612770565b610a9457604051630353faad60e21b815260040160405180910390fd5b604051639af3e90960e01b81526000906001600160a01b03831690639af3e90990610ac390889060040161222d565b600060405180830381865afa158015610ae0573d6000803e3d6000fd5b505050506040513d6000823e601f3d908101601f19168201604052610b0891908101906122b2565b60208101519091506001600160a01b031663f10832f187610b2c60608901896121ba565b6040518463ffffffff1660e01b8152600401610b4a93929190612792565b6000604051808303816000875af1158015610b69573d6000803e3d6000fd5b505050506040513d6000823e601f3d908101601f19168201604052610b919190810190612895565b90945092506000610ba287866117d1565b90506000610be7610bb836899003890189612091565b610bc58760200151611814565b8751610bd0906119f7565b604051806020016040528060008152506001611844565b600083815260208190526040902060018101549192509015610c1c57604051636972275b60e11b815260040160405180910390fd5b600082815260028201602052604090205481541015610c5157604051630559b4b760e31b8152600481018390526024016107a9565b600082815260028201602052604090204390556001600160a01b03808616908a16337f8ea69cee01fd9fc24e6b9614ea0896c5a1eac8fd8aba383285248cd0e1d8503a858c610ca360608201826121ba565b8e8e604051610cb7969594939291906128db565b60405180910390a450505050505b9250929050565b817fbd4dbacf5ba6d9793f600403b3293d6ecd695fcc703a2b5edcf245f45fda6cfa610cf88282611704565b6000610d0b856102cb6020870187611f67565b6000818152602081815260408220929350610d8e90610d3290368990038901908901612091565b6108de610d4260808a018a6120d5565b808060200260200160405190810160405280939291908181526020016000905b8282101561035357610d7f60a0830286013681900381019061212a565b81526020019060010190610d62565b9050610d9a8382611496565b438255600060018301819055610db360808801886120d5565b90501115610e27576001600160a01b03871663e978afe5610dd760808901896120d5565b6040518363ffffffff1660e01b8152600401610df4929190612398565b600060405180830381600087803b158015610e0e57600080fd5b505af1158015610e22573d6000803e3d6000fd5b505050505b610e346020870187611f67565b6001600160a01b0316876001600160a01b03167fa0e5d4ce6420a0e7a5f0ac10c47b3a672fb661c11f5609bb21b68644d81e17aa83604051610e7891815260200190565b60405180910390a350505050505050565b6060610ea8604051806040016040528060608152602001606081525090565b610eb86060840160408501612923565b60ff16610ec86020850185612923565b60ff16141580610efe5750610ee36080840160608501612940565b61ffff16610ef76040850160208601612940565b61ffff1610155b15610f2357604080516380d4e90760e01b81526107a99185919082019060040161295d565b6000610f36856106ec60a087018761243b565b6000818152602081905260408120919250610f5761072d60a088018861243b565b90506000610fa3604051806040016040528089600001803603810190610f7d9190612978565b8152602001610f9260a08b0160808c01611f67565b6001600160a01b031690528361188c565b905080836001015414610fd957600183015460405163039d275560e51b81526004810191909152602481018290526044016107a9565b6000610feb60a0890160808a01611f67565b604051639af3e90960e01b81526001600160a01b039190911690639af3e90990611019908b9060040161222d565b600060405180830381865afa158015611036573d6000803e3d6000fd5b505050506040513d6000823e601f3d908101601f1916820160405261105e91908101906122b2565b9050600061107260a08a0160808b01611f67565b6001600160a01b0316639af3e9098a6040016040518263ffffffff1660e01b81526004016110a0919061222d565b600060405180830381865afa1580156110bd573d6000803e3d6000fd5b505050506040513d6000823e601f3d908101601f191682016040526110e591908101906122b2565b9050600081602001516001600160a01b031683602001516001600160a01b0316036111dc5761118660405180604001604052808c60400180360381019061112c9190612978565b815260200161114160a08e0160808f01611f67565b6001600160a01b031690526040805160208101909152600081527f569e75fc77c1a856f6daaf9e69d8a9566ca34aa47f9133711ce065a571af0cfd9088906002611844565b905061119560a08b018b61243b565b6111a390602081019061245b565b80806020026020016040519081016040528093929190818152602001838360200280828437600092019190915250505090895250611433565b61121163041de68360e41b6111f460a08d018d61243b565b611202906020810190611f67565b6001600160a01b031690611a0a565b6112555761122260a08b018b61243b565b611230906020810190611f67565b604051638174ff5560e01b81526001600160a01b0390911660048201526024016107a9565b600061126460a08c018c61243b565b611272906020810190611f67565b6001600160a01b03166341de68306040518163ffffffff1660e01b8152600401602060405180830381865afa1580156112af573d6000803e3d6000fd5b505050506040513d601f19601f820116820180604052508101906112d39190612994565b60028111156112e4576112e4611c84565b14611329576112f660a08b018b61243b565b611304906020810190611f67565b60405163390d5b2560e21b81526001600160a01b0390911660048201526024016107a9565b81602001516001600160a01b031663a8a9c29e8c8c60000160200160208101906113539190612940565b61136060a08f018f61243b565b6040518463ffffffff1660e01b815260040161137e939291906129b1565b6000604051808303816000875af115801561139d573d6000803e3d6000fd5b505050506040513d6000823e601f3d908101601f191682016040526113c591908101906129df565b809950819a50505061143060405180604001604052808c6040018036038101906113ef9190612978565b815260200161140460a08e0160808f01611f67565b6001600160a01b031681525061141d8a60200151611814565b8a51611428906119f7565b8c6002611844565b90505b60008181526002870160205260409020548654101561146857604051630559b4b760e31b8152600481018290526024016107a9565b600081815260028701602052604090204390556114888b828c8b8d611a2d565b505050505050509250929050565b60008281526020818152604080832084845260028101909252909120548154106114d657604051632cb9867360e11b8152600481018390526024016107a9565b505050565b817ff796b89427c6552c1ac705d833bfb7909f8eb5ce502c1db97f85fabc6ad835486115078282611704565b600061151d856102cb6080870160608801611f67565b60008181526020819052604081209192506115b861154036889003880188612091565b61159c61155060808a018a6120d5565b808060200260200160405190810160405280939291908181526020016000905b828210156103535761158d60a0830286013681900381019061212a565b81526020019060010190611570565b8860a00135604051806020016040528060008152506001611844565b6001830154909150156115de57604051636972275b60e11b815260040160405180910390fd5b6115e88382611496565b60006116066115fc36899003890189612091565b8860a0013561188c565b600184018190554384559050600061162160808901896120d5565b90501115611695576001600160a01b03881663e978afe561164560808a018a6120d5565b6040518363ffffffff1660e01b8152600401611662929190612398565b600060405180830381600087803b15801561167c57600080fd5b505af1158015611690573d6000803e3d6000fd5b505050505b6116a56080880160608901611f67565b6001600160a01b0316886001600160a01b03167f74e616c7264536b98a5ec234d051ae6ce1305bf05c85f9ddc112364440ccf12984846040516116f2929190918252602082015260400190565b60405180910390a35050505050505050565b336001600160a01b03831614801590611798575060408051602081018252600081529051637ef7c88360e11b81526001600160a01b0384169163fdef91069161175591309133918791600401612a38565b602060405180830381865afa158015611772573d6000803e3d6000fd5b505050506040513d601f19601f820116820180604052508101906117969190612770565b155b156117cd5760405162aeb47760e51b81526001600160a01b0383166004820152336024820152604481018290526064016107a9565b5050565b604080516001600160a01b0380851660208301528316918101919091526000906060015b6040516020818303038152906040528051906020012090505b92915050565b6000816040516020016118279190611d3a565b604051602081830303815290604052805190602001209050919050565b845160208087015184518583012060405160009461186b949093928a928a92899101612a75565b60405160208183030381529060405280519060200120905095945050505050565b815160208084015160408051845160ff1681850152929093015161ffff16928201929092526001600160a01b0390911660608201526080810182905260009060a0016117f5565b8051156119c95760405163278f794360e11b81526001600160a01b03841690634f1ef286906119089085908590600401612ad3565b600060405180830381600087803b15801561192257600080fd5b505af1925050508015611933575060015b6114d65761193f612af7565b806308c379a0036119785750611953612b13565b8061195e575061197a565b8060405162461bcd60e51b81526004016107a99190612b9c565b505b3d8080156119a4576040519150601f19603f3d011682016040523d82523d6000602084013e6119a9565b606091505b508383836040516396e9e31b60e01b81526004016107a993929190612baf565b604051631b2ce7f360e11b81526001600160a01b038381166004830152841690633659cfe690602401611908565b6000816040516020016118279190612bdb565b6000611a1583611aa1565b8015611a265750611a268383611ad4565b9392505050565b611a3d60a0840160808501611f67565b6001600160a01b03908116908616337f3686138d92841c8549b2fe39fda23881fef6aa9b347352114c0869bf5af3e3f28760408801611a7f60a08a018a61243b565b8888604051611a92959493929190612c28565b60405180910390a45050505050565b6000611ab4826301ffc9a760e01b611ad4565b801561180e5750611acd826001600160e01b0319611ad4565b1592915050565b604080516001600160e01b03198316602480830191909152825180830390910181526044909101909152602080820180516001600160e01b03166301ffc9a760e01b178152825160009392849283928392918391908a617530fa92503d91506000519050828015611b46575060208210155b8015611b525750600081115b979650505050505050565b60405180606001604052806003906020820280368337509192915050565b6001600160a01b0381168114611b9057600080fd5b50565b60008060408385031215611ba657600080fd5b8235611bb181611b7b565b915060208301356001600160401b03811115611bcc57600080fd5b830160e08186031215611bde57600080fd5b809150509250929050565b60608101818360005b6003811015611c1457815160ff16835260209283019290910190600101611bf2565b50505092915050565b600060808284031215611c2f57600080fd5b50919050565b60008060408385031215611c4857600080fd5b8235611c5381611b7b565b915060208301356001600160401b03811115611c6e57600080fd5b611c7a85828601611c1d565b9150509250929050565b634e487b7160e01b600052602160045260246000fd5b60038110611caa57611caa611c84565b9052565b611cb9828251611c9a565b6020818101516001600160a01b0390811691840191909152604080830151821690840152606080830151909116908301526080908101519082015260a00190565b600081518084526020808501945080840160005b83811015611d2f57611d21878351611cae565b965090820190600101611d0e565b509495945050505050565b602081526000611a266020830184611cfa565b805160408084528151908401819052600091602091908201906060860190845b81811015611d925783516001600160a01b031683529284019291840191600101611d6d565b50508483015186820387850152805180835290840192506000918401905b80831015611dd557611dc3828551611cae565b91508484019350600183019250611db0565b509695505050505050565b6001600160a01b0383168152604060208201819052600090611e0490830184611d4d565b949350505050565b60008060408385031215611e1f57600080fd5b8235611e2a81611b7b565b915060208301356001600160401b03811115611e4557600080fd5b830160a08186031215611bde57600080fd5b600060c08284031215611c2f57600080fd5b60008060408385031215611e7c57600080fd5b8235611e8781611b7b565b915060208301356001600160401b03811115611ea257600080fd5b611c7a85828601611e57565b60005b83811015611ec9578181015183820152602001611eb1565b50506000910152565b60008151808452611eea816020860160208601611eae565b601f01601f19169290920160200192915050565b604081526000611f116040830185611ed2565b8281036020840152611f238185611d4d565b95945050505050565b60008060408385031215611f3f57600080fd5b50508035926020909101359150565b600060208284031215611f6057600080fd5b5035919050565b600060208284031215611f7957600080fd5b8135611a2681611b7b565b634e487b7160e01b600052604160045260246000fd5b604081018181106001600160401b0382111715611fb957611fb9611f84565b60405250565b606081018181106001600160401b0382111715611fb957611fb9611f84565b60a081018181106001600160401b0382111715611fb957611fb9611f84565b601f8201601f191681016001600160401b038111828210171561202257612022611f84565b6040525050565b60ff81168114611b9057600080fd5b61ffff81168114611b9057600080fd5b60006040828403121561205a57600080fd5b60405161206681611f9a565b809150823561207481612029565b8152602083013561208481612038565b6020919091015292915050565b6000606082840312156120a357600080fd5b6040516120af81611f9a565b6120b98484612048565b815260408301356120c981611b7b565b60208201529392505050565b6000808335601e198436030181126120ec57600080fd5b8301803591506001600160401b0382111561210657600080fd5b602001915060a081023603821315610cc557600080fd5b60038110611b9057600080fd5b600060a0828403121561213c57600080fd5b60405160a081018181106001600160401b038211171561215e5761215e611f84565b604052823561216c8161211d565b8152602083013561217c81611b7b565b6020820152604083013561218f81611b7b565b604082015260608301356121a281611b7b565b60608201526080928301359281019290925250919050565b6000808335601e198436030181126121d157600080fd5b8301803591506001600160401b038211156121eb57600080fd5b602001915036819003821315610cc557600080fd5b803561220b81612029565b60ff168252602081013561221e81612038565b61ffff81166020840152505050565b6040810161180e8284612200565b805161224681611b7b565b919050565b600082601f83011261225c57600080fd5b81516001600160401b0381111561227557612275611f84565b60405161228c601f8301601f191660200182611ffd565b8181528460208386010111156122a157600080fd5b611e04826020830160208701611eae565b6000602082840312156122c457600080fd5b81516001600160401b03808211156122db57600080fd5b9083019081850360808112156122f057600080fd5b6040516122fc81611fbf565b604082121561230a57600080fd5b604051915061231882611f9a565b835161232381612029565b8252602084015161233381612038565b60208301528181526123476040850161223b565b6020820152606084015191508282111561236057600080fd5b61236c8783860161224b565b60408201529695505050505050565b60006020828403121561238d57600080fd5b8151611a2681611b7b565b6020808252818101839052600090604080840186845b8781101561242e5781356123c18161211d565b6123cb8482611c9a565b50848201356123d981611b7b565b6001600160a01b039081168487015282850135906123f682611b7b565b908116848601526060908382013561240d81611b7b565b16908401526080828101359084015260a092830192909101906001016123ae565b5090979650505050505050565b60008235605e1983360301811261245157600080fd5b9190910192915050565b6000808335601e1984360301811261247257600080fd5b8301803591506001600160401b0382111561248c57600080fd5b6020019150600581901b3603821315610cc557600080fd5b6000808335601e198436030181126124bb57600080fd5b83016020810192503590506001600160401b038111156124da57600080fd5b803603821315610cc557600080fd5b81835281816020850137506000828201602090810191909152601f909101601f19169091010190565b600060608301823561252381611b7b565b6001600160a01b0390811685526020908482013536869003601e1901811261254a57600080fd5b850182810190356001600160401b0381111561256557600080fd5b8060051b360382131561257757600080fd5b6060888501529384905292600090608088015b818310156125b357853561259d81611b7b565b841681529484019460019290920191840161258a565b6125c060408901896124a4565b9650945088810360408a01526125d78187876124e9565b9998505050505050505050565b6001600160a01b0383168152604060208201819052600090611e0490830184612512565b60006001600160401b0382111561262157612621611f84565b5060051b60200190565b600082601f83011261263c57600080fd5b8151602061264982612608565b604080516126578382611ffd565b84815260a0948502870184019484820193508886111561267657600080fd5b8488015b868110156126f65781818b0312156126925760008081fd5b835161269d81611fde565b81516126a88161211d565b8152818701516126b781611b7b565b81880152818501516126c881611b7b565b818601526060828101516126db81611b7b565b9082015260808281015190820152855293850193810161267a565b509098975050505050505050565b60006020828403121561271657600080fd5b81516001600160401b0381111561272c57600080fd5b611e048482850161262b565b8481526127486020820185612200565b60a06060820152600061275e60a0830185612512565b8281036080840152611b528185611cfa565b60006020828403121561278257600080fd5b81518015158114611a2657600080fd5b6001600160a01b0384168152604060208201819052600090611f2390830184866124e9565b6000604082840312156127c957600080fd5b6040516127d581611f9a565b80915082516001600160401b03808211156127ef57600080fd5b818501915085601f83011261280357600080fd5b8151602061281082612608565b60405161281d8282611ffd565b83815260059390931b850182019282810191508984111561283d57600080fd5b948201945b8386101561286457855161285581611b7b565b82529482019490820190612842565b8652508681015193508284111561287a57600080fd5b6128868885890161262b565b81860152505050505092915050565b600080604083850312156128a857600080fd5b82516128b381611b7b565b60208401519092506001600160401b038111156128cf57600080fd5b611c7a858286016127b7565b8681526128eb6020820187612200565b60c06060820152600061290260c0830186886124e9565b6001600160a01b038516608084015282810360a08401526125d78185611d4d565b60006020828403121561293557600080fd5b8135611a2681612029565b60006020828403121561295257600080fd5b8135611a2681612038565b6080810161296b8285612200565b611a266040830184612200565b60006040828403121561298a57600080fd5b611a268383612048565b6000602082840312156129a657600080fd5b8151611a268161211d565b6001600160a01b038416815261ffff83166020820152606060408201819052600090611f2390830184612512565b600080604083850312156129f257600080fd5b82516001600160401b0380821115612a0957600080fd5b612a158683870161224b565b93506020850151915080821115612a2b57600080fd5b50611c7a858286016127b7565b6001600160a01b0385811682528416602082015260408101839052608060608201819052600090612a6b90830184611ed2565b9695505050505050565b865160ff16815260208088015161ffff169082015260e081016001600160a01b0387166040830152606082018690526080820185905260a0820184905260048310612ac257612ac2611c84565b8260c0830152979650505050505050565b6001600160a01b0383168152604060208201819052600090611e0490830184611ed2565b600060033d1115612b105760046000803e5060005160e01c5b90565b600060443d1015612b215790565b6040516003193d81016004833e81513d6001600160401b038160248401118184111715612b5057505050505090565b8285019150815181811115612b685750505050505090565b843d8701016020828501011115612b825750505050505090565b612b9160208286010187611ffd565b509095945050505050565b602081526000611a266020830184611ed2565b6001600160a01b03848116825283166020820152606060408201819052600090611f2390830184611ed2565b6020808252825182820181905260009190848201906040850190845b81811015612c1c5783516001600160a01b031683529284019291840191600101612bf7565b50909695505050505050565b858152612c386020820186612200565b60c060608201526000612c4e60c0830186612512565b8281036080840152612c608186611d4d565b905082810360a0840152612c748185611ed2565b9897505050505050505056fea264697066735822122070b1d650f654624bc6121d9c9e0384fb6d24b7044a5a8415d9213d7711c25fc864736f6c63430008110033","linkReferences":{}},"methodIdentifiers":{"APPLY_INSTALLATION_PERMISSION_ID()":"747e5ec1","APPLY_UNINSTALLATION_PERMISSION_ID()":"ca211f7f","APPLY_UPDATE_PERMISSION_ID()":"9665861a","applyInstallation(address,(((uint8,uint16),address),address,(uint8,address,address,address,bytes32)[],bytes32))":"fe6c3474","applyUninstallation(address,(address,((uint8,uint16),address),(uint8,address,address,address,bytes32)[]))":"851d11f8","applyUpdate(address,(address,((uint8,uint16),address),bytes,(uint8,address,address,address,bytes32)[],bytes32))":"22e12c63","prepareInstallation(address,(((uint8,uint16),address),bytes))":"3c8c01d1","prepareUninstallation(address,(((uint8,uint16),address),(address,address[],bytes)))":"2fb04336","prepareUpdate(address,((uint8,uint16),(uint8,uint16),address,(address,address[],bytes)))":"d7598122","protocolVersion()":"2ae9c600","repoRegistry()":"483d209e","states(bytes32)":"fbdc1ef1","validatePreparedSetupId(bytes32,bytes32)":"fafc79da"},"id":220}