{"abi":[{"type":"constructor","inputs":[],"stateMutability":"nonpayable"},{"type":"function","name":"answer","inputs":[],"outputs":[{"name":"","type":"bool","internalType":"bool"}],"stateMutability":"view"},{"type":"function","name":"isGranted","inputs":[{"name":"_where","type":"address","internalType":"address"},{"name":"_who","type":"address","internalType":"address"},{"name":"_permissionId","type":"bytes32","internalType":"bytes32"},{"name":"_data","type":"bytes","internalType":"bytes"}],"outputs":[{"name":"","type":"bool","internalType":"bool"}],"stateMutability":"view"},{"type":"function","name":"protocolVersion","inputs":[],"outputs":[{"name":"","type":"uint8[3]","internalType":"uint8[3]"}],"stateMutability":"pure"},{"type":"function","name":"setAnswer","inputs":[{"name":"_answer","type":"bool","internalType":"bool"}],"outputs":[],"stateMutability":"nonpayable"},{"type":"function","name":"supportsInterface","inputs":[{"name":"_interfaceId","type":"bytes4","internalType":"bytes4"}],"outputs":[{"name":"","type":"bool","internalType":"bool"}],"stateMutability":"view"}],"bytecode":{"object":"0x608060405234801561001057600080fd5b506000805460ff191660011790556103498061002d6000396000f3fe608060405234801561001057600080fd5b50600436106100575760003560e01c806301ffc9a71461005c5780632675fdd0146100845780632ae9c600146100a057806385bb7d69146100b5578063f01b7dd2146100c2575b600080fd5b61006f61006a36600461017e565b6100e5565b60405190151581526020015b60405180910390f35b61006f6100923660046101e1565b60005460ff16949350505050565b6100a8610136565b60405161007b91906102bd565b60005461006f9060ff1681565b6100e36100d03660046102f1565b6000805460ff1916911515919091179055565b005b60006001600160e01b031982166302675fdd60e41b148061011557506001600160e01b03198216621574e360e91b145b8061013057506301ffc9a760e01b6001600160e01b03198316145b92915050565b61013e610160565b5060408051606081018252600181526004602082015260009181019190915290565b60405180606001604052806003906020820280368337509192915050565b60006020828403121561019057600080fd5b81356001600160e01b0319811681146101a857600080fd5b9392505050565b80356001600160a01b03811681146101c657600080fd5b919050565b634e487b7160e01b600052604160045260246000fd5b600080600080608085870312156101f757600080fd5b610200856101af565b935061020e602086016101af565b925060408501359150606085013567ffffffffffffffff8082111561023257600080fd5b818701915087601f83011261024657600080fd5b813581811115610258576102586101cb565b604051601f8201601f19908116603f01168101908382118183101715610280576102806101cb565b816040528281528a602084870101111561029957600080fd5b82602086016020830137600060208483010152809550505050505092959194509250565b60608101818360005b60038110156102e857815160ff168352602092830192909101906001016102c6565b50505092915050565b60006020828403121561030357600080fd5b813580151581146101a857600080fdfea2646970667358221220109d172f5e34b0b044013ceb88de502c94e6237cb834d884990ea2e2243f8fd564736f6c63430008110033","linkReferences":{}},"methodIdentifiers":{"answer()":"85bb7d69","isGranted(address,address,bytes32,bytes)":"2675fdd0","protocolVersion()":"2ae9c600","setAnswer(bool)":"f01b7dd2","supportsInterface(bytes4)":"01ffc9a7"},"id":230}