{"abi":[{"type":"constructor","inputs":[{"name":"implementation","type":"address","internalType":"address"}],"stateMutability":"nonpayable"},{"type":"function","name":"implementation","inputs":[],"outputs":[{"name":"","type":"address","internalType":"address"}],"stateMutability":"view"},{"type":"function","name":"mockHelperCount","inputs":[{"name":"_helpersCount","type":"uint160","internalType":"uint160"}],"outputs":[],"stateMutability":"nonpayable"},{"type":"function","name":"mockPermissionIndexes","inputs":[{"name":"_lowerIndex","type":"uint160","internalType":"uint160"},{"name":"_upperIndex","type":"uint160","internalType":"uint160"}],"outputs":[],"stateMutability":"nonpayable"},{"type":"function","name":"prepareInstallation","inputs":[{"name":"_dao","type":"address","internalType":"address"},{"name":"_data","type":"bytes","internalType":"bytes"}],"outputs":[{"name":"plugin","type":"address","internalType":"address"},{"name":"preparedSetupData","type":"tuple","internalType":"struct IPluginSetup.PreparedSetupData","components":[{"name":"helpers","type":"address[]","internalType":"address[]"},{"name":"permissions","type":"tuple[]","internalType":"struct PermissionLib.MultiTargetPermission[]","components":[{"name":"operation","type":"uint8","internalType":"enum PermissionLib.Operation"},{"name":"where","type":"address","internalType":"address"},{"name":"who","type":"address","internalType":"address"},{"name":"condition","type":"address","internalType":"address"},{"name":"permissionId","type":"bytes32","internalType":"bytes32"}]}]}],"stateMutability":"nonpayable"},{"type":"function","name":"prepareUninstallation","inputs":[{"name":"_dao","type":"address","internalType":"address"},{"name":"_payload","type":"tuple","internalType":"struct IPluginSetup.SetupPayload","components":[{"name":"plugin","type":"address","internalType":"address"},{"name":"currentHelpers","type":"address[]","internalType":"address[]"},{"name":"data","type":"bytes","internalType":"bytes"}]}],"outputs":[{"name":"permissions","type":"tuple[]","internalType":"struct PermissionLib.MultiTargetPermission[]","components":[{"name":"operation","type":"uint8","internalType":"enum PermissionLib.Operation"},{"name":"where","type":"address","internalType":"address"},{"name":"who","type":"address","internalType":"address"},{"name":"condition","type":"address","internalType":"address"},{"name":"permissionId","type":"bytes32","internalType":"bytes32"}]}],"stateMutability":"nonpayable"},{"type":"function","name":"prepareUpdate","inputs":[{"name":"_dao","type":"address","internalType":"address"},{"name":"_fromBuild","type":"uint16","internalType":"uint16"},{"name":"_payload","type":"tuple","internalType":"struct IPluginSetup.SetupPayload","components":[{"name":"plugin","type":"address","internalType":"address"},{"name":"currentHelpers","type":"address[]","internalType":"address[]"},{"name":"data","type":"bytes","internalType":"bytes"}]}],"outputs":[{"name":"","type":"bytes","internalType":"bytes"},{"name":"","type":"tuple","internalType":"struct IPluginSetup.PreparedSetupData","components":[{"name":"helpers","type":"address[]","internalType":"address[]"},{"name":"permissions","type":"tuple[]","internalType":"struct PermissionLib.MultiTargetPermission[]","components":[{"name":"operation","type":"uint8","internalType":"enum PermissionLib.Operation"},{"name":"where","type":"address","internalType":"address"},{"name":"who","type":"address","internalType":"address"},{"name":"condition","type":"address","internalType":"address"},{"name":"permissionId","type":"bytes32","internalType":"bytes32"}]}]}],"stateMutability":"nonpayable"},{"type":"function","name":"protocolVersion","inputs":[],"outputs":[{"name":"","type":"uint8[3]","internalType":"uint8[3]"}],"stateMutability":"pure"},{"type":"function","name":"reset","inputs":[],"outputs":[],"stateMutability":"nonpayable"},{"type":"function","name":"supportsInterface","inputs":[{"name":"_interfaceId","type":"bytes4","internalType":"bytes4"}],"outputs":[{"name":"","type":"bool","internalType":"bool"}],"stateMutability":"view"},{"type":"event","name":"InstallationPrepared","inputs":[{"name":"dao","type":"address","indexed":false,"internalType":"address"},{"name":"data","type":"bytes","indexed":false,"internalType":"bytes"}],"anonymous":false},{"type":"event","name":"UninstallationPrepared","inputs":[{"name":"dao","type":"address","indexed":false,"internalType":"address"},{"name":"payload","type":"tuple","indexed":false,"internalType":"struct IPluginSetup.SetupPayload","components":[{"name":"plugin","type":"address","internalType":"address"},{"name":"currentHelpers","type":"address[]","internalType":"address[]"},{"name":"data","type":"bytes","internalType":"bytes"}]}],"anonymous":false},{"type":"event","name":"UpdatePrepared","inputs":[{"name":"dao","type":"address","indexed":false,"internalType":"address"},{"name":"build","type":"uint16","indexed":false,"internalType":"uint16"},{"name":"payload","type":"tuple","indexed":false,"internalType":"struct IPluginSetup.SetupPayload","components":[{"name":"plugin","type":"address","internalType":"address"},{"name":"currentHelpers","type":"address[]","internalType":"address[]"},{"name":"data","type":"bytes","internalType":"bytes"}]}],"anonymous":false},{"type":"error","name":"ConflictingValues","inputs":[]},{"type":"error","name":"InvalidUpdatePath","inputs":[{"name":"fromBuild","type":"uint16","internalType":"uint16"},{"name":"thisBuild","type":"uint16","internalType":"uint16"}]}],"bytecode":{"object":"0x60a060405234801561001057600080fd5b50604051610dca380380610dca83398101604081905261002f91610040565b6001600160a01b0316608052610070565b60006020828403121561005257600080fd5b81516001600160a01b038116811461006957600080fd5b9392505050565b608051610d3f61008b60003960006101140152610d3f6000f3fe608060405234801561001057600080fd5b50600436106100935760003560e01c80639cb0a124116100665780639cb0a1241461013e578063a8a9c29e1461015e578063bc93bb2e1461017f578063d826f88f146101bb578063f10832f1146101e457600080fd5b806301ffc9a7146100985780632ae9c600146100c057806346c20024146100d55780635c60da1b14610107575b600080fd5b6100ab6100a6366004610647565b610205565b60405190151581526020015b60405180910390f35b6100c8610256565b6040516100b79190610678565b6101056100e33660046106c4565b600080546001600160a01b0319166001600160a01b0392909216919091179055565b005b6040516001600160a01b037f00000000000000000000000000000000000000000000000000000000000000001681526020016100b7565b61015161014c3660046106f3565b610280565b6040516100b791906107bf565b61017161016c366004610808565b6102a3565b6040516100b7929190610961565b61010561018d36600461098f565b600180546001600160a01b039384166001600160a01b03199182161790915560028054929093169116179055565b610105600180546001600160a01b03199081169091556002805482169055600080549091169055565b6101f76101f2366004610aa8565b6102ca565b6040516100b7929190610aee565b60006001600160e01b0319821663099718b560e41b148061023557506001600160e01b03198216621574e360e91b145b8061025057506301ffc9a760e01b6001600160e01b03198316145b92915050565b61025e610629565b5060408051606081018252600181526004602082015260009181019190915290565b606061028f600060018061031c565b90506102508361029e84610b12565b61037d565b60606102c2604051806040016040528060608152602001606081525090565b935093915050565b60006102e9604051806040016040528060608152602001606081525090565b600091506102f760016103ba565b8152610306600060018161031c565b60208201526103158484610473565b9250929050565b600154606090610375906001600160a01b031660000361033c5784610349565b6001546001600160a01b03165b6002546001600160a01b0316600003610362578461036f565b6002546001600160a01b03165b846104a4565b949350505050565b7ffcfdc3b542b4ad36e57b00e7f79a3d4121a844f1b7fa32829e4914320236f47482826040516103ae929190610c04565b60405180910390a15050565b6060816001600160a01b031667ffffffffffffffff8111156103de576103de6109c8565b604051908082528060200260200182016040528015610407578160200160208202803683370190505b50905060005b826001600160a01b0316816001600160a01b0316101561046d578082826001600160a01b03168151811061044357610443610c64565b6001600160a01b03909216602092830291909101909101528061046581610c90565b91505061040d565b50919050565b7f788f140d37f3ca802bffe7ec3134153ce98a1c58d10bbb00a4b6d449beca9ac882826040516103ae929190610cbe565b6060826001600160a01b0316846001600160a01b031611156104d957604051633a4013cd60e21b815260040160405180910390fd5b6104e38484610ce2565b6001600160a01b031667ffffffffffffffff811115610504576105046109c8565b60405190808252806020026020018201604052801561055d57816020015b6040805160a0810182526000808252602080830182905292820181905260608201819052608082015282526000199092019101816105225790505b509050835b836001600160a01b0316816001600160a01b03161015610621576040518060a0016040528084600281111561059957610599610743565b81526001600160a01b038316602082018190526040820152600060608201527fa280eec51ab8e1bc4b6b0c1b7f1bde785761b787a49db404e3e9338ed9b016ef608090910152826105ea8784610ce2565b6001600160a01b03168151811061060357610603610c64565b6020026020010181905250808061061990610c90565b915050610562565b509392505050565b60405180606001604052806003906020820280368337509192915050565b60006020828403121561065957600080fd5b81356001600160e01b03198116811461067157600080fd5b9392505050565b60608101818360005b60038110156106a357815160ff16835260209283019290910190600101610681565b50505092915050565b6001600160a01b03811681146106c157600080fd5b50565b6000602082840312156106d657600080fd5b8135610671816106ac565b60006060828403121561046d57600080fd5b6000806040838503121561070657600080fd5b8235610711816106ac565b9150602083013567ffffffffffffffff81111561072d57600080fd5b610739858286016106e1565b9150509250929050565b634e487b7160e01b600052602160045260246000fd5b600081516003811061077b57634e487b7160e01b600052602160045260246000fd5b8352506020818101516001600160a01b0390811691840191909152604080830151821690840152606080830151909116908301526080908101519082015260a00190565b6020808252825182820181905260009190848201906040850190845b818110156107fc576107ee838551610759565b9385019392506001016107db565b50909695505050505050565b60008060006060848603121561081d57600080fd5b8335610828816106ac565b9250602084013561ffff8116811461083f57600080fd5b9150604084013567ffffffffffffffff81111561085b57600080fd5b610867868287016106e1565b9150509250925092565b6000815180845260005b818110156108975760208185018101518683018201520161087b565b506000602082860101526020601f19601f83011685010191505092915050565b600081518084526020808501945080840160005b838110156108f05781516001600160a01b0316875295820195908201906001016108cb565b509495945050505050565b600081516040845261091060408501826108b7565b60208481015186830387830152805180845290820193509091600091908301905b8083101561095657610944828651610759565b91508385019450600183019250610931565b509695505050505050565b6040815260006109746040830185610871565b828103602084015261098681856108fb565b95945050505050565b600080604083850312156109a257600080fd5b82356109ad816106ac565b915060208301356109bd816106ac565b809150509250929050565b634e487b7160e01b600052604160045260246000fd5b6040516060810167ffffffffffffffff81118282101715610a0157610a016109c8565b60405290565b604051601f8201601f1916810167ffffffffffffffff81118282101715610a3057610a306109c8565b604052919050565b600082601f830112610a4957600080fd5b813567ffffffffffffffff811115610a6357610a636109c8565b610a76601f8201601f1916602001610a07565b818152846020838601011115610a8b57600080fd5b816020850160208301376000918101602001919091529392505050565b60008060408385031215610abb57600080fd5b8235610ac6816106ac565b9150602083013567ffffffffffffffff811115610ae257600080fd5b61073985828601610a38565b6001600160a01b0383168152604060208201819052600090610375908301846108fb565b600060608236031215610b2457600080fd5b610b2c6109de565b8235610b37816106ac565b815260208381013567ffffffffffffffff80821115610b5557600080fd5b9085019036601f830112610b6857600080fd5b813581811115610b7a57610b7a6109c8565b8060051b610b89858201610a07565b9182528381018501918581019036841115610ba357600080fd5b948601945b83861015610bcd5785359250610bbd836106ac565b8282529486019490860190610ba8565b8087890152505050506040860135925080831115610bea57600080fd5b5050610bf836828601610a38565b60408301525092915050565b6001600160a01b03838116825260406020808401829052845190921690830152820151606080830152600090610c3d60a08401826108b7565b90506040840151603f19848303016080850152610c5a8282610871565b9695505050505050565b634e487b7160e01b600052603260045260246000fd5b634e487b7160e01b600052601160045260246000fd5b60006001600160a01b038281166002600160a01b03198101610cb457610cb4610c7a565b6001019392505050565b6001600160a01b038316815260406020820181905260009061037590830184610871565b6001600160a01b03828116828216039080821115610d0257610d02610c7a565b509291505056fea264697066735822122019d11b900a262925ddfb72f33cff26eeade36e47bd3790b341024fe3851ba8cc64736f6c63430008110033","linkReferences":{}},"methodIdentifiers":{"implementation()":"5c60da1b","mockHelperCount(uint160)":"46c20024","mockPermissionIndexes(uint160,uint160)":"bc93bb2e","prepareInstallation(address,bytes)":"f10832f1","prepareUninstallation(address,(address,address[],bytes))":"9cb0a124","prepareUpdate(address,uint16,(address,address[],bytes))":"a8a9c29e","protocolVersion()":"2ae9c600","reset()":"d826f88f","supportsInterface(bytes4)":"01ffc9a7"},"id":237}