{"abi":[{"type":"constructor","inputs":[],"stateMutability":"nonpayable"},{"type":"function","name":"REGISTER_ENS_SUBDOMAIN_PERMISSION_ID","inputs":[],"outputs":[{"name":"","type":"bytes32","internalType":"bytes32"}],"stateMutability":"view"},{"type":"function","name":"UPGRADE_REGISTRAR_PERMISSION_ID","inputs":[],"outputs":[{"name":"","type":"bytes32","internalType":"bytes32"}],"stateMutability":"view"},{"type":"function","name":"dao","inputs":[],"outputs":[{"name":"","type":"address","internalType":"contract IDAO"}],"stateMutability":"view"},{"type":"function","name":"ens","inputs":[],"outputs":[{"name":"","type":"address","internalType":"contract ENS"}],"stateMutability":"view"},{"type":"function","name":"initialize","inputs":[{"name":"_managingDao","type":"address","internalType":"contract IDAO"},{"name":"_ens","type":"address","internalType":"contract ENS"},{"name":"_node","type":"bytes32","internalType":"bytes32"}],"outputs":[],"stateMutability":"nonpayable"},{"type":"function","name":"node","inputs":[],"outputs":[{"name":"","type":"bytes32","internalType":"bytes32"}],"stateMutability":"view"},{"type":"function","name":"protocolVersion","inputs":[],"outputs":[{"name":"","type":"uint8[3]","internalType":"uint8[3]"}],"stateMutability":"pure"},{"type":"function","name":"proxiableUUID","inputs":[],"outputs":[{"name":"","type":"bytes32","internalType":"bytes32"}],"stateMutability":"view"},{"type":"function","name":"registerSubnode","inputs":[{"name":"_label","type":"bytes32","internalType":"bytes32"},{"name":"_targetAddress","type":"address","internalType":"address"}],"outputs":[],"stateMutability":"nonpayable"},{"type":"function","name":"resolver","inputs":[],"outputs":[{"name":"","type":"address","internalType":"address"}],"stateMutability":"view"},{"type":"function","name":"setDefaultResolver","inputs":[{"name":"_resolver","type":"address","internalType":"address"}],"outputs":[],"stateMutability":"nonpayable"},{"type":"function","name":"upgradeTo","inputs":[{"name":"newImplementation","type":"address","internalType":"address"}],"outputs":[],"stateMutability":"nonpayable"},{"type":"function","name":"upgradeToAndCall","inputs":[{"name":"newImplementation","type":"address","internalType":"address"},{"name":"data","type":"bytes","internalType":"bytes"}],"outputs":[],"stateMutability":"payable"},{"type":"event","name":"AdminChanged","inputs":[{"name":"previousAdmin","type":"address","indexed":false,"internalType":"address"},{"name":"newAdmin","type":"address","indexed":false,"internalType":"address"}],"anonymous":false},{"type":"event","name":"BeaconUpgraded","inputs":[{"name":"beacon","type":"address","indexed":true,"internalType":"address"}],"anonymous":false},{"type":"event","name":"Initialized","inputs":[{"name":"version","type":"uint8","indexed":false,"internalType":"uint8"}],"anonymous":false},{"type":"event","name":"Upgraded","inputs":[{"name":"implementation","type":"address","indexed":true,"internalType":"address"}],"anonymous":false},{"type":"error","name":"AlreadyRegistered","inputs":[{"name":"subnode","type":"bytes32","internalType":"bytes32"},{"name":"nodeOwner","type":"address","internalType":"address"}]},{"type":"error","name":"DaoUnauthorized","inputs":[{"name":"dao","type":"address","internalType":"address"},{"name":"where","type":"address","internalType":"address"},{"name":"who","type":"address","internalType":"address"},{"name":"permissionId","type":"bytes32","internalType":"bytes32"}]},{"type":"error","name":"InvalidResolver","inputs":[{"name":"node","type":"bytes32","internalType":"bytes32"},{"name":"resolver","type":"address","internalType":"address"}]}],"bytecode":{"object":"0x60a06040523060805234801561001457600080fd5b5061001d610022565b6100e1565b600054610100900460ff161561008e5760405162461bcd60e51b815260206004820152602760248201527f496e697469616c697a61626c653a20636f6e747261637420697320696e697469604482015266616c697a696e6760c81b606482015260840160405180910390fd5b60005460ff908116146100df576000805460ff191660ff9081179091556040519081527f7f26b83ff96e1f2b6a682f133852f6798a09c465da95921460cefb38474024989060200160405180910390a15b565b608051611379610118600039600081816102ce01528181610317015281816103b6015281816103f6015261048901526113796000f3fe6080604052600436106100c25760003560e01c806352d1902d1161007f5780639848ba51116100595780639848ba51146101fc578063af7b2fed14610230578063c66485b214610264578063d70754ec1461028457600080fd5b806352d1902d146101995780636133f985146101bc57806389bb4145146101dc57600080fd5b806304f3bcec146100c75780632ae9c600146101045780633659cfe6146101265780633f15457f146101485780634162169f146101685780634f1ef28614610186575b600080fd5b3480156100d357600080fd5b5060cb546100e7906001600160a01b031681565b6040516001600160a01b0390911681526020015b60405180910390f35b34801561011057600080fd5b5061011961029a565b6040516100fb9190610f94565b34801561013257600080fd5b50610146610141366004610fdd565b6102c4565b005b34801561015457600080fd5b5060c9546100e7906001600160a01b031681565b34801561017457600080fd5b506097546001600160a01b03166100e7565b610146610194366004611010565b6103ac565b3480156101a557600080fd5b506101ae61047c565b6040519081526020016100fb565b3480156101c857600080fd5b506101466101d73660046110d4565b61052f565b3480156101e857600080fd5b506101466101f7366004611115565b610724565b34801561020857600080fd5b506101ae7fbbdfd23f099d7ed9f535e0f97d2123efb1332b16e023b8359b3b879eaecd3c1481565b34801561023c57600080fd5b506101ae7fa1fcba4efb1e94b7648f5e0504bfd39734aead5f17965d12705915d771c859ff81565b34801561027057600080fd5b5061014661027f366004610fdd565b61099b565b34801561029057600080fd5b506101ae60ca5481565b6102a2610f76565b5060408051606081018252600181526004602082015260009181019190915290565b6001600160a01b037f00000000000000000000000000000000000000000000000000000000000000001630036103155760405162461bcd60e51b815260040161030c90611145565b60405180910390fd5b7f00000000000000000000000000000000000000000000000000000000000000006001600160a01b031661035e6000805160206112fd833981519152546001600160a01b031690565b6001600160a01b0316146103845760405162461bcd60e51b815260040161030c90611191565b61038d81610a34565b604080516000808252602082019092526103a991839190610a6d565b50565b6001600160a01b037f00000000000000000000000000000000000000000000000000000000000000001630036103f45760405162461bcd60e51b815260040161030c90611145565b7f00000000000000000000000000000000000000000000000000000000000000006001600160a01b031661043d6000805160206112fd833981519152546001600160a01b031690565b6001600160a01b0316146104635760405162461bcd60e51b815260040161030c90611191565b61046c82610a34565b61047882826001610a6d565b5050565b6000306001600160a01b037f0000000000000000000000000000000000000000000000000000000000000000161461051c5760405162461bcd60e51b815260206004820152603860248201527f555550535570677261646561626c653a206d757374206e6f742062652063616c60448201527f6c6564207468726f7567682064656c656761746563616c6c0000000000000000606482015260840161030c565b506000805160206112fd83398151915290565b600054610100900460ff161580801561054f5750600054600160ff909116105b806105695750303b158015610569575060005460ff166001145b6105cc5760405162461bcd60e51b815260206004820152602e60248201527f496e697469616c697a61626c653a20636f6e747261637420697320616c72656160448201526d191e481a5b9a5d1a585b1a5e995960921b606482015260840161030c565b6000805460ff1916600117905580156105ef576000805461ff0019166101001790555b6105f884610bdd565b60c980546001600160a01b0319166001600160a01b03851690811790915560ca839055604051630178b8bf60e01b81526004810184905260009190630178b8bf90602401602060405180830381865afa158015610659573d6000803e3d6000fd5b505050506040513d601f19601f8201168201806040525081019061067d91906111dd565b90506001600160a01b0381166106b857604051630d7097c560e11b8152600481018490526001600160a01b038216602482015260440161030c565b60cb80546001600160a01b0319166001600160a01b0392909216919091179055801561071e576000805461ff0019169055604051600181527f7f26b83ff96e1f2b6a682f133852f6798a09c465da95921460cefb38474024989060200160405180910390a15b50505050565b6097547fbbdfd23f099d7ed9f535e0f97d2123efb1332b16e023b8359b3b879eaecd3c1490610762906001600160a01b031630335b84600036610c6a565b600060ca5484604051602001610782929190918252602082015260400190565b60408051808303601f1901815290829052805160209091012060c9546302571be360e01b8352600483018290529092506000916001600160a01b03909116906302571be390602401602060405180830381865afa1580156107e7573d6000803e3d6000fd5b505050506040513d601f19601f8201168201806040525081019061080b91906111dd565b90506001600160a01b038116156108465760405162fcad5d60e11b8152600481018390526001600160a01b038216602482015260440161030c565b60c95460ca546040516306ab592360e01b81526004810191909152602481018790523060448201526001600160a01b03909116906306ab5923906064016020604051808303816000875af11580156108a2573d6000803e3d6000fd5b505050506040513d601f19601f820116820180604052508101906108c691906111fa565b5060c95460cb54604051630c4b7b8560e11b8152600481018590526001600160a01b039182166024820152911690631896f70a90604401600060405180830381600087803b15801561091757600080fd5b505af115801561092b573d6000803e3d6000fd5b505060cb5460405162d5fa2b60e81b8152600481018690526001600160a01b038881166024830152909116925063d5fa2b009150604401600060405180830381600087803b15801561097c57600080fd5b505af1158015610990573d6000803e3d6000fd5b505050505050505050565b6097547fbbdfd23f099d7ed9f535e0f97d2123efb1332b16e023b8359b3b879eaecd3c14906109d4906001600160a01b03163033610759565b6001600160a01b038216610a115760ca54604051630d7097c560e11b815260048101919091526001600160a01b038316602482015260440161030c565b5060cb80546001600160a01b0319166001600160a01b0392909216919091179055565b6097547fa1fcba4efb1e94b7648f5e0504bfd39734aead5f17965d12705915d771c859ff90610478906001600160a01b03163033610759565b7f4910fdfa16fed3260ed0e7147f7cc6da11a60208b5b9406d12a635614ffd91435460ff1615610aa557610aa083610d26565b505050565b826001600160a01b03166352d1902d6040518163ffffffff1660e01b8152600401602060405180830381865afa925050508015610aff575060408051601f3d908101601f19168201909252610afc918101906111fa565b60015b610b625760405162461bcd60e51b815260206004820152602e60248201527f45524331393637557067726164653a206e657720696d706c656d656e7461746960448201526d6f6e206973206e6f74205555505360901b606482015260840161030c565b6000805160206112fd8339815191528114610bd15760405162461bcd60e51b815260206004820152602960248201527f45524331393637557067726164653a20756e737570706f727465642070726f786044820152681a58589b195555525160ba1b606482015260840161030c565b50610aa0838383610dc2565b600054610100900460ff16610c485760405162461bcd60e51b815260206004820152602b60248201527f496e697469616c697a61626c653a20636f6e7472616374206973206e6f74206960448201526a6e697469616c697a696e6760a81b606482015260840161030c565b609780546001600160a01b0319166001600160a01b0392909216919091179055565b604051637ef7c88360e11b81526001600160a01b0387169063fdef910690610c9e9088908890889088908890600401611213565b602060405180830381865afa158015610cbb573d6000803e3d6000fd5b505050506040513d601f19601f82011682018060405250810190610cdf9190611267565b610d1e57604051630cb6f8ed60e21b81526001600160a01b0380881660048301528087166024830152851660448201526064810184905260840161030c565b505050505050565b6001600160a01b0381163b610d935760405162461bcd60e51b815260206004820152602d60248201527f455243313936373a206e657720696d706c656d656e746174696f6e206973206e60448201526c1bdd08184818dbdb9d1c9858dd609a1b606482015260840161030c565b6000805160206112fd83398151915280546001600160a01b0319166001600160a01b0392909216919091179055565b610dcb83610de7565b600082511180610dd85750805b15610aa05761071e8383610e27565b610df081610d26565b6040516001600160a01b038216907fbc7cd75a20ee27fd9adebab32041f755214dbc6bffa90cc0225b39da2e5c2d3b90600090a250565b6060610e4c838360405180606001604052806027815260200161131d60279139610e53565b9392505050565b6060600080856001600160a01b031685604051610e7091906112ad565b600060405180830381855af49150503d8060008114610eab576040519150601f19603f3d011682016040523d82523d6000602084013e610eb0565b606091505b5091509150610ec186838387610ecb565b9695505050505050565b60608315610f3a578251600003610f33576001600160a01b0385163b610f335760405162461bcd60e51b815260206004820152601d60248201527f416464726573733a2063616c6c20746f206e6f6e2d636f6e7472616374000000604482015260640161030c565b5081610f44565b610f448383610f4c565b949350505050565b815115610f5c5781518083602001fd5b8060405162461bcd60e51b815260040161030c91906112c9565b60405180606001604052806003906020820280368337509192915050565b60608101818360005b6003811015610fbf57815160ff16835260209283019290910190600101610f9d565b50505092915050565b6001600160a01b03811681146103a957600080fd5b600060208284031215610fef57600080fd5b8135610e4c81610fc8565b634e487b7160e01b600052604160045260246000fd5b6000806040838503121561102357600080fd5b823561102e81610fc8565b9150602083013567ffffffffffffffff8082111561104b57600080fd5b818501915085601f83011261105f57600080fd5b81358181111561107157611071610ffa565b604051601f8201601f19908116603f0116810190838211818310171561109957611099610ffa565b816040528281528860208487010111156110b257600080fd5b8260208601602083013760006020848301015280955050505050509250929050565b6000806000606084860312156110e957600080fd5b83356110f481610fc8565b9250602084013561110481610fc8565b929592945050506040919091013590565b6000806040838503121561112857600080fd5b82359150602083013561113a81610fc8565b809150509250929050565b6020808252602c908201527f46756e6374696f6e206d7573742062652063616c6c6564207468726f7567682060408201526b19195b1959d85d1958d85b1b60a21b606082015260800190565b6020808252602c908201527f46756e6374696f6e206d7573742062652063616c6c6564207468726f7567682060408201526b6163746976652070726f787960a01b606082015260800190565b6000602082840312156111ef57600080fd5b8151610e4c81610fc8565b60006020828403121561120c57600080fd5b5051919050565b6001600160a01b038681168252851660208201526040810184905260806060820181905281018290526000828460a0840137600060a0848401015260a0601f19601f85011683010190509695505050505050565b60006020828403121561127957600080fd5b81518015158114610e4c57600080fd5b60005b838110156112a457818101518382015260200161128c565b50506000910152565b600082516112bf818460208701611289565b9190910192915050565b60208152600082518060208401526112e8816040850160208701611289565b601f01601f1916919091016040019291505056fe360894a13ba1a3210667c828492db98dca3e2076cc3735a920a3ca505d382bbc416464726573733a206c6f772d6c6576656c2064656c65676174652063616c6c206661696c6564a2646970667358221220396556be21ff3bd5eb3c95edf364090a4654b67bc5d61c76c035036203803e7164736f6c63430008110033","linkReferences":{}},"methodIdentifiers":{"REGISTER_ENS_SUBDOMAIN_PERMISSION_ID()":"9848ba51","UPGRADE_REGISTRAR_PERMISSION_ID()":"af7b2fed","dao()":"4162169f","ens()":"3f15457f","initialize(address,address,bytes32)":"6133f985","node()":"d70754ec","protocolVersion()":"2ae9c600","proxiableUUID()":"52d1902d","registerSubnode(bytes32,address)":"89bb4145","resolver()":"04f3bcec","setDefaultResolver(address)":"c66485b2","upgradeTo(address)":"3659cfe6","upgradeToAndCall(address,bytes)":"4f1ef286"},"id":225}