{"abi":[{"type":"constructor","inputs":[],"stateMutability":"nonpayable"},{"type":"fallback","stateMutability":"nonpayable"},{"type":"receive","stateMutability":"payable"},{"type":"function","name":"EXECUTE_PERMISSION_ID","inputs":[],"outputs":[{"name":"","type":"bytes32","internalType":"bytes32"}],"stateMutability":"view"},{"type":"function","name":"REGISTER_STANDARD_CALLBACK_PERMISSION_ID","inputs":[],"outputs":[{"name":"","type":"bytes32","internalType":"bytes32"}],"stateMutability":"view"},{"type":"function","name":"ROOT_PERMISSION_ID","inputs":[],"outputs":[{"name":"","type":"bytes32","internalType":"bytes32"}],"stateMutability":"view"},{"type":"function","name":"SET_METADATA_PERMISSION_ID","inputs":[],"outputs":[{"name":"","type":"bytes32","internalType":"bytes32"}],"stateMutability":"view"},{"type":"function","name":"SET_SIGNATURE_VALIDATOR_PERMISSION_ID","inputs":[],"outputs":[{"name":"","type":"bytes32","internalType":"bytes32"}],"stateMutability":"view"},{"type":"function","name":"SET_TRUSTED_FORWARDER_PERMISSION_ID","inputs":[],"outputs":[{"name":"","type":"bytes32","internalType":"bytes32"}],"stateMutability":"view"},{"type":"function","name":"UPGRADE_DAO_PERMISSION_ID","inputs":[],"outputs":[{"name":"","type":"bytes32","internalType":"bytes32"}],"stateMutability":"view"},{"type":"function","name":"applyMultiTargetPermissions","inputs":[{"name":"_items","type":"tuple[]","internalType":"struct PermissionLib.MultiTargetPermission[]","components":[{"name":"operation","type":"uint8","internalType":"enum PermissionLib.Operation"},{"name":"where","type":"address","internalType":"address"},{"name":"who","type":"address","internalType":"address"},{"name":"condition","type":"address","internalType":"address"},{"name":"permissionId","type":"bytes32","internalType":"bytes32"}]}],"outputs":[],"stateMutability":"nonpayable"},{"type":"function","name":"applySingleTargetPermissions","inputs":[{"name":"_where","type":"address","internalType":"address"},{"name":"items","type":"tuple[]","internalType":"struct PermissionLib.SingleTargetPermission[]","components":[{"name":"operation","type":"uint8","internalType":"enum PermissionLib.Operation"},{"name":"who","type":"address","internalType":"address"},{"name":"permissionId","type":"bytes32","internalType":"bytes32"}]}],"outputs":[],"stateMutability":"nonpayable"},{"type":"function","name":"daoURI","inputs":[],"outputs":[{"name":"","type":"string","internalType":"string"}],"stateMutability":"view"},{"type":"function","name":"deposit","inputs":[{"name":"_token","type":"address","internalType":"address"},{"name":"_amount","type":"uint256","internalType":"uint256"},{"name":"_reference","type":"string","internalType":"string"}],"outputs":[],"stateMutability":"payable"},{"type":"function","name":"execute","inputs":[{"name":"_callId","type":"bytes32","internalType":"bytes32"},{"name":"_actions","type":"tuple[]","internalType":"struct IDAO.Action[]","components":[{"name":"to","type":"address","internalType":"address"},{"name":"value","type":"uint256","internalType":"uint256"},{"name":"data","type":"bytes","internalType":"bytes"}]},{"name":"_allowFailureMap","type":"uint256","internalType":"uint256"}],"outputs":[{"name":"execResults","type":"bytes[]","internalType":"bytes[]"},{"name":"failureMap","type":"uint256","internalType":"uint256"}],"stateMutability":"nonpayable"},{"type":"function","name":"getTrustedForwarder","inputs":[],"outputs":[{"name":"","type":"address","internalType":"address"}],"stateMutability":"view"},{"type":"function","name":"grant","inputs":[{"name":"_where","type":"address","internalType":"address"},{"name":"_who","type":"address","internalType":"address"},{"name":"_permissionId","type":"bytes32","internalType":"bytes32"}],"outputs":[],"stateMutability":"nonpayable"},{"type":"function","name":"grantWithCondition","inputs":[{"name":"_where","type":"address","internalType":"address"},{"name":"_who","type":"address","internalType":"address"},{"name":"_permissionId","type":"bytes32","internalType":"bytes32"},{"name":"_condition","type":"address","internalType":"contract IPermissionCondition"}],"outputs":[],"stateMutability":"nonpayable"},{"type":"function","name":"hasPermission","inputs":[{"name":"_where","type":"address","internalType":"address"},{"name":"_who","type":"address","internalType":"address"},{"name":"_permissionId","type":"bytes32","internalType":"bytes32"},{"name":"_data","type":"bytes","internalType":"bytes"}],"outputs":[{"name":"","type":"bool","internalType":"bool"}],"stateMutability":"view"},{"type":"function","name":"initialize","inputs":[{"name":"_metadata","type":"bytes","internalType":"bytes"},{"name":"_initialOwner","type":"address","internalType":"address"},{"name":"_trustedForwarder","type":"address","internalType":"address"},{"name":"daoURI_","type":"string","internalType":"string"}],"outputs":[],"stateMutability":"nonpayable"},{"type":"function","name":"isGranted","inputs":[{"name":"_where","type":"address","internalType":"address"},{"name":"_who","type":"address","internalType":"address"},{"name":"_permissionId","type":"bytes32","internalType":"bytes32"},{"name":"_data","type":"bytes","internalType":"bytes"}],"outputs":[{"name":"","type":"bool","internalType":"bool"}],"stateMutability":"view"},{"type":"function","name":"isValidSignature","inputs":[{"name":"_hash","type":"bytes32","internalType":"bytes32"},{"name":"_signature","type":"bytes","internalType":"bytes"}],"outputs":[{"name":"","type":"bytes4","internalType":"bytes4"}],"stateMutability":"view"},{"type":"function","name":"proxiableUUID","inputs":[],"outputs":[{"name":"","type":"bytes32","internalType":"bytes32"}],"stateMutability":"view"},{"type":"function","name":"registerStandardCallback","inputs":[{"name":"_interfaceId","type":"bytes4","internalType":"bytes4"},{"name":"_callbackSelector","type":"bytes4","internalType":"bytes4"},{"name":"_magicNumber","type":"bytes4","internalType":"bytes4"}],"outputs":[],"stateMutability":"nonpayable"},{"type":"function","name":"revoke","inputs":[{"name":"_where","type":"address","internalType":"address"},{"name":"_who","type":"address","internalType":"address"},{"name":"_permissionId","type":"bytes32","internalType":"bytes32"}],"outputs":[],"stateMutability":"nonpayable"},{"type":"function","name":"setDaoURI","inputs":[{"name":"newDaoURI","type":"string","internalType":"string"}],"outputs":[],"stateMutability":"nonpayable"},{"type":"function","name":"setMetadata","inputs":[{"name":"_metadata","type":"bytes","internalType":"bytes"}],"outputs":[],"stateMutability":"nonpayable"},{"type":"function","name":"setSignatureValidator","inputs":[{"name":"_signatureValidator","type":"address","internalType":"address"}],"outputs":[],"stateMutability":"nonpayable"},{"type":"function","name":"setTrustedForwarder","inputs":[{"name":"_newTrustedForwarder","type":"address","internalType":"address"}],"outputs":[],"stateMutability":"nonpayable"},{"type":"function","name":"signatureValidator","inputs":[],"outputs":[{"name":"","type":"address","internalType":"contract IERC1271"}],"stateMutability":"view"},{"type":"function","name":"supportsInterface","inputs":[{"name":"interfaceId","type":"bytes4","internalType":"bytes4"}],"outputs":[{"name":"","type":"bool","internalType":"bool"}],"stateMutability":"view"},{"type":"function","name":"upgradeTo","inputs":[{"name":"newImplementation","type":"address","internalType":"address"}],"outputs":[],"stateMutability":"nonpayable"},{"type":"function","name":"upgradeToAndCall","inputs":[{"name":"newImplementation","type":"address","internalType":"address"},{"name":"data","type":"bytes","internalType":"bytes"}],"outputs":[],"stateMutability":"payable"},{"type":"event","name":"AdminChanged","inputs":[{"name":"previousAdmin","type":"address","indexed":false,"internalType":"address"},{"name":"newAdmin","type":"address","indexed":false,"internalType":"address"}],"anonymous":false},{"type":"event","name":"BeaconUpgraded","inputs":[{"name":"beacon","type":"address","indexed":true,"internalType":"address"}],"anonymous":false},{"type":"event","name":"CallbackReceived","inputs":[{"name":"sender","type":"address","indexed":false,"internalType":"address"},{"name":"sig","type":"bytes4","indexed":true,"internalType":"bytes4"},{"name":"data","type":"bytes","indexed":false,"internalType":"bytes"}],"anonymous":false},{"type":"event","name":"Deposited","inputs":[{"name":"sender","type":"address","indexed":true,"internalType":"address"},{"name":"token","type":"address","indexed":true,"internalType":"address"},{"name":"amount","type":"uint256","indexed":false,"internalType":"uint256"},{"name":"_reference","type":"string","indexed":false,"internalType":"string"}],"anonymous":false},{"type":"event","name":"Executed","inputs":[{"name":"actor","type":"address","indexed":true,"internalType":"address"},{"name":"callId","type":"bytes32","indexed":false,"internalType":"bytes32"},{"name":"actions","type":"tuple[]","indexed":false,"internalType":"struct IDAO.Action[]","components":[{"name":"to","type":"address","internalType":"address"},{"name":"value","type":"uint256","internalType":"uint256"},{"name":"data","type":"bytes","internalType":"bytes"}]},{"name":"failureMap","type":"uint256","indexed":false,"internalType":"uint256"},{"name":"execResults","type":"bytes[]","indexed":false,"internalType":"bytes[]"}],"anonymous":false},{"type":"event","name":"Granted","inputs":[{"name":"permissionId","type":"bytes32","indexed":true,"internalType":"bytes32"},{"name":"here","type":"address","indexed":true,"internalType":"address"},{"name":"where","type":"address","indexed":false,"internalType":"address"},{"name":"who","type":"address","indexed":true,"internalType":"address"},{"name":"condition","type":"address","indexed":false,"internalType":"contract IPermissionCondition"}],"anonymous":false},{"type":"event","name":"Initialized","inputs":[{"name":"version","type":"uint8","indexed":false,"internalType":"uint8"}],"anonymous":false},{"type":"event","name":"MetadataSet","inputs":[{"name":"metadata","type":"bytes","indexed":false,"internalType":"bytes"}],"anonymous":false},{"type":"event","name":"NativeTokenDeposited","inputs":[{"name":"sender","type":"address","indexed":false,"internalType":"address"},{"name":"amount","type":"uint256","indexed":false,"internalType":"uint256"}],"anonymous":false},{"type":"event","name":"NewURI","inputs":[{"name":"daoURI","type":"string","indexed":false,"internalType":"string"}],"anonymous":false},{"type":"event","name":"Revoked","inputs":[{"name":"permissionId","type":"bytes32","indexed":true,"internalType":"bytes32"},{"name":"here","type":"address","indexed":true,"internalType":"address"},{"name":"where","type":"address","indexed":false,"internalType":"address"},{"name":"who","type":"address","indexed":true,"internalType":"address"}],"anonymous":false},{"type":"event","name":"SignatureValidatorSet","inputs":[{"name":"signatureValidator","type":"address","indexed":false,"internalType":"address"}],"anonymous":false},{"type":"event","name":"StandardCallbackRegistered","inputs":[{"name":"interfaceId","type":"bytes4","indexed":false,"internalType":"bytes4"},{"name":"callbackSelector","type":"bytes4","indexed":false,"internalType":"bytes4"},{"name":"magicNumber","type":"bytes4","indexed":false,"internalType":"bytes4"}],"anonymous":false},{"type":"event","name":"TrustedForwarderSet","inputs":[{"name":"forwarder","type":"address","indexed":false,"internalType":"address"}],"anonymous":false},{"type":"event","name":"Upgraded","inputs":[{"name":"implementation","type":"address","indexed":true,"internalType":"address"}],"anonymous":false},{"type":"error","name":"ActionFailed","inputs":[{"name":"index","type":"uint256","internalType":"uint256"}]},{"type":"error","name":"AnyAddressDisallowedForWhoAndWhere","inputs":[]},{"type":"error","name":"ConditionNotPresentForAnyAddress","inputs":[]},{"type":"error","name":"NativeTokenDepositAmountMismatch","inputs":[{"name":"expected","type":"uint256","internalType":"uint256"},{"name":"actual","type":"uint256","internalType":"uint256"}]},{"type":"error","name":"PermissionAlreadyGrantedForDifferentCondition","inputs":[{"name":"where","type":"address","internalType":"address"},{"name":"who","type":"address","internalType":"address"},{"name":"permissionId","type":"bytes32","internalType":"bytes32"},{"name":"currentCondition","type":"address","internalType":"address"},{"name":"newCondition","type":"address","internalType":"address"}]},{"type":"error","name":"PermissionsForAnyAddressDisallowed","inputs":[]},{"type":"error","name":"TooManyActions","inputs":[]},{"type":"error","name":"Unauthorized","inputs":[{"name":"where","type":"address","internalType":"address"},{"name":"who","type":"address","internalType":"address"},{"name":"permissionId","type":"bytes32","internalType":"bytes32"}]},{"type":"error","name":"UnkownCallback","inputs":[{"name":"callbackSelector","type":"bytes4","internalType":"bytes4"},{"name":"magicNumber","type":"bytes4","internalType":"bytes4"}]},{"type":"error","name":"ZeroAmount","inputs":[]}],"bytecode":{"object":"0x60a0604052306080523480156200001557600080fd5b506200002062000026565b620000e7565b600054610100900460ff1615620000935760405162461bcd60e51b815260206004820152602760248201527f496e697469616c697a61626c653a20636f6e747261637420697320696e697469604482015266616c697a696e6760c81b606482015260840160405180910390fd5b60005460ff90811614620000e5576000805460ff191660ff9081179091556040519081527f7f26b83ff96e1f2b6a682f133852f6798a09c465da95921460cefb38474024989060200160405180910390a15b565b608051612eba6200011f600039600081816109c401528181610a0401528181610b2401528181610b640152610bf70152612eba6000f3fe6080604052600436106101d15760003560e01c8063829331a1116100f7578063d96054c411610095578063e978afe511610064578063e978afe51461068e578063eafb8b06146106ae578063ee57e36f146106ce578063fdef9106146106ee57610210565b8063d96054c4146105f8578063da74222814610618578063e2e3556314610638578063e306bee71461066c57610210565b8063c71bf324116100d1578063c71bf3241461056b578063c9dbc2a414610599578063ce1b815f146105b9578063d68bad2c146105d857610210565b8063829331a114610504578063bfe07da614610538578063c4a501451461054b57610210565b80632675fdd01161016f5780633e2ab0d91161013e5780633e2ab0d91461049a5780634f1ef286146104ba57806352d1902d146104cd5780637034731b146104e257610210565b80632675fdd0146103ed57806326875b1f1461040d5780633659cfe614610441578063388da9341461046157610210565b80631080f99b116101ab5780631080f99b1461033e5780631626ba7e1461036057806322844d041461039957806324b4d73f146103b957610210565b806301ffc9a7146102a55780630729d054146102da57806309e56b141461031c57610210565b3661021057604080513381523460208201527f62c2c8e34665db7c56b2cabd7f5fb9702ccd352ffa8150147e450797e9f8e8f3910160405180910390a1005b34801561021c57600080fd5b50600036606060006102706000356001600160e01b03191685858080601f01602080910402602001604051908101604052809392919081815260200183838082843760009201919091525061070e92505050565b604080516001600160e01b03198316602082015291925001604051602081830303815290604052915050915050805190602001f35b3480156102b157600080fd5b506102c56102c03660046121ab565b6107b7565b60405190151581526020015b60405180910390f35b3480156102e657600080fd5b5061030e7fbf04b4486c9663d805744005c3da000eda93de6e3308a4a7a812eb565327b78d81565b6040519081526020016102d1565b34801561032857600080fd5b5061030e600080516020612e6583398151915281565b34801561034a57600080fd5b5061035e610359366004612210565b6107f3565b005b34801561036c57600080fd5b5061038061037b3660046122f3565b61081a565b6040516001600160e01b031990911681526020016102d1565b3480156103a557600080fd5b5061035e6103b436600461234e565b6108b1565b3480156103c557600080fd5b5061030e7f1f53edd44352e5d15bad2b29233baa93bcd595e09457780bc7c5445bbbe751cc81565b3480156103f957600080fd5b506102c56104083660046123d5565b61096f565b34801561041957600080fd5b5061030e7ffaf505be9907aa6951c2ebe5b0312f4980e14f21912ed355372103cc8bd683bc81565b34801561044d57600080fd5b5061035e61045c366004612440565b6109ba565b34801561046d57600080fd5b5061012d54610482906001600160a01b031681565b6040516001600160a01b0390911681526020016102d1565b3480156104a657600080fd5b5061035e6104b5366004612440565b610a99565b61035e6104c836600461245d565b610b1a565b3480156104d957600080fd5b5061030e610bea565b3480156104ee57600080fd5b506104f7610c9d565b6040516102d191906124e6565b34801561051057600080fd5b5061030e7f06d294bc8cbad2e393408b20dd019a772661f60b8d633e56761157cb1ec85f8c81565b61035e6105463660046124f9565b610d30565b34801561055757600080fd5b5061035e610566366004612554565b610e1f565b34801561057757600080fd5b5061058b61058636600461259f565b610eae565b6040516102d1929190612678565b3480156105a557600080fd5b5061035e6105b436600461269a565b611104565b3480156105c557600080fd5b5061012e546001600160a01b0316610482565b3480156105e457600080fd5b5061035e6105f33660046126ed565b611128565b34801561060457600080fd5b5061035e6106133660046126ed565b611151565b34801561062457600080fd5b5061035e610633366004612440565b611174565b34801561064457600080fd5b5061030e7f0dcbfb19b09fb8ff4e9af583d4b8e9c8127cc1b26529b4d96dd3b7e77808837281565b34801561067857600080fd5b5061030e600080516020612dfe83398151915281565b34801561069a57600080fd5b5061035e6106a936600461272e565b6111a7565b3480156106ba57600080fd5b5061035e6106c93660046127a2565b61129c565b3480156106da57600080fd5b5061035e6106e9366004612210565b611409565b3480156106fa57600080fd5b506102c56107093660046123d5565b61142b565b6001600160e01b0319808316600090815260fb6020526040812054909160e09190911b90811661076a57604051632a5ee61f60e11b81526001600160e01b03198086166004830152821660248201526044015b60405180910390fd5b836001600160e01b0319167f4792cb6e46e49876374bea490ba23274bacea6b84c216a64f47abab54027589b33856040516107a692919061283a565b60405180910390a290505b92915050565b60006301ffc9a760e01b6001600160e01b0319831614806107b15750506001600160e01b03191660009081526033602052604090205460ff1690565b600080516020612dfe83398151915261080b81611439565b61081583836114a8565b505050565b61012d546000906001600160a01b0316610836575060006107b1565b61012d54604051630b135d3f60e11b81526001600160a01b0390911690631626ba7e90610869908690869060040161285e565b602060405180830381865afa158015610886573d6000803e3d6000fd5b505050506040513d601f19601f820116820180604052508101906108aa9190612877565b9392505050565b600080516020612e658339815191526108c981611439565b60005b828110156109685760008484838181106108e8576108e8612894565b9050606002018036038101906108fe91906128be565b905060008151600281111561091557610915612926565b036109325761092d86826020015183604001516114e8565b61095f565b60018151600281111561094757610947612926565b0361095f5761095f86826020015183604001516114f5565b506001016108cc565b5050505050565b600061097d85858585611589565b806109965750610996856001600160a01b038585611589565b806109af57506109af6001600160a01b03858585611589565b90505b949350505050565b6001600160a01b037f0000000000000000000000000000000000000000000000000000000000000000163003610a025760405162461bcd60e51b81526004016107619061293c565b7f00000000000000000000000000000000000000000000000000000000000000006001600160a01b0316610a4b600080516020612e1e833981519152546001600160a01b031690565b6001600160a01b031614610a715760405162461bcd60e51b815260040161076190612988565b610a7a81611671565b60408051600080825260208201909252610a969183919061169b565b50565b7f0dcbfb19b09fb8ff4e9af583d4b8e9c8127cc1b26529b4d96dd3b7e778088372610ac381611439565b61012d80546001600160a01b0319166001600160a01b0384169081179091556040519081527f3b25c5d3870ec0eac28822b177f18c9130233ade5b7f857c6a224a507c37fc4e906020015b60405180910390a15050565b6001600160a01b037f0000000000000000000000000000000000000000000000000000000000000000163003610b625760405162461bcd60e51b81526004016107619061293c565b7f00000000000000000000000000000000000000000000000000000000000000006001600160a01b0316610bab600080516020612e1e833981519152546001600160a01b031690565b6001600160a01b031614610bd15760405162461bcd60e51b815260040161076190612988565b610bda82611671565b610be68282600161169b565b5050565b6000306001600160a01b037f00000000000000000000000000000000000000000000000000000000000000001614610c8a5760405162461bcd60e51b815260206004820152603860248201527f555550535570677261646561626c653a206d757374206e6f742062652063616c60448201527f6c6564207468726f7567682064656c656761746563616c6c00000000000000006064820152608401610761565b50600080516020612e1e83398151915290565b606061012f8054610cad906129d4565b80601f0160208091040260200160405190810160405280929190818152602001828054610cd9906129d4565b8015610d265780601f10610cfb57610100808354040283529160200191610d26565b820191906000526020600020905b815481529060010190602001808311610d0957829003601f168201915b5050505050905090565b82600003610d5157604051631f2a200560e01b815260040160405180910390fd5b6001600160a01b038416610d8d57823414610d88576040516301abd56160e41b815260048101849052346024820152604401610761565b610dca565b3415610db5576040516301abd56160e41b815260006004820152346024820152604401610761565b610dca6001600160a01b038516333086611806565b836001600160a01b0316336001600160a01b03167f2bc500cf071be2d1c1458ed6ff484cd4db4345ada8943dee7ff29e7af3558f76858585604051610e1193929190612a37565b60405180910390a350505050565b7ffaf505be9907aa6951c2ebe5b0312f4980e14f21912ed355372103cc8bd683bc610e4981611439565b610e5284611860565b610e5c83836118df565b604080516001600160e01b03198681168252858116602083015284168183015290517ffc72fd547553f7a663e0048e590afc9c47b56a4242e960f31cf4c62e23d308b99181900360600190a150505050565b606060007fbf04b4486c9663d805744005c3da000eda93de6e3308a4a7a812eb565327b78d610edc81611439565b610100851115610eff576040516308e3b1eb60e11b815260040160405180910390fd5b846001600160401b03811115610f1757610f17612251565b604051908082528060200260200182016040528015610f4a57816020015b6060815260200190600190039081610f355790505b50925060005b858110156110b0576000878783818110610f6c57610f6c612894565b9050602002810190610f7e9190612a51565b610f8c906020810190612440565b9050600080826001600160a01b03168a8a86818110610fad57610fad612894565b9050602002810190610fbf9190612a51565b602001358b8b87818110610fd557610fd5612894565b9050602002810190610fe79190612a51565b610ff5906040810190612a71565b604051611003929190612ab7565b60006040518083038185875af1925050503d8060008114611040576040519150601f19603f3d011682016040523d82523d6000602084013e611045565b606091505b50915091508161108457600160ff85161b88166110785760405163a6a7dbbd60e01b815260048101859052602401610761565b600160ff85161b861895505b8087858151811061109757611097612894565b6020026020010181905250836001019350505050610f50565b50336001600160a01b03167fd0de18eab8dc7532aab0fc4eb308477031cabf9fd312ea3b3a5fe9aa45ac8ed788888886886040516110f2959493929190612ac7565b60405180910390a25094509492505050565b600080516020612e6583398151915261111c81611439565b61096885858585611911565b600080516020612e6583398151915261114081611439565b61114b8484846114e8565b50505050565b600080516020612e6583398151915261116981611439565b61114b8484846114f5565b7f06d294bc8cbad2e393408b20dd019a772661f60b8d633e56761157cb1ec85f8c61119e81611439565b610be682611ae6565b600080516020612e658339815191526111bf81611439565b60005b8281101561114b5760008484838181106111de576111de612894565b905060a002018036038101906111f49190612bce565b905060008151600281111561120b5761120b612926565b0361122c576112278160200151826040015183608001516114e8565b611293565b60018151600281111561124157611241612926565b0361125d576112278160200151826040015183608001516114f5565b60028151600281111561127257611272612926565b03611293576112938160200151826040015183608001518460600151611911565b506001016111c2565b600054610100900460ff16158080156112bc5750600054600160ff909116105b806112d65750303b1580156112d6575060005460ff166001145b6113395760405162461bcd60e51b815260206004820152602e60248201527f496e697469616c697a61626c653a20636f6e747261637420697320616c72656160448201526d191e481a5b9a5d1a585b1a5e995960921b6064820152608401610761565b6000805460ff19166001179055801561135c576000805461ff0019166101001790555b61136c6349c2aa3f60e11b611860565b61137c630b135d3f60e11b611860565b61138c637034731b60e01b611860565b611394611b3b565b61139e8787611b90565b6113a784611ae6565b6113b183836114a8565b6113ba85611bc1565b8015611400576000805461ff0019169055604051600181527f7f26b83ff96e1f2b6a682f133852f6798a09c465da95921460cefb38474024989060200160405180910390a15b50505050505050565b600080516020612dfe83398151915261142181611439565b6108158383611b90565b60006109af8585858561096f565b61147c3033836000368080601f01602080910402602001604051908101604052809392919081815260200183838082843760009201919091525061096f92505050565b610a9657604051631e09743f60e01b815230600482015233602482015260448101829052606401610761565b61012f6114b6828483612caa565b507fe9b617ecb5f63f6a9ccd8d4d5fa0d7b2ef9b17ce3f48e6b135808d6a40e677428282604051610b0e929190612d69565b6108158383836002611911565b6000611502848484611c35565b600081815260c960205260409020549091506001600160a01b03161561114b57600081815260c9602090815260409182902080546001600160a01b031916905590516001600160a01b038681168252851691339185917f3ca48185ec3f6e47e24db18b13f1c65b1ce05da1659f9c1c4fe717dda5f67524910160405180910390a450505050565b60008060c9600061159b888888611c35565b81526020810191909152604001600020546001600160a01b03169050806115c65760009150506109b2565b6001196001600160a01b038216016115e25760019150506109b2565b6040516302675fdd60e41b81526001600160a01b03821690632675fdd090611614908990899089908990600401612d7d565b602060405180830381865afa92505050801561164d575060408051601f3d908101601f1916820190925261164a91810190612db0565b60015b15611665578015611663576001925050506109b2565b505b50600095945050505050565b7f1f53edd44352e5d15bad2b29233baa93bcd595e09457780bc7c5445bbbe751cc610be681611439565b7f4910fdfa16fed3260ed0e7147f7cc6da11a60208b5b9406d12a635614ffd91435460ff16156116ce5761081583611c9a565b826001600160a01b03166352d1902d6040518163ffffffff1660e01b8152600401602060405180830381865afa925050508015611728575060408051601f3d908101601f1916820190925261172591810190612dd2565b60015b61178b5760405162461bcd60e51b815260206004820152602e60248201527f45524331393637557067726164653a206e657720696d706c656d656e7461746960448201526d6f6e206973206e6f74205555505360901b6064820152608401610761565b600080516020612e1e83398151915281146117fa5760405162461bcd60e51b815260206004820152602960248201527f45524331393637557067726164653a20756e737570706f727465642070726f786044820152681a58589b195555525160ba1b6064820152608401610761565b50610815838383611d36565b604080516001600160a01b0385811660248301528416604482015260648082018490528251808303909101815260849091019091526020810180516001600160e01b03166323b872dd60e01b17905261114b908590611d5b565b6001600160e01b031980821690036118ba5760405162461bcd60e51b815260206004820152601c60248201527f4552433136353a20696e76616c696420696e74657266616365206964000000006044820152606401610761565b6001600160e01b0319166000908152603360205260409020805460ff19166001179055565b6001600160e01b031991909116600090815260fb60205260409020805463ffffffff191660e09290921c919091179055565b6001600160a01b0384811614801561193157506001600160a01b03838116145b1561194f576040516385f1ba9960e01b815260040160405180910390fd5b6001600160a01b03848116148061196e57506001600160a01b03838116145b156119e457600061197e83611e30565b9050600080516020612e658339815191528314806119995750805b156119b7576040516324159e5b60e01b815260040160405180910390fd5b6001196001600160a01b038316016119e2576040516324aadf4360e21b815260040160405180910390fd5b505b60006119f1858585611c35565b600081815260c960205260409020549091506001600160a01b03168281611a8a57600083815260c9602090815260409182902080546001600160a01b0319166001600160a01b038581169190911790915582518a8216815287821692810192909252881691339188917f0f579ad49235a8c1fd9041427e7067b1eb10926bbed380bf6fabc73e0e807644910160405180910390a4611400565b806001600160a01b0316826001600160a01b031614611400576040516305cc3c4f60e11b81526001600160a01b03808916600483015280881660248301526044820187905280841660648301528216608482015260a401610761565b61012e80546001600160a01b0319166001600160a01b0383169081179091556040519081527fd91237492a9e30cd2faf361fc103998a382ff0ec2b1b07dc1cbebb76ae2f1ea29060200160405180910390a150565b611b4b630a85bd0160e11b611860565b611b5b630271189760e51b611860565b611b6c630a85bd0160e11b806118df565b611b7d63f23a6e6160e01b806118df565b611b8e63bc197c8160e01b806118df565b565b7fbb39ebb37e60fb5d606ffdb749d2336e56b88e6c88c4bd6513b308f643186eed8282604051610b0e929190612d69565b600054610100900460ff16611c2c5760405162461bcd60e51b815260206004820152602b60248201527f496e697469616c697a61626c653a20636f6e7472616374206973206e6f74206960448201526a6e697469616c697a696e6760a81b6064820152608401610761565b610a9681611f17565b604051692822a926a4a9a9a4a7a760b11b60208201526bffffffffffffffffffffffff19606084811b8216602a84015285901b16603e820152605281018290526000906072016040516020818303038152906040528051906020012090509392505050565b6001600160a01b0381163b611d075760405162461bcd60e51b815260206004820152602d60248201527f455243313936373a206e657720696d706c656d656e746174696f6e206973206e60448201526c1bdd08184818dbdb9d1c9858dd609a1b6064820152608401610761565b600080516020612e1e83398151915280546001600160a01b0319166001600160a01b0392909216919091179055565b611d3f83611f30565b600082511180611d4c5750805b156108155761114b8383611f70565b6000611db0826040518060400160405280602081526020017f5361666545524332303a206c6f772d6c6576656c2063616c6c206661696c6564815250856001600160a01b0316611f959092919063ffffffff16565b9050805160001480611dd1575080806020019051810190611dd19190612db0565b6108155760405162461bcd60e51b815260206004820152602a60248201527f5361666545524332303a204552433230206f7065726174696f6e20646964206e6044820152691bdd081cdd58d8d9595960b21b6064820152608401610761565b60007fbf04b4486c9663d805744005c3da000eda93de6e3308a4a7a812eb565327b78d821480611e7f57507f1f53edd44352e5d15bad2b29233baa93bcd595e09457780bc7c5445bbbe751cc82145b80611e975750600080516020612dfe83398151915282145b80611ec157507f06d294bc8cbad2e393408b20dd019a772661f60b8d633e56761157cb1ec85f8c82145b80611eeb57507f0dcbfb19b09fb8ff4e9af583d4b8e9c8127cc1b26529b4d96dd3b7e77808837282145b806107b15750507ffaf505be9907aa6951c2ebe5b0312f4980e14f21912ed355372103cc8bd683bc1490565b610a963082600080516020612e658339815191526114e8565b611f3981611c9a565b6040516001600160a01b038216907fbc7cd75a20ee27fd9adebab32041f755214dbc6bffa90cc0225b39da2e5c2d3b90600090a250565b60606108aa8383604051806060016040528060278152602001612e3e60279139611fa4565b60606109b2848460008561201c565b6060600080856001600160a01b031685604051611fc19190612deb565b600060405180830381855af49150503d8060008114611ffc576040519150601f19603f3d011682016040523d82523d6000602084013e612001565b606091505b5091509150612012868383876120f7565b9695505050505050565b60608247101561207d5760405162461bcd60e51b815260206004820152602660248201527f416464726573733a20696e73756666696369656e742062616c616e636520666f6044820152651c8818d85b1b60d21b6064820152608401610761565b600080866001600160a01b031685876040516120999190612deb565b60006040518083038185875af1925050503d80600081146120d6576040519150601f19603f3d011682016040523d82523d6000602084013e6120db565b606091505b50915091506120ec878383876120f7565b979650505050505050565b6060831561216657825160000361215f576001600160a01b0385163b61215f5760405162461bcd60e51b815260206004820152601d60248201527f416464726573733a2063616c6c20746f206e6f6e2d636f6e74726163740000006044820152606401610761565b50816109b2565b6109b2838381511561217b5781518083602001fd5b8060405162461bcd60e51b815260040161076191906124e6565b6001600160e01b031981168114610a9657600080fd5b6000602082840312156121bd57600080fd5b81356108aa81612195565b60008083601f8401126121da57600080fd5b5081356001600160401b038111156121f157600080fd5b60208301915083602082850101111561220957600080fd5b9250929050565b6000806020838503121561222357600080fd5b82356001600160401b0381111561223957600080fd5b612245858286016121c8565b90969095509350505050565b634e487b7160e01b600052604160045260246000fd5b600082601f83011261227857600080fd5b81356001600160401b038082111561229257612292612251565b604051601f8301601f19908116603f011681019082821181831017156122ba576122ba612251565b816040528381528660208588010111156122d357600080fd5b836020870160208301376000602085830101528094505050505092915050565b6000806040838503121561230657600080fd5b8235915060208301356001600160401b0381111561232357600080fd5b61232f85828601612267565b9150509250929050565b6001600160a01b0381168114610a9657600080fd5b60008060006040848603121561236357600080fd5b833561236e81612339565b925060208401356001600160401b038082111561238a57600080fd5b818601915086601f83011261239e57600080fd5b8135818111156123ad57600080fd5b8760206060830285010111156123c257600080fd5b6020830194508093505050509250925092565b600080600080608085870312156123eb57600080fd5b84356123f681612339565b9350602085013561240681612339565b92506040850135915060608501356001600160401b0381111561242857600080fd5b61243487828801612267565b91505092959194509250565b60006020828403121561245257600080fd5b81356108aa81612339565b6000806040838503121561247057600080fd5b823561247b81612339565b915060208301356001600160401b0381111561232357600080fd5b60005b838110156124b1578181015183820152602001612499565b50506000910152565b600081518084526124d2816020860160208601612496565b601f01601f19169290920160200192915050565b6020815260006108aa60208301846124ba565b6000806000806060858703121561250f57600080fd5b843561251a81612339565b93506020850135925060408501356001600160401b0381111561253c57600080fd5b612548878288016121c8565b95989497509550505050565b60008060006060848603121561256957600080fd5b833561257481612195565b9250602084013561258481612195565b9150604084013561259481612195565b809150509250925092565b600080600080606085870312156125b557600080fd5b8435935060208501356001600160401b03808211156125d357600080fd5b818701915087601f8301126125e757600080fd5b8135818111156125f657600080fd5b8860208260051b850101111561260b57600080fd5b95986020929092019750949560400135945092505050565b600081518084526020808501808196508360051b8101915082860160005b8581101561266b5782840389526126598483516124ba565b98850198935090840190600101612641565b5091979650505050505050565b60408152600061268b6040830185612623565b90508260208301529392505050565b600080600080608085870312156126b057600080fd5b84356126bb81612339565b935060208501356126cb81612339565b92506040850135915060608501356126e281612339565b939692955090935050565b60008060006060848603121561270257600080fd5b833561270d81612339565b9250602084013561271d81612339565b929592945050506040919091013590565b6000806020838503121561274157600080fd5b82356001600160401b038082111561275857600080fd5b818501915085601f83011261276c57600080fd5b81358181111561277b57600080fd5b86602060a08302850101111561279057600080fd5b60209290920196919550909350505050565b600080600080600080608087890312156127bb57600080fd5b86356001600160401b03808211156127d257600080fd5b6127de8a838b016121c8565b9098509650602089013591506127f382612339565b90945060408801359061280582612339565b9093506060880135908082111561281b57600080fd5b5061282889828a016121c8565b979a9699509497509295939492505050565b6001600160a01b03831681526040602082018190526000906109b2908301846124ba565b8281526040602082015260006109b260408301846124ba565b60006020828403121561288957600080fd5b81516108aa81612195565b634e487b7160e01b600052603260045260246000fd5b8035600381106128b957600080fd5b919050565b6000606082840312156128d057600080fd5b604051606081018181106001600160401b03821117156128f2576128f2612251565b6040526128fe836128aa565b8152602083013561290e81612339565b60208201526040928301359281019290925250919050565b634e487b7160e01b600052602160045260246000fd5b6020808252602c908201527f46756e6374696f6e206d7573742062652063616c6c6564207468726f7567682060408201526b19195b1959d85d1958d85b1b60a21b606082015260800190565b6020808252602c908201527f46756e6374696f6e206d7573742062652063616c6c6564207468726f7567682060408201526b6163746976652070726f787960a01b606082015260800190565b600181811c908216806129e857607f821691505b602082108103612a0857634e487b7160e01b600052602260045260246000fd5b50919050565b81835281816020850137506000828201602090810191909152601f909101601f19169091010190565b8381526040602082015260006109af604083018486612a0e565b60008235605e19833603018112612a6757600080fd5b9190910192915050565b6000808335601e19843603018112612a8857600080fd5b8301803591506001600160401b03821115612aa257600080fd5b60200191503681900382131561220957600080fd5b8183823760009101908152919050565b60006080820187835260206080818501528187835260a08501905060a08860051b86010192508860005b89811015612ba657868503609f190183528135368c9003605e19018112612b1757600080fd5b8b0160608135612b2681612339565b6001600160a01b03168752818601358688015260408083013536849003601e19018112612b5257600080fd5b9092018681019290356001600160401b03811115612b6f57600080fd5b803603841315612b7e57600080fd5b82828a0152612b90838a018286612a0e565b9850505093850193505090830190600101612af1565b505050508460408401528281036060840152612bc28185612623565b98975050505050505050565b600060a08284031215612be057600080fd5b60405160a081018181106001600160401b0382111715612c0257612c02612251565b604052612c0e836128aa565b81526020830135612c1e81612339565b60208201526040830135612c3181612339565b60408201526060830135612c4481612339565b60608201526080928301359281019290925250919050565b601f82111561081557600081815260208120601f850160051c81016020861015612c835750805b601f850160051c820191505b81811015612ca257828155600101612c8f565b505050505050565b6001600160401b03831115612cc157612cc1612251565b612cd583612ccf83546129d4565b83612c5c565b6000601f841160018114612d095760008515612cf15750838201355b600019600387901b1c1916600186901b178355610968565b600083815260209020601f19861690835b82811015612d3a5786850135825560209485019460019092019101612d1a565b5086821015612d575760001960f88860031b161c19848701351681555b505060018560011b0183555050505050565b6020815260006109b2602083018486612a0e565b6001600160a01b0385811682528416602082015260408101839052608060608201819052600090612012908301846124ba565b600060208284031215612dc257600080fd5b815180151581146108aa57600080fd5b600060208284031215612de457600080fd5b5051919050565b60008251612a6781846020870161249656fe4707e94b25cfce1a7c363508fbb838c35864388ad77284b248282b9746982b9b360894a13ba1a3210667c828492db98dca3e2076cc3735a920a3ca505d382bbc416464726573733a206c6f772d6c6576656c2064656c65676174652063616c6c206661696c6564815fe80e4b37c8582a3b773d1d7071f983eacfd56b5965db654f3087c25ada33a26469706673582212208541e0d71ebf71b85a24cb8e95aba43aeedf55fcadcf95f0ed56f9b86160115964736f6c63430008110033","linkReferences":{}},"methodIdentifiers":{"EXECUTE_PERMISSION_ID()":"0729d054","REGISTER_STANDARD_CALLBACK_PERMISSION_ID()":"26875b1f","ROOT_PERMISSION_ID()":"09e56b14","SET_METADATA_PERMISSION_ID()":"e306bee7","SET_SIGNATURE_VALIDATOR_PERMISSION_ID()":"e2e35563","SET_TRUSTED_FORWARDER_PERMISSION_ID()":"829331a1","UPGRADE_DAO_PERMISSION_ID()":"24b4d73f","applyMultiTargetPermissions((uint8,address,address,address,bytes32)[])":"e978afe5","applySingleTargetPermissions(address,(uint8,address,bytes32)[])":"22844d04","daoURI()":"7034731b","deposit(address,uint256,string)":"bfe07da6","execute(bytes32,(address,uint256,bytes)[],uint256)":"c71bf324","getTrustedForwarder()":"ce1b815f","grant(address,address,bytes32)":"d68bad2c","grantWithCondition(address,address,bytes32,address)":"c9dbc2a4","hasPermission(address,address,bytes32,bytes)":"fdef9106","initialize(bytes,address,address,string)":"eafb8b06","isGranted(address,address,bytes32,bytes)":"2675fdd0","isValidSignature(bytes32,bytes)":"1626ba7e","proxiableUUID()":"52d1902d","registerStandardCallback(bytes4,bytes4,bytes4)":"c4a50145","revoke(address,address,bytes32)":"d96054c4","setDaoURI(string)":"1080f99b","setMetadata(bytes)":"ee57e36f","setSignatureValidator(address)":"3e2ab0d9","setTrustedForwarder(address)":"da742228","signatureValidator()":"388da934","supportsInterface(bytes4)":"01ffc9a7","upgradeTo(address)":"3659cfe6","upgradeToAndCall(address,bytes)":"4f1ef286"},"id":22}