{"abi":[{"type":"constructor","inputs":[],"stateMutability":"nonpayable"},{"type":"function","name":"MAINTAINER_PERMISSION_ID","inputs":[],"outputs":[{"name":"","type":"bytes32","internalType":"bytes32"}],"stateMutability":"view"},{"type":"function","name":"ROOT_PERMISSION_ID","inputs":[],"outputs":[{"name":"","type":"bytes32","internalType":"bytes32"}],"stateMutability":"view"},{"type":"function","name":"UPGRADE_REPO_PERMISSION_ID","inputs":[],"outputs":[{"name":"","type":"bytes32","internalType":"bytes32"}],"stateMutability":"view"},{"type":"function","name":"applyMultiTargetPermissions","inputs":[{"name":"_items","type":"tuple[]","internalType":"struct PermissionLib.MultiTargetPermission[]","components":[{"name":"operation","type":"uint8","internalType":"enum PermissionLib.Operation"},{"name":"where","type":"address","internalType":"address"},{"name":"who","type":"address","internalType":"address"},{"name":"condition","type":"address","internalType":"address"},{"name":"permissionId","type":"bytes32","internalType":"bytes32"}]}],"outputs":[],"stateMutability":"nonpayable"},{"type":"function","name":"applySingleTargetPermissions","inputs":[{"name":"_where","type":"address","internalType":"address"},{"name":"items","type":"tuple[]","internalType":"struct PermissionLib.SingleTargetPermission[]","components":[{"name":"operation","type":"uint8","internalType":"enum PermissionLib.Operation"},{"name":"who","type":"address","internalType":"address"},{"name":"permissionId","type":"bytes32","internalType":"bytes32"}]}],"outputs":[],"stateMutability":"nonpayable"},{"type":"function","name":"buildCount","inputs":[{"name":"_release","type":"uint8","internalType":"uint8"}],"outputs":[{"name":"","type":"uint256","internalType":"uint256"}],"stateMutability":"view"},{"type":"function","name":"createVersion","inputs":[{"name":"_release","type":"uint8","internalType":"uint8"},{"name":"_pluginSetup","type":"address","internalType":"address"},{"name":"_buildMetadata","type":"bytes","internalType":"bytes"},{"name":"_releaseMetadata","type":"bytes","internalType":"bytes"}],"outputs":[],"stateMutability":"nonpayable"},{"type":"function","name":"getLatestVersion","inputs":[{"name":"_pluginSetup","type":"address","internalType":"address"}],"outputs":[{"name":"","type":"tuple","internalType":"struct PluginRepo.Version","components":[{"name":"tag","type":"tuple","internalType":"struct PluginRepo.Tag","components":[{"name":"release","type":"uint8","internalType":"uint8"},{"name":"build","type":"uint16","internalType":"uint16"}]},{"name":"pluginSetup","type":"address","internalType":"address"},{"name":"buildMetadata","type":"bytes","internalType":"bytes"}]}],"stateMutability":"view"},{"type":"function","name":"getLatestVersion","inputs":[{"name":"_release","type":"uint8","internalType":"uint8"}],"outputs":[{"name":"","type":"tuple","internalType":"struct PluginRepo.Version","components":[{"name":"tag","type":"tuple","internalType":"struct PluginRepo.Tag","components":[{"name":"release","type":"uint8","internalType":"uint8"},{"name":"build","type":"uint16","internalType":"uint16"}]},{"name":"pluginSetup","type":"address","internalType":"address"},{"name":"buildMetadata","type":"bytes","internalType":"bytes"}]}],"stateMutability":"view"},{"type":"function","name":"getVersion","inputs":[{"name":"_tagHash","type":"bytes32","internalType":"bytes32"}],"outputs":[{"name":"","type":"tuple","internalType":"struct PluginRepo.Version","components":[{"name":"tag","type":"tuple","internalType":"struct PluginRepo.Tag","components":[{"name":"release","type":"uint8","internalType":"uint8"},{"name":"build","type":"uint16","internalType":"uint16"}]},{"name":"pluginSetup","type":"address","internalType":"address"},{"name":"buildMetadata","type":"bytes","internalType":"bytes"}]}],"stateMutability":"view"},{"type":"function","name":"getVersion","inputs":[{"name":"_tag","type":"tuple","internalType":"struct PluginRepo.Tag","components":[{"name":"release","type":"uint8","internalType":"uint8"},{"name":"build","type":"uint16","internalType":"uint16"}]}],"outputs":[{"name":"","type":"tuple","internalType":"struct PluginRepo.Version","components":[{"name":"tag","type":"tuple","internalType":"struct PluginRepo.Tag","components":[{"name":"release","type":"uint8","internalType":"uint8"},{"name":"build","type":"uint16","internalType":"uint16"}]},{"name":"pluginSetup","type":"address","internalType":"address"},{"name":"buildMetadata","type":"bytes","internalType":"bytes"}]}],"stateMutability":"view"},{"type":"function","name":"grant","inputs":[{"name":"_where","type":"address","internalType":"address"},{"name":"_who","type":"address","internalType":"address"},{"name":"_permissionId","type":"bytes32","internalType":"bytes32"}],"outputs":[],"stateMutability":"nonpayable"},{"type":"function","name":"grantWithCondition","inputs":[{"name":"_where","type":"address","internalType":"address"},{"name":"_who","type":"address","internalType":"address"},{"name":"_permissionId","type":"bytes32","internalType":"bytes32"},{"name":"_condition","type":"address","internalType":"contract IPermissionCondition"}],"outputs":[],"stateMutability":"nonpayable"},{"type":"function","name":"initialize","inputs":[{"name":"initialOwner","type":"address","internalType":"address"}],"outputs":[],"stateMutability":"nonpayable"},{"type":"function","name":"initializeFrom","inputs":[{"name":"_previousProtocolVersion","type":"uint8[3]","internalType":"uint8[3]"},{"name":"_initData","type":"bytes","internalType":"bytes"}],"outputs":[],"stateMutability":"nonpayable"},{"type":"function","name":"isGranted","inputs":[{"name":"_where","type":"address","internalType":"address"},{"name":"_who","type":"address","internalType":"address"},{"name":"_permissionId","type":"bytes32","internalType":"bytes32"},{"name":"_data","type":"bytes","internalType":"bytes"}],"outputs":[{"name":"","type":"bool","internalType":"bool"}],"stateMutability":"view"},{"type":"function","name":"latestRelease","inputs":[],"outputs":[{"name":"","type":"uint8","internalType":"uint8"}],"stateMutability":"view"},{"type":"function","name":"protocolVersion","inputs":[],"outputs":[{"name":"","type":"uint8[3]","internalType":"uint8[3]"}],"stateMutability":"pure"},{"type":"function","name":"proxiableUUID","inputs":[],"outputs":[{"name":"","type":"bytes32","internalType":"bytes32"}],"stateMutability":"view"},{"type":"function","name":"revoke","inputs":[{"name":"_where","type":"address","internalType":"address"},{"name":"_who","type":"address","internalType":"address"},{"name":"_permissionId","type":"bytes32","internalType":"bytes32"}],"outputs":[],"stateMutability":"nonpayable"},{"type":"function","name":"supportsInterface","inputs":[{"name":"_interfaceId","type":"bytes4","internalType":"bytes4"}],"outputs":[{"name":"","type":"bool","internalType":"bool"}],"stateMutability":"view"},{"type":"function","name":"updateReleaseMetadata","inputs":[{"name":"_release","type":"uint8","internalType":"uint8"},{"name":"_releaseMetadata","type":"bytes","internalType":"bytes"}],"outputs":[],"stateMutability":"nonpayable"},{"type":"function","name":"upgradeTo","inputs":[{"name":"newImplementation","type":"address","internalType":"address"}],"outputs":[],"stateMutability":"nonpayable"},{"type":"function","name":"upgradeToAndCall","inputs":[{"name":"newImplementation","type":"address","internalType":"address"},{"name":"data","type":"bytes","internalType":"bytes"}],"outputs":[],"stateMutability":"payable"},{"type":"event","name":"AdminChanged","inputs":[{"name":"previousAdmin","type":"address","indexed":false,"internalType":"address"},{"name":"newAdmin","type":"address","indexed":false,"internalType":"address"}],"anonymous":false},{"type":"event","name":"BeaconUpgraded","inputs":[{"name":"beacon","type":"address","indexed":true,"internalType":"address"}],"anonymous":false},{"type":"event","name":"Granted","inputs":[{"name":"permissionId","type":"bytes32","indexed":true,"internalType":"bytes32"},{"name":"here","type":"address","indexed":true,"internalType":"address"},{"name":"where","type":"address","indexed":false,"internalType":"address"},{"name":"who","type":"address","indexed":true,"internalType":"address"},{"name":"condition","type":"address","indexed":false,"internalType":"address"}],"anonymous":false},{"type":"event","name":"Initialized","inputs":[{"name":"version","type":"uint8","indexed":false,"internalType":"uint8"}],"anonymous":false},{"type":"event","name":"ReleaseMetadataUpdated","inputs":[{"name":"release","type":"uint8","indexed":false,"internalType":"uint8"},{"name":"releaseMetadata","type":"bytes","indexed":false,"internalType":"bytes"}],"anonymous":false},{"type":"event","name":"Revoked","inputs":[{"name":"permissionId","type":"bytes32","indexed":true,"internalType":"bytes32"},{"name":"here","type":"address","indexed":true,"internalType":"address"},{"name":"where","type":"address","indexed":false,"internalType":"address"},{"name":"who","type":"address","indexed":true,"internalType":"address"}],"anonymous":false},{"type":"event","name":"Upgraded","inputs":[{"name":"implementation","type":"address","indexed":true,"internalType":"address"}],"anonymous":false},{"type":"event","name":"VersionCreated","inputs":[{"name":"release","type":"uint8","indexed":false,"internalType":"uint8"},{"name":"build","type":"uint16","indexed":false,"internalType":"uint16"},{"name":"pluginSetup","type":"address","indexed":true,"internalType":"address"},{"name":"buildMetadata","type":"bytes","indexed":false,"internalType":"bytes"}],"anonymous":false},{"type":"error","name":"AnyAddressDisallowedForWhoAndWhere","inputs":[]},{"type":"error","name":"ConditionInterfaceNotSupported","inputs":[{"name":"condition","type":"address","internalType":"contract IPermissionCondition"}]},{"type":"error","name":"ConditionNotAContract","inputs":[{"name":"condition","type":"address","internalType":"contract IPermissionCondition"}]},{"type":"error","name":"EmptyReleaseMetadata","inputs":[]},{"type":"error","name":"GrantWithConditionNotSupported","inputs":[]},{"type":"error","name":"InvalidPluginSetupInterface","inputs":[]},{"type":"error","name":"InvalidReleaseIncrement","inputs":[{"name":"latestRelease","type":"uint8","internalType":"uint8"},{"name":"newRelease","type":"uint8","internalType":"uint8"}]},{"type":"error","name":"PermissionAlreadyGrantedForDifferentCondition","inputs":[{"name":"where","type":"address","internalType":"address"},{"name":"who","type":"address","internalType":"address"},{"name":"permissionId","type":"bytes32","internalType":"bytes32"},{"name":"currentCondition","type":"address","internalType":"address"},{"name":"newCondition","type":"address","internalType":"address"}]},{"type":"error","name":"PermissionsForAnyAddressDisallowed","inputs":[]},{"type":"error","name":"PluginSetupAlreadyInPreviousRelease","inputs":[{"name":"release","type":"uint8","internalType":"uint8"},{"name":"build","type":"uint16","internalType":"uint16"},{"name":"pluginSetup","type":"address","internalType":"address"}]},{"type":"error","name":"ReleaseDoesNotExist","inputs":[]},{"type":"error","name":"ReleaseZeroNotAllowed","inputs":[]},{"type":"error","name":"Unauthorized","inputs":[{"name":"where","type":"address","internalType":"address"},{"name":"who","type":"address","internalType":"address"},{"name":"permissionId","type":"bytes32","internalType":"bytes32"}]},{"type":"error","name":"VersionHashDoesNotExist","inputs":[{"name":"versionHash","type":"bytes32","internalType":"bytes32"}]}],"bytecode":{"object":"0x60a0604052306080523480156200001557600080fd5b506200002062000026565b620000e7565b600054610100900460ff1615620000935760405162461bcd60e51b815260206004820152602760248201527f496e697469616c697a61626c653a20636f6e747261637420697320696e697469604482015266616c697a696e6760c81b606482015260840160405180910390fd5b60005460ff90811614620000e5576000805460ff191660ff9081179091556040519081527f7f26b83ff96e1f2b6a682f133852f6798a09c465da95921460cefb38474024989060200160405180910390a15b565b60805161298c6200011f600039600081816108020152818161084b01528181610942015281816109820152610a3f015261298c6000f3fe60806040526004361061014b5760003560e01c80639aaf9f08116100b6578063d68bad2c1161006f578063d68bad2c146103d0578063d96054c4146103f0578063df1d6c4414610410578063e0589bd314610444578063e978afe514610464578063fc0544271461048457600080fd5b80639aaf9f08146102fa5780639af3e9091461031a578063afe5eb781461033a578063c4d66de81461035c578063c9dbc2a41461037c578063cc98b8f51461039c57600080fd5b80633659cfe6116101085780633659cfe61461023957806342d8e99e146102595780634f1ef2861461027957806350abe9101461028c57806352d1902d146102b95780637be0ca5e146102ce57600080fd5b806301ffc9a71461015057806309e56b141461018557806322844d04146101b55780632675fdd0146101d757806328375f67146101f75780632ae9c60014610217575b600080fd5b34801561015c57600080fd5b5061017061016b366004611dd8565b6104a4565b60405190151581526020015b60405180910390f35b34801561019157600080fd5b506101a760008051602061293783398151915281565b60405190815260200161017c565b3480156101c157600080fd5b506101d56101d0366004611e17565b6104f5565b005b3480156101e357600080fd5b506101706101f2366004611f40565b6105e6565b34801561020357600080fd5b506101d5610212366004612009565b610705565b34801561022357600080fd5b5061022c6107ce565b60405161017c919061205b565b34801561024557600080fd5b506101d561025436600461208f565b6107f8565b34801561026557600080fd5b506101d56102743660046120ac565b6108e0565b6101d56102873660046120ea565b610938565b34801561029857600080fd5b506102ac6102a736600461208f565b610a08565b60405161017c9190612189565b3480156102c557600080fd5b506101a7610a32565b3480156102da57600080fd5b5060cc546102e89060ff1681565b60405160ff909116815260200161017c565b34801561030657600080fd5b506102ac6103153660046121d4565b610ae5565b34801561032657600080fd5b506102ac6103353660046121ed565b610c03565b34801561034657600080fd5b506101a76000805160206128f083398151915281565b34801561036857600080fd5b506101d561037736600461208f565b610c25565b34801561038857600080fd5b506101d5610397366004612205565b610d34565b3480156103a857600080fd5b506101a77f5aa4f06bdc18535eff05128093a2315c2c960a2722e20021cbff28da04760f5b81565b3480156103dc57600080fd5b506101d56103eb366004612258565b610d58565b3480156103fc57600080fd5b506101d561040b366004612258565b610d81565b34801561041c57600080fd5b506101a761042b366004612299565b60ff16600090815260c9602052604090205461ffff1690565b34801561045057600080fd5b506102ac61045f366004612299565b610da4565b34801561047057600080fd5b506101d561047f3660046122b4565b610dee565b34801561049057600080fd5b506101d561049f366004612328565b610f0f565b60006001600160e01b03198216630350c86d60e61b14806104d457506001600160e01b03198216621574e360e91b145b806104ef57506301ffc9a760e01b6001600160e01b03198316145b92915050565b60008051602061293783398151915261050d8161126d565b60005b828110156105df57600084848381811061052c5761052c6123ba565b90506060020180360381019061054291906123df565b905060008151600281111561055957610559612447565b036105765761057186826020015183604001516112dc565b6105d6565b60018151600281111561058b5761058b612447565b036105a3576105718682602001518360400151611400565b6002815160028111156105b8576105b8612447565b036105d65760405163d4d3bef760e01b815260040160405180910390fd5b50600101610510565b5050505050565b600080609760006105f8888888611494565b81526020810191909152604001600020546001600160a01b0316905060011981016106275760019150506106fd565b6001600160a01b0381161561064b5761064381878787876114f9565b9150506106fd565b50600060976000610664886001600160a01b0388611494565b81526020810191909152604001600020546001600160a01b0316905060011981016106935760019150506106fd565b6001600160a01b038116156106af5761064381878787876114f9565b506000609760006106c86001600160a01b038888611494565b81526020810191909152604001600020546001600160a01b0316905080156106f75761064381878787876114f9565b50600090505b949350505050565b6000805160206128f083398151915261071d8161126d565b8360ff1660000361074157604051633b7a97fd60e11b815260040160405180910390fd5b60cc5460ff908116908516111561076b576040516311c6e3ab60e01b815260040160405180910390fd5b600082900361078d576040516388bc3fe760e01b815260040160405180910390fd5b7f8ff94c32efcef376eb02508cba5536e0634c1d6ad4b51ffa0f7306c78edaf5f78484846040516107c093929190612486565b60405180910390a150505050565b6107d6611d88565b5060408051606081018252600181526004602082015260009181019190915290565b6001600160a01b037f00000000000000000000000000000000000000000000000000000000000000001630036108495760405162461bcd60e51b8152600401610840906124a3565b60405180910390fd5b7f00000000000000000000000000000000000000000000000000000000000000006001600160a01b03166108926000805160206128d0833981519152546001600160a01b031690565b6001600160a01b0316146108b85760405162461bcd60e51b8152600401610840906124ef565b6108c18161158b565b604080516000808252602082019092526108dd918391906115b5565b50565b600054600290610100900460ff16158015610902575060005460ff8083169116105b61091e5760405162461bcd60e51b81526004016108409061253b565b6000805461ffff191660ff83161761010017815560019080fd5b6001600160a01b037f00000000000000000000000000000000000000000000000000000000000000001630036109805760405162461bcd60e51b8152600401610840906124a3565b7f00000000000000000000000000000000000000000000000000000000000000006001600160a01b03166109c96000805160206128d0833981519152546001600160a01b031690565b6001600160a01b0316146109ef5760405162461bcd60e51b8152600401610840906124ef565b6109f88261158b565b610a04828260016115b5565b5050565b610a10611da6565b6001600160a01b038216600090815260cb60205260409020546104ef90610ae5565b6000306001600160a01b037f00000000000000000000000000000000000000000000000000000000000000001614610ad25760405162461bcd60e51b815260206004820152603860248201527f555550535570677261646561626c653a206d757374206e6f742062652063616c60448201527f6c6564207468726f7567682064656c656761746563616c6c00000000000000006064820152608401610840565b506000805160206128d083398151915290565b610aed611da6565b600082815260ca602052604081208054909160ff9091169003610b2657604051638d0aeeb160e01b815260048101849052602401610840565b6040805160a081018252825460ff81166060830190815261010090910461ffff166080830152815260018301546001600160a01b03166020820152600283018054919284929084019190610b7990612589565b80601f0160208091040260200160405190810160405280929190818152602001828054610ba590612589565b8015610bf25780601f10610bc757610100808354040283529160200191610bf2565b820191906000526020600020905b815481529060010190602001808311610bd557829003601f168201915b505050505081525050915050919050565b610c0b611da6565b6104ef610315610c20368590038501856125bd565b611725565b600054610100900460ff1615808015610c455750600054600160ff909116105b80610c5f5750303b158015610c5f575060005460ff166001145b610c7b5760405162461bcd60e51b81526004016108409061253b565b6000805460ff191660011790558015610c9e576000805461ff0019166101001790555b610ca782611784565b610cc030836000805160206128f08339815191526112dc565b610ceb30837f5aa4f06bdc18535eff05128093a2315c2c960a2722e20021cbff28da04760f5b6112dc565b8015610a04576000805461ff0019169055604051600181527f7f26b83ff96e1f2b6a682f133852f6798a09c465da95921460cefb38474024989060200160405180910390a15050565b600080516020612937833981519152610d4c8161126d565b6105df858585856117f8565b600080516020612937833981519152610d708161126d565b610d7b8484846112dc565b50505050565b600080516020612937833981519152610d998161126d565b610d7b848484611400565b610dac611da6565b60ff8216600081815260c9602090815260409182902054825180840190935292825261ffff909216918101829052610de79061031590611725565b9392505050565b600080516020612937833981519152610e068161126d565b60005b82811015610d7b576000848483818110610e2557610e256123ba565b905060a00201803603810190610e3b9190612620565b9050600081516002811115610e5257610e52612447565b03610e9f5760608101516001600160a01b031615610e835760405163d4d3bef760e01b815260040160405180910390fd5b610e9a8160200151826040015183608001516112dc565b610f06565b600181516002811115610eb457610eb4612447565b03610ed057610e9a816020015182604001518360800151611400565b600281516002811115610ee557610ee5612447565b03610f0657610f0681602001518260400151836080015184606001516117f8565b50600101610e09565b6000805160206128f0833981519152610f278161126d565b610f416001600160a01b03871663099718b560e41b611a60565b610f5e57604051639d145ceb60e01b815260040160405180910390fd5b8660ff16600003610f8257604051633b7a97fd60e11b815260040160405180910390fd5b60cc54600190610f959060ff16896126c4565b60ff161115610fc85760cc546040516353db7b7b60e01b815260ff91821660048201529088166024820152604401610840565b60cc5460ff908116908816111561100a5760cc805460ff191660ff8916179055600082900361100a576040516388bc3fe760e01b815260040160405180910390fd5b6001600160a01b038616600090815260cb6020908152604080832054835260ca9091529020805460ff16158015906110495750805460ff898116911614155b1561108f57805460405160016218326360e21b0319815260ff8216600482015261010090910461ffff1660248201526001600160a01b0388166044820152606401610840565b60ff8816600090815260c960205260408120805482906110b29061ffff166126dd565b91906101000a81548161ffff021916908361ffff16021790559050600060405180604001604052808b60ff1681526020018361ffff16815250905060006110f882611725565b905060405180606001604052808381526020018b6001600160a01b031681526020018a8a8080601f016020809104026020016040519081016040528093929190818152602001838380828437600092018290525093909452505083815260ca60209081526040918290208451805182549184015161ffff166101000262ffffff1990921660ff90911617178155908401516001820180546001600160a01b039092166001600160a01b03199092169190911790559083015190915060028201906111c2908261274c565b5050506001600160a01b038a16600081815260cb602052604090819020839055517feb4bce5025c5200f6a074dd28fe7754955dfdca0eb2dcbaa16ccc292655e666990611216908e9087908e908e9061280b565b60405180910390a28515611260577f8ff94c32efcef376eb02508cba5536e0634c1d6ad4b51ffa0f7306c78edaf5f78b888860405161125793929190612486565b60405180910390a15b5050505050505050505050565b6112b03033836000368080601f0160208091040260200160405190810160405280939291908181526020018383808284376000920191909152506105e692505050565b6108dd57604051631e09743f60e01b815230600482015233602482015260448101829052606401610840565b6002600160a01b03196001600160a01b0384160161130d576040516324159e5b60e01b815260040160405180910390fd5b6002600160a01b03196001600160a01b0383160161135d5760008051602061293783398151915281148061133f575060005b1561135d576040516324159e5b60e01b815260040160405180910390fd5b600061136a848484611494565b6000818152609760205260409020549091506001600160a01b0316806105df5760008281526097602090815260409182902080546001600160a01b031916600290811790915582516001600160a01b0389811682529281019190915290861691339186917f0f579ad49235a8c1fd9041427e7067b1eb10926bbed380bf6fabc73e0e807644910160405180910390a45050505050565b600061140d848484611494565b6000818152609760205260409020549091506001600160a01b031615610d7b5760008181526097602090815260409182902080546001600160a01b031916905590516001600160a01b038681168252851691339185917f3ca48185ec3f6e47e24db18b13f1c65b1ce05da1659f9c1c4fe717dda5f67524910160405180910390a450505050565b604051692822a926a4a9a9a4a7a760b11b60208201526bffffffffffffffffffffffff19606084811b8216602a84015285901b16603e820152605281018290526000906072016040516020818303038152906040528051906020012090509392505050565b6040516302675fdd60e41b81526000906001600160a01b03871690632675fdd09061152e908890889088908890600401612832565b602060405180830381865afa925050508015611567575060408051601f3d908101601f1916820190925261156491810190612865565b60015b1561157e57801561157c576001915050611582565b505b5060005b95945050505050565b7f5aa4f06bdc18535eff05128093a2315c2c960a2722e20021cbff28da04760f5b610a048161126d565b7f4910fdfa16fed3260ed0e7147f7cc6da11a60208b5b9406d12a635614ffd91435460ff16156115ed576115e883611a7c565b505050565b826001600160a01b03166352d1902d6040518163ffffffff1660e01b8152600401602060405180830381865afa925050508015611647575060408051601f3d908101601f1916820190925261164491810190612887565b60015b6116aa5760405162461bcd60e51b815260206004820152602e60248201527f45524331393637557067726164653a206e657720696d706c656d656e7461746960448201526d6f6e206973206e6f74205555505360901b6064820152608401610840565b6000805160206128d083398151915281146117195760405162461bcd60e51b815260206004820152602960248201527f45524331393637557067726164653a20756e737570706f727465642070726f786044820152681a58589b195555525160ba1b6064820152608401610840565b506115e8838383611b18565b60008160000151826020015160405160200161176792919060f89290921b6001600160f81b031916825260f01b6001600160f01b031916600182015260030190565b604051602081830303815290604052805190602001209050919050565b600054610100900460ff166117ef5760405162461bcd60e51b815260206004820152602b60248201527f496e697469616c697a61626c653a20636f6e7472616374206973206e6f74206960448201526a6e697469616c697a696e6760a81b6064820152608401610840565b6108dd81611b3d565b806001600160a01b0381163b61182c5760405163241acd7b60e11b81526001600160a01b0383166004820152602401610840565b6040516301ffc9a760e01b81526302675fdd60e41b60048201526001600160a01b038216906301ffc9a790602401602060405180830381865afa158015611877573d6000803e3d6000fd5b505050506040513d601f19601f8201168201806040525081019061189b9190612865565b6118c357604051636dd8243160e11b81526001600160a01b0383166004820152602401610840565b6001600160a01b038581161480156118e357506001600160a01b03848116145b15611901576040516385f1ba9960e01b815260040160405180910390fd5b6001600160a01b03858116148061192057506001600160a01b03848116145b1561195d5760008051602061293783398151915283148061193f575060005b1561195d576040516324159e5b60e01b815260040160405180910390fd5b600061196a868686611494565b6000818152609760205260409020549091506001600160a01b0316806119fb5760008281526097602090815260409182902080546001600160a01b0319166001600160a01b0387811691821790925583518b8316815292830152881691339188917f0f579ad49235a8c1fd9041427e7067b1eb10926bbed380bf6fabc73e0e807644910160405180910390a4611a57565b826001600160a01b0316816001600160a01b031614611a57576040516305cc3c4f60e11b81526001600160a01b03808916600483015280881660248301526044820187905280831660648301528416608482015260a401610840565b50505050505050565b6000611a6b83611b56565b8015610de75750610de78383611b89565b6001600160a01b0381163b611ae95760405162461bcd60e51b815260206004820152602d60248201527f455243313936373a206e657720696d706c656d656e746174696f6e206973206e60448201526c1bdd08184818dbdb9d1c9858dd609a1b6064820152608401610840565b6000805160206128d083398151915280546001600160a01b0319166001600160a01b0392909216919091179055565b611b2183611c12565b600082511180611b2e5750805b156115e857610d7b8383611c52565b6108dd30826000805160206129378339815191526112dc565b6000611b69826301ffc9a760e01b611b89565b80156104ef5750611b82826001600160e01b0319611b89565b1592915050565b604080516001600160e01b03198316602480830191909152825180830390910181526044909101909152602080820180516001600160e01b03166301ffc9a760e01b178152825160009392849283928392918391908a617530fa92503d91506000519050828015611bfb575060208210155b8015611c075750600081115b979650505050505050565b611c1b81611a7c565b6040516001600160a01b038216907fbc7cd75a20ee27fd9adebab32041f755214dbc6bffa90cc0225b39da2e5c2d3b90600090a250565b6060610de78383604051806060016040528060278152602001612910602791396060600080856001600160a01b031685604051611c8f91906128a0565b600060405180830381855af49150503d8060008114611cca576040519150601f19603f3d011682016040523d82523d6000602084013e611ccf565b606091505b5091509150611ce086838387611cea565b9695505050505050565b60608315611d59578251600003611d52576001600160a01b0385163b611d525760405162461bcd60e51b815260206004820152601d60248201527f416464726573733a2063616c6c20746f206e6f6e2d636f6e74726163740000006044820152606401610840565b50816106fd565b6106fd8383815115611d6e5781518083602001fd5b8060405162461bcd60e51b815260040161084091906128bc565b60405180606001604052806003906020820280368337509192915050565b6040805160a0810190915260006060820181815260808301919091528190815260006020820152606060409091015290565b600060208284031215611dea57600080fd5b81356001600160e01b031981168114610de757600080fd5b6001600160a01b03811681146108dd57600080fd5b600080600060408486031215611e2c57600080fd5b8335611e3781611e02565b925060208401356001600160401b0380821115611e5357600080fd5b818601915086601f830112611e6757600080fd5b813581811115611e7657600080fd5b876020606083028501011115611e8b57600080fd5b6020830194508093505050509250925092565b634e487b7160e01b600052604160045260246000fd5b600082601f830112611ec557600080fd5b81356001600160401b0380821115611edf57611edf611e9e565b604051601f8301601f19908116603f01168101908282118183101715611f0757611f07611e9e565b81604052838152866020858801011115611f2057600080fd5b836020870160208301376000602085830101528094505050505092915050565b60008060008060808587031215611f5657600080fd5b8435611f6181611e02565b93506020850135611f7181611e02565b92506040850135915060608501356001600160401b03811115611f9357600080fd5b611f9f87828801611eb4565b91505092959194509250565b803560ff81168114611fbc57600080fd5b919050565b60008083601f840112611fd357600080fd5b5081356001600160401b03811115611fea57600080fd5b60208301915083602082850101111561200257600080fd5b9250929050565b60008060006040848603121561201e57600080fd5b61202784611fab565b925060208401356001600160401b0381111561204257600080fd5b61204e86828701611fc1565b9497909650939450505050565b60608101818360005b600381101561208657815160ff16835260209283019290910190600101612064565b50505092915050565b6000602082840312156120a157600080fd5b8135610de781611e02565b6000806000608084860312156120c157600080fd5b60608401858111156120d257600080fd5b849350356001600160401b0381111561204257600080fd5b600080604083850312156120fd57600080fd5b823561210881611e02565b915060208301356001600160401b0381111561212357600080fd5b61212f85828601611eb4565b9150509250929050565b60005b8381101561215457818101518382015260200161213c565b50506000910152565b60008151808452612175816020860160208601612139565b601f01601f19169290920160200192915050565b60208082528251805160ff168383015281015161ffff16604080840191909152908301516001600160a01b031660608301528201516080808301526000906106fd60a084018261215d565b6000602082840312156121e657600080fd5b5035919050565b6000604082840312156121ff57600080fd5b50919050565b6000806000806080858703121561221b57600080fd5b843561222681611e02565b9350602085013561223681611e02565b925060408501359150606085013561224d81611e02565b939692955090935050565b60008060006060848603121561226d57600080fd5b833561227881611e02565b9250602084013561228881611e02565b929592945050506040919091013590565b6000602082840312156122ab57600080fd5b610de782611fab565b600080602083850312156122c757600080fd5b82356001600160401b03808211156122de57600080fd5b818501915085601f8301126122f257600080fd5b81358181111561230157600080fd5b86602060a08302850101111561231657600080fd5b60209290920196919550909350505050565b6000806000806000806080878903121561234157600080fd5b61234a87611fab565b9550602087013561235a81611e02565b945060408701356001600160401b038082111561237657600080fd5b6123828a838b01611fc1565b9096509450606089013591508082111561239b57600080fd5b506123a889828a01611fc1565b979a9699509497509295939492505050565b634e487b7160e01b600052603260045260246000fd5b803560038110611fbc57600080fd5b6000606082840312156123f157600080fd5b604051606081018181106001600160401b038211171561241357612413611e9e565b60405261241f836123d0565b8152602083013561242f81611e02565b60208201526040928301359281019290925250919050565b634e487b7160e01b600052602160045260246000fd5b81835281816020850137506000828201602090810191909152601f909101601f19169091010190565b60ff8416815260406020820152600061158260408301848661245d565b6020808252602c908201527f46756e6374696f6e206d7573742062652063616c6c6564207468726f7567682060408201526b19195b1959d85d1958d85b1b60a21b606082015260800190565b6020808252602c908201527f46756e6374696f6e206d7573742062652063616c6c6564207468726f7567682060408201526b6163746976652070726f787960a01b606082015260800190565b6020808252602e908201527f496e697469616c697a61626c653a20636f6e747261637420697320616c72656160408201526d191e481a5b9a5d1a585b1a5e995960921b606082015260800190565b600181811c9082168061259d57607f821691505b6020821081036121ff57634e487b7160e01b600052602260045260246000fd5b6000604082840312156125cf57600080fd5b604051604081018181106001600160401b03821117156125f1576125f1611e9e565b6040526125fd83611fab565b8152602083013561ffff8116811461261457600080fd5b60208201529392505050565b600060a0828403121561263257600080fd5b60405160a081018181106001600160401b038211171561265457612654611e9e565b604052612660836123d0565b8152602083013561267081611e02565b6020820152604083013561268381611e02565b6040820152606083013561269681611e02565b60608201526080928301359281019290925250919050565b634e487b7160e01b600052601160045260246000fd5b60ff82811682821603908111156104ef576104ef6126ae565b600061ffff8083168181036126f4576126f46126ae565b6001019392505050565b601f8211156115e857600081815260208120601f850160051c810160208610156127255750805b601f850160051c820191505b8181101561274457828155600101612731565b505050505050565b81516001600160401b0381111561276557612765611e9e565b612779816127738454612589565b846126fe565b602080601f8311600181146127ae57600084156127965750858301515b600019600386901b1c1916600185901b178555612744565b600085815260208120601f198616915b828110156127dd578886015182559484019460019091019084016127be565b50858210156127fb5787850151600019600388901b60f8161c191681555b5050505050600190811b01905550565b60ff8516815261ffff84166020820152606060408201526000611ce060608301848661245d565b6001600160a01b0385811682528416602082015260408101839052608060608201819052600090611ce09083018461215d565b60006020828403121561287757600080fd5b81518015158114610de757600080fd5b60006020828403121561289957600080fd5b5051919050565b600082516128b2818460208701612139565b9190910192915050565b602081526000610de7602083018461215d56fe360894a13ba1a3210667c828492db98dca3e2076cc3735a920a3ca505d382bbca0885006fe6672eeafd1deca6c67bcdc6dd79cfe2b157a98539ddf73cd8c04ea416464726573733a206c6f772d6c6576656c2064656c65676174652063616c6c206661696c6564815fe80e4b37c8582a3b773d1d7071f983eacfd56b5965db654f3087c25ada33a264697066735822122032f14c1a25f4f80c625dbb19109b5a515f6afe1cd3662c93d8271ba7dfadde9764736f6c63430008110033","linkReferences":{}},"methodIdentifiers":{"MAINTAINER_PERMISSION_ID()":"afe5eb78","ROOT_PERMISSION_ID()":"09e56b14","UPGRADE_REPO_PERMISSION_ID()":"cc98b8f5","applyMultiTargetPermissions((uint8,address,address,address,bytes32)[])":"e978afe5","applySingleTargetPermissions(address,(uint8,address,bytes32)[])":"22844d04","buildCount(uint8)":"df1d6c44","createVersion(uint8,address,bytes,bytes)":"fc054427","getLatestVersion(address)":"50abe910","getLatestVersion(uint8)":"e0589bd3","getVersion((uint8,uint16))":"9af3e909","getVersion(bytes32)":"9aaf9f08","grant(address,address,bytes32)":"d68bad2c","grantWithCondition(address,address,bytes32,address)":"c9dbc2a4","initialize(address)":"c4d66de8","initializeFrom(uint8[3],bytes)":"42d8e99e","isGranted(address,address,bytes32,bytes)":"2675fdd0","latestRelease()":"7be0ca5e","protocolVersion()":"2ae9c600","proxiableUUID()":"52d1902d","revoke(address,address,bytes32)":"d96054c4","supportsInterface(bytes4)":"01ffc9a7","updateReleaseMetadata(uint8,bytes)":"28375f67","upgradeTo(address)":"3659cfe6","upgradeToAndCall(address,bytes)":"4f1ef286"},"id":216}