{"abi":[{"type":"function","name":"deployAnother","inputs":[],"outputs":[],"stateMutability":"nonpayable"}],"bytecode":{"object":"0x608060405234801561001057600080fd5b5061020b806100206000396000f3fe608060405234801561001057600080fd5b506004361061002b5760003560e01c806350f8da3b14610030575b600080fd5b61003861003a565b005b6000604051610048906100e2565b604051809103906000f080158015610064573d6000803e3d6000fd5b5090506000600560405160240161007d91815260200190565b60408051601f198184030181529181526020820180516001600160e01b031663b7b0422d60e01b1790525162461bcd60e51b81529091506100d9906004016020808252600490820152636675636b60e01b604082015260600190565b60405180910390fd5b60a98061012d83390190565b8181101561010a578581018301518582016060015282016100ee565b506000606082860101526060601f19601f83011685010192505050939250505056fe6080604052348015600f57600080fd5b50608b8061001e6000396000f3fe6080604052348015600f57600080fd5b506004361060285760003560e01c8063b7b0422d14602d575b600080fd5b603b6038366004603d565b50565b005b600060208284031215604e57600080fd5b503591905056fea264697066735822122074aca34d8dac9d9a0c3af2b4d5dda35f46903367bc4ae3ef034803fd26aefa5764736f6c63430008110033a26469706673582212207502ae60094da438871cab5586cd60f9c13ba1adf1bb90466f02719980af266f64736f6c63430008110033","linkReferences":{}},"methodIdentifiers":{"deployAnother()":"50f8da3b"},"id":289}