{"abi":[{"type":"constructor","inputs":[{"name":"_implementation","type":"address","internalType":"address"}],"stateMutability":"nonpayable"},{"type":"function","name":"deployMinimalProxy","inputs":[{"name":"_data","type":"bytes","internalType":"bytes"}],"outputs":[{"name":"proxy","type":"address","internalType":"address"}],"stateMutability":"nonpayable"},{"type":"function","name":"deployUUPSProxy","inputs":[{"name":"_data","type":"bytes","internalType":"bytes"}],"outputs":[{"name":"proxy","type":"address","internalType":"address"}],"stateMutability":"nonpayable"},{"type":"function","name":"implementation","inputs":[],"outputs":[{"name":"","type":"address","internalType":"address"}],"stateMutability":"view"},{"type":"event","name":"ProxyCreated","inputs":[{"name":"proxy","type":"address","indexed":false,"internalType":"address"}],"anonymous":false}],"bytecode":{"object":"0x60a060405234801561001057600080fd5b50604051610de8380380610de883398101604081905261002f91610040565b6001600160a01b0316608052610070565b60006020828403121561005257600080fd5b81516001600160a01b038116811461006957600080fd5b9392505050565b608051610d516100976000396000818160800152818160cc01526101460152610d516000f3fe60806040523480156200001157600080fd5b5060043610620000465760003560e01c80635c5c278b146200004b5780635c60da1b146200007e57806393042ea314620000a5575b600080fd5b620000626200005c3660046200048c565b620000bc565b6040516001600160a01b03909116815260200160405180910390f35b7f000000000000000000000000000000000000000000000000000000000000000062000062565b62000062620000b63660046200048c565b62000136565b6000620000f36001600160a01b037f000000000000000000000000000000000000000000000000000000000000000016836200016d565b6040516001600160a01b03821681529091507efffc2da0b561cae30d9826d37709e9421c4725faebc226cbbb7ef5fc5e73499060200160405180910390a1919050565b6000620000f36001600160a01b037f00000000000000000000000000000000000000000000000000000000000000001683620001b1565b600082826040516200017f9062000468565b6200018c9291906200059b565b604051809103906000f080158015620001a9573d6000803e3d6000fd5b509392505050565b6000620001c7836001600160a01b0316620001ef565b825190915015620001e957620001e76001600160a01b038216836200028f565b505b92915050565b6000763d602d80600a3d3981f3363d3d373d3d3d363d730000008260601b60e81c176000526e5af43d82803e903d91602b57fd5bf38260781b17602052603760096000f090506001600160a01b0381166200028a5760405162461bcd60e51b8152602060048201526016602482015275115490cc4c4d8dce8818dc99585d194819985a5b195960521b60448201526064015b60405180910390fd5b919050565b6060620002d5838360006040518060400160405280601e81526020017f416464726573733a206c6f772d6c6576656c2063616c6c206661696c65640000815250620002dc565b9392505050565b6060824710156200033f5760405162461bcd60e51b815260206004820152602660248201527f416464726573733a20696e73756666696369656e742062616c616e636520666f6044820152651c8818d85b1b60d21b606482015260840162000281565b600080866001600160a01b031685876040516200035d9190620005c1565b60006040518083038185875af1925050503d80600081146200039c576040519150601f19603f3d011682016040523d82523d6000602084013e620003a1565b606091505b5091509150620003b487838387620003c1565b925050505b949350505050565b60608315620004355782516000036200042d576001600160a01b0385163b6200042d5760405162461bcd60e51b815260206004820152601d60248201527f416464726573733a2063616c6c20746f206e6f6e2d636f6e7472616374000000604482015260640162000281565b5081620003b9565b620003b983838151156200044c5781518083602001fd5b8060405162461bcd60e51b8152600401620002819190620005df565b61072780620005f583390190565b634e487b7160e01b600052604160045260246000fd5b6000602082840312156200049f57600080fd5b813567ffffffffffffffff80821115620004b857600080fd5b818401915084601f830112620004cd57600080fd5b813581811115620004e257620004e262000476565b604051601f8201601f19908116603f011681019083821181831017156200050d576200050d62000476565b816040528281528760208487010111156200052757600080fd5b826020860160208301376000928101602001929092525095945050505050565b60005b83811015620005645781810151838201526020016200054a565b50506000910152565b600081518084526200058781602086016020860162000547565b601f01601f19169290920160200192915050565b6001600160a01b0383168152604060208201819052600090620003b9908301846200056d565b60008251620005d581846020870162000547565b9190910192915050565b602081526000620002d560208301846200056d56fe608060405260405161072738038061072783398101604081905261002291610319565b61002e82826000610035565b5050610436565b61003e8361006b565b60008251118061004b5750805b156100665761006483836100ab60201b6100291760201c565b505b505050565b610074816100d7565b6040516001600160a01b038216907fbc7cd75a20ee27fd9adebab32041f755214dbc6bffa90cc0225b39da2e5c2d3b90600090a250565b60606100d08383604051806060016040528060278152602001610700602791396101a9565b9392505050565b6100ea8161022260201b6100551760201c565b6101515760405162461bcd60e51b815260206004820152602d60248201527f455243313936373a206e657720696d706c656d656e746174696f6e206973206e60448201526c1bdd08184818dbdb9d1c9858dd609a1b60648201526084015b60405180910390fd5b806101887f360894a13ba1a3210667c828492db98dca3e2076cc3735a920a3ca505d382bbc60001b61023160201b6100641760201c565b80546001600160a01b0319166001600160a01b039290921691909117905550565b6060600080856001600160a01b0316856040516101c691906103e7565b600060405180830381855af49150503d8060008114610201576040519150601f19603f3d011682016040523d82523d6000602084013e610206565b606091505b50909250905061021886838387610234565b9695505050505050565b6001600160a01b03163b151590565b90565b606083156102a357825160000361029c576001600160a01b0385163b61029c5760405162461bcd60e51b815260206004820152601d60248201527f416464726573733a2063616c6c20746f206e6f6e2d636f6e74726163740000006044820152606401610148565b50816102ad565b6102ad83836102b5565b949350505050565b8151156102c55781518083602001fd5b8060405162461bcd60e51b81526004016101489190610403565b634e487b7160e01b600052604160045260246000fd5b60005b838110156103105781810151838201526020016102f8565b50506000910152565b6000806040838503121561032c57600080fd5b82516001600160a01b038116811461034357600080fd5b60208401519092506001600160401b038082111561036057600080fd5b818501915085601f83011261037457600080fd5b815181811115610386576103866102df565b604051601f8201601f19908116603f011681019083821181831017156103ae576103ae6102df565b816040528281528860208487010111156103c757600080fd5b6103d88360208301602088016102f5565b80955050505050509250929050565b600082516103f98184602087016102f5565b9190910192915050565b60208152600082518060208401526104228160408501602087016102f5565b601f01601f19169190910160400192915050565b6102bb806104456000396000f3fe60806040523661001357610011610017565b005b6100115b610027610022610067565b61009f565b565b606061004e838360405180606001604052806027815260200161025f602791396100c3565b9392505050565b6001600160a01b03163b151590565b90565b600061009a7f360894a13ba1a3210667c828492db98dca3e2076cc3735a920a3ca505d382bbc546001600160a01b031690565b905090565b3660008037600080366000845af43d6000803e8080156100be573d6000f35b3d6000fd5b6060600080856001600160a01b0316856040516100e0919061020f565b600060405180830381855af49150503d806000811461011b576040519150601f19603f3d011682016040523d82523d6000602084013e610120565b606091505b50915091506101318683838761013b565b9695505050505050565b606083156101af5782516000036101a8576001600160a01b0385163b6101a85760405162461bcd60e51b815260206004820152601d60248201527f416464726573733a2063616c6c20746f206e6f6e2d636f6e747261637400000060448201526064015b60405180910390fd5b50816101b9565b6101b983836101c1565b949350505050565b8151156101d15781518083602001fd5b8060405162461bcd60e51b815260040161019f919061022b565b60005b838110156102065781810151838201526020016101ee565b50506000910152565b600082516102218184602087016101eb565b9190910192915050565b602081526000825180602084015261024a8160408501602087016101eb565b601f01601f1916919091016040019291505056fe416464726573733a206c6f772d6c6576656c2064656c65676174652063616c6c206661696c6564a26469706673582212206422cddf590659cffa3b67bffda8bc5358782dd87571fd3a8c2e682a409c28aa64736f6c63430008110033416464726573733a206c6f772d6c6576656c2064656c65676174652063616c6c206661696c6564a2646970667358221220e4fed83a2c953accde4f09e7ba4aeda6322315463e58793a3ec58058ea26e6fa64736f6c63430008110033","linkReferences":{}},"methodIdentifiers":{"deployMinimalProxy(bytes)":"93042ea3","deployUUPSProxy(bytes)":"5c5c278b","implementation()":"5c60da1b"},"id":0}