{"abi":[{"type":"function","name":"ROOT_PERMISSION_ID","inputs":[],"outputs":[{"name":"","type":"bytes32","internalType":"bytes32"}],"stateMutability":"view"},{"type":"function","name":"TEST_PERMISSION_1_ID","inputs":[],"outputs":[{"name":"","type":"bytes32","internalType":"bytes32"}],"stateMutability":"view"},{"type":"function","name":"TEST_PERMISSION_2_ID","inputs":[],"outputs":[{"name":"","type":"bytes32","internalType":"bytes32"}],"stateMutability":"view"},{"type":"function","name":"applyMultiTargetPermissions","inputs":[{"name":"_items","type":"tuple[]","internalType":"struct PermissionLib.MultiTargetPermission[]","components":[{"name":"operation","type":"uint8","internalType":"enum PermissionLib.Operation"},{"name":"where","type":"address","internalType":"address"},{"name":"who","type":"address","internalType":"address"},{"name":"condition","type":"address","internalType":"address"},{"name":"permissionId","type":"bytes32","internalType":"bytes32"}]}],"outputs":[],"stateMutability":"nonpayable"},{"type":"function","name":"applySingleTargetPermissions","inputs":[{"name":"_where","type":"address","internalType":"address"},{"name":"items","type":"tuple[]","internalType":"struct PermissionLib.SingleTargetPermission[]","components":[{"name":"operation","type":"uint8","internalType":"enum PermissionLib.Operation"},{"name":"who","type":"address","internalType":"address"},{"name":"permissionId","type":"bytes32","internalType":"bytes32"}]}],"outputs":[],"stateMutability":"nonpayable"},{"type":"function","name":"getAnyAddr","inputs":[],"outputs":[{"name":"","type":"address","internalType":"address"}],"stateMutability":"pure"},{"type":"function","name":"getAuthPermission","inputs":[{"name":"_where","type":"address","internalType":"address"},{"name":"_who","type":"address","internalType":"address"},{"name":"_permissionId","type":"bytes32","internalType":"bytes32"}],"outputs":[{"name":"","type":"address","internalType":"address"}],"stateMutability":"view"},{"type":"function","name":"getPermissionHash","inputs":[{"name":"_where","type":"address","internalType":"address"},{"name":"_who","type":"address","internalType":"address"},{"name":"_permissionId","type":"bytes32","internalType":"bytes32"}],"outputs":[{"name":"","type":"bytes32","internalType":"bytes32"}],"stateMutability":"pure"},{"type":"function","name":"grant","inputs":[{"name":"_where","type":"address","internalType":"address"},{"name":"_who","type":"address","internalType":"address"},{"name":"_permissionId","type":"bytes32","internalType":"bytes32"}],"outputs":[],"stateMutability":"nonpayable"},{"type":"function","name":"grantWithCondition","inputs":[{"name":"_where","type":"address","internalType":"address"},{"name":"_who","type":"address","internalType":"address"},{"name":"_permissionId","type":"bytes32","internalType":"bytes32"},{"name":"_condition","type":"address","internalType":"contract IPermissionCondition"}],"outputs":[],"stateMutability":"nonpayable"},{"type":"function","name":"hasPermission","inputs":[{"name":"_where","type":"address","internalType":"address"},{"name":"_who","type":"address","internalType":"address"},{"name":"_permissionId","type":"bytes32","internalType":"bytes32"},{"name":"_data","type":"bytes","internalType":"bytes"}],"outputs":[{"name":"","type":"bool","internalType":"bool"}],"stateMutability":"view"},{"type":"function","name":"init","inputs":[{"name":"_who","type":"address","internalType":"address"}],"outputs":[],"stateMutability":"nonpayable"},{"type":"function","name":"isGranted","inputs":[{"name":"_where","type":"address","internalType":"address"},{"name":"_who","type":"address","internalType":"address"},{"name":"_permissionId","type":"bytes32","internalType":"bytes32"},{"name":"_data","type":"bytes","internalType":"bytes"}],"outputs":[{"name":"","type":"bool","internalType":"bool"}],"stateMutability":"view"},{"type":"function","name":"revoke","inputs":[{"name":"_where","type":"address","internalType":"address"},{"name":"_who","type":"address","internalType":"address"},{"name":"_permissionId","type":"bytes32","internalType":"bytes32"}],"outputs":[],"stateMutability":"nonpayable"},{"type":"event","name":"Granted","inputs":[{"name":"permissionId","type":"bytes32","indexed":true,"internalType":"bytes32"},{"name":"here","type":"address","indexed":true,"internalType":"address"},{"name":"where","type":"address","indexed":false,"internalType":"address"},{"name":"who","type":"address","indexed":true,"internalType":"address"},{"name":"condition","type":"address","indexed":false,"internalType":"address"}],"anonymous":false},{"type":"event","name":"Initialized","inputs":[{"name":"version","type":"uint8","indexed":false,"internalType":"uint8"}],"anonymous":false},{"type":"event","name":"Revoked","inputs":[{"name":"permissionId","type":"bytes32","indexed":true,"internalType":"bytes32"},{"name":"here","type":"address","indexed":true,"internalType":"address"},{"name":"where","type":"address","indexed":false,"internalType":"address"},{"name":"who","type":"address","indexed":true,"internalType":"address"}],"anonymous":false},{"type":"error","name":"AnyAddressDisallowedForWhoAndWhere","inputs":[]},{"type":"error","name":"ConditionInterfaceNotSupported","inputs":[{"name":"condition","type":"address","internalType":"contract IPermissionCondition"}]},{"type":"error","name":"ConditionNotAContract","inputs":[{"name":"condition","type":"address","internalType":"contract IPermissionCondition"}]},{"type":"error","name":"GrantWithConditionNotSupported","inputs":[]},{"type":"error","name":"PermissionAlreadyGrantedForDifferentCondition","inputs":[{"name":"where","type":"address","internalType":"address"},{"name":"who","type":"address","internalType":"address"},{"name":"permissionId","type":"bytes32","internalType":"bytes32"},{"name":"currentCondition","type":"address","internalType":"address"},{"name":"newCondition","type":"address","internalType":"address"}]},{"type":"error","name":"PermissionsForAnyAddressDisallowed","inputs":[]},{"type":"error","name":"Unauthorized","inputs":[{"name":"where","type":"address","internalType":"address"},{"name":"who","type":"address","internalType":"address"},{"name":"permissionId","type":"bytes32","internalType":"bytes32"}]}],"bytecode":{"object":"0x608060405234801561001057600080fd5b506112d7806100206000396000f3fe608060405234801561001057600080fd5b50600436106100ea5760003560e01c8063a84d9ca21161008c578063d714ccc411610066578063d714ccc41461020a578063d96054c41461021d578063e978afe514610230578063fdef91061461024357600080fd5b8063a84d9ca2146101bd578063c9dbc2a4146101e4578063d68bad2c146101f757600080fd5b806322844d04116100c857806322844d041461013f5780632675fdd0146101525780637f23781014610175578063a1b860d21461019657600080fd5b806309cccd25146100ef57806309e56b141461011557806319ab453c1461012a575b600080fd5b6101026100fd366004610df6565b610256565b6040519081526020015b60405180910390f35b61010260008051602061128283398151915281565b61013d610138366004610e37565b61026b565b005b61013d61014d366004610e5b565b610383565b610165610160366004610f2a565b610474565b604051901515815260200161010c565b6001600160a01b035b6040516001600160a01b03909116815260200161010c565b6101027f1feca900beeca1692fadadc353e0d151d6acd1aeb7ed5ae147065dcad6c121d981565b6101027f08c316d110e70b0d53b990aa7a80d0aef9103568f6768c8204c82cb3ddddd67f81565b61013d6101f2366004610fee565b610591565b61013d610205366004610df6565b6105b5565b61017e610218366004610df6565b6105de565b61013d61022b366004610df6565b610611565b61013d61023e366004611041565b610634565b610165610251366004610f2a565b610755565b600061026384848461076c565b949350505050565b600054610100900460ff161580801561028b5750600054600160ff909116105b806102a55750303b1580156102a5575060005460ff166001145b61030d5760405162461bcd60e51b815260206004820152602e60248201527f496e697469616c697a61626c653a20636f6e747261637420697320616c72656160448201526d191e481a5b9a5d1a585b1a5e995960921b60648201526084015b60405180910390fd5b6000805460ff191660011790558015610330576000805461ff0019166101001790555b610339826107d1565b801561037f576000805461ff0019169055604051600181527f7f26b83ff96e1f2b6a682f133852f6798a09c465da95921460cefb38474024989060200160405180910390a15b5050565b60008051602061128283398151915261039b81610848565b60005b8281101561046d5760008484838181106103ba576103ba6110b6565b9050606002018036038101906103d091906110e0565b90506000815160028111156103e7576103e7611149565b03610404576103ff86826020015183604001516108b7565b610464565b60018151600281111561041957610419611149565b03610431576103ff86826020015183604001516109e1565b60028151600281111561044657610446611149565b036104645760405163d4d3bef760e01b815260040160405180910390fd5b5060010161039e565b5050505050565b6000806001600061048688888861076c565b81526020810191909152604001600020546001600160a01b0316905060011981016104b5576001915050610263565b6001600160a01b038116156104d9576104d18187878787610a75565b915050610263565b506000600160006104f2886001600160a01b038861076c565b81526020810191909152604001600020546001600160a01b031690506001198101610521576001915050610263565b6001600160a01b0381161561053d576104d18187878787610a75565b506000600160006105566001600160a01b03888861076c565b81526020810191909152604001600020546001600160a01b031690508015610585576104d18187878787610a75565b50600095945050505050565b6000805160206112828339815191526105a981610848565b61046d85858585610b05565b6000805160206112828339815191526105cd81610848565b6105d88484846108b7565b50505050565b6000600160006105ef86868661076c565b81526020810191909152604001600020546001600160a01b0316949350505050565b60008051602061128283398151915261062981610848565b6105d88484846109e1565b60008051602061128283398151915261064c81610848565b60005b828110156105d857600084848381811061066b5761066b6110b6565b905060a00201803603810190610681919061115f565b905060008151600281111561069857610698611149565b036106e55760608101516001600160a01b0316156106c95760405163d4d3bef760e01b815260040160405180910390fd5b6106e08160200151826040015183608001516108b7565b61074c565b6001815160028111156106fa576106fa611149565b03610716576106e08160200151826040015183608001516109e1565b60028151600281111561072b5761072b611149565b0361074c5761074c8160200151826040015183608001518460600151610b05565b5060010161064f565b600061076385858585610474565b95945050505050565b604051692822a926a4a9a9a4a7a760b11b60208201526bffffffffffffffffffffffff19606084811b8216602a84015285901b16603e820152605281018290526000906072016040516020818303038152906040528051906020012090509392505050565b600054610100900460ff1661083c5760405162461bcd60e51b815260206004820152602b60248201527f496e697469616c697a61626c653a20636f6e7472616374206973206e6f74206960448201526a6e697469616c697a696e6760a81b6064820152608401610304565b61084581610d73565b50565b61088b3033836000368080601f01602080910402602001604051908101604052809392919081815260200183838082843760009201919091525061047492505050565b61084557604051631e09743f60e01b815230600482015233602482015260448101829052606401610304565b6002600160a01b03196001600160a01b038416016108e8576040516324159e5b60e01b815260040160405180910390fd5b6002600160a01b03196001600160a01b0383160161093e57600080516020611282833981519152811480610920575061092081610d8c565b1561093e576040516324159e5b60e01b815260040160405180910390fd5b600061094b84848461076c565b6000818152600160205260409020549091506001600160a01b03168061046d5760008281526001602090815260409182902080546001600160a01b031916600290811790915582516001600160a01b0389811682529281019190915290861691339186917f0f579ad49235a8c1fd9041427e7067b1eb10926bbed380bf6fabc73e0e807644910160405180910390a45050505050565b60006109ee84848461076c565b6000818152600160205260409020549091506001600160a01b0316156105d85760008181526001602090815260409182902080546001600160a01b031916905590516001600160a01b038681168252851691339185917f3ca48185ec3f6e47e24db18b13f1c65b1ce05da1659f9c1c4fe717dda5f67524910160405180910390a450505050565b6040516302675fdd60e41b81526000906001600160a01b03871690632675fdd090610aaa9088908890889088906004016111ee565b602060405180830381865afa925050508015610ae3575060408051601f3d908101601f19168201909252610ae09181019061125f565b60015b15610585578015610af8576001915050610763565b5050600095945050505050565b806001600160a01b0381163b610b395760405163241acd7b60e11b81526001600160a01b0383166004820152602401610304565b6040516301ffc9a760e01b81526302675fdd60e41b60048201526001600160a01b038216906301ffc9a790602401602060405180830381865afa158015610b84573d6000803e3d6000fd5b505050506040513d601f19601f82011682018060405250810190610ba8919061125f565b610bd057604051636dd8243160e11b81526001600160a01b0383166004820152602401610304565b6001600160a01b03858116148015610bf057506001600160a01b03848116145b15610c0e576040516385f1ba9960e01b815260040160405180910390fd5b6001600160a01b038581161480610c2d57506001600160a01b03848116145b15610c7057600080516020611282833981519152831480610c525750610c5283610d8c565b15610c70576040516324159e5b60e01b815260040160405180910390fd5b6000610c7d86868661076c565b6000818152600160205260409020549091506001600160a01b031680610d0e5760008281526001602090815260409182902080546001600160a01b0319166001600160a01b0387811691821790925583518b8316815292830152881691339188917f0f579ad49235a8c1fd9041427e7067b1eb10926bbed380bf6fabc73e0e807644910160405180910390a4610d6a565b826001600160a01b0316816001600160a01b031614610d6a576040516305cc3c4f60e11b81526001600160a01b03808916600483015280881660248301526044820187905280831660648301528416608482015260a401610304565b50505050505050565b61084530826000805160206112828339815191526108b7565b60007f08c316d110e70b0d53b990aa7a80d0aef9103568f6768c8204c82cb3ddddd67f821480610ddb57507f1feca900beeca1692fadadc353e0d151d6acd1aeb7ed5ae147065dcad6c121d982145b92915050565b6001600160a01b038116811461084557600080fd5b600080600060608486031215610e0b57600080fd5b8335610e1681610de1565b92506020840135610e2681610de1565b929592945050506040919091013590565b600060208284031215610e4957600080fd5b8135610e5481610de1565b9392505050565b600080600060408486031215610e7057600080fd5b8335610e7b81610de1565b9250602084013567ffffffffffffffff80821115610e9857600080fd5b818601915086601f830112610eac57600080fd5b813581811115610ebb57600080fd5b876020606083028501011115610ed057600080fd5b6020830194508093505050509250925092565b634e487b7160e01b600052604160045260246000fd5b604051601f8201601f1916810167ffffffffffffffff81118282101715610f2257610f22610ee3565b604052919050565b60008060008060808587031215610f4057600080fd5b8435610f4b81610de1565b9350602085810135610f5c81610de1565b935060408601359250606086013567ffffffffffffffff80821115610f8057600080fd5b818801915088601f830112610f9457600080fd5b813581811115610fa657610fa6610ee3565b610fb8601f8201601f19168501610ef9565b91508082528984828501011115610fce57600080fd5b808484018584013760008482840101525080935050505092959194509250565b6000806000806080858703121561100457600080fd5b843561100f81610de1565b9350602085013561101f81610de1565b925060408501359150606085013561103681610de1565b939692955090935050565b6000806020838503121561105457600080fd5b823567ffffffffffffffff8082111561106c57600080fd5b818501915085601f83011261108057600080fd5b81358181111561108f57600080fd5b86602060a0830285010111156110a457600080fd5b60209290920196919550909350505050565b634e487b7160e01b600052603260045260246000fd5b8035600381106110db57600080fd5b919050565b6000606082840312156110f257600080fd5b6040516060810181811067ffffffffffffffff8211171561111557611115610ee3565b604052611121836110cc565b8152602083013561113181610de1565b60208201526040928301359281019290925250919050565b634e487b7160e01b600052602160045260246000fd5b600060a0828403121561117157600080fd5b60405160a0810181811067ffffffffffffffff8211171561119457611194610ee3565b6040526111a0836110cc565b815260208301356111b081610de1565b602082015260408301356111c381610de1565b604082015260608301356111d681610de1565b60608201526080928301359281019290925250919050565b600060018060a01b038087168352602081871681850152856040850152608060608501528451915081608085015260005b8281101561123b5785810182015185820160a00152810161121f565b5050600060a0828501015260a0601f19601f83011684010191505095945050505050565b60006020828403121561127157600080fd5b81518015158114610e5457600080fdfe815fe80e4b37c8582a3b773d1d7071f983eacfd56b5965db654f3087c25ada33a264697066735822122081761bd9825753e5edc397afc01626de77e743b7668846312dca1d0c3504461f64736f6c63430008110033","linkReferences":{}},"methodIdentifiers":{"ROOT_PERMISSION_ID()":"09e56b14","TEST_PERMISSION_1_ID()":"a84d9ca2","TEST_PERMISSION_2_ID()":"a1b860d2","applyMultiTargetPermissions((uint8,address,address,address,bytes32)[])":"e978afe5","applySingleTargetPermissions(address,(uint8,address,bytes32)[])":"22844d04","getAnyAddr()":"7f237810","getAuthPermission(address,address,bytes32)":"d714ccc4","getPermissionHash(address,address,bytes32)":"09cccd25","grant(address,address,bytes32)":"d68bad2c","grantWithCondition(address,address,bytes32,address)":"c9dbc2a4","hasPermission(address,address,bytes32,bytes)":"fdef9106","init(address)":"19ab453c","isGranted(address,address,bytes32,bytes)":"2675fdd0","revoke(address,address,bytes32)":"d96054c4"},"id":312}