{"abi":[{"type":"function","name":"allowance","inputs":[{"name":"holder","type":"address","internalType":"address"},{"name":"spender","type":"address","internalType":"address"}],"outputs":[{"name":"","type":"uint256","internalType":"uint256"}],"stateMutability":"view"},{"type":"function","name":"approve","inputs":[{"name":"spender","type":"address","internalType":"address"},{"name":"value","type":"uint256","internalType":"uint256"}],"outputs":[{"name":"","type":"bool","internalType":"bool"}],"stateMutability":"nonpayable"},{"type":"function","name":"authorizeOperator","inputs":[{"name":"operator","type":"address","internalType":"address"}],"outputs":[],"stateMutability":"nonpayable"},{"type":"function","name":"balanceOf","inputs":[{"name":"tokenHolder","type":"address","internalType":"address"}],"outputs":[{"name":"","type":"uint256","internalType":"uint256"}],"stateMutability":"view"},{"type":"function","name":"burn","inputs":[{"name":"amount","type":"uint256","internalType":"uint256"},{"name":"data","type":"bytes","internalType":"bytes"}],"outputs":[],"stateMutability":"nonpayable"},{"type":"function","name":"decimals","inputs":[],"outputs":[{"name":"","type":"uint8","internalType":"uint8"}],"stateMutability":"pure"},{"type":"function","name":"defaultOperators","inputs":[],"outputs":[{"name":"","type":"address[]","internalType":"address[]"}],"stateMutability":"view"},{"type":"function","name":"granularity","inputs":[],"outputs":[{"name":"","type":"uint256","internalType":"uint256"}],"stateMutability":"view"},{"type":"function","name":"initialize","inputs":[{"name":"name","type":"string","internalType":"string"},{"name":"symbol","type":"string","internalType":"string"},{"name":"defaultOperators","type":"address[]","internalType":"address[]"},{"name":"initialSupply","type":"uint256","internalType":"uint256"},{"name":"owner","type":"address","internalType":"address"}],"outputs":[],"stateMutability":"nonpayable"},{"type":"function","name":"isOperatorFor","inputs":[{"name":"operator","type":"address","internalType":"address"},{"name":"tokenHolder","type":"address","internalType":"address"}],"outputs":[{"name":"","type":"bool","internalType":"bool"}],"stateMutability":"view"},{"type":"function","name":"name","inputs":[],"outputs":[{"name":"","type":"string","internalType":"string"}],"stateMutability":"view"},{"type":"function","name":"operatorBurn","inputs":[{"name":"account","type":"address","internalType":"address"},{"name":"amount","type":"uint256","internalType":"uint256"},{"name":"data","type":"bytes","internalType":"bytes"},{"name":"operatorData","type":"bytes","internalType":"bytes"}],"outputs":[],"stateMutability":"nonpayable"},{"type":"function","name":"operatorSend","inputs":[{"name":"sender","type":"address","internalType":"address"},{"name":"recipient","type":"address","internalType":"address"},{"name":"amount","type":"uint256","internalType":"uint256"},{"name":"data","type":"bytes","internalType":"bytes"},{"name":"operatorData","type":"bytes","internalType":"bytes"}],"outputs":[],"stateMutability":"nonpayable"},{"type":"function","name":"revokeOperator","inputs":[{"name":"operator","type":"address","internalType":"address"}],"outputs":[],"stateMutability":"nonpayable"},{"type":"function","name":"send","inputs":[{"name":"recipient","type":"address","internalType":"address"},{"name":"amount","type":"uint256","internalType":"uint256"},{"name":"data","type":"bytes","internalType":"bytes"}],"outputs":[],"stateMutability":"nonpayable"},{"type":"function","name":"symbol","inputs":[],"outputs":[{"name":"","type":"string","internalType":"string"}],"stateMutability":"view"},{"type":"function","name":"totalSupply","inputs":[],"outputs":[{"name":"","type":"uint256","internalType":"uint256"}],"stateMutability":"view"},{"type":"function","name":"transfer","inputs":[{"name":"recipient","type":"address","internalType":"address"},{"name":"amount","type":"uint256","internalType":"uint256"}],"outputs":[{"name":"","type":"bool","internalType":"bool"}],"stateMutability":"nonpayable"},{"type":"function","name":"transferFrom","inputs":[{"name":"holder","type":"address","internalType":"address"},{"name":"recipient","type":"address","internalType":"address"},{"name":"amount","type":"uint256","internalType":"uint256"}],"outputs":[{"name":"","type":"bool","internalType":"bool"}],"stateMutability":"nonpayable"},{"type":"event","name":"Approval","inputs":[{"name":"owner","type":"address","indexed":true,"internalType":"address"},{"name":"spender","type":"address","indexed":true,"internalType":"address"},{"name":"value","type":"uint256","indexed":false,"internalType":"uint256"}],"anonymous":false},{"type":"event","name":"AuthorizedOperator","inputs":[{"name":"operator","type":"address","indexed":true,"internalType":"address"},{"name":"tokenHolder","type":"address","indexed":true,"internalType":"address"}],"anonymous":false},{"type":"event","name":"Burned","inputs":[{"name":"operator","type":"address","indexed":true,"internalType":"address"},{"name":"from","type":"address","indexed":true,"internalType":"address"},{"name":"amount","type":"uint256","indexed":false,"internalType":"uint256"},{"name":"data","type":"bytes","indexed":false,"internalType":"bytes"},{"name":"operatorData","type":"bytes","indexed":false,"internalType":"bytes"}],"anonymous":false},{"type":"event","name":"Initialized","inputs":[{"name":"version","type":"uint8","indexed":false,"internalType":"uint8"}],"anonymous":false},{"type":"event","name":"Minted","inputs":[{"name":"operator","type":"address","indexed":true,"internalType":"address"},{"name":"to","type":"address","indexed":true,"internalType":"address"},{"name":"amount","type":"uint256","indexed":false,"internalType":"uint256"},{"name":"data","type":"bytes","indexed":false,"internalType":"bytes"},{"name":"operatorData","type":"bytes","indexed":false,"internalType":"bytes"}],"anonymous":false},{"type":"event","name":"RevokedOperator","inputs":[{"name":"operator","type":"address","indexed":true,"internalType":"address"},{"name":"tokenHolder","type":"address","indexed":true,"internalType":"address"}],"anonymous":false},{"type":"event","name":"Sent","inputs":[{"name":"operator","type":"address","indexed":true,"internalType":"address"},{"name":"from","type":"address","indexed":true,"internalType":"address"},{"name":"to","type":"address","indexed":true,"internalType":"address"},{"name":"amount","type":"uint256","indexed":false,"internalType":"uint256"},{"name":"data","type":"bytes","indexed":false,"internalType":"bytes"},{"name":"operatorData","type":"bytes","indexed":false,"internalType":"bytes"}],"anonymous":false},{"type":"event","name":"Transfer","inputs":[{"name":"from","type":"address","indexed":true,"internalType":"address"},{"name":"to","type":"address","indexed":true,"internalType":"address"},{"name":"value","type":"uint256","indexed":false,"internalType":"uint256"}],"anonymous":false}],"bytecode":{"object":"0x608060405234801561001057600080fd5b50611e23806100206000396000f3fe608060405234801561001057600080fd5b50600436106101215760003560e01c8063768f950a116100ad578063d95b637111610071578063d95b637114610249578063dd62ed3e1461025c578063fad8b32a14610295578063fc673c4f146102a8578063fe9d9303146102bb57600080fd5b8063768f950a146101f5578063959b8c3f1461020857806395d89b411461021b5780639bd9bbc614610223578063a9059cbb1461023657600080fd5b806323b872dd116100f457806323b872dd1461018e578063313ce567146101a1578063556f0dc7146101b057806362ad1b83146101b757806370a08231146101cc57600080fd5b806306e485381461012657806306fdde0314610144578063095ea7b31461015957806318160ddd1461017c575b600080fd5b61012e6102ce565b60405161013b91906115f1565b60405180910390f35b61014c610330565b60405161013b9190611684565b61016c6101673660046116bf565b6103b9565b604051901515815260200161013b565b6034545b60405190815260200161013b565b61016c61019c3660046116eb565b6103d3565b6040516012815260200161013b565b6001610180565b6101ca6101c53660046117e3565b610419565b005b6101806101da366004611876565b6001600160a01b031660009081526033602052604090205490565b6101ca610203366004611893565b61045e565b6101ca610216366004611876565b610579565b61014c610696565b6101ca6102313660046119a6565b6106a5565b61016c6102443660046116bf565b6106c8565b61016c6102573660046119ff565b610700565b61018061026a3660046119ff565b6001600160a01b039182166000908152603b6020908152604080832093909416825291909152205490565b6101ca6102a3366004611876565b6107a2565b6101ca6102b6366004611a38565b6108bd565b6101ca6102c9366004611ab8565b6108f5565b6060603780548060200260200160405190810160405280929190818152602001828054801561032657602002820191906000526020600020905b81546001600160a01b03168152600190910190602001808311610308575b5050505050905090565b60606035805461033f90611aff565b80601f016020809104026020016040519081016040528092919081815260200182805461036b90611aff565b80156103265780601f1061038d57610100808354040283529160200191610326565b820191906000526020600020905b81548152906001019060200180831161039b57509395945050505050565b6000336103c7818585610914565b60019150505b92915050565b6000336103e1858285610a3b565b61040e85858560405180602001604052806000815250604051806020016040528060008152506000610ac7565b506001949350505050565b6104233386610700565b6104485760405162461bcd60e51b815260040161043f90611b39565b60405180910390fd5b61045785858585856001610ac7565b5050505050565b600054610100900460ff161580801561047e5750600054600160ff909116105b806104985750303b158015610498575060005460ff166001145b6104fb5760405162461bcd60e51b815260206004820152602e60248201527f496e697469616c697a61626c653a20636f6e747261637420697320616c72656160448201526d191e481a5b9a5d1a585b1a5e995960921b606482015260840161043f565b6000805460ff19166001179055801561051e576000805461ff0019166101001790555b61052b8686868686610bc3565b8015610571576000805461ff0019169055604051600181527f7f26b83ff96e1f2b6a682f133852f6798a09c465da95921460cefb38474024989060200160405180910390a15b505050505050565b6001600160a01b03811633036105dd5760405162461bcd60e51b8152602060048201526024808201527f4552433737373a20617574686f72697a696e672073656c66206173206f70657260448201526330ba37b960e11b606482015260840161043f565b6001600160a01b03811660009081526038602052604090205460ff161561062e57336000908152603a602090815260408083206001600160a01b03851684529091529020805460ff1916905561065d565b3360009081526039602090815260408083206001600160a01b03851684529091529020805460ff191660011790555b60405133906001600160a01b038316907ff4caeb2d6ca8932a215a353d0703c326ec2d81fc68170f320eb2ab49e9df61f990600090a350565b60606036805461033f90611aff565b6106c333848484604051806020016040528060008152506001610ac7565b505050565b60006106f733848460405180602001604052806000815250604051806020016040528060008152506000610ac7565b50600192915050565b6000816001600160a01b0316836001600160a01b0316148061076b57506001600160a01b03831660009081526038602052604090205460ff16801561076b57506001600160a01b038083166000908152603a602090815260408083209387168352929052205460ff16155b8061079b57506001600160a01b0380831660009081526039602090815260408083209387168352929052205460ff165b9392505050565b336001600160a01b038216036108045760405162461bcd60e51b815260206004820152602160248201527f4552433737373a207265766f6b696e672073656c66206173206f70657261746f6044820152603960f91b606482015260840161043f565b6001600160a01b03811660009081526038602052604090205460ff161561085857336000908152603a602090815260408083206001600160a01b03851684529091529020805460ff19166001179055610884565b3360009081526039602090815260408083206001600160a01b03851684529091529020805460ff191690555b60405133906001600160a01b038316907f50546e66e5f44d728365dc3908c63bc5cfeeab470722c1677e3073a6ac294aa190600090a350565b6108c73385610700565b6108e35760405162461bcd60e51b815260040161043f90611b39565b6108ef84848484610c02565b50505050565b61091033838360405180602001604052806000815250610c02565b5050565b6001600160a01b0383166109785760405162461bcd60e51b815260206004820152602560248201527f4552433737373a20617070726f76652066726f6d20746865207a65726f206164604482015264647265737360d81b606482015260840161043f565b6001600160a01b0382166109da5760405162461bcd60e51b815260206004820152602360248201527f4552433737373a20617070726f766520746f20746865207a65726f206164647260448201526265737360e81b606482015260840161043f565b6001600160a01b038381166000818152603b602090815260408083209487168084529482529182902085905590518481527f8c5be1e5ebec7d5bd14f71427d1e84f3dd0314c0f7b2291e5b200ac8c7c3b925910160405180910390a3505050565b6001600160a01b038381166000908152603b602090815260408083209386168352929052205460001981146108ef5781811015610aba5760405162461bcd60e51b815260206004820152601e60248201527f4552433737373a20696e73756666696369656e7420616c6c6f77616e63650000604482015260640161043f565b6108ef8484848403610914565b6001600160a01b038616610b2c5760405162461bcd60e51b815260206004820152602660248201527f4552433737373a207472616e736665722066726f6d20746865207a65726f206160448201526564647265737360d01b606482015260840161043f565b6001600160a01b038516610b8e5760405162461bcd60e51b8152602060048201526024808201527f4552433737373a207472616e7366657220746f20746865207a65726f206164646044820152637265737360e01b606482015260840161043f565b33610b9d818888888888610db7565b610bab818888888888610ede565b610bba81888888888888611044565b50505050505050565b600054610100900460ff16610bea5760405162461bcd60e51b815260040161043f90611b85565b610bf5858585611209565b61045785858585856113e5565b6001600160a01b038416610c635760405162461bcd60e51b815260206004820152602260248201527f4552433737373a206275726e2066726f6d20746865207a65726f206164647265604482015261737360f01b606482015260840161043f565b33610c7381866000878787610db7565b6001600160a01b03851660009081526033602052604090205484811015610ce85760405162461bcd60e51b815260206004820152602360248201527f4552433737373a206275726e20616d6f756e7420657863656564732062616c616044820152626e636560e81b606482015260840161043f565b6001600160a01b0386166000908152603360205260408120868303905560348054879290610d17908490611be6565b92505081905550856001600160a01b0316826001600160a01b03167fa78a9be3a7b862d26933ad85fb11d80ef66b8f972d7cbba06621d583943a4098878787604051610d6593929190611bf9565b60405180910390a36040518581526000906001600160a01b038816907fddf252ad1be2c89b69c2b068fc378daa952ba7f163c4a11628f55a4df523b3ef906020015b60405180910390a3505050505050565b60405163555ddc6560e11b81526001600160a01b03861660048201527f29ddb589b1fb5fc7cf394961c1adf5f8c6454761adf795e67fe149f658abe8956024820152600090731820a4b7618bde71dce8cdc73aab6c95905fad249063aabbb8ca90604401602060405180830381865afa158015610e38573d6000803e3d6000fd5b505050506040513d601f19601f82011682018060405250810190610e5c9190611c2e565b90506001600160a01b03811615610bba57604051633ad5cbc160e11b81526001600160a01b038216906375ab978290610ea3908a908a908a908a908a908a90600401611c4b565b600060405180830381600087803b158015610ebd57600080fd5b505af1158015610ed1573d6000803e3d6000fd5b5050505050505050505050565b6001600160a01b03851660009081526033602052604090205483811015610f575760405162461bcd60e51b815260206004820152602760248201527f4552433737373a207472616e7366657220616d6f756e7420657863656564732060448201526662616c616e636560c81b606482015260840161043f565b6001600160a01b03808716600090815260336020526040808220878503905591871681529081208054869290610f8e908490611ca5565b92505081905550846001600160a01b0316866001600160a01b0316886001600160a01b03167f06b541ddaa720db2b10a4d0cdac39b8d360425fc073085fac19bc82614677987878787604051610fe693929190611bf9565b60405180910390a4846001600160a01b0316866001600160a01b03167fddf252ad1be2c89b69c2b068fc378daa952ba7f163c4a11628f55a4df523b3ef8660405161103391815260200190565b60405180910390a350505050505050565b60405163555ddc6560e11b81526001600160a01b03861660048201527fb281fc8c12954d22544db45de3159a39272895b169a852b314f9cc762e44c53b6024820152600090731820a4b7618bde71dce8cdc73aab6c95905fad249063aabbb8ca90604401602060405180830381865afa1580156110c5573d6000803e3d6000fd5b505050506040513d601f19601f820116820180604052508101906110e99190611c2e565b90506001600160a01b03811615611165576040516223de2960e01b81526001600160a01b038216906223de299061112e908b908b908b908b908b908b90600401611c4b565b600060405180830381600087803b15801561114857600080fd5b505af115801561115c573d6000803e3d6000fd5b505050506111ff565b81156111ff576001600160a01b0386163b156111ff5760405162461bcd60e51b815260206004820152604d60248201527f4552433737373a20746f6b656e20726563697069656e7420636f6e747261637460448201527f20686173206e6f20696d706c656d656e74657220666f7220455243373737546f60648201526c1ad95b9cd49958da5c1a595b9d609a1b608482015260a40161043f565b5050505050505050565b600054610100900460ff166112305760405162461bcd60e51b815260040161043f90611b85565b603561123c8482611cfe565b5060366112498382611cfe565b50805161125d906037906020840190611577565b5060005b81518110156112c65760016038600084848151811061128257611282611dbe565b6020908102919091018101516001600160a01b03168252810191909152604001600020805460ff1916911515919091179055806112be81611dd4565b915050611261565b506040516329965a1d60e01b815230600482018190527fac7fbab5f54a3ca8194167523c6753bfeb96a445279294b6125b68cce217705460248301526044820152731820a4b7618bde71dce8cdc73aab6c95905fad24906329965a1d90606401600060405180830381600087803b15801561134057600080fd5b505af1158015611354573d6000803e3d6000fd5b50506040516329965a1d60e01b815230600482018190527faea199e31a596269b42cdafd93407f14436db6e4cad65417994c2eb37381e05a60248301526044820152731820a4b7618bde71dce8cdc73aab6c95905fad2492506329965a1d9150606401600060405180830381600087803b1580156113d157600080fd5b505af1158015610bba573d6000803e3d6000fd5b600054610100900460ff1661140c5760405162461bcd60e51b815260040161043f90611b85565b610457818360405180602001604052806000815250604051806020016040528060008152506108ef8484848460016001600160a01b0385166114905760405162461bcd60e51b815260206004820181905260248201527f4552433737373a206d696e7420746f20746865207a65726f2061646472657373604482015260640161043f565b600033905084603460008282546114a79190611ca5565b90915550506001600160a01b038616600090815260336020526040812080548792906114d4908490611ca5565b909155506114ea90508160008888888888611044565b856001600160a01b0316816001600160a01b03167f2fe5be0146f74c5bce36c0b80911af6c7d86ff27e89d5cfa61fc681327954e5d87878760405161153193929190611bf9565b60405180910390a36040518581526001600160a01b038716906000907fddf252ad1be2c89b69c2b068fc378daa952ba7f163c4a11628f55a4df523b3ef90602001610da7565b8280548282559060005260206000209081019282156115cc579160200282015b828111156115cc57825182546001600160a01b0319166001600160a01b03909116178255602090920191600190910190611597565b506115d89291506115dc565b5090565b5b808211156115d857600081556001016115dd565b6020808252825182820181905260009190848201906040850190845b818110156116325783516001600160a01b03168352928401929184019160010161160d565b50909695505050505050565b6000815180845260005b8181101561166457602081850181015186830182015201611648565b506000602082860101526020601f19601f83011685010191505092915050565b60208152600061079b602083018461163e565b6001600160a01b03811681146116ac57600080fd5b50565b80356116ba81611697565b919050565b600080604083850312156116d257600080fd5b82356116dd81611697565b946020939093013593505050565b60008060006060848603121561170057600080fd5b833561170b81611697565b9250602084013561171b81611697565b929592945050506040919091013590565b634e487b7160e01b600052604160045260246000fd5b604051601f8201601f1916810167ffffffffffffffff8111828210171561176b5761176b61172c565b604052919050565b600082601f83011261178457600080fd5b813567ffffffffffffffff81111561179e5761179e61172c565b6117b1601f8201601f1916602001611742565b8181528460208386010111156117c657600080fd5b816020850160208301376000918101602001919091529392505050565b600080600080600060a086880312156117fb57600080fd5b853561180681611697565b9450602086013561181681611697565b935060408601359250606086013567ffffffffffffffff8082111561183a57600080fd5b61184689838a01611773565b9350608088013591508082111561185c57600080fd5b5061186988828901611773565b9150509295509295909350565b60006020828403121561188857600080fd5b813561079b81611697565b600080600080600060a086880312156118ab57600080fd5b853567ffffffffffffffff808211156118c357600080fd5b6118cf89838a01611773565b96506020915081880135818111156118e657600080fd5b6118f28a828b01611773565b96505060408801358181111561190757600080fd5b8801601f81018a1361191857600080fd5b80358281111561192a5761192a61172c565b8060051b925061193b848401611742565b818152928201840192848101908c85111561195557600080fd5b928501925b8484101561197f578335925061196f83611697565b828252928501929085019061195a565b97505050506060880135935061199a915050608087016116af565b90509295509295909350565b6000806000606084860312156119bb57600080fd5b83356119c681611697565b925060208401359150604084013567ffffffffffffffff8111156119e957600080fd5b6119f586828701611773565b9150509250925092565b60008060408385031215611a1257600080fd5b8235611a1d81611697565b91506020830135611a2d81611697565b809150509250929050565b60008060008060808587031215611a4e57600080fd5b8435611a5981611697565b935060208501359250604085013567ffffffffffffffff80821115611a7d57600080fd5b611a8988838901611773565b93506060870135915080821115611a9f57600080fd5b50611aac87828801611773565b91505092959194509250565b60008060408385031215611acb57600080fd5b82359150602083013567ffffffffffffffff811115611ae957600080fd5b611af585828601611773565b9150509250929050565b600181811c90821680611b1357607f821691505b602082108103611b3357634e487b7160e01b600052602260045260246000fd5b50919050565b6020808252602c908201527f4552433737373a2063616c6c6572206973206e6f7420616e206f70657261746f60408201526b39103337b9103437b63232b960a11b606082015260800190565b6020808252602b908201527f496e697469616c697a61626c653a20636f6e7472616374206973206e6f74206960408201526a6e697469616c697a696e6760a81b606082015260800190565b634e487b7160e01b600052601160045260246000fd5b818103818111156103cd576103cd611bd0565b838152606060208201526000611c12606083018561163e565b8281036040840152611c24818561163e565b9695505050505050565b600060208284031215611c4057600080fd5b815161079b81611697565b6001600160a01b0387811682528681166020830152851660408201526060810184905260c060808201819052600090611c869083018561163e565b82810360a0840152611c98818561163e565b9998505050505050505050565b808201808211156103cd576103cd611bd0565b601f8211156106c357600081815260208120601f850160051c81016020861015611cdf5750805b601f850160051c820191505b8181101561057157828155600101611ceb565b815167ffffffffffffffff811115611d1857611d1861172c565b611d2c81611d268454611aff565b84611cb8565b602080601f831160018114611d615760008415611d495750858301515b600019600386901b1c1916600185901b178555610571565b600085815260208120601f198616915b82811015611d9057888601518255948401946001909101908401611d71565b5085821015611dae5787850151600019600388901b60f8161c191681555b5050505050600190811b01905550565b634e487b7160e01b600052603260045260246000fd5b600060018201611de657611de6611bd0565b506001019056fea26469706673582212204ebd123dbfb3934531eea7f96385d86e124ba853165ea8b09087b8c9c6582a5e64736f6c63430008110033","linkReferences":{}},"methodIdentifiers":{"allowance(address,address)":"dd62ed3e","approve(address,uint256)":"095ea7b3","authorizeOperator(address)":"959b8c3f","balanceOf(address)":"70a08231","burn(uint256,bytes)":"fe9d9303","decimals()":"313ce567","defaultOperators()":"06e48538","granularity()":"556f0dc7","initialize(string,string,address[],uint256,address)":"768f950a","isOperatorFor(address,address)":"d95b6371","name()":"06fdde03","operatorBurn(address,uint256,bytes,bytes)":"fc673c4f","operatorSend(address,address,uint256,bytes,bytes)":"62ad1b83","revokeOperator(address)":"fad8b32a","send(address,uint256,bytes)":"9bd9bbc6","symbol()":"95d89b41","totalSupply()":"18160ddd","transfer(address,uint256)":"a9059cbb","transferFrom(address,address,uint256)":"23b872dd"},"id":429}