{"abi":[{"type":"function","name":"SET_TARGET_CONFIG_PERMISSION_ID","inputs":[],"outputs":[{"name":"","type":"bytes32","internalType":"bytes32"}],"stateMutability":"view"},{"type":"function","name":"UPGRADE_PLUGIN_PERMISSION_ID","inputs":[],"outputs":[{"name":"","type":"bytes32","internalType":"bytes32"}],"stateMutability":"view"},{"type":"function","name":"dao","inputs":[],"outputs":[{"name":"","type":"address","internalType":"contract IDAO"}],"stateMutability":"view"},{"type":"function","name":"getCurrentTargetConfig","inputs":[],"outputs":[{"name":"","type":"tuple","internalType":"struct IPlugin.TargetConfig","components":[{"name":"target","type":"address","internalType":"address"},{"name":"operation","type":"uint8","internalType":"enum IPlugin.Operation"}]}],"stateMutability":"view"},{"type":"function","name":"getTargetConfig","inputs":[],"outputs":[{"name":"","type":"tuple","internalType":"struct IPlugin.TargetConfig","components":[{"name":"target","type":"address","internalType":"address"},{"name":"operation","type":"uint8","internalType":"enum IPlugin.Operation"}]}],"stateMutability":"view"},{"type":"function","name":"implementation","inputs":[],"outputs":[{"name":"","type":"address","internalType":"address"}],"stateMutability":"view"},{"type":"function","name":"initialize","inputs":[{"name":"_dao","type":"address","internalType":"contract IDAO"}],"outputs":[],"stateMutability":"nonpayable"},{"type":"function","name":"pluginType","inputs":[],"outputs":[{"name":"","type":"uint8","internalType":"enum IPlugin.PluginType"}],"stateMutability":"pure"},{"type":"function","name":"protocolVersion","inputs":[],"outputs":[{"name":"","type":"uint8[3]","internalType":"uint8[3]"}],"stateMutability":"pure"},{"type":"function","name":"proxiableUUID","inputs":[],"outputs":[{"name":"","type":"bytes32","internalType":"bytes32"}],"stateMutability":"view"},{"type":"function","name":"setTargetConfig","inputs":[{"name":"_targetConfig","type":"tuple","internalType":"struct IPlugin.TargetConfig","components":[{"name":"target","type":"address","internalType":"address"},{"name":"operation","type":"uint8","internalType":"enum IPlugin.Operation"}]}],"outputs":[],"stateMutability":"nonpayable"},{"type":"function","name":"state1","inputs":[],"outputs":[{"name":"","type":"uint256","internalType":"uint256"}],"stateMutability":"view"},{"type":"function","name":"supportsInterface","inputs":[{"name":"_interfaceId","type":"bytes4","internalType":"bytes4"}],"outputs":[{"name":"","type":"bool","internalType":"bool"}],"stateMutability":"view"},{"type":"function","name":"upgradeTo","inputs":[{"name":"newImplementation","type":"address","internalType":"address"}],"outputs":[],"stateMutability":"nonpayable"},{"type":"function","name":"upgradeToAndCall","inputs":[{"name":"newImplementation","type":"address","internalType":"address"},{"name":"data","type":"bytes","internalType":"bytes"}],"outputs":[],"stateMutability":"payable"},{"type":"event","name":"AdminChanged","inputs":[{"name":"previousAdmin","type":"address","indexed":false,"internalType":"address"},{"name":"newAdmin","type":"address","indexed":false,"internalType":"address"}],"anonymous":false},{"type":"event","name":"BeaconUpgraded","inputs":[{"name":"beacon","type":"address","indexed":true,"internalType":"address"}],"anonymous":false},{"type":"event","name":"Initialized","inputs":[{"name":"version","type":"uint8","indexed":false,"internalType":"uint8"}],"anonymous":false},{"type":"event","name":"TargetSet","inputs":[{"name":"newTargetConfig","type":"tuple","indexed":false,"internalType":"struct IPlugin.TargetConfig","components":[{"name":"target","type":"address","internalType":"address"},{"name":"operation","type":"uint8","internalType":"enum IPlugin.Operation"}]}],"anonymous":false},{"type":"event","name":"Upgraded","inputs":[{"name":"implementation","type":"address","indexed":true,"internalType":"address"}],"anonymous":false},{"type":"error","name":"AlreadyInitialized","inputs":[]},{"type":"error","name":"DaoUnauthorized","inputs":[{"name":"dao","type":"address","internalType":"address"},{"name":"where","type":"address","internalType":"address"},{"name":"who","type":"address","internalType":"address"},{"name":"permissionId","type":"bytes32","internalType":"bytes32"}]},{"type":"error","name":"DelegateCallFailed","inputs":[]},{"type":"error","name":"InvalidTargetConfig","inputs":[{"name":"targetConfig","type":"tuple","internalType":"struct IPlugin.TargetConfig","components":[{"name":"target","type":"address","internalType":"address"},{"name":"operation","type":"uint8","internalType":"enum IPlugin.Operation"}]}]}],"bytecode":{"object":"0x60a06040523060805234801561001457600080fd5b5061001d610022565b6100e1565b600054610100900460ff161561008e5760405162461bcd60e51b815260206004820152602760248201527f496e697469616c697a61626c653a20636f6e747261637420697320696e697469604482015266616c697a696e6760c81b606482015260840160405180910390fd5b60005460ff908116146100df576000805460ff191660ff9081179091556040519081527f7f26b83ff96e1f2b6a682f133852f6798a09c465da95921460cefb38474024989060200160405180910390a15b565b608051611468610118600039600081816103b0015281816103f901528181610481015281816104c1015261053d01526114686000f3fe6080604052600436106100e85760003560e01c80635c60da1b1161008a578063c4d66de811610059578063c4d66de81461026a578063c98425ee1461028a578063c9c4bfca146102ac578063dd63c06f146102e057600080fd5b80635c60da1b146101ea5780636accab8c146101ff5780638cb7505914610216578063bb225da21461024a57600080fd5b80634162169f116100c65780634162169f1461016657806341de6830146101985780634f1ef286146101b457806352d1902d146101c757600080fd5b806301ffc9a7146100ed5780632ae9c600146101225780633659cfe614610144575b600080fd5b3480156100f957600080fd5b5061010d610108366004610fa8565b6102f5565b60405190151581526020015b60405180910390f35b34801561012e57600080fd5b5061013761037c565b6040516101199190610fd2565b34801561015057600080fd5b5061016461015f36600461101b565b6103a6565b005b34801561017257600080fd5b5060c9546001600160a01b03165b6040516001600160a01b039091168152602001610119565b3480156101a457600080fd5b506000604051610119919061104e565b6101646101c23660046110af565b610477565b3480156101d357600080fd5b506101dc610530565b604051908152602001610119565b3480156101f657600080fd5b506101806105e3565b34801561020b57600080fd5b506101dc61012d5481565b34801561022257600080fd5b506101dc7f568cc693d84eb1901f8bcecba154cbdef23ca3cf67efc0a0b698528a06c660f781565b34801561025657600080fd5b50610164610265366004611157565b6105f2565b34801561027657600080fd5b5061016461028536600461101b565b610647565b34801561029657600080fd5b5061029f61075f565b604051610119919061116f565b3480156102b857600080fd5b506101dc7f821b6e3a557148015a918c89e5d092e878a69854a2d1a410635f771bd5a8a3f581565b3480156102ec57600080fd5b5061029f6107c6565b60006001600160e01b0319821663041de68360e41b148061032557506001600160e01b03198216621574e360e91b145b8061034057506001600160e01b031982166352d1902d60e01b145b8061035b57506001600160e01b0319821663afc5b82360e01b145b8061037657506301ffc9a760e01b6001600160e01b03198316145b92915050565b610384610f8a565b5060408051606081018252600181526004602082015260009181019190915290565b6001600160a01b037f00000000000000000000000000000000000000000000000000000000000000001630036103f75760405162461bcd60e51b81526004016103ee906111a3565b60405180910390fd5b7f00000000000000000000000000000000000000000000000000000000000000006001600160a01b0316610429610876565b6001600160a01b03161461044f5760405162461bcd60e51b81526004016103ee906111ef565b61045881610892565b60408051600080825260208201909252610474918391906108cb565b50565b6001600160a01b037f00000000000000000000000000000000000000000000000000000000000000001630036104bf5760405162461bcd60e51b81526004016103ee906111a3565b7f00000000000000000000000000000000000000000000000000000000000000006001600160a01b03166104f1610876565b6001600160a01b0316146105175760405162461bcd60e51b81526004016103ee906111ef565b61052082610892565b61052c828260016108cb565b5050565b6000306001600160a01b037f000000000000000000000000000000000000000000000000000000000000000016146105d05760405162461bcd60e51b815260206004820152603860248201527f555550535570677261646561626c653a206d757374206e6f742062652063616c60448201527f6c6564207468726f7567682064656c656761746563616c6c000000000000000060648201526084016103ee565b506000805160206113ec83398151915290565b60006105ed610876565b905090565b60c9547f568cc693d84eb1901f8bcecba154cbdef23ca3cf67efc0a0b698528a06c660f790610630906001600160a01b031630335b84600036610a3b565b61052c6106423684900384018461123b565b610af7565b600054610100900460ff16158080156106675750600054600160ff909116105b806106815750303b158015610681575060005460ff166001145b6106e45760405162461bcd60e51b815260206004820152602e60248201527f496e697469616c697a61626c653a20636f6e747261637420697320616c72656160448201526d191e481a5b9a5d1a585b1a5e995960921b60648201526084016103ee565b6000805460ff191660011790558015610707576000805461ff0019166101001790555b61071082610be3565b600161012d55801561052c576000805461ff0019169055604051600181527f7f26b83ff96e1f2b6a682f133852f6798a09c465da95921460cefb38474024989060200160405180910390a15050565b60408051808201909152600080825260208201526040805180820190915260fb80546001600160a01b03811683526020830190600160a01b900460ff1660018111156107ad576107ad611038565b60018111156107be576107be611038565b905250919050565b60408051808201909152600080825260208201526040805180820190915260fb80546001600160a01b038116835260009291906020830190600160a01b900460ff16600181111561081957610819611038565b600181111561082a5761082a611038565b90525080519091506001600160a01b031661087157604051806040016040528061085c60c9546001600160a01b031690565b6001600160a01b031681526020016000905290505b919050565b6000805160206113ec833981519152546001600160a01b031690565b60c9547f821b6e3a557148015a918c89e5d092e878a69854a2d1a410635f771bd5a8a3f59061052c906001600160a01b03163033610627565b7f4910fdfa16fed3260ed0e7147f7cc6da11a60208b5b9406d12a635614ffd91435460ff1615610903576108fe83610c13565b505050565b826001600160a01b03166352d1902d6040518163ffffffff1660e01b8152600401602060405180830381865afa92505050801561095d575060408051601f3d908101601f1916820190925261095a9181019061129e565b60015b6109c05760405162461bcd60e51b815260206004820152602e60248201527f45524331393637557067726164653a206e657720696d706c656d656e7461746960448201526d6f6e206973206e6f74205555505360901b60648201526084016103ee565b6000805160206113ec8339815191528114610a2f5760405162461bcd60e51b815260206004820152602960248201527f45524331393637557067726164653a20756e737570706f727465642070726f786044820152681a58589b195555525160ba1b60648201526084016103ee565b506108fe838383610caf565b604051637ef7c88360e11b81526001600160a01b0387169063fdef910690610a6f90889088908890889088906004016112b7565b602060405180830381865afa158015610a8c573d6000803e3d6000fd5b505050506040513d601f19601f82011682018060405250810190610ab0919061130b565b610aef57604051630cb6f8ed60e21b81526001600160a01b038088166004830152808716602483015285166044820152606481018490526084016103ee565b505050505050565b8051610b13906001600160a01b0316632a4f53ad60e11b610cda565b8015610b345750600181602001516001811115610b3257610b32611038565b145b15610b54578060405163266d0fb960e01b81526004016103ee919061116f565b805160fb80546001600160a01b039092166001600160a01b031983168117825560208401518493909183916001600160a81b03191617600160a01b836001811115610ba157610ba1611038565b02179055509050507f88e879ae0d71faf3aa708f2978daccb99b95243615dc104835b8c5a21c884ae681604051610bd8919061116f565b60405180910390a150565b600054610100900460ff16610c0a5760405162461bcd60e51b81526004016103ee9061132d565b61047481610cfd565b6001600160a01b0381163b610c805760405162461bcd60e51b815260206004820152602d60248201527f455243313936373a206e657720696d706c656d656e746174696f6e206973206e60448201526c1bdd08184818dbdb9d1c9858dd609a1b60648201526084016103ee565b6000805160206113ec83398151915280546001600160a01b0319166001600160a01b0392909216919091179055565b610cb883610d46565b600082511180610cc55750805b156108fe57610cd48383610d86565b50505050565b6000610ce583610dab565b8015610cf65750610cf68383610dde565b9392505050565b600054610100900460ff16610d245760405162461bcd60e51b81526004016103ee9061132d565b60c980546001600160a01b0319166001600160a01b0392909216919091179055565b610d4f81610c13565b6040516001600160a01b038216907fbc7cd75a20ee27fd9adebab32041f755214dbc6bffa90cc0225b39da2e5c2d3b90600090a250565b6060610cf6838360405180606001604052806027815260200161140c60279139610e67565b6000610dbe826301ffc9a760e01b610dde565b80156103765750610dd7826001600160e01b0319610dde565b1592915050565b604080516001600160e01b03198316602480830191909152825180830390910181526044909101909152602080820180516001600160e01b03166301ffc9a760e01b178152825160009392849283928392918391908a617530fa92503d91506000519050828015610e50575060208210155b8015610e5c5750600081115b979650505050505050565b6060600080856001600160a01b031685604051610e84919061139c565b600060405180830381855af49150503d8060008114610ebf576040519150601f19603f3d011682016040523d82523d6000602084013e610ec4565b606091505b5091509150610ed586838387610edf565b9695505050505050565b60608315610f4e578251600003610f47576001600160a01b0385163b610f475760405162461bcd60e51b815260206004820152601d60248201527f416464726573733a2063616c6c20746f206e6f6e2d636f6e747261637400000060448201526064016103ee565b5081610f58565b610f588383610f60565b949350505050565b815115610f705781518083602001fd5b8060405162461bcd60e51b81526004016103ee91906113b8565b60405180606001604052806003906020820280368337509192915050565b600060208284031215610fba57600080fd5b81356001600160e01b031981168114610cf657600080fd5b60608101818360005b6003811015610ffd57815160ff16835260209283019290910190600101610fdb565b50505092915050565b6001600160a01b038116811461047457600080fd5b60006020828403121561102d57600080fd5b8135610cf681611006565b634e487b7160e01b600052602160045260246000fd5b602081016003831061106257611062611038565b91905290565b634e487b7160e01b600052604160045260246000fd5b604051601f8201601f1916810167ffffffffffffffff811182821017156110a7576110a7611068565b604052919050565b600080604083850312156110c257600080fd5b82356110cd81611006565b915060208381013567ffffffffffffffff808211156110eb57600080fd5b818601915086601f8301126110ff57600080fd5b81358181111561111157611111611068565b611123601f8201601f1916850161107e565b9150808252878482850101111561113957600080fd5b80848401858401376000848284010152508093505050509250929050565b60006040828403121561116957600080fd5b50919050565b81516001600160a01b03168152602082015160408201906002811061119657611196611038565b8060208401525092915050565b6020808252602c908201527f46756e6374696f6e206d7573742062652063616c6c6564207468726f7567682060408201526b19195b1959d85d1958d85b1b60a21b606082015260800190565b6020808252602c908201527f46756e6374696f6e206d7573742062652063616c6c6564207468726f7567682060408201526b6163746976652070726f787960a01b606082015260800190565b60006040828403121561124d57600080fd5b6040516040810181811067ffffffffffffffff8211171561127057611270611068565b604052823561127e81611006565b815260208301356002811061129257600080fd5b60208201529392505050565b6000602082840312156112b057600080fd5b5051919050565b6001600160a01b038681168252851660208201526040810184905260806060820181905281018290526000828460a0840137600060a0848401015260a0601f19601f85011683010190509695505050505050565b60006020828403121561131d57600080fd5b81518015158114610cf657600080fd5b6020808252602b908201527f496e697469616c697a61626c653a20636f6e7472616374206973206e6f74206960408201526a6e697469616c697a696e6760a81b606082015260800190565b60005b8381101561139357818101518382015260200161137b565b50506000910152565b600082516113ae818460208701611378565b9190910192915050565b60208152600082518060208401526113d7816040850160208701611378565b601f01601f1916919091016040019291505056fe360894a13ba1a3210667c828492db98dca3e2076cc3735a920a3ca505d382bbc416464726573733a206c6f772d6c6576656c2064656c65676174652063616c6c206661696c6564a2646970667358221220768ccd065c31b217070a23e89ae228fd365331b1f99fcec4f52469b1f114c28064736f6c63430008110033","linkReferences":{}},"methodIdentifiers":{"SET_TARGET_CONFIG_PERMISSION_ID()":"8cb75059","UPGRADE_PLUGIN_PERMISSION_ID()":"c9c4bfca","dao()":"4162169f","getCurrentTargetConfig()":"c98425ee","getTargetConfig()":"dd63c06f","implementation()":"5c60da1b","initialize(address)":"c4d66de8","pluginType()":"41de6830","protocolVersion()":"2ae9c600","proxiableUUID()":"52d1902d","setTargetConfig((address,uint8))":"bb225da2","state1()":"6accab8c","supportsInterface(bytes4)":"01ffc9a7","upgradeTo(address)":"3659cfe6","upgradeToAndCall(address,bytes)":"4f1ef286"},"id":317}