{"abi":[{"type":"function","name":"SET_TARGET_CONFIG_PERMISSION_ID","inputs":[],"outputs":[{"name":"","type":"bytes32","internalType":"bytes32"}],"stateMutability":"view"},{"type":"function","name":"UPGRADE_PLUGIN_PERMISSION_ID","inputs":[],"outputs":[{"name":"","type":"bytes32","internalType":"bytes32"}],"stateMutability":"view"},{"type":"function","name":"dao","inputs":[],"outputs":[{"name":"","type":"address","internalType":"contract IDAO"}],"stateMutability":"view"},{"type":"function","name":"getCurrentTargetConfig","inputs":[],"outputs":[{"name":"","type":"tuple","internalType":"struct IPlugin.TargetConfig","components":[{"name":"target","type":"address","internalType":"address"},{"name":"operation","type":"uint8","internalType":"enum IPlugin.Operation"}]}],"stateMutability":"view"},{"type":"function","name":"getTargetConfig","inputs":[],"outputs":[{"name":"","type":"tuple","internalType":"struct IPlugin.TargetConfig","components":[{"name":"target","type":"address","internalType":"address"},{"name":"operation","type":"uint8","internalType":"enum IPlugin.Operation"}]}],"stateMutability":"view"},{"type":"function","name":"implementation","inputs":[],"outputs":[{"name":"","type":"address","internalType":"address"}],"stateMutability":"view"},{"type":"function","name":"initialize","inputs":[{"name":"_dao","type":"address","internalType":"contract IDAO"}],"outputs":[],"stateMutability":"nonpayable"},{"type":"function","name":"initializeV1toV2","inputs":[],"outputs":[],"stateMutability":"nonpayable"},{"type":"function","name":"pluginType","inputs":[],"outputs":[{"name":"","type":"uint8","internalType":"enum IPlugin.PluginType"}],"stateMutability":"pure"},{"type":"function","name":"protocolVersion","inputs":[],"outputs":[{"name":"","type":"uint8[3]","internalType":"uint8[3]"}],"stateMutability":"pure"},{"type":"function","name":"proxiableUUID","inputs":[],"outputs":[{"name":"","type":"bytes32","internalType":"bytes32"}],"stateMutability":"view"},{"type":"function","name":"setTargetConfig","inputs":[{"name":"_targetConfig","type":"tuple","internalType":"struct IPlugin.TargetConfig","components":[{"name":"target","type":"address","internalType":"address"},{"name":"operation","type":"uint8","internalType":"enum IPlugin.Operation"}]}],"outputs":[],"stateMutability":"nonpayable"},{"type":"function","name":"state1","inputs":[],"outputs":[{"name":"","type":"uint256","internalType":"uint256"}],"stateMutability":"view"},{"type":"function","name":"state2","inputs":[],"outputs":[{"name":"","type":"uint256","internalType":"uint256"}],"stateMutability":"view"},{"type":"function","name":"supportsInterface","inputs":[{"name":"_interfaceId","type":"bytes4","internalType":"bytes4"}],"outputs":[{"name":"","type":"bool","internalType":"bool"}],"stateMutability":"view"},{"type":"function","name":"upgradeTo","inputs":[{"name":"newImplementation","type":"address","internalType":"address"}],"outputs":[],"stateMutability":"nonpayable"},{"type":"function","name":"upgradeToAndCall","inputs":[{"name":"newImplementation","type":"address","internalType":"address"},{"name":"data","type":"bytes","internalType":"bytes"}],"outputs":[],"stateMutability":"payable"},{"type":"event","name":"AdminChanged","inputs":[{"name":"previousAdmin","type":"address","indexed":false,"internalType":"address"},{"name":"newAdmin","type":"address","indexed":false,"internalType":"address"}],"anonymous":false},{"type":"event","name":"BeaconUpgraded","inputs":[{"name":"beacon","type":"address","indexed":true,"internalType":"address"}],"anonymous":false},{"type":"event","name":"Initialized","inputs":[{"name":"version","type":"uint8","indexed":false,"internalType":"uint8"}],"anonymous":false},{"type":"event","name":"TargetSet","inputs":[{"name":"newTargetConfig","type":"tuple","indexed":false,"internalType":"struct IPlugin.TargetConfig","components":[{"name":"target","type":"address","internalType":"address"},{"name":"operation","type":"uint8","internalType":"enum IPlugin.Operation"}]}],"anonymous":false},{"type":"event","name":"Upgraded","inputs":[{"name":"implementation","type":"address","indexed":true,"internalType":"address"}],"anonymous":false},{"type":"error","name":"AlreadyInitialized","inputs":[]},{"type":"error","name":"DaoUnauthorized","inputs":[{"name":"dao","type":"address","internalType":"address"},{"name":"where","type":"address","internalType":"address"},{"name":"who","type":"address","internalType":"address"},{"name":"permissionId","type":"bytes32","internalType":"bytes32"}]},{"type":"error","name":"DelegateCallFailed","inputs":[]},{"type":"error","name":"InvalidTargetConfig","inputs":[{"name":"targetConfig","type":"tuple","internalType":"struct IPlugin.TargetConfig","components":[{"name":"target","type":"address","internalType":"address"},{"name":"operation","type":"uint8","internalType":"enum IPlugin.Operation"}]}]}],"bytecode":{"object":"0x60a06040523060805234801561001457600080fd5b5061001d610022565b6100e1565b600054610100900460ff161561008e5760405162461bcd60e51b815260206004820152602760248201527f496e697469616c697a61626c653a20636f6e747261637420697320696e697469604482015266616c697a696e6760c81b606482015260840160405180910390fd5b60005460ff908116146100df576000805460ff191660ff9081179091556040519081527f7f26b83ff96e1f2b6a682f133852f6798a09c465da95921460cefb38474024989060200160405180910390a15b565b608051611518610118600039600081816103f20152818161043b015281816104c301528181610503015261057f01526115186000f3fe6080604052600436106100fe5760003560e01c80636accab8c11610095578063c98425ee11610064578063c98425ee146102a0578063c9c4bfca146102c2578063dd63c06f146102f6578063e27e9a4e1461030b578063efe51cca1461032057600080fd5b80636accab8c146102155780638cb750591461022c578063bb225da214610260578063c4d66de81461028057600080fd5b806341de6830116100d157806341de6830146101ae5780634f1ef286146101ca57806352d1902d146101dd5780635c60da1b1461020057600080fd5b806301ffc9a7146101035780632ae9c600146101385780633659cfe61461015a5780634162169f1461017c575b600080fd5b34801561010f57600080fd5b5061012361011e36600461100a565b610337565b60405190151581526020015b60405180910390f35b34801561014457600080fd5b5061014d6103be565b60405161012f9190611034565b34801561016657600080fd5b5061017a61017536600461107d565b6103e8565b005b34801561018857600080fd5b5060c9546001600160a01b03165b6040516001600160a01b03909116815260200161012f565b3480156101ba57600080fd5b50600060405161012f91906110b0565b61017a6101d8366004611111565b6104b9565b3480156101e957600080fd5b506101f2610572565b60405190815260200161012f565b34801561020c57600080fd5b50610196610625565b34801561022157600080fd5b506101f261012d5481565b34801561023857600080fd5b506101f27f568cc693d84eb1901f8bcecba154cbdef23ca3cf67efc0a0b698528a06c660f781565b34801561026c57600080fd5b5061017a61027b3660046111b9565b610634565b34801561028c57600080fd5b5061017a61029b36600461107d565b610689565b3480156102ac57600080fd5b506102b5610735565b60405161012f91906111d1565b3480156102ce57600080fd5b506101f27f821b6e3a557148015a918c89e5d092e878a69854a2d1a410635f771bd5a8a3f581565b34801561030257600080fd5b506102b561079c565b34801561031757600080fd5b5061017a61084c565b34801561032c57600080fd5b506101f261012e5481565b60006001600160e01b0319821663041de68360e41b148061036757506001600160e01b03198216621574e360e91b145b8061038257506001600160e01b031982166352d1902d60e01b145b8061039d57506001600160e01b0319821663afc5b82360e01b145b806103b857506301ffc9a760e01b6001600160e01b03198316145b92915050565b6103c6610fec565b5060408051606081018252600181526004602082015260009181019190915290565b6001600160a01b037f00000000000000000000000000000000000000000000000000000000000000001630036104395760405162461bcd60e51b815260040161043090611205565b60405180910390fd5b7f00000000000000000000000000000000000000000000000000000000000000006001600160a01b031661046b6108e3565b6001600160a01b0316146104915760405162461bcd60e51b815260040161043090611251565b61049a816108ff565b604080516000808252602082019092526104b691839190610938565b50565b6001600160a01b037f00000000000000000000000000000000000000000000000000000000000000001630036105015760405162461bcd60e51b815260040161043090611205565b7f00000000000000000000000000000000000000000000000000000000000000006001600160a01b03166105336108e3565b6001600160a01b0316146105595760405162461bcd60e51b815260040161043090611251565b610562826108ff565b61056e82826001610938565b5050565b6000306001600160a01b037f000000000000000000000000000000000000000000000000000000000000000016146106125760405162461bcd60e51b815260206004820152603860248201527f555550535570677261646561626c653a206d757374206e6f742062652063616c60448201527f6c6564207468726f7567682064656c656761746563616c6c00000000000000006064820152608401610430565b5060008051602061149c83398151915290565b600061062f6108e3565b905090565b60c9547f568cc693d84eb1901f8bcecba154cbdef23ca3cf67efc0a0b698528a06c660f790610672906001600160a01b031630335b84600036610aa8565b61056e6106843684900384018461129d565b610b64565b600054600290610100900460ff161580156106ab575060005460ff8083169116105b6106c75760405162461bcd60e51b815260040161043090611300565b6000805461ffff191660ff8316176101001790556106e482610c45565b600161012d55600261012e556000805461ff001916905560405160ff821681527f7f26b83ff96e1f2b6a682f133852f6798a09c465da95921460cefb38474024989060200160405180910390a15050565b60408051808201909152600080825260208201526040805180820190915260fb80546001600160a01b03811683526020830190600160a01b900460ff1660018111156107835761078361109a565b60018111156107945761079461109a565b905250919050565b60408051808201909152600080825260208201526040805180820190915260fb80546001600160a01b038116835260009291906020830190600160a01b900460ff1660018111156107ef576107ef61109a565b60018111156108005761080061109a565b90525080519091506001600160a01b031661084757604051806040016040528061083260c9546001600160a01b031690565b6001600160a01b031681526020016000905290505b919050565b600054600290610100900460ff1615801561086e575060005460ff8083169116105b61088a5760405162461bcd60e51b815260040161043090611300565b60008054600261012e5561ffff191660ff83169081176101001761ff0019169091556040519081527f7f26b83ff96e1f2b6a682f133852f6798a09c465da95921460cefb3847402498906020015b60405180910390a150565b60008051602061149c833981519152546001600160a01b031690565b60c9547f821b6e3a557148015a918c89e5d092e878a69854a2d1a410635f771bd5a8a3f59061056e906001600160a01b03163033610669565b7f4910fdfa16fed3260ed0e7147f7cc6da11a60208b5b9406d12a635614ffd91435460ff16156109705761096b83610c75565b505050565b826001600160a01b03166352d1902d6040518163ffffffff1660e01b8152600401602060405180830381865afa9250505080156109ca575060408051601f3d908101601f191682019092526109c79181019061134e565b60015b610a2d5760405162461bcd60e51b815260206004820152602e60248201527f45524331393637557067726164653a206e657720696d706c656d656e7461746960448201526d6f6e206973206e6f74205555505360901b6064820152608401610430565b60008051602061149c8339815191528114610a9c5760405162461bcd60e51b815260206004820152602960248201527f45524331393637557067726164653a20756e737570706f727465642070726f786044820152681a58589b195555525160ba1b6064820152608401610430565b5061096b838383610d11565b604051637ef7c88360e11b81526001600160a01b0387169063fdef910690610adc9088908890889088908890600401611367565b602060405180830381865afa158015610af9573d6000803e3d6000fd5b505050506040513d601f19601f82011682018060405250810190610b1d91906113bb565b610b5c57604051630cb6f8ed60e21b81526001600160a01b03808816600483015280871660248301528516604482015260648101849052608401610430565b505050505050565b8051610b80906001600160a01b0316632a4f53ad60e11b610d3c565b8015610ba15750600181602001516001811115610b9f57610b9f61109a565b145b15610bc1578060405163266d0fb960e01b815260040161043091906111d1565b805160fb80546001600160a01b039092166001600160a01b031983168117825560208401518493909183916001600160a81b03191617600160a01b836001811115610c0e57610c0e61109a565b02179055509050507f88e879ae0d71faf3aa708f2978daccb99b95243615dc104835b8c5a21c884ae6816040516108d891906111d1565b600054610100900460ff16610c6c5760405162461bcd60e51b8152600401610430906113dd565b6104b681610d5f565b6001600160a01b0381163b610ce25760405162461bcd60e51b815260206004820152602d60248201527f455243313936373a206e657720696d706c656d656e746174696f6e206973206e60448201526c1bdd08184818dbdb9d1c9858dd609a1b6064820152608401610430565b60008051602061149c83398151915280546001600160a01b0319166001600160a01b0392909216919091179055565b610d1a83610da8565b600082511180610d275750805b1561096b57610d368383610de8565b50505050565b6000610d4783610e0d565b8015610d585750610d588383610e40565b9392505050565b600054610100900460ff16610d865760405162461bcd60e51b8152600401610430906113dd565b60c980546001600160a01b0319166001600160a01b0392909216919091179055565b610db181610c75565b6040516001600160a01b038216907fbc7cd75a20ee27fd9adebab32041f755214dbc6bffa90cc0225b39da2e5c2d3b90600090a250565b6060610d5883836040518060600160405280602781526020016114bc60279139610ec9565b6000610e20826301ffc9a760e01b610e40565b80156103b85750610e39826001600160e01b0319610e40565b1592915050565b604080516001600160e01b03198316602480830191909152825180830390910181526044909101909152602080820180516001600160e01b03166301ffc9a760e01b178152825160009392849283928392918391908a617530fa92503d91506000519050828015610eb2575060208210155b8015610ebe5750600081115b979650505050505050565b6060600080856001600160a01b031685604051610ee6919061144c565b600060405180830381855af49150503d8060008114610f21576040519150601f19603f3d011682016040523d82523d6000602084013e610f26565b606091505b5091509150610f3786838387610f41565b9695505050505050565b60608315610fb0578251600003610fa9576001600160a01b0385163b610fa95760405162461bcd60e51b815260206004820152601d60248201527f416464726573733a2063616c6c20746f206e6f6e2d636f6e74726163740000006044820152606401610430565b5081610fba565b610fba8383610fc2565b949350505050565b815115610fd25781518083602001fd5b8060405162461bcd60e51b81526004016104309190611468565b60405180606001604052806003906020820280368337509192915050565b60006020828403121561101c57600080fd5b81356001600160e01b031981168114610d5857600080fd5b60608101818360005b600381101561105f57815160ff1683526020928301929091019060010161103d565b50505092915050565b6001600160a01b03811681146104b657600080fd5b60006020828403121561108f57600080fd5b8135610d5881611068565b634e487b7160e01b600052602160045260246000fd5b60208101600383106110c4576110c461109a565b91905290565b634e487b7160e01b600052604160045260246000fd5b604051601f8201601f1916810167ffffffffffffffff81118282101715611109576111096110ca565b604052919050565b6000806040838503121561112457600080fd5b823561112f81611068565b915060208381013567ffffffffffffffff8082111561114d57600080fd5b818601915086601f83011261116157600080fd5b813581811115611173576111736110ca565b611185601f8201601f191685016110e0565b9150808252878482850101111561119b57600080fd5b80848401858401376000848284010152508093505050509250929050565b6000604082840312156111cb57600080fd5b50919050565b81516001600160a01b0316815260208201516040820190600281106111f8576111f861109a565b8060208401525092915050565b6020808252602c908201527f46756e6374696f6e206d7573742062652063616c6c6564207468726f7567682060408201526b19195b1959d85d1958d85b1b60a21b606082015260800190565b6020808252602c908201527f46756e6374696f6e206d7573742062652063616c6c6564207468726f7567682060408201526b6163746976652070726f787960a01b606082015260800190565b6000604082840312156112af57600080fd5b6040516040810181811067ffffffffffffffff821117156112d2576112d26110ca565b60405282356112e081611068565b81526020830135600281106112f457600080fd5b60208201529392505050565b6020808252602e908201527f496e697469616c697a61626c653a20636f6e747261637420697320616c72656160408201526d191e481a5b9a5d1a585b1a5e995960921b606082015260800190565b60006020828403121561136057600080fd5b5051919050565b6001600160a01b038681168252851660208201526040810184905260806060820181905281018290526000828460a0840137600060a0848401015260a0601f19601f85011683010190509695505050505050565b6000602082840312156113cd57600080fd5b81518015158114610d5857600080fd5b6020808252602b908201527f496e697469616c697a61626c653a20636f6e7472616374206973206e6f74206960408201526a6e697469616c697a696e6760a81b606082015260800190565b60005b8381101561144357818101518382015260200161142b565b50506000910152565b6000825161145e818460208701611428565b9190910192915050565b6020815260008251806020840152611487816040850160208701611428565b601f01601f1916919091016040019291505056fe360894a13ba1a3210667c828492db98dca3e2076cc3735a920a3ca505d382bbc416464726573733a206c6f772d6c6576656c2064656c65676174652063616c6c206661696c6564a264697066735822122034a8ece0d6102a0e69daf647d2ad4042e1398b5f7480efb82fe0aaed2ff19fa464736f6c63430008110033","linkReferences":{}},"methodIdentifiers":{"SET_TARGET_CONFIG_PERMISSION_ID()":"8cb75059","UPGRADE_PLUGIN_PERMISSION_ID()":"c9c4bfca","dao()":"4162169f","getCurrentTargetConfig()":"c98425ee","getTargetConfig()":"dd63c06f","implementation()":"5c60da1b","initialize(address)":"c4d66de8","initializeV1toV2()":"e27e9a4e","pluginType()":"41de6830","protocolVersion()":"2ae9c600","proxiableUUID()":"52d1902d","setTargetConfig((address,uint8))":"bb225da2","state1()":"6accab8c","state2()":"efe51cca","supportsInterface(bytes4)":"01ffc9a7","upgradeTo(address)":"3659cfe6","upgradeToAndCall(address,bytes)":"4f1ef286"},"id":317}