{"abi":[{"type":"constructor","inputs":[{"name":"beneficiary_","type":"address","internalType":"address payable"}],"stateMutability":"nonpayable"},{"type":"function","name":"beneficiary","inputs":[],"outputs":[{"name":"","type":"address","internalType":"address payable"}],"stateMutability":"view"},{"type":"function","name":"beneficiaryWithdraw","inputs":[],"outputs":[],"stateMutability":"nonpayable"},{"type":"function","name":"close","inputs":[],"outputs":[],"stateMutability":"nonpayable"},{"type":"function","name":"deposit","inputs":[{"name":"refundee","type":"address","internalType":"address"}],"outputs":[],"stateMutability":"payable"},{"type":"function","name":"depositsOf","inputs":[{"name":"payee","type":"address","internalType":"address"}],"outputs":[{"name":"","type":"uint256","internalType":"uint256"}],"stateMutability":"view"},{"type":"function","name":"enableRefunds","inputs":[],"outputs":[],"stateMutability":"nonpayable"},{"type":"function","name":"owner","inputs":[],"outputs":[{"name":"","type":"address","internalType":"address"}],"stateMutability":"view"},{"type":"function","name":"renounceOwnership","inputs":[],"outputs":[],"stateMutability":"nonpayable"},{"type":"function","name":"state","inputs":[],"outputs":[{"name":"","type":"uint8","internalType":"enum RefundEscrow.State"}],"stateMutability":"view"},{"type":"function","name":"transferOwnership","inputs":[{"name":"newOwner","type":"address","internalType":"address"}],"outputs":[],"stateMutability":"nonpayable"},{"type":"function","name":"withdraw","inputs":[{"name":"payee","type":"address","internalType":"address payable"}],"outputs":[],"stateMutability":"nonpayable"},{"type":"function","name":"withdrawalAllowed","inputs":[{"name":"","type":"address","internalType":"address"}],"outputs":[{"name":"","type":"bool","internalType":"bool"}],"stateMutability":"view"},{"type":"event","name":"Deposited","inputs":[{"name":"payee","type":"address","indexed":true,"internalType":"address"},{"name":"weiAmount","type":"uint256","indexed":false,"internalType":"uint256"}],"anonymous":false},{"type":"event","name":"OwnershipTransferred","inputs":[{"name":"previousOwner","type":"address","indexed":true,"internalType":"address"},{"name":"newOwner","type":"address","indexed":true,"internalType":"address"}],"anonymous":false},{"type":"event","name":"RefundsClosed","inputs":[],"anonymous":false},{"type":"event","name":"RefundsEnabled","inputs":[],"anonymous":false},{"type":"event","name":"Withdrawn","inputs":[{"name":"payee","type":"address","indexed":true,"internalType":"address"},{"name":"weiAmount","type":"uint256","indexed":false,"internalType":"uint256"}],"anonymous":false}],"bytecode":{"object":"0x60a060405234801561001057600080fd5b50604051610b23380380610b2383398101604081905261002f91610113565b610038336100c3565b6001600160a01b0381166100a85760405162461bcd60e51b815260206004820152602d60248201527f526566756e64457363726f773a2062656e65666963696172792069732074686560448201526c207a65726f206164647265737360981b606482015260840160405180910390fd5b6001600160a01b03166080526002805460ff19169055610143565b600080546001600160a01b038381166001600160a01b0319831681178455604051919092169283917f8be0079c531659141344cd1fd0a4f28419497f9722a3daafe3b4186f6b6457e09190a35050565b60006020828403121561012557600080fd5b81516001600160a01b038116811461013c57600080fd5b9392505050565b6080516109bf6101646000396000818160bb015261051b01526109bf6000f3fe6080604052600436106100a75760003560e01c80638da5cb5b116100645780638da5cb5b146101895780639af6549a146101a7578063c19d93fb146101bc578063e3a9db1a146101dc578063f2fde38b14610220578063f340fa011461024057600080fd5b806338af3eed146100ac57806343d726d6146100f857806351cff8d91461010f578063685ca1941461012f578063715018a61461015f5780638c52dc4114610174575b600080fd5b3480156100b857600080fd5b507f00000000000000000000000000000000000000000000000000000000000000005b6040516001600160a01b0390911681526020015b60405180910390f35b34801561010457600080fd5b5061010d610253565b005b34801561011b57600080fd5b5061010d61012a366004610900565b61030f565b34801561013b57600080fd5b5061014f61014a366004610900565b61038c565b60405190151581526020016100ef565b34801561016b57600080fd5b5061010d6103ae565b34801561018057600080fd5b5061010d6103c2565b34801561019557600080fd5b506000546001600160a01b03166100db565b3480156101b357600080fd5b5061010d610483565b3480156101c857600080fd5b5060025460ff166040516100ef919061093a565b3480156101e857600080fd5b506102126101f7366004610900565b6001600160a01b031660009081526001602052604090205490565b6040519081526020016100ef565b34801561022c57600080fd5b5061010d61023b366004610900565b610541565b61010d61024e366004610900565b6105b7565b61025b61063a565b600060025460ff16600281111561027457610274610924565b146102d85760405162461bcd60e51b815260206004820152602960248201527f526566756e64457363726f773a2063616e206f6e6c7920636c6f7365207768696044820152686c652061637469766560b81b60648201526084015b60405180910390fd5b6002805460ff1916811790556040517f088672c3a6e342f7cd94a65ba63b79df24a8973927b4d05d803c44bbf787d12f90600090a1565b6103188161038c565b6103805760405162461bcd60e51b815260206004820152603360248201527f436f6e646974696f6e616c457363726f773a207061796565206973206e6f7420604482015272616c6c6f77656420746f20776974686472617760681b60648201526084016102cf565b61038981610694565b50565b6000600160025460ff1660028111156103a7576103a7610924565b1492915050565b6103b661063a565b6103c0600061070b565b565b6103ca61063a565b600060025460ff1660028111156103e3576103e3610924565b1461044b5760405162461bcd60e51b815260206004820152603260248201527f526566756e64457363726f773a2063616e206f6e6c7920656e61626c6520726560448201527166756e6473207768696c652061637469766560701b60648201526084016102cf565b6002805460ff191660011790556040517f599d8e5a83cffb867d051598c4d70e805d59802d8081c1c7d6dffc5b6aca2b8990600090a1565b6002805460ff16600281111561049b5761049b610924565b1461050e5760405162461bcd60e51b815260206004820152603860248201527f526566756e64457363726f773a2062656e65666963696172792063616e206f6e60448201527f6c79207769746864726177207768696c6520636c6f736564000000000000000060648201526084016102cf565b6103c06001600160a01b037f0000000000000000000000000000000000000000000000000000000000000000164761075b565b61054961063a565b6001600160a01b0381166105ae5760405162461bcd60e51b815260206004820152602660248201527f4f776e61626c653a206e6577206f776e657220697320746865207a65726f206160448201526564647265737360d01b60648201526084016102cf565b6103898161070b565b600060025460ff1660028111156105d0576105d0610924565b146106315760405162461bcd60e51b815260206004820152602b60248201527f526566756e64457363726f773a2063616e206f6e6c79206465706f736974207760448201526a68696c652061637469766560a81b60648201526084016102cf565b61038981610879565b6000546001600160a01b031633146103c05760405162461bcd60e51b815260206004820181905260248201527f4f776e61626c653a2063616c6c6572206973206e6f7420746865206f776e657260448201526064016102cf565b61069c61063a565b6001600160a01b03811660008181526001602052604081208054919055906106c4908261075b565b816001600160a01b03167f7084f5476618d8e60b11ef0d7d3f06914655adb8793e28ff7f018d4c76d505d5826040516106ff91815260200190565b60405180910390a25050565b600080546001600160a01b038381166001600160a01b0319831681178455604051919092169283917f8be0079c531659141344cd1fd0a4f28419497f9722a3daafe3b4186f6b6457e09190a35050565b804710156107ab5760405162461bcd60e51b815260206004820152601d60248201527f416464726573733a20696e73756666696369656e742062616c616e636500000060448201526064016102cf565b6000826001600160a01b03168260405160006040518083038185875af1925050503d80600081146107f8576040519150601f19603f3d011682016040523d82523d6000602084013e6107fd565b606091505b50509050806108745760405162461bcd60e51b815260206004820152603a60248201527f416464726573733a20756e61626c6520746f2073656e642076616c75652c207260448201527f6563697069656e74206d6179206861766520726576657274656400000000000060648201526084016102cf565b505050565b61088161063a565b6001600160a01b0381166000908152600160205260408120805434928392916108ab908490610962565b90915550506040518181526001600160a01b038316907f2da466a7b24304f47e87fa2e1e5a81b9831ce54fec19055ce277ca2f39ba42c4906020016106ff565b6001600160a01b038116811461038957600080fd5b60006020828403121561091257600080fd5b813561091d816108eb565b9392505050565b634e487b7160e01b600052602160045260246000fd5b602081016003831061095c57634e487b7160e01b600052602160045260246000fd5b91905290565b8082018082111561098357634e487b7160e01b600052601160045260246000fd5b9291505056fea26469706673582212209ab25d067e997630fd2ba7708b795696b4605e5fbabbfa830a7db8fb96dec9fb64736f6c63430008110033","linkReferences":{}},"methodIdentifiers":{"beneficiary()":"38af3eed","beneficiaryWithdraw()":"9af6549a","close()":"43d726d6","deposit(address)":"f340fa01","depositsOf(address)":"e3a9db1a","enableRefunds()":"8c52dc41","owner()":"8da5cb5b","renounceOwnership()":"715018a6","state()":"c19d93fb","transferOwnership(address)":"f2fde38b","withdraw(address)":"51cff8d9","withdrawalAllowed(address)":"685ca194"},"id":623}