{"abi":[{"type":"constructor","inputs":[],"stateMutability":"nonpayable"},{"type":"function","name":"implementation","inputs":[],"outputs":[{"name":"","type":"address","internalType":"address"}],"stateMutability":"view"},{"type":"function","name":"prepareInstallation","inputs":[{"name":"","type":"address","internalType":"address"},{"name":"","type":"bytes","internalType":"bytes"}],"outputs":[{"name":"","type":"address","internalType":"address"},{"name":"","type":"tuple","internalType":"struct IPluginSetup.PreparedSetupData","components":[{"name":"helpers","type":"address[]","internalType":"address[]"},{"name":"permissions","type":"tuple[]","internalType":"struct PermissionLib.MultiTargetPermission[]","components":[{"name":"operation","type":"uint8","internalType":"enum PermissionLib.Operation"},{"name":"where","type":"address","internalType":"address"},{"name":"who","type":"address","internalType":"address"},{"name":"condition","type":"address","internalType":"address"},{"name":"permissionId","type":"bytes32","internalType":"bytes32"}]}]}],"stateMutability":"pure"},{"type":"function","name":"prepareUninstallation","inputs":[{"name":"","type":"address","internalType":"address"},{"name":"","type":"tuple","internalType":"struct IPluginSetup.SetupPayload","components":[{"name":"plugin","type":"address","internalType":"address"},{"name":"currentHelpers","type":"address[]","internalType":"address[]"},{"name":"data","type":"bytes","internalType":"bytes"}]}],"outputs":[{"name":"","type":"tuple[]","internalType":"struct PermissionLib.MultiTargetPermission[]","components":[{"name":"operation","type":"uint8","internalType":"enum PermissionLib.Operation"},{"name":"where","type":"address","internalType":"address"},{"name":"who","type":"address","internalType":"address"},{"name":"condition","type":"address","internalType":"address"},{"name":"permissionId","type":"bytes32","internalType":"bytes32"}]}],"stateMutability":"pure"},{"type":"function","name":"prepareUpdate","inputs":[{"name":"_dao","type":"address","internalType":"address"},{"name":"_fromBuild","type":"uint16","internalType":"uint16"},{"name":"_payload","type":"tuple","internalType":"struct IPluginSetup.SetupPayload","components":[{"name":"plugin","type":"address","internalType":"address"},{"name":"currentHelpers","type":"address[]","internalType":"address[]"},{"name":"data","type":"bytes","internalType":"bytes"}]}],"outputs":[{"name":"","type":"bytes","internalType":"bytes"},{"name":"","type":"tuple","internalType":"struct IPluginSetup.PreparedSetupData","components":[{"name":"helpers","type":"address[]","internalType":"address[]"},{"name":"permissions","type":"tuple[]","internalType":"struct PermissionLib.MultiTargetPermission[]","components":[{"name":"operation","type":"uint8","internalType":"enum PermissionLib.Operation"},{"name":"where","type":"address","internalType":"address"},{"name":"who","type":"address","internalType":"address"},{"name":"condition","type":"address","internalType":"address"},{"name":"permissionId","type":"bytes32","internalType":"bytes32"}]}]}],"stateMutability":"nonpayable"},{"type":"function","name":"protocolVersion","inputs":[],"outputs":[{"name":"","type":"uint8[3]","internalType":"uint8[3]"}],"stateMutability":"pure"},{"type":"function","name":"supportsInterface","inputs":[{"name":"_interfaceId","type":"bytes4","internalType":"bytes4"}],"outputs":[{"name":"","type":"bool","internalType":"bool"}],"stateMutability":"view"},{"type":"error","name":"NonUpgradeablePlugin","inputs":[]},{"type":"error","name":"PlaceholderSetupCannotBeUsed","inputs":[]}],"bytecode":{"object":"0x60a060405234801561001057600080fd5b50600060805260805161063b610030600039600060b1015261063b6000f3fe608060405234801561001057600080fd5b50600436106100625760003560e01c806301ffc9a7146100675780632ae9c6001461008f5780635c60da1b146100a45780639cb0a124146100db578063a8a9c29e146100fb578063f10832f11461011c575b600080fd5b61007a610075366004610261565b61013d565b60405190151581526020015b60405180910390f35b61009761018e565b6040516100869190610292565b6040516001600160a01b037f0000000000000000000000000000000000000000000000000000000000000000168152602001610086565b6100ee6100e93660046102fa565b6101b8565b60405161008691906103ae565b61010e6101093660046103f7565b6101d3565b6040516100869291906104f1565b61012f61012a366004610556565b61020b565b6040516100869291906105d9565b60006001600160e01b0319821663099718b560e41b148061016d57506001600160e01b03198216621574e360e91b145b8061018857506301ffc9a760e01b6001600160e01b03198316145b92915050565b610196610243565b5060408051606081018252600181526004602082015260009181019190915290565b6060604051632a2a7ca360e21b815260040160405180910390fd5b60606101f2604051806040016040528060608152602001606081525090565b60405163a112810160e01b815260040160405180910390fd5b600061022a604051806040016040528060608152602001606081525090565b604051632a2a7ca360e21b815260040160405180910390fd5b60405180606001604052806003906020820280368337509192915050565b60006020828403121561027357600080fd5b81356001600160e01b03198116811461028b57600080fd5b9392505050565b60608101818360005b60038110156102bd57815160ff1683526020928301929091019060010161029b565b50505092915050565b80356001600160a01b03811681146102dd57600080fd5b919050565b6000606082840312156102f457600080fd5b50919050565b6000806040838503121561030d57600080fd5b610316836102c6565b9150602083013567ffffffffffffffff81111561033257600080fd5b61033e858286016102e2565b9150509250929050565b600081516003811061036a57634e487b7160e01b600052602160045260246000fd5b8352506020818101516001600160a01b0390811691840191909152604080830151821690840152606080830151909116908301526080908101519082015260a00190565b6020808252825182820181905260009190848201906040850190845b818110156103eb576103dd838551610348565b9385019392506001016103ca565b50909695505050505050565b60008060006060848603121561040c57600080fd5b610415846102c6565b9250602084013561ffff8116811461042c57600080fd5b9150604084013567ffffffffffffffff81111561044857600080fd5b610454868287016102e2565b9150509250925092565b805160408084528151908401819052600091602091908201906060860190845b818110156104a35783516001600160a01b03168352928401929184019160010161047e565b50508483015186820387850152805180835290840192506000918401905b808310156104e6576104d4828551610348565b915084840193506001830192506104c1565b509695505050505050565b604081526000835180604084015260005b8181101561051f5760208187018101516060868401015201610502565b50600060608285010152601f19601f82011683019050606083820301602084015261054d606082018561045e565b95945050505050565b60008060006040848603121561056b57600080fd5b610574846102c6565b9250602084013567ffffffffffffffff8082111561059157600080fd5b818601915086601f8301126105a557600080fd5b8135818111156105b457600080fd5b8760208285010111156105c657600080fd5b6020830194508093505050509250925092565b6001600160a01b03831681526040602082018190526000906105fd9083018461045e565b94935050505056fea2646970667358221220c06417361f69cc484857b2580a67eb83c0012712de1ef12abb54cc14d54d1a6c64736f6c63430008110033","linkReferences":{}},"methodIdentifiers":{"implementation()":"5c60da1b","prepareInstallation(address,bytes)":"f10832f1","prepareUninstallation(address,(address,address[],bytes))":"9cb0a124","prepareUpdate(address,uint16,(address,address[],bytes))":"a8a9c29e","protocolVersion()":"2ae9c600","supportsInterface(bytes4)":"01ffc9a7"},"id":219}