{"abi":[{"type":"constructor","inputs":[{"name":"_dao","type":"address","internalType":"contract IDAO"}],"stateMutability":"nonpayable"},{"type":"function","name":"SET_TARGET_CONFIG_PERMISSION_ID","inputs":[],"outputs":[{"name":"","type":"bytes32","internalType":"bytes32"}],"stateMutability":"view"},{"type":"function","name":"dao","inputs":[],"outputs":[{"name":"","type":"address","internalType":"contract IDAO"}],"stateMutability":"view"},{"type":"function","name":"getCurrentTargetConfig","inputs":[],"outputs":[{"name":"","type":"tuple","internalType":"struct IPlugin.TargetConfig","components":[{"name":"target","type":"address","internalType":"address"},{"name":"operation","type":"uint8","internalType":"enum IPlugin.Operation"}]}],"stateMutability":"view"},{"type":"function","name":"getTargetConfig","inputs":[],"outputs":[{"name":"","type":"tuple","internalType":"struct IPlugin.TargetConfig","components":[{"name":"target","type":"address","internalType":"address"},{"name":"operation","type":"uint8","internalType":"enum IPlugin.Operation"}]}],"stateMutability":"view"},{"type":"function","name":"pluginType","inputs":[],"outputs":[{"name":"","type":"uint8","internalType":"enum IPlugin.PluginType"}],"stateMutability":"pure"},{"type":"function","name":"protocolVersion","inputs":[],"outputs":[{"name":"","type":"uint8[3]","internalType":"uint8[3]"}],"stateMutability":"pure"},{"type":"function","name":"setTargetConfig","inputs":[{"name":"_targetConfig","type":"tuple","internalType":"struct IPlugin.TargetConfig","components":[{"name":"target","type":"address","internalType":"address"},{"name":"operation","type":"uint8","internalType":"enum IPlugin.Operation"}]}],"outputs":[],"stateMutability":"nonpayable"},{"type":"function","name":"state1","inputs":[],"outputs":[{"name":"","type":"uint256","internalType":"uint256"}],"stateMutability":"view"},{"type":"function","name":"supportsInterface","inputs":[{"name":"_interfaceId","type":"bytes4","internalType":"bytes4"}],"outputs":[{"name":"","type":"bool","internalType":"bool"}],"stateMutability":"view"},{"type":"event","name":"TargetSet","inputs":[{"name":"newTargetConfig","type":"tuple","indexed":false,"internalType":"struct IPlugin.TargetConfig","components":[{"name":"target","type":"address","internalType":"address"},{"name":"operation","type":"uint8","internalType":"enum IPlugin.Operation"}]}],"anonymous":false},{"type":"error","name":"DaoUnauthorized","inputs":[{"name":"dao","type":"address","internalType":"address"},{"name":"where","type":"address","internalType":"address"},{"name":"who","type":"address","internalType":"address"},{"name":"permissionId","type":"bytes32","internalType":"bytes32"}]},{"type":"error","name":"DelegateCallFailed","inputs":[]},{"type":"error","name":"InvalidTargetConfig","inputs":[{"name":"targetConfig","type":"tuple","internalType":"struct IPlugin.TargetConfig","components":[{"name":"target","type":"address","internalType":"address"},{"name":"operation","type":"uint8","internalType":"enum IPlugin.Operation"}]}]}],"bytecode":{"object":"0x60a060405234801561001057600080fd5b5060405161090138038061090183398101604081905261002f91610044565b6001600160a01b031660805260018055610074565b60006020828403121561005657600080fd5b81516001600160a01b038116811461006d57600080fd5b9392505050565b60805161086561009c6000396000818160e201528181610247015261037c01526108656000f3fe608060405234801561001057600080fd5b50600436106100935760003560e01c80636accab8c116100665780636accab8c1461011b5780638cb7505914610132578063bb225da214610159578063c98425ee1461016e578063dd63c06f1461018357600080fd5b806301ffc9a7146100985780632ae9c600146100c05780634162169f146100d557806341de68301461010c575b600080fd5b6100ab6100a6366004610662565b61018b565b60405190151581526020015b60405180910390f35b6100c86101f7565b6040516100b7919061068c565b6040516001600160a01b037f00000000000000000000000000000000000000000000000000000000000000001681526020016100b7565b60026040516100b791906106d6565b61012460015481565b6040519081526020016100b7565b6101247f568cc693d84eb1901f8bcecba154cbdef23ca3cf67efc0a0b698528a06c660f781565b61016c6101673660046106f0565b610221565b005b61017661028c565b6040516100b79190610708565b6101766102f3565b60006001600160e01b0319821663041de68360e41b14806101bb57506001600160e01b03198216621574e360e91b145b806101d657506001600160e01b0319821663afc5b82360e01b145b806101f157506301ffc9a760e01b6001600160e01b03198316145b92915050565b6101ff610644565b5060408051606081018252600181526004602082015260009181019190915290565b7f568cc693d84eb1901f8bcecba154cbdef23ca3cf67efc0a0b698528a06c660f76102717f00000000000000000000000000000000000000000000000000000000000000003033846000366103b8565b6102886102833684900384018461073c565b610479565b5050565b604080518082019091526000808252602082015260408051808201909152600080546001600160a01b03811683526020830190600160a01b900460ff1660018111156102da576102da6106c0565b60018111156102eb576102eb6106c0565b905250919050565b604080518082019091526000808252602082015260408051808201909152600080546001600160a01b038116835290919082906020830190600160a01b900460ff166001811115610346576103466106c0565b6001811115610357576103576106c0565b90525080519091506001600160a01b03166103b357604051806040016040528061039e7f000000000000000000000000000000000000000000000000000000000000000090565b6001600160a01b031681526020016000905290505b919050565b604051637ef7c88360e11b81526001600160a01b0387169063fdef9106906103ec90889088908890889088906004016107b9565b602060405180830381865afa158015610409573d6000803e3d6000fd5b505050506040513d601f19601f8201168201806040525081019061042d919061080d565b61047157604051630cb6f8ed60e21b81526001600160a01b038088166004830152808716602483015285166044820152606481018490526084015b60405180910390fd5b505050505050565b8051610495906001600160a01b0316632a4f53ad60e11b610565565b80156104b657506001816020015160018111156104b4576104b46106c0565b145b156104d6578060405163266d0fb960e01b81526004016104689190610708565b8051600080546001600160a01b039092166001600160a01b031983168117825560208401518493909183916001600160a81b03191617600160a01b836001811115610523576105236106c0565b02179055509050507f88e879ae0d71faf3aa708f2978daccb99b95243615dc104835b8c5a21c884ae68160405161055a9190610708565b60405180910390a150565b600061057083610588565b8015610581575061058183836105bb565b9392505050565b600061059b826301ffc9a760e01b6105bb565b80156101f157506105b4826001600160e01b03196105bb565b1592915050565b604080516001600160e01b03198316602480830191909152825180830390910181526044909101909152602080820180516001600160e01b03166301ffc9a760e01b178152825160009392849283928392918391908a617530fa92503d9150600051905082801561062d575060208210155b80156106395750600081115b979650505050505050565b60405180606001604052806003906020820280368337509192915050565b60006020828403121561067457600080fd5b81356001600160e01b03198116811461058157600080fd5b60608101818360005b60038110156106b757815160ff16835260209283019290910190600101610695565b50505092915050565b634e487b7160e01b600052602160045260246000fd5b60208101600383106106ea576106ea6106c0565b91905290565b60006040828403121561070257600080fd5b50919050565b81516001600160a01b03168152602082015160408201906002811061072f5761072f6106c0565b8060208401525092915050565b60006040828403121561074e57600080fd5b6040516040810181811067ffffffffffffffff8211171561077f57634e487b7160e01b600052604160045260246000fd5b60405282356001600160a01b038116811461079957600080fd5b81526020830135600281106107ad57600080fd5b60208201529392505050565b6001600160a01b038681168252851660208201526040810184905260806060820181905281018290526000828460a0840137600060a0848401015260a0601f19601f85011683010190509695505050505050565b60006020828403121561081f57600080fd5b8151801515811461058157600080fdfea2646970667358221220e9711460ec327eecbc08b7720a02817bbd5f65572a4756e2dfb1bb08041bfc4c64736f6c63430008110033","linkReferences":{}},"methodIdentifiers":{"SET_TARGET_CONFIG_PERMISSION_ID()":"8cb75059","dao()":"4162169f","getCurrentTargetConfig()":"c98425ee","getTargetConfig()":"dd63c06f","pluginType()":"41de6830","protocolVersion()":"2ae9c600","setTargetConfig((address,uint8))":"bb225da2","state1()":"6accab8c","supportsInterface(bytes4)":"01ffc9a7"},"id":234}