{"abi":[{"type":"function","name":"isSubdomainValid","inputs":[{"name":"subdomain","type":"string","internalType":"string"}],"outputs":[{"name":"","type":"bool","internalType":"bool"}],"stateMutability":"pure"}],"bytecode":{"object":"0x608060405234801561001057600080fd5b506101fc806100206000396000f3fe608060405234801561001057600080fd5b506004361061002b5760003560e01c8063a6fe91aa14610030575b600080fd5b61004361003e366004610117565b610057565b604051901515815260200160405180910390f35b6000610063838361006c565b90505b92915050565b6000828280835b8181101561010a57600084848381811061008f5761008f610189565b919091013560f81c9150506060811180156100ad5750607b8160ff16105b156100b857506100f8565b602f8160ff161180156100ce5750603a8160ff16105b156100d957506100f8565b8060ff16602d036100ea57506100f8565b600095505050505050610066565b806101028161019f565b915050610073565b5060019695505050505050565b6000806020838503121561012a57600080fd5b823567ffffffffffffffff8082111561014257600080fd5b818501915085601f83011261015657600080fd5b81358181111561016557600080fd5b86602082850101111561017757600080fd5b60209290920196919550909350505050565b634e487b7160e01b600052603260045260246000fd5b6000600182016101bf57634e487b7160e01b600052601160045260246000fd5b506001019056fea264697066735822122006df977629483f10743395c86ba31ea011ad4fbefa0843f33caf08681b364a0864736f6c63430008110033","linkReferences":{}},"methodIdentifiers":{"isSubdomainValid(string)":"a6fe91aa"},"id":323}