{"abi":[{"type":"function","name":"fail","inputs":[],"outputs":[],"stateMutability":"pure"},{"type":"function","name":"setTest","inputs":[{"name":"newNum","type":"uint256","internalType":"uint256"}],"outputs":[{"name":"","type":"uint256","internalType":"uint256"}],"stateMutability":"nonpayable"}],"bytecode":{"object":"0x6080604052600a60005534801561001557600080fd5b5060f5806100246000396000f3fe6080604052348015600f57600080fd5b506004361060325760003560e01c80636ca1f933146037578063a9cc471814605c575b600080fd5b604a604236600460a7565b600081905590565b60405190815260200160405180910390f35b60626064565b005b60405162461bcd60e51b81526020600482015260146024820152731058dd1a5bdb915e1958dd5d194e94995d995c9d60621b604482015260640160405180910390fd5b60006020828403121560b857600080fd5b503591905056fea2646970667358221220523500466a00c8db0bab164f8776e2ac5e5151f19ceabb260b8c2e771f5faf4c64736f6c63430008110033","linkReferences":{}},"methodIdentifiers":{"fail()":"a9cc4718","setTest(uint256)":"6ca1f933"},"id":227}