{"abi":[{"type":"function","name":"ARBSYS","inputs":[],"outputs":[{"name":"","type":"address","internalType":"address"}],"stateMutability":"view"}],"bytecode":{"object":"0x6091610038600b82828239805160001a607314602b57634e487b7160e01b600052600060045260246000fd5b30600052607381538281f3fe730000000000000000000000000000000000000000301460806040526004361060335760003560e01c8063bf0a12cf146038575b600080fd5b603f606481565b6040516001600160a01b03909116815260200160405180910390f3fea2646970667358221220ff9cd93972c1121405c695d232ed9dd14569aec82037048dcc50ade82cb3cb7d64736f6c63430008110033","linkReferences":{}},"methodIdentifiers":{"ARBSYS()":"bf0a12cf"},"id":319}