{"abi":[{"type":"function","name":"DEFAULT_ADMIN_ROLE","inputs":[],"outputs":[{"name":"","type":"bytes32","internalType":"bytes32"}],"stateMutability":"view"},{"type":"function","name":"MINTER_ROLE","inputs":[],"outputs":[{"name":"","type":"bytes32","internalType":"bytes32"}],"stateMutability":"view"},{"type":"function","name":"PAUSER_ROLE","inputs":[],"outputs":[{"name":"","type":"bytes32","internalType":"bytes32"}],"stateMutability":"view"},{"type":"function","name":"allowance","inputs":[{"name":"owner","type":"address","internalType":"address"},{"name":"spender","type":"address","internalType":"address"}],"outputs":[{"name":"","type":"uint256","internalType":"uint256"}],"stateMutability":"view"},{"type":"function","name":"approve","inputs":[{"name":"spender","type":"address","internalType":"address"},{"name":"amount","type":"uint256","internalType":"uint256"}],"outputs":[{"name":"","type":"bool","internalType":"bool"}],"stateMutability":"nonpayable"},{"type":"function","name":"balanceOf","inputs":[{"name":"account","type":"address","internalType":"address"}],"outputs":[{"name":"","type":"uint256","internalType":"uint256"}],"stateMutability":"view"},{"type":"function","name":"burn","inputs":[{"name":"amount","type":"uint256","internalType":"uint256"}],"outputs":[],"stateMutability":"nonpayable"},{"type":"function","name":"burnFrom","inputs":[{"name":"account","type":"address","internalType":"address"},{"name":"amount","type":"uint256","internalType":"uint256"}],"outputs":[],"stateMutability":"nonpayable"},{"type":"function","name":"decimals","inputs":[],"outputs":[{"name":"","type":"uint8","internalType":"uint8"}],"stateMutability":"view"},{"type":"function","name":"decreaseAllowance","inputs":[{"name":"spender","type":"address","internalType":"address"},{"name":"subtractedValue","type":"uint256","internalType":"uint256"}],"outputs":[{"name":"","type":"bool","internalType":"bool"}],"stateMutability":"nonpayable"},{"type":"function","name":"getRoleAdmin","inputs":[{"name":"role","type":"bytes32","internalType":"bytes32"}],"outputs":[{"name":"","type":"bytes32","internalType":"bytes32"}],"stateMutability":"view"},{"type":"function","name":"getRoleMember","inputs":[{"name":"role","type":"bytes32","internalType":"bytes32"},{"name":"index","type":"uint256","internalType":"uint256"}],"outputs":[{"name":"","type":"address","internalType":"address"}],"stateMutability":"view"},{"type":"function","name":"getRoleMemberCount","inputs":[{"name":"role","type":"bytes32","internalType":"bytes32"}],"outputs":[{"name":"","type":"uint256","internalType":"uint256"}],"stateMutability":"view"},{"type":"function","name":"grantRole","inputs":[{"name":"role","type":"bytes32","internalType":"bytes32"},{"name":"account","type":"address","internalType":"address"}],"outputs":[],"stateMutability":"nonpayable"},{"type":"function","name":"hasRole","inputs":[{"name":"role","type":"bytes32","internalType":"bytes32"},{"name":"account","type":"address","internalType":"address"}],"outputs":[{"name":"","type":"bool","internalType":"bool"}],"stateMutability":"view"},{"type":"function","name":"increaseAllowance","inputs":[{"name":"spender","type":"address","internalType":"address"},{"name":"addedValue","type":"uint256","internalType":"uint256"}],"outputs":[{"name":"","type":"bool","internalType":"bool"}],"stateMutability":"nonpayable"},{"type":"function","name":"initialize","inputs":[{"name":"name","type":"string","internalType":"string"},{"name":"symbol","type":"string","internalType":"string"}],"outputs":[],"stateMutability":"nonpayable"},{"type":"function","name":"mint","inputs":[{"name":"to","type":"address","internalType":"address"},{"name":"amount","type":"uint256","internalType":"uint256"}],"outputs":[],"stateMutability":"nonpayable"},{"type":"function","name":"name","inputs":[],"outputs":[{"name":"","type":"string","internalType":"string"}],"stateMutability":"view"},{"type":"function","name":"pause","inputs":[],"outputs":[],"stateMutability":"nonpayable"},{"type":"function","name":"paused","inputs":[],"outputs":[{"name":"","type":"bool","internalType":"bool"}],"stateMutability":"view"},{"type":"function","name":"renounceRole","inputs":[{"name":"role","type":"bytes32","internalType":"bytes32"},{"name":"account","type":"address","internalType":"address"}],"outputs":[],"stateMutability":"nonpayable"},{"type":"function","name":"revokeRole","inputs":[{"name":"role","type":"bytes32","internalType":"bytes32"},{"name":"account","type":"address","internalType":"address"}],"outputs":[],"stateMutability":"nonpayable"},{"type":"function","name":"supportsInterface","inputs":[{"name":"interfaceId","type":"bytes4","internalType":"bytes4"}],"outputs":[{"name":"","type":"bool","internalType":"bool"}],"stateMutability":"view"},{"type":"function","name":"symbol","inputs":[],"outputs":[{"name":"","type":"string","internalType":"string"}],"stateMutability":"view"},{"type":"function","name":"totalSupply","inputs":[],"outputs":[{"name":"","type":"uint256","internalType":"uint256"}],"stateMutability":"view"},{"type":"function","name":"transfer","inputs":[{"name":"to","type":"address","internalType":"address"},{"name":"amount","type":"uint256","internalType":"uint256"}],"outputs":[{"name":"","type":"bool","internalType":"bool"}],"stateMutability":"nonpayable"},{"type":"function","name":"transferFrom","inputs":[{"name":"from","type":"address","internalType":"address"},{"name":"to","type":"address","internalType":"address"},{"name":"amount","type":"uint256","internalType":"uint256"}],"outputs":[{"name":"","type":"bool","internalType":"bool"}],"stateMutability":"nonpayable"},{"type":"function","name":"unpause","inputs":[],"outputs":[],"stateMutability":"nonpayable"},{"type":"event","name":"Approval","inputs":[{"name":"owner","type":"address","indexed":true,"internalType":"address"},{"name":"spender","type":"address","indexed":true,"internalType":"address"},{"name":"value","type":"uint256","indexed":false,"internalType":"uint256"}],"anonymous":false},{"type":"event","name":"Initialized","inputs":[{"name":"version","type":"uint8","indexed":false,"internalType":"uint8"}],"anonymous":false},{"type":"event","name":"Paused","inputs":[{"name":"account","type":"address","indexed":false,"internalType":"address"}],"anonymous":false},{"type":"event","name":"RoleAdminChanged","inputs":[{"name":"role","type":"bytes32","indexed":true,"internalType":"bytes32"},{"name":"previousAdminRole","type":"bytes32","indexed":true,"internalType":"bytes32"},{"name":"newAdminRole","type":"bytes32","indexed":true,"internalType":"bytes32"}],"anonymous":false},{"type":"event","name":"RoleGranted","inputs":[{"name":"role","type":"bytes32","indexed":true,"internalType":"bytes32"},{"name":"account","type":"address","indexed":true,"internalType":"address"},{"name":"sender","type":"address","indexed":true,"internalType":"address"}],"anonymous":false},{"type":"event","name":"RoleRevoked","inputs":[{"name":"role","type":"bytes32","indexed":true,"internalType":"bytes32"},{"name":"account","type":"address","indexed":true,"internalType":"address"},{"name":"sender","type":"address","indexed":true,"internalType":"address"}],"anonymous":false},{"type":"event","name":"Transfer","inputs":[{"name":"from","type":"address","indexed":true,"internalType":"address"},{"name":"to","type":"address","indexed":true,"internalType":"address"},{"name":"value","type":"uint256","indexed":false,"internalType":"uint256"}],"anonymous":false},{"type":"event","name":"Unpaused","inputs":[{"name":"account","type":"address","indexed":false,"internalType":"address"}],"anonymous":false}],"bytecode":{"object":"0x608060405234801561001057600080fd5b50611d33806100206000396000f3fe608060405234801561001057600080fd5b50600436106101cf5760003560e01c80635c975abb11610104578063a217fddf116100a2578063d539139311610071578063d5391393146103ce578063d547741f146103f5578063dd62ed3e14610408578063e63ab1e91461041b57600080fd5b8063a217fddf1461038d578063a457c2d714610395578063a9059cbb146103a8578063ca15c873146103bb57600080fd5b80638456cb59116100de5780638456cb591461033f5780639010d07c1461034757806391d148541461037257806395d89b411461038557600080fd5b80635c975abb146102f757806370a082311461030357806379cc67901461032c57600080fd5b8063313ce567116101715780633f4ba83a1161014b5780633f4ba83a146102b657806340c10f19146102be57806342966c68146102d15780634cd88b76146102e457600080fd5b8063313ce5671461028157806336568abe1461029057806339509351146102a357600080fd5b806318160ddd116101ad57806318160ddd1461022457806323b872dd14610236578063248a9ca3146102495780632f2ff15d1461026c57600080fd5b806301ffc9a7146101d457806306fdde03146101fc578063095ea7b314610211575b600080fd5b6101e76101e2366004611789565b610430565b60405190151581526020015b60405180910390f35b61020461045b565b6040516101f391906117d7565b6101e761021f366004611826565b6104ed565b60cb545b6040519081526020016101f3565b6101e7610244366004611850565b610505565b61022861025736600461188c565b60009081526065602052604090206001015490565b61027f61027a3660046118a5565b610529565b005b604051601281526020016101f3565b61027f61029e3660046118a5565b610553565b6101e76102b1366004611826565b6105d6565b61027f6105f8565b61027f6102cc366004611826565b61068c565b61027f6102df36600461188c565b61072b565b61027f6102f2366004611974565b610738565b61012d5460ff166101e7565b6102286103113660046119d8565b6001600160a01b0316600090815260c9602052604090205490565b61027f61033a366004611826565b61084c565b61027f610861565b61035a6103553660046119f3565b6108f3565b6040516001600160a01b0390911681526020016101f3565b6101e76103803660046118a5565b610912565b61020461093d565b610228600081565b6101e76103a3366004611826565b61094c565b6101e76103b6366004611826565b6109c7565b6102286103c936600461188c565b6109d5565b6102287f9f2df0fed2c77648de5860a4cc508cd0818c85b8b8a1ab4ceeef8d981c8956a681565b61027f6104033660046118a5565b6109ec565b610228610416366004611a15565b610a11565b610228600080516020611cde83398151915281565b60006001600160e01b03198216635a05180f60e01b1480610455575061045582610a3c565b92915050565b606060cc805461046a90611a3f565b80601f016020809104026020016040519081016040528092919081815260200182805461049690611a3f565b80156104e35780601f106104b8576101008083540402835291602001916104e3565b820191906000526020600020905b8154815290600101906020018083116104c657829003601f168201915b5050505050905090565b6000336104fb818585610a71565b5060019392505050565b600033610513858285610b95565b61051e858585610c0f565b506001949350505050565b60008281526065602052604090206001015461054481610dc5565b61054e8383610dcf565b505050565b6001600160a01b03811633146105c85760405162461bcd60e51b815260206004820152602f60248201527f416363657373436f6e74726f6c3a2063616e206f6e6c792072656e6f756e636560448201526e103937b632b9903337b91039b2b63360891b60648201526084015b60405180910390fd5b6105d28282610df1565b5050565b6000336104fb8185856105e98383610a11565b6105f39190611a8f565b610a71565b610610600080516020611cde83398151915233610912565b6106825760405162461bcd60e51b815260206004820152603960248201527f45524332305072657365744d696e7465725061757365723a206d75737420686160448201527f76652070617573657220726f6c6520746f20756e70617573650000000000000060648201526084016105bf565b61068a610e13565b565b6106b67f9f2df0fed2c77648de5860a4cc508cd0818c85b8b8a1ab4ceeef8d981c8956a633610912565b6107215760405162461bcd60e51b815260206004820152603660248201527f45524332305072657365744d696e7465725061757365723a206d7573742068616044820152751d99481b5a5b9d195c881c9bdb19481d1bc81b5a5b9d60521b60648201526084016105bf565b6105d28282610e66565b6107353382610f33565b50565b600054610100900460ff16158080156107585750600054600160ff909116105b806107725750303b158015610772575060005460ff166001145b6107d55760405162461bcd60e51b815260206004820152602e60248201527f496e697469616c697a61626c653a20636f6e747261637420697320616c72656160448201526d191e481a5b9a5d1a585b1a5e995960921b60648201526084016105bf565b6000805460ff1916600117905580156107f8576000805461ff0019166101001790555b6108028383611073565b801561054e576000805461ff0019169055604051600181527f7f26b83ff96e1f2b6a682f133852f6798a09c465da95921460cefb38474024989060200160405180910390a1505050565b610857823383610b95565b6105d28282610f33565b610879600080516020611cde83398151915233610912565b6108eb5760405162461bcd60e51b815260206004820152603760248201527f45524332305072657365744d696e7465725061757365723a206d75737420686160448201527f76652070617573657220726f6c6520746f20706175736500000000000000000060648201526084016105bf565b61068a6110b6565b600082815260976020526040812061090b90836110f4565b9392505050565b60009182526065602090815260408084206001600160a01b0393909316845291905290205460ff1690565b606060cd805461046a90611a3f565b6000338161095a8286610a11565b9050838110156109ba5760405162461bcd60e51b815260206004820152602560248201527f45524332303a2064656372656173656420616c6c6f77616e63652062656c6f77604482015264207a65726f60d81b60648201526084016105bf565b61051e8286868403610a71565b6000336104fb818585610c0f565b600081815260976020526040812061045590611100565b600082815260656020526040902060010154610a0781610dc5565b61054e8383610df1565b6001600160a01b03918216600090815260ca6020908152604080832093909416825291909152205490565b60006001600160e01b03198216637965db0b60e01b148061045557506301ffc9a760e01b6001600160e01b0319831614610455565b6001600160a01b038316610ad35760405162461bcd60e51b8152602060048201526024808201527f45524332303a20617070726f76652066726f6d20746865207a65726f206164646044820152637265737360e01b60648201526084016105bf565b6001600160a01b038216610b345760405162461bcd60e51b815260206004820152602260248201527f45524332303a20617070726f766520746f20746865207a65726f206164647265604482015261737360f01b60648201526084016105bf565b6001600160a01b03838116600081815260ca602090815260408083209487168084529482529182902085905590518481527f8c5be1e5ebec7d5bd14f71427d1e84f3dd0314c0f7b2291e5b200ac8c7c3b925910160405180910390a3505050565b6000610ba18484610a11565b90506000198114610c095781811015610bfc5760405162461bcd60e51b815260206004820152601d60248201527f45524332303a20696e73756666696369656e7420616c6c6f77616e636500000060448201526064016105bf565b610c098484848403610a71565b50505050565b6001600160a01b038316610c735760405162461bcd60e51b815260206004820152602560248201527f45524332303a207472616e736665722066726f6d20746865207a65726f206164604482015264647265737360d81b60648201526084016105bf565b6001600160a01b038216610cd55760405162461bcd60e51b815260206004820152602360248201527f45524332303a207472616e7366657220746f20746865207a65726f206164647260448201526265737360e81b60648201526084016105bf565b610ce083838361110a565b6001600160a01b038316600090815260c9602052604090205481811015610d585760405162461bcd60e51b815260206004820152602660248201527f45524332303a207472616e7366657220616d6f756e7420657863656564732062604482015265616c616e636560d01b60648201526084016105bf565b6001600160a01b03808516600081815260c9602052604080822086860390559286168082529083902080548601905591517fddf252ad1be2c89b69c2b068fc378daa952ba7f163c4a11628f55a4df523b3ef90610db89086815260200190565b60405180910390a3610c09565b6107358133611115565b610dd9828261116e565b600082815260976020526040902061054e90826111f4565b610dfb8282611209565b600082815260976020526040902061054e9082611270565b610e1b611285565b61012d805460ff191690557f5db9ee0a495bf2e6ff9c91a7834c1ba4fdd244a5e8aa4e537bd38aeae4b073aa335b6040516001600160a01b03909116815260200160405180910390a1565b6001600160a01b038216610ebc5760405162461bcd60e51b815260206004820152601f60248201527f45524332303a206d696e7420746f20746865207a65726f20616464726573730060448201526064016105bf565b610ec86000838361110a565b8060cb6000828254610eda9190611a8f565b90915550506001600160a01b038216600081815260c960209081526040808320805486019055518481527fddf252ad1be2c89b69c2b068fc378daa952ba7f163c4a11628f55a4df523b3ef910160405180910390a35050565b6001600160a01b038216610f935760405162461bcd60e51b815260206004820152602160248201527f45524332303a206275726e2066726f6d20746865207a65726f206164647265736044820152607360f81b60648201526084016105bf565b610f9f8260008361110a565b6001600160a01b038216600090815260c96020526040902054818110156110135760405162461bcd60e51b815260206004820152602260248201527f45524332303a206275726e20616d6f756e7420657863656564732062616c616e604482015261636560f01b60648201526084016105bf565b6001600160a01b038316600081815260c960209081526040808320868603905560cb80548790039055518581529192917fddf252ad1be2c89b69c2b068fc378daa952ba7f163c4a11628f55a4df523b3ef910160405180910390a3505050565b600054610100900460ff1661109a5760405162461bcd60e51b81526004016105bf90611aa2565b6110a482826112cf565b6110ac61130f565b6105d28282611343565b6110be6113b7565b61012d805460ff191660011790557f62e78cea01bee320cd4e420270b5ea74000d11b0c9f74754ebdbfc544b05a258610e493390565b600061090b83836113fe565b6000610455825490565b61054e838383611428565b61111f8282610912565b6105d25761112c8161148f565b6111378360206114a1565b604051602001611148929190611aed565b60408051601f198184030181529082905262461bcd60e51b82526105bf916004016117d7565b6111788282610912565b6105d25760008281526065602090815260408083206001600160a01b03851684529091529020805460ff191660011790556111b03390565b6001600160a01b0316816001600160a01b0316837f2f8788117e7eff1d82e926ec794901d17c78024a50270940304540a733656f0d60405160405180910390a45050565b600061090b836001600160a01b03841661163d565b6112138282610912565b156105d25760008281526065602090815260408083206001600160a01b0385168085529252808320805460ff1916905551339285917ff6391f5c32d9c69d2a47ea670b442974b53935d1edc7fd64eb21e047a839171b9190a45050565b600061090b836001600160a01b03841661168c565b61012d5460ff1661068a5760405162461bcd60e51b815260206004820152601460248201527314185d5cd8589b194e881b9bdd081c185d5cd95960621b60448201526064016105bf565b600054610100900460ff166112f65760405162461bcd60e51b81526004016105bf90611aa2565b60cc6113028382611bb0565b5060cd61054e8282611bb0565b600054610100900460ff166113365760405162461bcd60e51b81526004016105bf90611aa2565b61012d805460ff19169055565b600054610100900460ff1661136a5760405162461bcd60e51b81526004016105bf90611aa2565b61137560003361177f565b61139f7f9f2df0fed2c77648de5860a4cc508cd0818c85b8b8a1ab4ceeef8d981c8956a63361177f565b6105d2600080516020611cde8339815191523361177f565b61012d5460ff161561068a5760405162461bcd60e51b815260206004820152601060248201526f14185d5cd8589b194e881c185d5cd95960821b60448201526064016105bf565b600082600001828154811061141557611415611c70565b9060005260206000200154905092915050565b61012d5460ff161561054e5760405162461bcd60e51b815260206004820152602a60248201527f45524332305061757361626c653a20746f6b656e207472616e736665722077686044820152691a5b19481c185d5cd95960b21b60648201526084016105bf565b60606104556001600160a01b03831660145b606060006114b0836002611c86565b6114bb906002611a8f565b67ffffffffffffffff8111156114d3576114d36118d1565b6040519080825280601f01601f1916602001820160405280156114fd576020820181803683370190505b509050600360fc1b8160008151811061151857611518611c70565b60200101906001600160f81b031916908160001a905350600f60fb1b8160018151811061154757611547611c70565b60200101906001600160f81b031916908160001a905350600061156b846002611c86565b611576906001611a8f565b90505b60018111156115ee576f181899199a1a9b1b9c1cb0b131b232b360811b85600f16601081106115aa576115aa611c70565b1a60f81b8282815181106115c0576115c0611c70565b60200101906001600160f81b031916908160001a90535060049490941c936115e781611c9d565b9050611579565b50831561090b5760405162461bcd60e51b815260206004820181905260248201527f537472696e67733a20686578206c656e67746820696e73756666696369656e7460448201526064016105bf565b600081815260018301602052604081205461168457508154600181810184556000848152602080822090930184905584548482528286019093526040902091909155610455565b506000610455565b600081815260018301602052604081205480156117755760006116b0600183611cb4565b85549091506000906116c490600190611cb4565b90508181146117295760008660000182815481106116e4576116e4611c70565b906000526020600020015490508087600001848154811061170757611707611c70565b6000918252602080832090910192909255918252600188019052604090208390555b855486908061173a5761173a611cc7565b600190038181906000526020600020016000905590558560010160008681526020019081526020016000206000905560019350505050610455565b6000915050610455565b6105d28282610dcf565b60006020828403121561179b57600080fd5b81356001600160e01b03198116811461090b57600080fd5b60005b838110156117ce5781810151838201526020016117b6565b50506000910152565b60208152600082518060208401526117f68160408501602087016117b3565b601f01601f19169190910160400192915050565b80356001600160a01b038116811461182157600080fd5b919050565b6000806040838503121561183957600080fd5b6118428361180a565b946020939093013593505050565b60008060006060848603121561186557600080fd5b61186e8461180a565b925061187c6020850161180a565b9150604084013590509250925092565b60006020828403121561189e57600080fd5b5035919050565b600080604083850312156118b857600080fd5b823591506118c86020840161180a565b90509250929050565b634e487b7160e01b600052604160045260246000fd5b600082601f8301126118f857600080fd5b813567ffffffffffffffff80821115611913576119136118d1565b604051601f8301601f19908116603f0116810190828211818310171561193b5761193b6118d1565b8160405283815286602085880101111561195457600080fd5b836020870160208301376000602085830101528094505050505092915050565b6000806040838503121561198757600080fd5b823567ffffffffffffffff8082111561199f57600080fd5b6119ab868387016118e7565b935060208501359150808211156119c157600080fd5b506119ce858286016118e7565b9150509250929050565b6000602082840312156119ea57600080fd5b61090b8261180a565b60008060408385031215611a0657600080fd5b50508035926020909101359150565b60008060408385031215611a2857600080fd5b611a318361180a565b91506118c86020840161180a565b600181811c90821680611a5357607f821691505b602082108103611a7357634e487b7160e01b600052602260045260246000fd5b50919050565b634e487b7160e01b600052601160045260246000fd5b8082018082111561045557610455611a79565b6020808252602b908201527f496e697469616c697a61626c653a20636f6e7472616374206973206e6f74206960408201526a6e697469616c697a696e6760a81b606082015260800190565b7f416363657373436f6e74726f6c3a206163636f756e7420000000000000000000815260008351611b258160178501602088016117b3565b7001034b99036b4b9b9b4b733903937b6329607d1b6017918401918201528351611b568160288401602088016117b3565b01602801949350505050565b601f82111561054e57600081815260208120601f850160051c81016020861015611b895750805b601f850160051c820191505b81811015611ba857828155600101611b95565b505050505050565b815167ffffffffffffffff811115611bca57611bca6118d1565b611bde81611bd88454611a3f565b84611b62565b602080601f831160018114611c135760008415611bfb5750858301515b600019600386901b1c1916600185901b178555611ba8565b600085815260208120601f198616915b82811015611c4257888601518255948401946001909101908401611c23565b5085821015611c605787850151600019600388901b60f8161c191681555b5050505050600190811b01905550565b634e487b7160e01b600052603260045260246000fd5b808202811582820484141761045557610455611a79565b600081611cac57611cac611a79565b506000190190565b8181038181111561045557610455611a79565b634e487b7160e01b600052603160045260246000fdfe65d7a28e3265b37a6474929f336521b332c1681b933f6cb9f3376673440d862aa26469706673582212208b0171a8bd68b7ed4a424d78e304400c72ec9db1019b117c7f726c83f60e42bf64736f6c63430008110033","linkReferences":{}},"methodIdentifiers":{"DEFAULT_ADMIN_ROLE()":"a217fddf","MINTER_ROLE()":"d5391393","PAUSER_ROLE()":"e63ab1e9","allowance(address,address)":"dd62ed3e","approve(address,uint256)":"095ea7b3","balanceOf(address)":"70a08231","burn(uint256)":"42966c68","burnFrom(address,uint256)":"79cc6790","decimals()":"313ce567","decreaseAllowance(address,uint256)":"a457c2d7","getRoleAdmin(bytes32)":"248a9ca3","getRoleMember(bytes32,uint256)":"9010d07c","getRoleMemberCount(bytes32)":"ca15c873","grantRole(bytes32,address)":"2f2ff15d","hasRole(bytes32,address)":"91d14854","increaseAllowance(address,uint256)":"39509351","initialize(string,string)":"4cd88b76","mint(address,uint256)":"40c10f19","name()":"06fdde03","pause()":"8456cb59","paused()":"5c975abb","renounceRole(bytes32,address)":"36568abe","revokeRole(bytes32,address)":"d547741f","supportsInterface(bytes4)":"01ffc9a7","symbol()":"95d89b41","totalSupply()":"18160ddd","transfer(address,uint256)":"a9059cbb","transferFrom(address,address,uint256)":"23b872dd","unpause()":"3f4ba83a"},"id":407}