{"abi":[{"type":"function","name":"execute","inputs":[{"name":"req","type":"tuple","internalType":"struct MinimalForwarderUpgradeable.ForwardRequest","components":[{"name":"from","type":"address","internalType":"address"},{"name":"to","type":"address","internalType":"address"},{"name":"value","type":"uint256","internalType":"uint256"},{"name":"gas","type":"uint256","internalType":"uint256"},{"name":"nonce","type":"uint256","internalType":"uint256"},{"name":"data","type":"bytes","internalType":"bytes"}]},{"name":"signature","type":"bytes","internalType":"bytes"}],"outputs":[{"name":"","type":"bool","internalType":"bool"},{"name":"","type":"bytes","internalType":"bytes"}],"stateMutability":"payable"},{"type":"function","name":"getNonce","inputs":[{"name":"from","type":"address","internalType":"address"}],"outputs":[{"name":"","type":"uint256","internalType":"uint256"}],"stateMutability":"view"},{"type":"function","name":"verify","inputs":[{"name":"req","type":"tuple","internalType":"struct MinimalForwarderUpgradeable.ForwardRequest","components":[{"name":"from","type":"address","internalType":"address"},{"name":"to","type":"address","internalType":"address"},{"name":"value","type":"uint256","internalType":"uint256"},{"name":"gas","type":"uint256","internalType":"uint256"},{"name":"nonce","type":"uint256","internalType":"uint256"},{"name":"data","type":"bytes","internalType":"bytes"}]},{"name":"signature","type":"bytes","internalType":"bytes"}],"outputs":[{"name":"","type":"bool","internalType":"bool"}],"stateMutability":"view"},{"type":"event","name":"Initialized","inputs":[{"name":"version","type":"uint8","indexed":false,"internalType":"uint8"}],"anonymous":false}],"bytecode":{"object":"0x608060405234801561001057600080fd5b50610991806100206000396000f3fe6080604052600436106100345760003560e01c80632d0335ab1461003957806347153f8214610082578063bf5d3bdb146100a3575b600080fd5b34801561004557600080fd5b5061006f61005436600461073a565b6001600160a01b031660009081526035602052604090205490565b6040519081526020015b60405180910390f35b61009561009036600461076a565b6100d3565b60405161007992919061082d565b3480156100af57600080fd5b506100c36100be36600461076a565b61026d565b6040519015158152602001610079565b600060606100e285858561026d565b61014e5760405162461bcd60e51b815260206004820152603260248201527f4d696e696d616c466f727761726465723a207369676e617475726520646f6573604482015271081b9bdd081b585d18da081c995c5d595cdd60721b60648201526084015b60405180910390fd5b61015d60808601356001610869565b6035600061016e602089018961073a565b6001600160a01b03166001600160a01b03168152602001908152602001600020819055506000808660200160208101906101a8919061073a565b6001600160a01b0316606088013560408901356101c860a08b018b61088a565b6101d560208d018d61073a565b6040516020016101e7939291906108d1565b60408051601f1981840301815290829052610201916108f7565b600060405180830381858888f193505050503d806000811461023f576040519150601f19603f3d011682016040523d82523d6000602084013e610244565b606091505b509092509050610259603f6060890135610913565b5a1161026157fe5b90969095509350505050565b60008061038084848080601f01602080910402602001604051908101604052809392919081815260200183838082843760009201919091525061037a92507fdd8f4b70b0f4393e889bd39128a30628a78b61816a9eb8199759e7a349657e4891506102dd905060208a018a61073a565b6102ed60408b0160208c0161073a565b60408b013560608c013560808d013561030960a08f018f61088a565b604051610317929190610935565b6040805191829003822060208301989098526001600160a01b0396871690820152949093166060850152608084019190915260a083015260c082015260e081019190915261010001604051602081830303815290604052805190602001206103ec565b90610440565b9050608085013560356000610398602089018961073a565b6001600160a01b03166001600160a01b03168152602001908152602001600020541480156103e357506103ce602086018661073a565b6001600160a01b0316816001600160a01b0316145b95945050505050565b600061043a6103f9610464565b8360405161190160f01b6020820152602281018390526042810182905260009060620160405160208183030381529060405280519060200120905092915050565b92915050565b600080600061044f85856104e4565b9150915061045c81610529565b509392505050565b60006104df7f8b73c3c69bb8fe3d512ecc4cf759cc79239f7b179b0ffacaa9a75d522b39400f61049360015490565b6002546040805160208101859052908101839052606081018290524660808201523060a082015260009060c0016040516020818303038152906040528051906020012090509392505050565b905090565b600080825160410361051a5760208301516040840151606085015160001a61050e87828585610676565b94509450505050610522565b506000905060025b9250929050565b600081600481111561053d5761053d610945565b036105455750565b600181600481111561055957610559610945565b036105a65760405162461bcd60e51b815260206004820152601860248201527f45434453413a20696e76616c6964207369676e617475726500000000000000006044820152606401610145565b60028160048111156105ba576105ba610945565b036106075760405162461bcd60e51b815260206004820152601f60248201527f45434453413a20696e76616c6964207369676e6174757265206c656e677468006044820152606401610145565b600381600481111561061b5761061b610945565b036106735760405162461bcd60e51b815260206004820152602260248201527f45434453413a20696e76616c6964207369676e6174757265202773272076616c604482015261756560f01b6064820152608401610145565b50565b6000807f7fffffffffffffffffffffffffffffff5d576e7357a4501ddfe92f46681b20a08311156106ad5750600090506003610731565b6040805160008082526020820180845289905260ff881692820192909252606081018690526080810185905260019060a0016020604051602081039080840390855afa158015610701573d6000803e3d6000fd5b5050604051601f1901519150506001600160a01b03811661072a57600060019250925050610731565b9150600090505b94509492505050565b60006020828403121561074c57600080fd5b81356001600160a01b038116811461076357600080fd5b9392505050565b60008060006040848603121561077f57600080fd5b833567ffffffffffffffff8082111561079757600080fd5b9085019060c082880312156107ab57600080fd5b909350602085013590808211156107c157600080fd5b818601915086601f8301126107d557600080fd5b8135818111156107e457600080fd5b8760208285010111156107f657600080fd5b6020830194508093505050509250925092565b60005b8381101561082457818101518382015260200161080c565b50506000910152565b82151581526040602082015260008251806040840152610854816060850160208701610809565b601f01601f1916919091016060019392505050565b8082018082111561043a57634e487b7160e01b600052601160045260246000fd5b6000808335601e198436030181126108a157600080fd5b83018035915067ffffffffffffffff8211156108bc57600080fd5b60200191503681900382131561052257600080fd5b8284823760609190911b6bffffffffffffffffffffffff19169101908152601401919050565b60008251610909818460208701610809565b9190910192915050565b60008261093057634e487b7160e01b600052601260045260246000fd5b500490565b8183823760009101908152919050565b634e487b7160e01b600052602160045260246000fdfea2646970667358221220dad366637eda4fbcbd051556368ed9f943752b94c28b119492a360acdd2c41ac64736f6c63430008110033","linkReferences":{}},"methodIdentifiers":{"execute((address,address,uint256,uint256,uint256,bytes),bytes)":"47153f82","getNonce(address)":"2d0335ab","verify((address,address,uint256,uint256,uint256,bytes),bytes)":"bf5d3bdb"},"id":372}