{"abi":[{"type":"function","name":"REGISTER_PERMISSION_ID","inputs":[],"outputs":[{"name":"","type":"bytes32","internalType":"bytes32"}],"stateMutability":"view"},{"type":"function","name":"UPGRADE_REGISTRY_PERMISSION_ID","inputs":[],"outputs":[{"name":"","type":"bytes32","internalType":"bytes32"}],"stateMutability":"view"},{"type":"function","name":"dao","inputs":[],"outputs":[{"name":"","type":"address","internalType":"contract IDAO"}],"stateMutability":"view"},{"type":"function","name":"entries","inputs":[{"name":"","type":"address","internalType":"address"}],"outputs":[{"name":"","type":"bool","internalType":"bool"}],"stateMutability":"view"},{"type":"function","name":"initialize","inputs":[{"name":"_dao","type":"address","internalType":"contract IDAO"},{"name":"targetInterface","type":"bytes4","internalType":"bytes4"}],"outputs":[],"stateMutability":"nonpayable"},{"type":"function","name":"proxiableUUID","inputs":[],"outputs":[{"name":"","type":"bytes32","internalType":"bytes32"}],"stateMutability":"view"},{"type":"function","name":"register","inputs":[{"name":"registrant","type":"address","internalType":"address"}],"outputs":[],"stateMutability":"nonpayable"},{"type":"function","name":"targetInterfaceId","inputs":[],"outputs":[{"name":"","type":"bytes4","internalType":"bytes4"}],"stateMutability":"view"},{"type":"function","name":"upgradeTo","inputs":[{"name":"newImplementation","type":"address","internalType":"address"}],"outputs":[],"stateMutability":"nonpayable"},{"type":"function","name":"upgradeToAndCall","inputs":[{"name":"newImplementation","type":"address","internalType":"address"},{"name":"data","type":"bytes","internalType":"bytes"}],"outputs":[],"stateMutability":"payable"},{"type":"event","name":"AdminChanged","inputs":[{"name":"previousAdmin","type":"address","indexed":false,"internalType":"address"},{"name":"newAdmin","type":"address","indexed":false,"internalType":"address"}],"anonymous":false},{"type":"event","name":"BeaconUpgraded","inputs":[{"name":"beacon","type":"address","indexed":true,"internalType":"address"}],"anonymous":false},{"type":"event","name":"Initialized","inputs":[{"name":"version","type":"uint8","indexed":false,"internalType":"uint8"}],"anonymous":false},{"type":"event","name":"Registered","inputs":[{"name":"","type":"address","indexed":false,"internalType":"address"}],"anonymous":false},{"type":"event","name":"Upgraded","inputs":[{"name":"implementation","type":"address","indexed":true,"internalType":"address"}],"anonymous":false},{"type":"error","name":"ContractAlreadyRegistered","inputs":[{"name":"registrant","type":"address","internalType":"address"}]},{"type":"error","name":"ContractERC165SupportInvalid","inputs":[{"name":"registrant","type":"address","internalType":"address"}]},{"type":"error","name":"ContractInterfaceInvalid","inputs":[{"name":"registrant","type":"address","internalType":"address"}]},{"type":"error","name":"DaoUnauthorized","inputs":[{"name":"dao","type":"address","internalType":"address"},{"name":"where","type":"address","internalType":"address"},{"name":"who","type":"address","internalType":"address"},{"name":"permissionId","type":"bytes32","internalType":"bytes32"}]}],"bytecode":{"object":"0x60a06040523060805234801561001457600080fd5b506080516110be61004c6000396000818161024001528181610289015281816104c401528181610504015261059701526110be6000f3fe6080604052600436106100915760003560e01c80634f1ef286116100595780634f1ef2861461015857806352d1902d1461016b57806374574eb71461018e578063f29ee125146101c2578063f2c59caf1461020257600080fd5b80633659cfe61461009657806339871111146100b85780634162169f146100d857806344162ef8146101055780634420e48614610138575b600080fd5b3480156100a257600080fd5b506100b66100b1366004610d1f565b610236565b005b3480156100c457600080fd5b506100b66100d3366004610d3c565b61031e565b3480156100e457600080fd5b506097546040516001600160a01b0390911681526020015b60405180910390f35b34801561011157600080fd5b5060c95461011f9060e01b81565b6040516001600160e01b031990911681526020016100fc565b34801561014457600080fd5b506100b6610153366004610d1f565b610433565b6100b6610166366004610d98565b6104ba565b34801561017757600080fd5b5061018061058a565b6040519081526020016100fc565b34801561019a57600080fd5b506101807f60b96ff9fb5f29153c29c1747515b8be4ee523d686cc6f453ec294b0afa7293281565b3480156101ce57600080fd5b506101f26101dd366004610d1f565b60ca6020526000908152604090205460ff1681565b60405190151581526020016100fc565b34801561020e57600080fd5b506101807fffb51f414ffad7ae6aa3ebe7a53cbd03087d492fd38b0f6cbaa8704085baac4581565b6001600160a01b037f00000000000000000000000000000000000000000000000000000000000000001630036102875760405162461bcd60e51b815260040161027e90610e5c565b60405180910390fd5b7f00000000000000000000000000000000000000000000000000000000000000006001600160a01b03166102d0600080516020611042833981519152546001600160a01b031690565b6001600160a01b0316146102f65760405162461bcd60e51b815260040161027e90610ea8565b6102ff8161063d565b6040805160008082526020820190925261031b91839190610676565b50565b600054610100900460ff161580801561033e5750600054600160ff909116105b806103585750303b158015610358575060005460ff166001145b6103bb5760405162461bcd60e51b815260206004820152602e60248201527f496e697469616c697a61626c653a20636f6e747261637420697320616c72656160448201526d191e481a5b9a5d1a585b1a5e995960921b606482015260840161027e565b6000805460ff1916600117905580156103de576000805461ff0019166101001790555b6103e883836107e1565b801561042e576000805461ff0019169055604051600181527f7f26b83ff96e1f2b6a682f133852f6798a09c465da95921460cefb38474024989060200160405180910390a15b505050565b6097547fffb51f414ffad7ae6aa3ebe7a53cbd03087d492fd38b0f6cbaa8704085baac4590610471906001600160a01b031630335b8460003661082b565b61047a826108e7565b6040516001600160a01b03831681527f2d3734a8e47ac8316e500ac231c90a6e1848ca2285f40d07eaa52005e4b3a0e99060200160405180910390a15050565b6001600160a01b037f00000000000000000000000000000000000000000000000000000000000000001630036105025760405162461bcd60e51b815260040161027e90610e5c565b7f00000000000000000000000000000000000000000000000000000000000000006001600160a01b031661054b600080516020611042833981519152546001600160a01b031690565b6001600160a01b0316146105715760405162461bcd60e51b815260040161027e90610ea8565b61057a8261063d565b61058682826001610676565b5050565b6000306001600160a01b037f0000000000000000000000000000000000000000000000000000000000000000161461062a5760405162461bcd60e51b815260206004820152603860248201527f555550535570677261646561626c653a206d757374206e6f742062652063616c60448201527f6c6564207468726f7567682064656c656761746563616c6c0000000000000000606482015260840161027e565b5060008051602061104283398151915290565b6097547f60b96ff9fb5f29153c29c1747515b8be4ee523d686cc6f453ec294b0afa7293290610586906001600160a01b03163033610468565b7f4910fdfa16fed3260ed0e7147f7cc6da11a60208b5b9406d12a635614ffd91435460ff16156106a95761042e83610992565b826001600160a01b03166352d1902d6040518163ffffffff1660e01b8152600401602060405180830381865afa925050508015610703575060408051601f3d908101601f1916820190925261070091810190610ef4565b60015b6107665760405162461bcd60e51b815260206004820152602e60248201527f45524331393637557067726164653a206e657720696d706c656d656e7461746960448201526d6f6e206973206e6f74205555505360901b606482015260840161027e565b60008051602061104283398151915281146107d55760405162461bcd60e51b815260206004820152602960248201527f45524331393637557067726164653a20756e737570706f727465642070726f786044820152681a58589b195555525160ba1b606482015260840161027e565b5061042e838383610a2e565b600054610100900460ff166108085760405162461bcd60e51b815260040161027e90610f0d565b61081182610a59565b60c9805463ffffffff191660e09290921c91909117905550565b604051637ef7c88360e11b81526001600160a01b0387169063fdef91069061085f9088908890889088908890600401610f58565b602060405180830381865afa15801561087c573d6000803e3d6000fd5b505050506040513d601f19601f820116820180604052508101906108a09190610fac565b6108df57604051630cb6f8ed60e21b81526001600160a01b0380881660048301528087166024830152851660448201526064810184905260840161027e565b505050505050565b6001600160a01b038116600090815260ca602052604090205460ff161561092c5760405163fdcce17f60e01b81526001600160a01b038216600482015260240161027e565b60c954610946906001600160a01b0383169060e01b610aa2565b61096e576040516338811e4560e11b81526001600160a01b038216600482015260240161027e565b6001600160a01b0316600090815260ca60205260409020805460ff19166001179055565b6001600160a01b0381163b6109ff5760405162461bcd60e51b815260206004820152602d60248201527f455243313936373a206e657720696d706c656d656e746174696f6e206973206e60448201526c1bdd08184818dbdb9d1c9858dd609a1b606482015260840161027e565b60008051602061104283398151915280546001600160a01b0319166001600160a01b0392909216919091179055565b610a3783610ac5565b600082511180610a445750805b1561042e57610a538383610b05565b50505050565b600054610100900460ff16610a805760405162461bcd60e51b815260040161027e90610f0d565b609780546001600160a01b0319166001600160a01b0392909216919091179055565b6000610aad83610b2a565b8015610abe5750610abe8383610b5e565b9392505050565b610ace81610992565b6040516001600160a01b038216907fbc7cd75a20ee27fd9adebab32041f755214dbc6bffa90cc0225b39da2e5c2d3b90600090a250565b6060610abe838360405180606001604052806027815260200161106260279139610be7565b6000610b3d826301ffc9a760e01b610b5e565b8015610b585750610b56826001600160e01b0319610b5e565b155b92915050565b604080516001600160e01b03198316602480830191909152825180830390910181526044909101909152602080820180516001600160e01b03166301ffc9a760e01b178152825160009392849283928392918391908a617530fa92503d91506000519050828015610bd0575060208210155b8015610bdc5750600081115b979650505050505050565b6060600080856001600160a01b031685604051610c049190610ff2565b600060405180830381855af49150503d8060008114610c3f576040519150601f19603f3d011682016040523d82523d6000602084013e610c44565b606091505b5091509150610c5586838387610c5f565b9695505050505050565b60608315610cce578251600003610cc7576001600160a01b0385163b610cc75760405162461bcd60e51b815260206004820152601d60248201527f416464726573733a2063616c6c20746f206e6f6e2d636f6e7472616374000000604482015260640161027e565b5081610cd8565b610cd88383610ce0565b949350505050565b815115610cf05781518083602001fd5b8060405162461bcd60e51b815260040161027e919061100e565b6001600160a01b038116811461031b57600080fd5b600060208284031215610d3157600080fd5b8135610abe81610d0a565b60008060408385031215610d4f57600080fd5b8235610d5a81610d0a565b915060208301356001600160e01b031981168114610d7757600080fd5b809150509250929050565b634e487b7160e01b600052604160045260246000fd5b60008060408385031215610dab57600080fd5b8235610db681610d0a565b9150602083013567ffffffffffffffff80821115610dd357600080fd5b818501915085601f830112610de757600080fd5b813581811115610df957610df9610d82565b604051601f8201601f19908116603f01168101908382118183101715610e2157610e21610d82565b81604052828152886020848701011115610e3a57600080fd5b8260208601602083013760006020848301015280955050505050509250929050565b6020808252602c908201527f46756e6374696f6e206d7573742062652063616c6c6564207468726f7567682060408201526b19195b1959d85d1958d85b1b60a21b606082015260800190565b6020808252602c908201527f46756e6374696f6e206d7573742062652063616c6c6564207468726f7567682060408201526b6163746976652070726f787960a01b606082015260800190565b600060208284031215610f0657600080fd5b5051919050565b6020808252602b908201527f496e697469616c697a61626c653a20636f6e7472616374206973206e6f74206960408201526a6e697469616c697a696e6760a81b606082015260800190565b6001600160a01b038681168252851660208201526040810184905260806060820181905281018290526000828460a0840137600060a0848401015260a0601f19601f85011683010190509695505050505050565b600060208284031215610fbe57600080fd5b81518015158114610abe57600080fd5b60005b83811015610fe9578181015183820152602001610fd1565b50506000910152565b60008251611004818460208701610fce565b9190910192915050565b602081526000825180602084015261102d816040850160208701610fce565b601f01601f1916919091016040019291505056fe360894a13ba1a3210667c828492db98dca3e2076cc3735a920a3ca505d382bbc416464726573733a206c6f772d6c6576656c2064656c65676174652063616c6c206661696c6564a26469706673582212206170522b0f32361b2915cb1e38d7ce4eb4ea57a0bfbc295e7912acbaaba4a93b64736f6c63430008110033","linkReferences":{}},"methodIdentifiers":{"REGISTER_PERMISSION_ID()":"f2c59caf","UPGRADE_REGISTRY_PERMISSION_ID()":"74574eb7","dao()":"4162169f","entries(address)":"f29ee125","initialize(address,bytes4)":"39871111","proxiableUUID()":"52d1902d","register(address)":"4420e486","targetInterfaceId()":"44162ef8","upgradeTo(address)":"3659cfe6","upgradeToAndCall(address,bytes)":"4f1ef286"},"id":241}